S01300002E2E2F4645485F526F626F742E7331391E
S32D0000C0000000002089070100E50A0100E50A0100E50A0100E50A0100E50A0100000000000000000000000000B1
S32D0000C02800000000E50A0100E50A010000000000E50A0100E50A0100E50A0100E50A0100E50A0100E50A01006A
S32D0000C050E50A0100E50A0100E50A0100E50A0100E50A0100E50A0100E50A0100E50A0100E50A0100E50A010062
S32D0000C078E50A0100E50A0100E50A0100E50A0100E50A0100E50A0100E50A0100E50A0100E50A0100E50A01003A
S32D0000C0A0E50A0100E50A0100E50A0100E50A0100E50A0100E50A0100E50A0100E50A0100E50A0100E50A010012
S32D0000C0C8E50A0100E50A0100E50A0100E50A0100E50A0100E50A0100E50A0100E50A0100E50A0100E50A0100EA
S32D0000C0F0E50A0100B5A40100E50A0100E50A0100E50A0100E50A0100E50A0100E50A0100E50A0100E50A010058
S32D0000C118E50A0100E50A0100E50A0100E50A0100E50A0100E50A0100E50A0100E50A0100E50A0100E50A010099
S32D0000C140E50A0100E50A0100E50A0100E50A01007D6D0100E50A0100E50A0100E50A0100E50A0100E50A010076
S32D0000C168E50A0100E50A0100E50A0100E50A0100E50A0100E50A0100E50A0100E50A0100E50A0100E50A010049
S32D0000C190E50A0100E50A0100E50A0100E16701003566010009670100350B0100B9680100E50A0100E50A010018
S32D0000C1B8E50A0100E50A0100E50A0100E50A0100E50A0100E50A0100E50A0100E50A0100E50A0100E50A0100F9
S32D0000C41081F0004102E000BF83F0004330B54FEA41044FEA430594EA050F08BF90EA020F1FBF54EA000C55EAC6
S32D0000C438020C7FEA645C7FEA655C00F0E2804FEA5454D4EB5555B8BF6D420CDD2C4480EA020281EA030382EA0F
S32D0000C460000083EA010180EA020281EA0303362D88BF30BD11F0004F4FEA01314FF4801C4CEA113102D0404263
S32D0000C48861EB410113F0004F4FEA03334CEA133302D0524263EB430394EA050F00F0A780A4F10104D5F1200E8A
S32D0000C4B00DDB02FA0EFC22FA05F2801841F1000103FA0EF2801843FA05F359410EE0A5F120050EF1200E012A2D
S32D0000C4D803FA0EFC28BF4CF0020C43FA05F3C01851EBE37101F0004507D54FF0000EDCF1000C7EEB00006EEB67
S32D0000C5000101B1F5801F1BD3B1F5001F0CD349085FEA30004FEA3C0C04F101044FEA445212F5800F80F09A8000
S32D0000C528BCF1004F08BF5FEA500C50F1000041EB045141EA050130BD5FEA4C0C404141EB010111F4801FA4F114
S32D0000C5500104E9D191F0000F04BF01460020B1FA81F308BF2033A3F10B03B3F120020CDA0C3208DD02F1140C87
S32D0000C578C2F10C0201FA0CF021FA02F10CE002F11402D8BFC2F1200C01FA02F120FA0CFCDCBF41EA0C019040B1
S32D0000C5A0E41AA2BF01EB0451294330BD6FEA04041F3C1CDA0C340EDC04F11404C4F1200220FA04F001FA02F3B6
S32D0000C5C840EA030021FA04F345EA030130BDC4F10C04C4F1200220FA02F001FA04F340EA0300294630BD21FAA8
S32D0000C5F004F0294630BD94F0000F83F4801306BF81F480110134013D4EE77FEA645C18BF7FEA655C29D094EA1C
S32D0000C618050F08BF90EA020F05D054EA000C04BF1946104630BD91EA030F1EBF0021002030BD5FEA545C05D1A3
S32D0000C6404000494128BF41F0004130BD14F580043CBF01F5801130BD01F0004545F0FE4141F470014FF0000031
S32D0000C66830BD7FEA645C1ABF194610467FEA655C1CBF0B46024650EA013406BF52EA033591EA030F41F40021D7
S32D0000C69030BD00BF90F0000F04BF0021704730B54FF4806404F132044FF000054FF0000150E700BF90F0000F66
S32D0000C6B804BF0021704730B54FF4806404F1320410F0004548BF40424FF000013EE700BF42004FEAE2014FEAF9
S32D0000C6E031014FEA02701FBF12F07F4393F07F4F81F06051704792F0000F14BF93F07F4F704730B54FF460741B
S32D0000C70801F0004521F0004120E700BF50EA010208BF704730B54FF000050AE050EA010208BF704730B511F046
S32D0000C730004502D5404261EB41014FF4806404F132045FEA915C3FF4DCAE4FF003025FEADC0C18BF03325FEAA0
S32D0000C758DC0C18BF033202EBDC02C2F1200300FA03FC20FA02F001FA03FE40EA0E0021FA02F11444C1E600BF19
S32D0000C78070B54FF0FF0C4CF4E06C1CEA11541DBF1CEA135594EA0C0F95EA0C0F00F0DEF82C4481EA030621EAF3
S32D0000C7A84C5123EA4C5350EA013518BF52EA033541F4801143F4801338D0A0FB02CE4FF00005E1FB02E506F05F
S32D0000C7D00042E0FB03E54FF00006E1FB03569CF0000F18BF4EF0010EA4F1FF04B6F5007F64F5407404D25FEA0F
S32D0000C7F84E0E6D4146EB060642EAC62141EA55514FEAC52040EA5E504FEACE2EB4F1FD0C88BFBCF5E06F1ED8D2
S32D0000C820BEF1004F08BF5FEA500E50F1000041EB045170BD06F0004646EA010140EA020081EA0301B4EB5C0487
S32D0000C848C2BFD4EB0C0541EA045170BD41F480114FF0000E013C00F3AB8014F1360FDEBF002001F0004170BDF0
S32D0000C870C4F10004203C35DA0C341BDC04F11404C4F1200500FA05F320FA04F001FA05F240EA020001F0004207
S32D0000C89821F0004110EBD37021FA04F642EB06015EEA430E08BF20EAD37070BDC4F10C04C4F1200500FA04F32F
S32D0000C8C020FA05F001FA04F240EA020001F0004110EBD37041F100015EEA430E08BF20EAD37070BDC4F12005C7
S32D0000C8E800FA05F24EEA020E20FA04F301FA05F243EA020321FA04F001F0004121FA04F220EA020000EBD37028
S32D0000C9105EEA430E08BF20EAD37070BD94F0000F0FD101F00046400041EB010111F4801F08BF013CF7D041EA6D
S32D0000C938060195F0000F18BF704703F00046520043EB030313F4801F08BF013DF7D043EA0603704794EA0C0FF1
S32D0000C9600CEA135518BF95EA0C0F0CD050EA410618BF52EA4306D1D181EA030101F000414FF0000070BD50EA38
S32D0000C988410606BF1046194652EA430619D094EA0C0F02D150EA013613D195EA0C0F05D152EA03361CBF10467B
S32D0000C9B019460AD181EA030101F0004141F0FE4141F470014FF0000070BD41F0FE4141F4780170BD70B54FF04D
S32D0000C9D8FF0C4CF4E06C1CEA11541DBF1CEA135594EA0C0F95EA0C0F00F0A7F8A4EB050481EA030E52EA03359B
S32D0000CA004FEA013100F088804FEA03334FF0805545EA131343EA12634FEA022245EA111545EA10654FEA002676
S32D0000CA280EF000419D4208BF964244F1FD0404F5407402D25B084FEA3202B61A65EB03055B084FEA32024FF461
S32D0000CA5080104FF4002CB6EB020E75EB030E22BFB61A754640EA0C005B084FEA3202B6EB020E75EB030E22BF22
S32D0000CA78B61A754640EA5C005B084FEA3202B6EB020E75EB030E22BFB61A754640EA9C005B084FEA3202B6EBEA
S32D0000CAA0020E75EB030E22BFB61A754640EADC0055EA060E18D04FEA051545EA16754FEA06164FEAC30343EAAC
S32D0000CAC852734FEAC2025FEA1C1CC0D111F4801F0BD141EA00014FF000004FF0004CB6E711F4801F04BF0143AE
S32D0000CAF00020B4F1FD0C88BFBCF5E06F3FF6AFAEB5EB030C04BFB6EB020C5FEA500C50F1000041EB045170BDBC
S32D0000CB180EF0004E4EEA113114EB5C04C2BFD4EB0C0541EA045170BD41F480114FF0000E013C90E645EA060EC3
S32D0000CB408DE60CEA135594EA0C0F08BF95EA0C0F3FF43BAF94EA0C0F0AD150EA01347FF434AF95EA0C0F7FF499
S32D0000CB6825AF104619462CE795EA0C0F06D152EA03353FF4FDAE1046194622E750EA410618BF52EA43067FF432
S32D0000CB90C5AE50EA41047FF40DAF52EA43057FF4EBAE12E74FF0FF3C06E000BF4FF0010C02E000BF4FF0010C75
S32D0000CBB84DF804CD4FEA410C7FEA6C5C4FEA430C18BF7FEA6C5C1BD001B050EA410C0CBF52EA430C91EA030FEC
S32D0000CBE002BF90EA020F0020704710F1000F91EA030F58BF994208BF90422CBFD8176FEAE37040F0010070476E
S32D0000CC084FEA410C7FEA6C5C02D150EA013C07D14FEA430C7FEA6C5CD6D152EA033CD3D05DF8040B704700BFCD
S32D0000CC308446104662468C461946634600E000BF01B5FFF7B7FF002848BF10F1000F01BD4DF808EDFFF7F4FF13
S32D0000CC580CBF012000205DF808FB00BF4DF808EDFFF7EAFF34BF012000205DF808FB00BF4DF808EDFFF7E0FF18
S32D0000CC8094BF012000205DF808FB00BF4DF808EDFFF7CEFF94BF012000205DF808FB00BF4DF808EDFFF7C4FF40
S32D0000CCA834BF012000205DF808FB00BF4FEA410212F5001215D211D56FF47873B3EB625212D94FEAC12343F0D6
S32D0000CCD0004343EA505311F0004F23FA02F018BF404270474FF00000704750EA013005D111F0004008BF6FF016
S32D0000CCF8004070474FF00000704700BF4A0011D212F5001211D20DD56FF47873B3EB62520ED44FEAC12343F085
S32D0000CD20004343EA505323FA02F070474FF00000704750EA013002D14FF0FF3070474FF0000070474FEA410241
S32D0000CD48B2F1E04324BFB3F5001CDCF1FE5C0DD901F0004C4FEAC0024CEA5070B2F1004F40EB830008BF20F09E
S32D0000CD700100704711F0804F21D113F13872BCBF01F00040704741F480114FEA5252C2F11802C2F1200C10FAB1
S32D0000CD980CF320FA02F018BF40F001004FEAC1234FEAD32303FA0CFC40EA0C0023FA02F34FEA4303CCE77FEA26
S32D0000CDC0625307D150EA01331EBF4FF0FE4040F44000704701F0004040F0FE4040F40000704700BF80F00040CC
S32D0000CDE802E000BF81F0004142001FBF5FEA410392EA030F7FEA226C7FEA236C6AD04FEA1262D2EB1363C1BF06
S32D0000CE10D218414048404140B8BF5B42192B88BF704710F0004F40F4000020F07F4018BF404211F0004F41F4FA
S32D0000CE38000121F07F4118BF494292EA030F3FD0A2F1010241FA03FC10EB0C00C3F1200301FA03F100F000432B
S32D0000CE6002D5494260EB4000B0F5000F13D3B0F1807F06D340084FEA310102F10102FE2A51D2B1F1004F40EB94
S32D0000CE88C25008BF20F0010040EA03007047490040EB000010F4000FA2F10102EDD1B0FA80FCACF1080CB2EB5F
S32D0000CEB00C0200FA0CF0AABF00EBC25052421843BCBFD0401843704792F0000F81F4000106BF80F400000132EB
S32D0000CED8013BB5E74FEA41037FEA226C18BF7FEA236C21D092EA030F04D092F0000F08BF0846704790EA010FD7
S32D0000CF001CBF0020704712F07F4F04D1400028BF40F00040704712F100723CBF00F50000704700F0004343F0DC
S32D0000CF28FE4040F4000070477FEA226216BF08467FEA23630146420206BF5FEA412390EA010F40F480007047C1
S32D0000CF504FF0000304E000BF10F0004348BF40425FEA000C08BF704743F0964301464FF000001CE050EA010264
S32D0000CF7808BF70474FF000030AE000BF50EA010208BF704711F0004302D5404261EB41015FEA010C02BF84465B
S32D0000CFA00146002043F0B64308BFA3F18053A3F50003BCFA8CF2083AA3EBC25310DB01FA02FC634400FA02FC6B
S32D0000CFC8C2F12002BCF1004F20FA02F243EB020008BF20F00100704702F1200201FA02FCC2F1200250EA4C0034
S32D0000CFF021FA02F243EB020008BF20EADC7070474FF0FF0C1CEAD0521EBF1CEAD15392EA0C0F93EA0C0F6FD019
S32D0000D0181A4480EA010C400218BF5FEA41211ED04FF0006343EA501043EA5111A0FB01310CF00040B1F5000FE7
S32D0000D0403EBF490041EAD3715B0040EA010062F17F02FD2A1DD8B3F1004F40EBC25008BF20F00100704790F058
S32D0000D068000F0CF0004C08BF49024CEA502040EA51207F3AC2BFD2F1FF0340EAC250704740F400004FF0000388
S32D0000D090013A5DDC12F1190FDCBF00F000407047C2F10002410021FA02F1C2F1200200FA02FC5FEA310040F1D5
S32D0000D0B8000053EA4C0308BF20EADC70704792F0000F00F0004C02BF400010F4000F013AF9D040EA0C0093F04C
S32D0000D0E0000F01F0004C02BF490011F4000F013BF9D041EA0C018FE70CEAD15392EA0C0F18BF93EA0C0F0AD00B
S32D0000D10830F0004C18BF31F0004CD8D180EA010000F00040704790F0000F17BF90F0004F084691F0000F91F0BB
S32D0000D130004F14D092EA0C0F01D142020FD193EA0C0F03D14B0218BF084608D180EA010000F0004040F0FE4051
S32D0000D15840F40000704740F0FE4040F4400070474FF0FF0C1CEAD0521EBF1CEAD15392EA0C0F93EA0C0F69D044
S32D0000D180A2EB030280EA010C49024FEA402037D04FF0805343EA111143EA10130CF000408B4238BF5B0042F14E
S32D0000D1A87D024FF4000C8B4224BF5B1A40EA0C00B3EB510F24BFA3EB510340EA5C00B3EB910F24BFA3EB9103A4
S32D0000D1D040EA9C00B3EBD10F24BFA3EBD10340EADC001B0118BF5FEA1C1CE0D1FD2A3FF650AF8B4240EBC25018
S32D0000D1F808BF20F0010070470CF0004C4CEA50207F32C2BFD2F1FF0340EAC250704740F400004FF00003013AF1
S32D0000D22037E792F0000F00F0004C02BF400010F4000F013AF9D040EA0C0093F0000F01F0004C02BF490011F4C9
S32D0000D248000F013BF9D041EA0C0195E70CEAD15392EA0C0F08D142027FF47DAF93EA0C0F7FF470AF084676E7AE
S32D0000D27093EA0C0F04D14B023FF44CAF08466EE730F0004C18BF31F0004CCAD130F000427FF45CAF31F0004376
S32D0000D2987FF43CAF5FE700BF4FF0FF3C06E000BF4FF0010C02E000BF4FF0010C4DF804CD4FEA40024FEA41039F
S32D0000D2C07FEA226C18BF7FEA236C11D001B052EA530C18BF90EA010F58BFB2EB030088BFC81738BF6FEAE1706E
S32D0000D2E818BF40F0010070477FEA226C02D15FEA402C05D17FEA236CE4D15FEA412CE1D05DF8040B704700BF16
S32D0000D310844608466146FFE70FB5FFF7C9FF002848BF10F1000F0FBD4DF808EDFFF7F4FF0CBF012000205DF839
S32D0000D33808FB00BF4DF808EDFFF7EAFF34BF012000205DF808FB00BF4DF808EDFFF7E0FF94BF012000205DF8A9
S32D0000D36008FB00BF4DF808EDFFF7D2FF94BF012000205DF808FB00BF4DF808EDFFF7C8FF34BF012000205DF8B1
S32D0000D38808FB00BF4FEA4002B2F1FE4F0FD34FF09E03B3EB12620DD94FEA002343F0004310F0004F23FA02F060
S32D0000D3B018BF404270474FF00000704712F1610F01D1420205D110F0004008BF6FF0004070474FF00000704797
S32D0000D3D880B582B000AF786039603868FFF7B8FD0346786819460DF03FFC0346184607F10807BD4680BD00BFE8
S32D0000D40080B483B000AF78607B6823F00043184607F10C07BD4680BC704700BF0000000080B582B000AF00F0B3
S32D0000D4281BFCD6E341F27C13C1F6FF731B78002B01D002F091FE01F001FF41F26D13C1F6FF731B78122B00F27C
S32D0000D450AC8301A252F823F0A5D4000025D7000047D7000063D7000075D7000093D70000AFD70000B9D70000E6
S32D0000D478D7D70000F3D700007DD90000B7D90000D3D9000011DA00007FDA00009BDA000027DB000045DB0000A1
S32D0000D4A087DB000001F0A8FD0346B3F57F0F14BF00230123DBB2002B00F082834FF05A033B6041F25C50C1F653
S32D0000D4C8FF704CF6BC21C0F201010DF005FB41F2D440C1F6FF704FF000010AF077FCFA4801F076FD41F25C5058
S32D0000D4F0C1F6FF704CF6D821C0F201010DF0F0FAF448F54902F068F90AE001F09BFE41F27C13C1F6FF731B7853
S32D0000D518002B01D002F020FE02F066F8034683F00103DBB2002BECD1EA4802F03DF941F25C50C1F6FF704CF6B3
S32D0000D540EC21C0F201010DF0CBFA3868FFF704FD03464FF001001946E14A02F0F9FA02E0E04802F025F94FF052
S32D0000D568010002F079F9034683F00103DBB2002BF2D1D84802F018F941F25C50C1F6FF704CF6F821C0F20101BE
S32D0000D5900DF0A6FACF4802F00BF90AE001F052FE41F27C13C1F6FF731B78002B01D002F0D7FD01F021FD034600
S32D0000D5B8002B14BF00230123DBB2002BEAD1BCA1D1E9000108F030FCC24802F0EDF801F00FFD4FF000004FF0F5
S32D0000D5E07E5101F5C00108F023FC4FF00100BC4902F056FAB2A1D1E9000108F019FCB74802F0D6F841F25C5040
S32D0000D608C1F6FF704CF61431C0F201010DF064FA41F25C50C1F6FF704CF62431C0F201010DF05AFAA94802F0B4
S32D0000D630BFF80AE001F006FE41F27C13C1F6FF731B78002B01D002F08BFD4FF0000002F007F9034683F0010351
S32D0000D658DBB2002BEAD1A148A14902F0B9F80AE001F0ECFD41F27C13C1F6FF731B78002B01D002F071FD01F02C
S32D0000D680B7FF034683F00103DBB2002BECD1934802F08EF83B68A3F105031846FFF75CFC03464FF0000019466C
S32D0000D6A88D4A02F051FA8D488E4902F091F80AE001F0C4FD41F27C13C1F6FF731B78002B01D002F049FD01F0DA
S32D0000D6D08FFF034683F00103DBB2002BECD17F4802F066F83B6803F105031846FFF734FC03464FF00000194648
S32D0000D6F8794A02F029FA754802F056F870A1D1E9000108F091FB734802F04EF8714801F05FFC4FF0120001F0A5
S32D0000D720C1FB4DE241F2A813C1F6FF7393E8030002F0A2FB4FF0020001F0B4FB4FF0010001F01EFC49E201F084
S32D0000D74853FF0346002B00F03982624802F02CF84FF0030001F0A2FB30E24FF0040001F09DFB4FF0010001F0A3
S32D0000D77007FC32E241F2A813C1F6FF7303F1080393E8030002F078FB4FF0050001F08AFB23E201F02DFF034656
S32D0000D798002B00F015824F4802F006F84FF0060001F07CFB0CE24FF0070001F077FB10E241F2A813C1F6FF73DD
S32D0000D7C003F1100393E8030002F056FB4FF0080001F068FB01E201F00BFF0346002B00F0F5813E4801F0E4FFC6
S32D0000D7E84FF0090001F05AFBECE1384801F0DCFF0AE001F023FD41F27C13C1F6FF731B78002B01D002F0A8FC61
S32D0000D8104FF0000002F024F8034683F00103DBB2002BEAD12D4801F0C3FF2E4801F0C0FF23A1D1E9000108F0A5
S32D0000D838FBFA284801F0B8FF4FF000002A49264A02F082F9254801F0AFFF41F25C50C1F6FF704CF63C31C0F2B4
S32D0000D86001010DF03DF90AE001F0ECFC41F27C13C1F6FF731B78002B01D002F071FC41F25410C1F6FF7008F014
S32D0000D88823FC0346002BEBD1124801F08DFF41F25C50C1F6FF704CF65431C0F201010DF01BF94FF000037B609E
S32D0000D8B057E000BFAFF30080333333333333C33F9A9999999999A93F9A9999999999C93F0000204300000C422F
S32D0000D8D800002841000000000000C84100000CC20000E0400000A8410000B4424FF000004FF07E5101F5C001DF
S32D0000D90008F096FA41F25410C1F6FF7008F0E0FB0346002B21D04FF000037B6041F25C50C1F6FF704CF678316F
S32D0000D928C0F201010DF0D8F841F2D040C1F6FF7009F0D8FBBF4801F037FF41F25410C1F6FF7008F0C1FB034633
S32D0000D950002BF6D1BA4801F02BFF7B6803F101037B607B680A2BCCBF00230123DBB2002BC0D14FF00A0001F077
S32D0000D97895FA2EE1AF4801F017FF4FF000004FF07E5101F5C00108F04FFAAB4801F00CFF41F2A813C1F6FF739A
S32D0000D9A003F1180393E8030002F066FA4FF00B0001F078FA11E101F01BFE0346002B00F007819F4801F0F4FE1B
S32D0000D9C84FF00C0001F06AFAFEE09C4802F05CF9994801F0FDFA9A4802F0C4FB994801F0F7FA944801F0E0FEBE
S32D0000D9F04FF000004FF07E5101F5C00108F018FA8F4801F0D5FE4FF00D0001F04BFAE4E041F2A813C1F6FF7303
S32D0000DA1803F1300393E8030002F02AFA8A4802F033F98A488A4901F0D3FE0AE001F006FC41F27C13C1F6FF7306
S32D0000DA401B78002B01D002F08BFB01F0D1FD034683F00103DBB2002BECD1794801F0A8FE41F2A813C1F6FF734E
S32D0000DA6803F1200393E8030002F002FA4FF00E0001F014FAADE001F0B7FD0346002B00F0A5806D4801F090FED2
S32D0000DA904FF00F0001F006FA9CE001F0ADFA0346B3F57F0F14BF00230123DBB2002B0ED041F25C50C1F6FF70E1
S32D0000DAB84CF6C031C0F201010DF00EF84FF0100001F0ECF985E001F093FA0346FF2B14BF00230123DBB2002B09
S32D0000DAE00ED041F25C50C1F6FF704CF6F031C0F201010CF0F5FF4FF0100001F0D3F96CE041F25C50C1F6FF70D1
S32D0000DB084CF61C41C0F201010CF0E6FF41F2D040C1F6FF704FF0050109F0F4FA59E041F2A813C1F6FF7303F1E2
S32D0000DB30280393E8030002F09FF94FF0110001F0B1F94AE001F054FD0346002B44D03C4801F02EFE3E4802F09C
S32D0000DB589BF8384801F028FE00BF4FF0010001F07BFE034683F00103DBB2002BF5D1324801F01AFE4FF01200FA
S32D0000DB8001F090F928E041F25C50C1F6FF704CF64441C0F201010CF0A3FF41F26C13C1F6FF734FF000021A7031
S32D0000DBA817E041F25C50C1F6FF704CF65841C0F201010CF091FF0CE000BF0AE000BF08E000BF06E000BF04E0B4
S32D0000DBD000BF02E000BF00E000BF41F26C13C1F6FF731B78002B7FF421AC41F2D440C1F6FF704FF000010AF0A8
S32D0000DBF8EDF841F2D440C1F6FF704CF67841C0F201010AF041FC41F25C50C1F6FF704CF68841C0F201010CF007
S32D0000DC205FFF41F25C50C1F6FF700CF03DFF4FF00003184607F10807BD4680BD00000CC2000000000000344210
S32D0000DC4800002041000020430000874300000C4200009041AFF3008080B590B000AF41F2D440C1F6FF704FF00F
S32D0000DC7000010AF09BF841F2D440C1F6FF704FF001010AF0E5F841F23410C1F6FF7040F6A70109F009FB41F2C8
S32D0000DC983410C1F6FF7040F2C62109F0E3FA41F23410C1F6FF70454909F01AFB41F24010C1F6FF7040F6A70145
S32D0000DCC009F0F2FA41F24010C1F6FF7040F2C62109F0CCFA41F23410C1F6FF70394909F003FB41F28413C1F639
S32D0000DCE8FF73364A1A6041F28413C1F6FF731A6841F28013C1F6FF731A6041F29013C1F6FF734FF000021A600A
S32D0000DD1041F27C13C1F6FF734FF000021A7041F29413C1F6FF734CF69842C0F2010292E80300186003F104036B
S32D0000DD38197041F25C50C1F6FF700CF0DFFD41F25C50C1F6FF704CF6A041C0F201010CF0C3FE07E041F2D04094
S32D0000DD60C1F6FF704FF0050109F0D0F901F092F9034683F00103DBB2002BEFD141F26C13C1F6FF734FF0010297
S32D0000DD881A7007F10403184600F01AF807F1040241F2A813C1F6FF739A420BD041F2A813C1F6FF7319464FF003
S32D0000DDB03903084611461A460DF0ECFD07F14007BD4680BD00000000B0B5ADF5EF5D06AF07F10803A3F10403F9
S32D0000DDD818604FF0010307F5EE5000F107000370DFF8B03707F5EC5101F13C010B60DFF8A43707F5EC5202F14D
S32D0000DE003802136007F10803A3F10403186802F0B3FB41F2D440C1F6FF704FF0000109F0D9FF07F5CC5303F1FC
S32D0000DE281803A3F104031D464FF0000406E028460BF036FF05F1EC0504F1FF34B4F1FF3F0CBF00230123DBB25B
S32D0000DE50002BF0D14CF62853C0F2010307F5E85101F124011A464FF01403084611461A460DF090FD07F5CC5399
S32D0000DE7803F11803A3F104034FF0C90200924FF0010201924FF00102029207F5E85202F1240203924FF4004222
S32D0000DEA004924FF45742C0F2FF02059218464FF001014FF001024FF001030CF035F907F5CC5303F11803A3F18C
S32D0000DEC8040318460BF088FF07F5945303F10803A3F10C031D464FF0050406E028460BF0DFFE05F1EC0504F10D
S32D0000DEF0FF34B4F1FF3F0CBF00230123DBB2002BF0D107F5E25303F118031A464FF0A00310464FF000011A46EB
S32D0000DF180DF045FD07F5E25303F118034FF041021A6003F104034FF000021A6003F104034FF000021A6003F100
S32D0000DF4004034FF000021A6003F104034FF000021A6003F1040307F5E25303F118034FF042025A6103F11803B3
S32D0000DF684FF000021A6003F104034FF000021A6003F104034FF000021A6003F104034FF000021A6003F10403B3
S32D0000DF9007F5E25303F118034FF043029A6203F12C034FF000021A6003F104034FF000021A6003F104034FF0D5
S32D0000DFB800021A6003F104034FF000021A6003F1040307F5E25303F118034FF04402DA6303F140034FF0000294
S32D0000DFE01A6003F104034FF000021A6003F104034FF000021A6003F104034FF000021A6003F1040307F5E2534B
S32D0000E00803F118034FF045021A6503F154034FF000021A6003F104034FF000021A6003F104034FF000021A6064
S32D0000E03003F104034FF000021A6003F1040307F5E25303F118034FF046025A6603F168034FF000021A6003F17C
S32D0000E05804034FF000021A6003F104034FF000021A6003F104034FF000021A6003F1040307F5E25303F1180331
S32D0000E0804FF047029A6703F17C034FF000021A6003F104034FF000021A6003F104034FF000021A6003F1040354
S32D0000E0A84FF000021A6003F1040307F5E25303F118034FF04802C3F88C2003F190034FF000021A6003F1040327
S32D0000E0D04FF000021A6003F104034FF000021A6003F104034FF000021A6003F1040307F5945303F10803A3F18A
S32D0000E0F80C034FF0330200924FF0010201924FF00102029207F5E25202F1180203926FF07F4204924FF45742D6
S32D0000E120C0F2FF02059218464FF004014FF002024FF028030BF0F8FF07F5D4531D464FF0000406E028460BF02E
S32D0000E148AFFD05F1EC0504F1FF34B4F1FF3F0CBF00230123DBB2002BF0D107F5E85303F110034FF000021A6087
S32D0000E17003F104034FF000021A6003F104034FF000021A6003F104034FF000021A6003F104034FF000021A60A9
S32D0000E19803F104034CF63C52C0F2010207F5E85303F1100392E80300186003F10403198007F5E85303F11603CE
S32D0000E1C04FF000021A8003F102034FF000021A8003F102034FF000021A8003F102034FF000021A8003F10203E1
S32D0000E1E84FF000021A8003F102034FF000021A8003F102034FF000021A8003F1020307F5D4524FF01403009382
S32D0000E2104FF0010301934FF00103029307F5E85303F1100303934FF4004304934FF45743C0F2FF0305931046C1
S32D0000E2384FF001014FF001024FF0BE030BF070FF41F2D440C1F6FF704FF45741C0F2FF0109F00EFE41F2D44085
S32D0000E260C1F6FF704CF6B441C0F201014FF000024FF0DE0309F014FE07F5EC5303F13803186807F5EC5202F1FC
S32D0000E2883C021168FEF7B8FE03461C4641F22050C1F6FF700CF098F8034620461946FEF7A3FD034607F5EC50E2
S32D0000E2B000F13800036007F5EC5101F13C010868B749FEF795FD034607F5EC5202F13C02136007F5EC5303F1FF
S32D0000E2D83803186807F5EC5202F13C021168FEF73FFF034607F5EC5000F13800036041F2D440C1F6FF7007F5D0
S32D0000E300EC5202F1380211684FF048024FF0DE0309F010FE4FF001031C4607F5EC5303F1380318689F49FFF7EE
S32D0000E32809F80346002B02D14FF000031C46E3B2002B07D041F2D040C1F6FF704FF00A0108F0E0FE07F5E85285
S32D0000E35002F13C0207F5E85303F1380341F2D440C1F6FF7011461A4609F0B6FE0346002B00F083854FF0000389
S32D0000E37807F5EE500360D6E007F5945303F10803A3F10C0307F5EE510A684FF0EC0101FB02F2991807F5E853EE
S32D0000E3A003F13C031A6807F5E85000F138000368084611461A464FF000030BF0C7FD0346002B0CBF0023012346
S32D0000E3C8DBB2002B00F0A7804FF0000307F5E85101F10C010B804FF0200307F5E85202F10D02137007F5E2510B
S32D0000E3F001F1180107F5EE531A6813464FEA83039B184FEA8303CB181B7807F5E85000F10C00037007F5EE5156
S32D0000E4180B68002B06D14FF0410307F5E85202F10C02137007F5EE500368012B06D14FF0420307F5E85101F1D1
S32D0000E4400C010B7041F2D440C1F6FF704FF0000109F0C0FC41F2D440C1F6FF704CF6C441C0F201010AF014F856
S32D0000E46807F5E85303F10C0341F2D440C1F6FF7019464FF000024FF0070309F05DFF41F25C50C1F6FF704CF65A
S32D0000E490D841C0F201010CF023FB07F5E85303F10C0341F25C50C1F6FF7019460CF018FB41F25C50C1F6FF70C5
S32D0000E4B84CF6EC41C0F201010CF00EFB07F5E85202F10C02137807F5EA521046194601F093FF07F5EA5207F1AC
S32D0000E4E00803A3F104031B6893420CD007F10803A3F104031B6819464FF03903084611461A460DF047FA4FF0B7
S32D0000E508000307F5EE5000F1070003704FF0000000F0C4FC12E007F5EE510B6803F1010307F5EE52136007F50B
S32D0000E530EE500368072BCCBF00230123DBB2002B7FF41EAF07F5E85101F13C010A6807F5E85000F1380003687A
S32D0000E55807F5D451084611461A464FF000030BF0F1FC0346002B0CBF00230123DBB2002B00F07F8441F2D440CD
S32D0000E580C1F6FF704FF0000109F024FC07F5DA5303F12C031D464FF000040CE0000000000000803F00002041F0
S32D0000E5A828460BF07DFB05F1EC0504F1FF34B4F1FF3F0CBF00230123DBB2002BF0D107F5E65303F138034FF044
S32D0000E5D000021A6003F104034FF000021A6003F104034FF000021A6003F104034FF000021A6003F104034FF045
S32D0000E5F800021A6003F104034CF65052C0F2010207F5E65303F1380307CA03C31A8003F102034FEA12421A7040
S32D0000E62007F5E85303F103034FF000021A7003F101034FF000021A7003F101034FF000021A7003F101034FF013
S32D0000E64800021A7003F101034FF000021A7003F101034FF000021A7003F101034FF000021A7003F101034FF098
S32D0000E67000021A7003F101034FF000021A7003F1010307F5DA5202F12C024FF0C90300934FF0010301934FF038
S32D0000E6980103029307F5E65303F1380303934FF4004304934FF45743C0F2FF03059310464FF001014FF00102A2
S32D0000E6C04FF001030BF030FD07F5DA5303F12C0318460BF085FB07F5C05303F10803A3F104031A464FF4C87315
S32D0000E6E810464FF000011A460DF059F907F5C05303F10803A3F1040345F25742C0F253021A6003F104034FF08B
S32D0000E71000021A6003F104034FF000021A6003F104034FF000021A6003F104034FF000021A6003F1040307F546
S32D0000E738C05303F10803A3F1040344F65352C0F253025A6103F118034FF000021A6003F104034FF000021A60E5
S32D0000E76003F104034FF000021A6003F104034FF000021A6003F1040307F5C05303F10803A3F1040345F24D42B5
S32D0000E788C0F253029A6203F12C034FF000021A6003F104034FF000021A6003F104034FF000021A6003F104031B
S32D0000E7B04FF000021A6003F1040307F5C05303F10803A3F1040345F24972C0F25302DA6303F140034FF000022E
S32D0000E7D81A6003F104034FF000021A6003F104034FF000021A6003F104034FF000021A6003F1040307F5C0536D
S32D0000E80003F10803A3F1040344F65352C0F24C021A6503F154034FF000021A6003F104034FF000021A6003F142
S32D0000E82804034FF000021A6003F104034FF000021A6003F1040307F5C05303F10803A3F1040345F24D42C0F22E
S32D0000E8504C025A6603F168034FF000021A6003F104034FF000021A6003F104034FF000021A6003F104034FF0CC
S32D0000E87800021A6003F1040307F5C05303F10803A3F1040345F24972C0F24C029A6703F17C034FF000021A6031
S32D0000E8A003F104034FF000021A6003F104034FF000021A6003F104034FF000021A6003F1040307F5C05303F12A
S32D0000E8C80803A3F1040344F65352C0F24202C3F88C2003F190034FF000021A6003F104034FF000021A6003F154
S32D0000E8F004034FF000021A6003F104034FF000021A6003F1040307F5C05303F10803A3F1040345F24D42C0F266
S32D0000E9184202C3F8A02003F1A4034FF000021A6003F104034FF000021A6003F104034FF000021A6003F1040355
S32D0000E9404FF000021A6003F1040307F5C05303F10803A3F1040345F24972C0F24202C3F8B42003F1B8034FF0E5
S32D0000E96800021A6003F104034FF000021A6003F104034FF000021A6003F104034FF000021A6003F1040307F5EC
S32D0000E990C05303F10803A3F1040344F65352C0F24302C3F8C82003F1CC034FF000021A6003F104034FF0000279
S32D0000E9B81A6003F104034FF000021A6003F104034FF000021A6003F1040307F5C05303F10803A3F1040345F270
S32D0000E9E04D42C0F24302C3F8DC2003F1E0034FF000021A6003F104034FF000021A6003F104034FF000021A60CE
S32D0000EA0803F104034FF000021A6003F1040307F5C05303F10803A3F1040345F24972C0F24302C3F8F02003F1DE
S32D0000EA30F4034FF000021A6003F104034FF000021A6003F104034FF000021A6003F104034FF000021A6003F1F0
S32D0000EA58040307F5C05303F10803A3F1040344F65352C0F24402C3F8042103F584734FF000021A6003F1040384
S32D0000EA804FF000021A6003F104034FF000021A6003F104034FF000021A6003F1040307F5C05303F10803A3F1A4
S32D0000EAA8040345F24D42C0F24402C3F8182103F58E734FF000021A6003F104034FF000021A6003F104034FF0E3
S32D0000EAD000021A6003F104034FF000021A6003F1040307F5C05303F10803A3F1040345F24972C0F24402C3F89D
S32D0000EAF82C2103F598734FF000021A6003F104034FF000021A6003F104034FF000021A6003F104034FF000023D
S32D0000EB201A6003F1040307F5C05303F10803A3F1040344F65352C0F25202C3F8402103F5A2734FF000021A60E0
S32D0000EB4803F104034FF000021A6003F104034FF000021A6003F104034FF000021A6003F1040307F5C05303F17F
S32D0000EB700803A3F1040345F24D42C0F25202C3F8542103F5AC734FF000021A6003F104034FF000021A6003F159
S32D0000EB9804034FF000021A6003F104034FF000021A6003F1040307F5C05303F10803A3F1040345F25342C0F2B5
S32D0000EBC05002C3F8682103F5B6734FF000021A6003F104034FF000021A6003F104034FF000021A6003F104034E
S32D0000EBE84FF000021A6003F1040307F5C05303F10803A3F1040345F25202C0F25302C3F87C2103F5C0734FF04C
S32D0000EC1000021A6003F104034FF000021A6003F104034FF000021A6003F104034FF000021A6003F1040307F145
S32D0000EC384803A3F13C031D464FF0130406E028460BF02EF805F1EC0504F1FF34B4F1FF3F0CBF00230123DBB2D1
S32D0000EC60002BF0D107F14803A3F13C034FF0010200924FF0010201924FF00102029207F5C05202F10802A2F167
S32D0000EC88040203926FF07F4204924FF45742C0F2FF02059218464FF005014FF004024FF028030BF03DFA41F230
S32D0000ECB05C50C1F6FF704CF6F041C0F201010BF00FFF07F5E85202F13C0207F5E85303F1380341F2D440C1F669
S32D0000ECD8FF7011461A4609F0FBF90346002B00F0B6804FF0000307F5EE510B60A4E007F14803A3F13C0307F5E3
S32D0000ED00EE5002684FF0EC0101FB02F2991807F5E85303F13C031A6807F5E85000F138000368084611461A46B7
S32D0000ED284FF000030BF00EF90346002B0CBF00230123DBB2002B77D007F5EE510B68132B37D007F5EE5213684A
S32D0000ED50DBB2184600F0A6F84FF0000307F5EE5000F10700037041F2D440C1F6FF704FF0000109F02FF807F56C
S32D0000ED78EA5303F13C0318464FF0410101F03CFB07F5EA5202F13C0207F10803A3F104031B68934247D007F188
S32D0000EDA00803A3F104031B6819464FF03903084611461A460CF0EEFD4DE041F25C50C1F6FF704CF60451C0F2DB
S32D0000EDC801010BF089FE41F2D440C1F6FF704FF0000108F0FBFF01E000F030FA07F5E85202F13C0207F5E85361
S32D0000EDF003F1380341F2D440C1F6FF7011461A4609F06AF9034683F00103DBB2002BE7D14FF0000307F5EE5199
S32D0000EE1801F107010B7041F26C13C1F6FF734FF000021A7013E012E007F5EE52136803F1010307F5EE50036080
S32D0000EE4007F5EE510B68132BCCBF00230123DBB2002B7FF450AF07F5EE5202F107021378002B7FF42EAF41F24B
S32D0000EE685C50C1F6FF704CF61451C0F201010BF033FE07F5EE5000F107000378002B7FF4F7A900BF07F1080376
S32D0000EE90A3F10403186807F5E47707F5E057BD46B0BD00BF80B582B000AF0346FB7141F26D13C1F6FF73FA7966
S32D0000EEB81A7041F29013C1F6FF731B6803F1010241F29013C1F6FF731A6041F25C50C1F6FF704CF66451C0F202
S32D0000EEE001010BF0FDFDFA7913464FEA83039B184FEA83034DF29422C0F201029B1841F25C50C1F6FF7019464F
S32D0000EF080BF0EAFD41F25C50C1F6FF704CF6EC41C0F201010BF0E0FDFA7913464FEA83039B184FEA83034DF2BD
S32D0000EF309422C0F201029B1841F29410C1F6FF7019460CF036FD41F29013C1F6FF731B68022B10DD41F26D13BB
S32D0000EF58C1F6FF734FF012021A7041F25C50C1F6FF704CF67451C0F201010BF0B5FD07F10807BD4680BD00BF12
S32D0000EF8080B582B000AF0346FB71FB79002B0DD041F23410C1F6FF700D4908F0A5F941F28C13C1F6FF730A4A44
S32D0000EFA81A600CE041F23410C1F6FF70074908F097F941F28C13C1F6FF73044A1A6007F10807BD4680BD00BF97
S32D0000EFD00000B4420000000080B582B000AF786041F24010C1F6FF70796808F07DF907F10807BD4680BD00BF31
S32D0000EFF890B583B000AF41F25C10C1F6FF7007F0F7FC03464FF00102144618461D49FEF7AFF90346002B02D188
S32D0000F0204FF000031C46E3B2002B03D04FF000037B601DE041F25C10C1F6FF7007F0DCFC03464FF001021446F8
S32D0000F04818461149FEF794F90346002B02D14FF000031C46E3B2002B03D04FF0FF037B6002E04FF47F037B6044
S32D0000F07041F2D440C1F6FF70796808F0ABFE7B68184607F10C07BD4690BD00BF000000400000803F80B582B0C2
S32D0000F09800AF4FF00103FB7141F25410C1F6FF7007F012F8034683F00103DBB2002B11D041F2D440C1F6FF7068
S32D0000F0C04CF69C51C0F201014FF000024FF0000309F036F94FF00003FB710DE041F2D440C1F6FF704CF6B45145
S32D0000F0E8C0F201014FF000024FF0000309F024F941F25810C1F6FF7006F0E6FF034683F00103DBB2002B11D0B8
S32D0000F11041F2D440C1F6FF704CF6CC51C0F201014FF001024FF0000309F00AF94FF00003FB710DE041F2D440EF
S32D0000F138C1F6FF704CF6B451C0F201014FF001024FF0000309F0F8F841F24C10C1F6FF7006F0BAFF034683F0FB
S32D0000F1600103DBB2002B11D041F2D440C1F6FF704CF69C51C0F201014FF002024FF0000309F0DEF84FF00003FE
S32D0000F188FB710DE041F2D440C1F6FF704CF6B451C0F201014FF002024FF0000309F0CCF841F25010C1F6FF709D
S32D0000F1B006F08EFF034683F00103DBB2002B11D041F2D440C1F6FF704CF69C51C0F201014FF003024FF000037F
S32D0000F1D809F0B2F84FF00003FB710DE041F2D440C1F6FF704CF6B451C0F201014FF003024FF0000309F0A0F84C
S32D0000F200FFF7FAFE0346002B0CBF00230123DBB2002B10D041F2D440C1F6FF704CF6E451C0F201014FF00402F7
S32D0000F2284FF0000309F088F84FF00003FB71FB79184607F10807BD4680BD00BF80B500AF41F25410C1F6FF70D6
S32D0000F25006F03EFF034683F00103DBB2002B0AD041F2D440C1F6FF704EF69061C0F2900108F002FE09E041F212
S32D0000F278D440C1F6FF704AF6A911C0F2A90108F0F7FD41F2D440C1F6FF704FF00F014FF0DC024FF00A0309F0CE
S32D0000F2A001FF41F25810C1F6FF7006F011FF034683F00103DBB2002B0AD041F2D440C1F6FF704EF69061C0F2D3
S32D0000F2C8900108F0D5FD09E041F2D440C1F6FF704AF6A911C0F2A90108F0CAFD41F2D440C1F6FF7040F2311171
S32D0000F2F04FF0DC024FF00A0309F0D4FE41F24C10C1F6FF7006F0E4FE034683F00103DBB2002B0AD041F2D44096
S32D0000F318C1F6FF704EF69061C0F2900108F0A8FD09E041F2D440C1F6FF704AF6A911C0F2A90108F09DFD41F21B
S32D0000F340D440C1F6FF704FF00F014FF00A024FF00A0309F0A7FE41F25010C1F6FF7006F0B7FE034683F00103BD
S32D0000F368DBB2002B0AD041F2D440C1F6FF704EF69061C0F2900108F07BFD09E041F2D440C1F6FF704AF6A91140
S32D0000F390C0F2A90108F070FD41F2D440C1F6FF7040F231114FF00A024FF00A0309F07AFE41F2D440C1F6FF7038
S32D0000F3B86FF07F4108F05CFD41F2D440C1F6FF704CF6FC51C0F201014FF003024FF0000308F0B2FF41F2D44091
S32D0000F3E0C1F6FF704CF61861C0F201014FF004024FF0000308F0A4FF41F23C50C1F6FF700BF056F90346184672
S32D0000F408FDF7C0FF034641F2D440C1F6FF7019464FF003024FF0070308F0AEFF41F23C50C1F6FF700BF050F9B3
S32D0000F43003461846FDF7AAFF034641F2D440C1F6FF7019464FF003024FF00D0308F098FF41F23C50C1F6FF704E
S32D0000F4580BF04AF903461846FDF794FF034641F2D440C1F6FF7019464FF003024FF0150308F082FF41F2D440AA
S32D0000F480C1F6FF704CF63461C0F201014FF005024FF0000308F054FF41F28013C1F6FF731B6841F2D440C1F66A
S32D0000F4A8FF7019464FF005024FF0050308F084FF41F22C10C1F6FF7007F062FA034641F2D440C1F6FF70194663
S32D0000F4D04FF005024FF0120308F052FF41F2D440C1F6FF704CF64861C0F201014FF006024FF0000308F024FF7B
S32D0000F4F841F28413C1F6FF731B6841F2D440C1F6FF7019464FF006024FF0050308F054FF41F23010C1F6FF7032
S32D0000F52007F032FA034641F2D440C1F6FF7019464FF006024FF0120308F022FF41F2D440C1F6FF704CF65C6165
S32D0000F548C0F201014FF007024FF0000308F0F4FE41F28813C1F6FF731B6841F2D440C1F6FF7019464FF00702DF
S32D0000F5704FF0060308F024FF41F2D440C1F6FF704CF67061C0F201014FF008024FF0000308F0D6FE41F28C13AD
S32D0000F598C1F6FF731B6841F2D440C1F6FF7019464FF008024FF0060308F006FF41F2D440C1F6FF704CF68461AB
S32D0000F5C0C0F201014FF009024FF0000308F0B8FE41F2D440C1F6FF7041F29411C1F6FF714FF009024FF0050332
S32D0000F5E808F0AAFE80BD00BFF8B500AF41F22C10C1F6FF7007F0C4F9044600F0A5FE0346E41841F23010C1F668
S32D0000F610FF7007F0B9F90346E41800F041FE0346E2184DF24F13C1F6C21383FB02134FEAA3114FEAE273CB1ADD
S32D0000F6381846FDF73BF802460B461046194612A3D3E90023FDF798F802460B4614461D4641F27013C1F6FF7384
S32D0000F6601B681846FDF738F802460B464FF001010E4620462946FDF713FB0346002B02D14FF000031E46F3B2E0
S32D0000F6881846F8BDAFF300805E3855297A6A1F4080B586B000AF7860396041F28013C1F6FF731B68786819468C
S32D0000F6B0FDF79CFB034618463B49FDF755FD03463B6141F28413C1F6FF731B6838681946FDF78CFB03461846B4
S32D0000F6D83349FDF745FD0346FB604FF000037B6142E041F28013C1F6FF731B6818463969FDF77AFB03461A46EA
S32D0000F70041F28013C1F6FF731A6041F28413C1F6FF731B681846F968FDF76AFB03461A4641F28413C1F6FF7348
S32D0000F7281A6041F28013C1F6FF731B6883F0004341F22410C1F6FF70194601F0D1FA41F28413C1F6FF731B68F3
S32D0000F75041F21C10C1F6FF70194601F0C5FA10A1D1E9000106F064FB7B6903F101037B617B69092BCCBF0023B8
S32D0000F7780123DBB2002BB4D141F28013C1F6FF737A681A6041F28413C1F6FF733A681A6007F11807BD4680BD51
S32D0000F7A07B14AE47E17A843F00002041AFF3008080B582B000AF786078687968FFF76CFF41F27C13C1F6FF731B
S32D0000F7C84FF001021A7007F10807BD4680BD00BFB0B584B002AF7860396041F22C10C1F6FF7007F0E1F841F2EE
S32D0000F7F03010C1F6FF7007F0DBF838681749FDF7FFFB03461A4641F27013C1F6FF731A607868FFF7CDFF41F2F6
S32D0000F8187C13C1F6FF734FF001021A707868FCF757FF04460D463868FCF752FF02460B46CDE9002341F25C5043
S32D0000F840C1F6FF704CF69861C0F2010122462B460BF046F907F10807BD46B0BD0000C03F80B584B000AF03469B
S32D0000F868FB714FF00003FB73FB79002B02D0012B7ED0FAE041F24C10C1F6FF7006F024FC034683F00103DBB279
S32D0000F890002B0ED041F25010C1F6FF7006F018FC034683F00103DBB2002B02D04FF0010301E04FF00003FB7360
S32D0000F8B841F24C10C1F6FF7006F006FC034683F00103DBB2002B0ED041F28413C1F6FF731B6818466F49FDF79F
S32D0000F8E023FD0346002B02D14FF0010301E04FF00003002B0FD041F25C50C1F6FF704CF6C061C0F201010BF00C
S32D0000F908EBF841F21C10C1F6FF7001F099F941F25010C1F6FF7006F0D7FB034683F00103DBB2002B0ED041F2DC
S32D0000F9308013C1F6FF731B6818465849FDF7F4FC0346002B02D14FF0010301E04FF00003002B00F0998041F273
S32D0000F9585C50C1F6FF704CF60C71C0F201010BF0BBF841F22410C1F6FF7001F069F987E041F25410C1F6FF708A
S32D0000F98006F0A6FB034683F00103DBB2002B0ED041F25810C1F6FF7006F09AFB034683F00103DBB2002B02D0D6
S32D0000F9A84FF0010301E04FF00003FB7341F25410C1F6FF7006F088FB034683F00103DBB2002B0ED041F2841307
S32D0000F9D0C1F6FF731B6818463049FDF7A5FC0346002B02D14FF0010301E04FF00003002B0FD041F25C50C1F6A4
S32D0000F9F8FF704CF65871C0F201010BF06DF841F21C10C1F6FF7001F01BF941F25810C1F6FF7006F059FB034675
S32D0000FA2083F00103DBB2002B0ED041F28013C1F6FF731B6818461949FDF776FC0346002B02D14FF0010301E0A8
S32D0000FA484FF00003002B1DD041F25C50C1F6FF704CF6A471C0F201010BF03EF841F22410C1F6FF7001F0ECF893
S32D0000FA700CE041F25C50C1F6FF704CF6F471C0F201010BF02DF802E000BF00E000BFFB7B184607F11007BD46D6
S32D0000FA9880BD00BF0000000090B587B002AF03463960FB7141F27C13C1F6FF734FF000021A70FB79002B02D0A2
S32D0000FAC04FF0010301E04FF0FF33FB60FB79002B02D04FF0FF3301E04FF00103BB60F868FDF73AFA03461846D8
S32D0000FAE83968FDF789FA03461C46B868FDF730FA034618463968FDF77FFA034620461946FFF7C6FDFB79002BD4
S32D0000FB1004D04DF23404C0F2010403E04DF23C04C0F201043868FCF7D7FD02460B46CDE9002341F25C50C1F63D
S32D0000FB38FF704DF24401C0F2010122460AF0CCFF07F11407BD4690BD2DE9F04387B000AF0346B9607A60FB738F
S32D0000FB6041F23010C1F6FF7006F022FF41F22C10C1F6FF7006F01CFF434B7B61B868FCF7ABFD02460B4641F230
S32D0000FB885C50C1F6FF704DF25C01C0F201010AF0A3FFFB7B18467968FFF77EFF00BF41F23010C1F6FF7006F01B
S32D0000FBB0EBFE044641F22C10C1F6FF7006F0E4FE0346E41800F06CFB0346E3184FEAD372D3184FEA6303184641
S32D0000FBD8FCF76CFD02460B461046194622A3D3E90023FCF7C9FD02460B4614461D46B868FCF76EFD02460B468B
S32D0000FC00104619461CA3D3E90023FCF7B9FD02460B46104619461AA3D3E90023FCF7DAFE02460B4690469946D7
S32D0000FC287869FCF755FD02460B4640464946FCF7A3FD02460B464FF001010E4620462946FDF70CF80346002BD8
S32D0000FC5002D14FF000031E46F3B2002BA3D10B48FFF7A6FD07F11C07BD46BDE8F08300BF2005C771724A993FF7
S32D0000FC78182D4454FB210940000000000080664000000C4100000000B0B588B002AF786041F23C50C1F6FF709E
S32D0000FCA00AF026FD03467B6178697968FDF79EF80346FB6078687969FDF798F80346BB600FE041F2D040C1F671
S32D0000FCC8FF704FF0050107F01DFA41F23C50C1F6FF700AF009FD03467B6141F23C50C1F6FF700AF001FD03461C
S32D0000FCF04FF00102144618465D49FDF71FFB0346002B02D14FF000031C46E3B2002BD8D17869FCF7E1FC0446E9
S32D0000FD180D467868FCF7DCFC02460B46CDE9002341F25C50C1F6FF704DF27801C0F2010122462B460AF0D0FE3B
S32D0000FD404FF001031C46F8684949FDF715FB0346002B02D14FF000031C46E3B2002B01D0FB6812E0F868FCF7D6
S32D0000FD68B7FC02460B46104619463DA3D3E90023FCF750FB02460B4610461946FCF7DEFF0346FB604FF001036A
S32D0000FD901C46B8683649FDF7EFFA0346002B02D14FF000031C46E3B2002B01D0BB6812E0B868FCF791FC0246EE
S32D0000FDB80B46104619462AA3D3E90023FCF72AFB02460B4610461946FCF7B8FF0346BB604FF001031C46B86832
S32D0000FDE0F968FDF7ABFA0346002B02D14FF000031C46E3B2002B03D04FF00103FB7402E04FF00003FB7441F205
S32D0000FE083C50C1F6FF700AF06FFC034618467968FCF7E8FF03461846FDF7EEFA0346FA7C10461946114AFFF70B
S32D0000FE308FFE41F23C50C1F6FF700AF059FC03461846FCF749FC02460B4641F25C50C1F6FF704DF2A001C0F2D4
S32D0000FE5801010AF041FE07F11807BD46B0BD00BF0000000000807640000000000000C8412DE9B04F90B008AFB0
S32D0000FE8007F1080383E8030041F23C50C1F6FF700AF00EFC0346FB6141F23C50C1F6FF700AF016FC0346BB61FF
S32D0000FEA80FE041F2D040C1F6FF704FF0050107F029F941F23C50C1F6FF700AF0F5FB0346FB614FF001031C465D
S32D0000FED0F8699F49FDF732FA0346002B02D14FF000031C46E3B2002BDFD141F23C50C1F6FF700AF0DDFB034640
S32D0000FEF8FB6141F23C50C1F6FF700AF0E5FB0346BB61BB681846F969FCF76CFF034618464FF00201FDF75CFAE8
S32D0000FF200446FB681846B969FCF760FF034618464FF00201FDF750FA034620461946FCF757FF034618460AF015
S32D0000FF4895FE024641F27013C1F6FF731A60FB681846B969FCF746FF03461C46BB681846F969FCF73FFF034634
S32D0000FF70204619460AF07AFE03461846FCF7ACFB02460B46104619466DA3D3E90023FCF7F7FB02460B461046DA
S32D0000FF981946FCF7D3FE03467B61F869FCF798FB04460D46B869FCF793FBC7E90001BB681846FCF78DFB824658
S32D0000FFC08B46FB681846FCF787FB804689467869FCF782FB02460B46D7E90001CDE90001CDE902ABCDE904896F
S32D0000FFE8CDE9062341F25C50C1F6FF704DF2C401C0F2010122462B460AF06EFD4FF001031C4678695049FDF7FE
S32D00010010B3F90346002B02D14FF000031C46E3B2002B01D07B6912E07869FCF755FB02460B461046194644A36A
S32D00010038D3E90023FCF7EEF902460B4610461946FCF77CFE03467B6178693F49FCF7CCFE03467B614FF0010372
S32D000100601C4678693B49FDF787F90346002B02D14FF000031C46E3B2002B05D078693549FCF7B4FE034600E089
S32D000100887B697B617869FFF7FFFD41F23C50C1F6FF700AF009FB0346FB6141F23C50C1F6FF700AF011FB0346FA
S32D000100B0BB61BB681846F969FCF798FE034618464FF00201FDF788F90446FB681846B969FCF78CFE03461846EA
S32D000100D84FF00201FDF77CF9034620461946FCF783FE034618460AF0C1FD024641F27013C1F6FF731A6041F299
S32D000101002C10C1F6FF7006F053FC41F23010C1F6FF7006F04DFC41F27413C1F6FF7307F1080292E8030083E884
S32D0001012803000B48FFF740FB07F12007BD46BDE8B08F00BFAFF30080F8C1631ADCA54C400000000000807640C1
S32D00010150000000000000B44300000C42AFF3008080B400AFBD4680BC704700BF90B589B000AF7860454BBB61D0
S32D0001017841F22C10C1F6FF7006F016FC41F23010C1F6FF7006F010FC41F27013C1F6FF737A681A6066E041F26C
S32D000101A06010C1F6FF7006F027FC03467B6141F26410C1F6FF7006F01FFC03463B6141F26810C1F6FF7006F0D2
S32D000101C817FC0346FB604FF001031C4638692D49FDF7CEF80346002B02D14FF000031C46E3B2002B02D04FF01F
S32D000101F00003FB774FF001031C4678692349FDF7BBF80346002B02D14FF000031C46E3B2002B02D04FF0020311
S32D00010218FB774FF001031C46F8681A49FDF7A8F80346002B02D14FF000031C46E3B2002B02D04FF00103FB7717
S32D00010240FB7F012B0CD0022B05D0002B0DD11048FFF7AEFA0AE00F480F49FFF71DFA05E00D480C49FFF718FACF
S32D0001026800E000BFFFF7C0F9034683F00103DBB2002B90D10748FFF797FA07F12407BD4690BD00BF0000C03F39
S32D000102900000A041000020400000204100000000B0B582B000AF41F28413C1F6FF731B681846FDF7A5F80346A9
S32D000102B87B607868FCF70CFA02460B46104619461DA3D3E90023FCF757FA02460B4614461D467868FCF7FCF914
S32D000102E002460B4620462946FCF74AFA02460B4614461D467868FCF7EFF902460B4620462946FCF78BF802460D
S32D000103080B46104619460EA3D3E90023FCF780F802460B4610461946FCF7C8FC03463B603B6823EAE3733B603B
S32D000103303B68184607F10807BD46B0BDAFF30080F5D896016729793F75931804560E0640B0B582B000AF41F211
S32D000103588013C1F6FF731B681846FDF74DF803467B607868FCF7B4F902460B46104619461DA3D3E90023FCF71C
S32D00010380FFF902460B4614461D467868FCF7A4F902460B4620462946FCF7F2F902460B4614461D467868FCF71B
S32D000103A897F902460B4620462946FCF733F802460B46104619460EA3D3E90023FCF728F802460B4610461946CB
S32D000103D0FCF770FC03463B603B6823EAE3733B603B68184607F10807BD46B0BDAFF30080F5D896016729793FD4
S32D000103F875931804560E064080B590B000AF78600B46FB707B68184600F0F8F87B6803F10803184600F0F2F815
S32D000104207B6803F11003184600F0ECF87B6803F11803184600F0E6F87B6803F12003184600F0E0F87B6803F17C
S32D000104482803184600F0DAF87B6803F13003184600F0D4F87B68FA7883F8382007F1080318463849384A00F09A
S32D00010470B5F87B6807F1080292E8030083E8030007F1100318463349334A00F0A7F87B6803F1080307F1100203
S32D0001049892E8030083E8030007F1180318462D492D4A00F097F87B6803F1100307F1180292E8030083E8030086
S32D000104C007F1200318462749254A00F087F87B6803F1180307F1200292E8030083E8030007F1280318461B496A
S32D000104E81F4A00F077F87B6803F1200307F1280292E8030083E8030007F1300318461949194A00F067F87B6896
S32D0001051003F1280307F1300292E8030083E8030007F13803184613490B4A00F057F87B6803F1300307F13802CB
S32D0001053892E8030083E803007B68184607F14007BD4680BD0000EC410000704100004041000034420000C8410B
S32D000105600000584200009441000078410000C0400000D8410000904180B582B000AF78607B68184600F03EF805
S32D000105887B6803F10803184600F038F87B6803F11003184600F032F87B6803F11803184600F02CF87B6803F147
S32D000105B02003184600F026F87B6803F12803184600F020F87B6803F13003184600F01AF87B68184607F1080773
S32D000105D8BD4680BD80B485B000AFF860B9607A60FB68BA681A60FB687A685A60FB68184607F11407BD4680BC40
S32D00010600704700BF80B483B000AF78607B68184607F10C07BD4680BC704700BF80B582B000AF786039607B68FC
S32D00010628012B40F083803A684FF6FF739A427DD141F21C10C1F6FF704FF000013D4A00F0A7FA41F22410C1F6C6
S32D00010650FF704FF00101394A00F09EFA41F22C10C1F6FF704FF0060105F0D6FD41F23010C1F6FF704FF007013D
S32D0001067805F0CEFD41F23410C1F6FF704FF0000106F0D2FD41F24010C1F6FF704FF0010106F0CAFD41F24C10BB
S32D000106A0C1F6FF704FF01F0105F0EEFB41F25010C1F6FF704FF0000105F0E6FB41F25410C1F6FF704FF01E01DE
S32D000106C805F0DEFB41F25810C1F6FF704FF0010105F0D6FB41F25C10C1F6FF704FF0080106F076F941F2601058
S32D000106F0C1F6FF704FF0080106F06EF941F26410C1F6FF704FF0090106F066F941F26810C1F6FF704FF00A018A
S32D0001071806F05EF941F27410C1F6FF70FFF76EFF41F2A810C1F6FF70FFF722FF07F10807BD4680BD0000404135
S32D0001074080B500AF4FF001004FF6FF71FFF766FF80BD00BF80B500AF41F6DC12C1F6FF7241F21C13C1F6FF739E
S32D00010768D31A194641F21C13C1F6FF731A460B4610464FF000011A460BF011F980BD00BF0CF086F900F0B0F9CF
S32D00010790FFF7E0FF0CF058F90CF0F4F80CF08CF900F00CF84FF0000041F2E411C1F6FF71FCF736FE034618465F
S32D000107B80BF0D0F880B500AF4FF4E043C4F204034FF4E042C4F2040202F5805202F13802126842F4785203F5BF
S32D000107E0805303F138031A6000F02EF900F094F841F22043C1F6FF734FF058021A6041F22043C1F6FF731B68C7
S32D000108084FF47A7202FB03F241F21C43C1F6FF731A6041F21C43C1F6FF731B681A464FF4E043C4F2040303F5B2
S32D00010830825303F104031B6803F070634FEA136303F10103B2FBF3F31A4641F22443C1F6FF731A604FF4E04343
S32D00010858C4F204034FF4E042C4F2040202F5805202F13C02126842F0225203F5805303F13C031A604FF4E0439B
S32D00010880C4F204034FF4E042C4F2040202F5805202F13002126842F0006203F5805303F130031A604FF450432D
S32D000108A8C4F203034FF480721A614FF0640005F035F94FF45043C4F203034FF45042C4F20302526922F01002EE
S32D000108D05A614FF45043C4F203034FF000021A604FF45043C4F203034FF010025A6106F0B5F906F05DFA41F22F
S32D000108F81840C1F6FF7005F095F941F2D440C1F6FF7007F0B1F841F2883005F073FA80BD80B400AF4FF4804350
S32D00010920C4F206034FF000025A704FF48043C4F206034FF098021A704FF48043C4F206039B79DBB203F010034A
S32D00010948002B0CBF00230123DBB2002BF0D14FF48043C4F206039B79DBB203F00C034FEA9303022B0CBF002378
S32D000109700123DBB2002BEED14FF48043C4F206034FF018021A714FF48043C4F206034FF000025A714FF4E043DD
S32D00010998C4F2040303F5825303F104034FF00002C0F213121A604FF48043C4F206034FF054025A7100BF4FF4F2
S32D000109C08043C4F206039B79DBB203F02003002B14BF00230123DBB2002BF0D100BF4FF48043C4F206039B7979
S32D000109E8DBB203F04003002B14BF00230123DBB2002BF0D14FF48043C4F206034FF48042C4F206021278D2B2C9
S32D00010A1002F03F02D2B21A704FF48043C4F206039B79DBB203F00C034FEA9303032B0CBF00230123DBB2002B47
S32D00010A38EED14FF000031846BD4680BC704700BF80B400AF4FF44043C4F204034FF480725A634FF2C003C4F269
S32D00010A600F034FF2C002C4F20F02526942F400525A614FF2C003C4F20F034FF2C002C4F20F02126842F40052F5
S32D00010A881A604FF44043C4F2040340F20312C0F20A021A634FF46143CEF200034FF46142CEF20002D2F88821FB
S32D00010AB042F08062C3F888214FF46143CEF200034FF46142CEF20002926842F080629A60BD4680BC704700BF90
S32D00010AD880B483B000AF7860FEE700BF80B400AF00BEBD4680BC704780B400AF4FF0E0224CF20003C0F20003AC
S32D00010B00C2F8083D4FF40053C4F205034CF22052DA814FF40053C4F205034DF62812DA814FF40053C4F20503E8
S32D00010B284FF0D2021A80BD4680BC704780B500AF4FF44043C4F20403D3F8A03003F48053002B0CBF00230123F2
S32D00010B50DBB2002B1FD04FF44043C4F204034FF44042C4F20402D2F8A02022F48052C3F8A02041F25C50C1F648
S32D00010B78FF7009F095FF4FF2C003C4F20F034FF2C002C4F20F02126822F400521A6080BD90B585B000AFF860A2
S32D00010BA00B467A60FB72FB68FA7A1A71FB684FF000025A714FF001031C4678682049FCF7DBFB0346002B02D1BF
S32D00010BC84FF000031C46E3B2002B02D01A4B7B6011E04FF001031C4678681849FCF7B4FB0346002B02D14FF089
S32D00010BF000031C46E3B2002B01D0124B7B607868FBF76AFD02460B46104619460AA3D3E90023FBF7B5FD0246A9
S32D00010C180B4610461946FCF791F80246FB681A60FB68184607F11407BD4690BDAFF30080ABAAAAAAAAAA204063
S32D00010C40000040410000803F80B582B000AF78607B685B79002B10D07B684FF000025A717B681B7941F21840A4
S32D00010C68C1F6FF7019464FF000024FF01E0305F023F807F10807BD4680BD00BF80B584B000AF786039603B68F5
S32D00010C907F2B03DD4FF07F03FB7309E03B6813F1800F03DA4FF08003FB7301E03B68FB737B685B79FA7B9A4256
S32D00010CB80FD07B68FA7B5A717B681A79FB7B41F21840C1F6FF7011461A464FF01E0304F0F3FF07F11007BD465F
S32D00010CE080BD00BF00000000B0B584B000AF786039604FF001031C4638684D49FCF71EFB0346002B02D14FF0C3
S32D00010D0800031C46E3B2002B02D0474B3B6011E04FF001031C4638684449FCF729FB0346002B02D14FF0000335
S32D00010D301C46E3B2002B01D03E4B3B603868FBF7CBFC04460D467B681B681846FBF7C4FC02460B4610461946C3
S32D00010D584FF000024FF0804303F5B203FBF736FE02460B4620462946FBF706FD02460B4610461946FBF7E2FFD2
S32D00010D8003463B604FF001031C4638682A49FCF7E9FA0346002B02D14FF000031C46E3B2002B14D03868FBF7B1
S32D00010DA897FC02460B46104619461DA3D3E90023FBF7E2FC02460B4610461946FBF776FF0346FB6022E03868D1
S32D00010DD0FBF782FC02460B46104619464FF000024FF0804303F5C003FBF7CAFC02460B46104619464FF00002F1
S32D00010DF84FF0804303F5B203FBF7E8FD02460B4610461946FBF752FF0346FB607868F968FFF734FF07F1100798
S32D00010E20BD46B0BDAFF3008052B81E85EB51F43F0000C8C20000C84200000000AFF3008080B485B000AF0246DF
S32D00010E480B46FA71BB71BB79002B07D141F2E813C1F6FF734FF000021A7006E041F2E813C1F6FF734FF00102BB
S32D00010E701A704FF03803FB7341F2E813C1F6FF731A78FB7B1343FB734FF4C043C4F206034FF4C042C4F20602B6
S32D00010E989278D2B242F01002D2B29A704FF4C043C4F206034FF4C042C4F206029278D2B242F02002D2B29A7053
S32D00010EC04FF4C043C4F20603FA7B1A7107F11407BD4680BC704700BF80B483B000AF4FF001037B6004E000BF5F
S32D00010EE87B6803F101037B607B68312BCCBF00230123DBB2002BF2D107F10C07BD4680BC704700BF80B582B072
S32D00010F1000AF02460B46FA71BB7141F2E913C1F6FF731B7818464FF00001FFF789FF4FF4C043C4F20603DB7874
S32D00010F38DBB203F00203002B14BF00230123DBB2002BF0D14FF4C043C4F206034FF4C042C4F20602D278D2B271
S32D00010F6042F00202D2B2DA704FF4C043C4F20603FA791A714FF4C043C4F20603DB78DBB203F00203002B14BF80
S32D00010F8800230123DBB2002BF0D14FF4C043C4F206034FF4C042C4F20602D278D2B242F00202D2B2DA704FF45D
S32D00010FB0C043C4F20603BA791A714FF4C043C4F20603DB78DBB203F00203002B14BF00230123DBB2002BF0D1F7
S32D00010FD84FF4C043C4F206034FF4C042C4F20602D278D2B242F00202D2B2DA704FF4C043C4F206034FF4C042C6
S32D00011000C4F206029278D2B222F02002D2B29A704FF4C043C4F206034FF4C042C4F206029278D2B222F01002F9
S32D00011028D2B29A70FFF754FF07F10807BD4680BD80B582B000AF0346FB71FB79184600F06BF807F10807BD4681
S32D0001105080BD00BF80B582B000AF02460B46FA71BB7100F039F8FB794FEA4303DBB21846FFF7E2FFBB791846C7
S32D00011078FFF7DEFF00F03EF807F10807BD4680BD80B500AF4FF0FF0000F046F80346184680BD00BF80B584B0AD
S32D000110A000AF0346FB7100F017F8FB794FEA4303DBB243F00103DBB2DBB21846FFF7BCFFFFF7E2FF0346FB7350
S32D000110C800F018F8FB7B184607F11007BD4680BD80B400AF4FF24003C4F20F034FF24002C4F20F02926842F42D
S32D000110F080129A60BD4680BC704700BF80B400AF4FF24003C4F20F034FF24002C4F20F02526842F480125A60DB
S32D00011118BD4680BC704700BF80B485B000AF0346FB714FF00003BB7303E0FB7B03F10103FB734FF44043C4F27B
S32D000111400A03DB6A4FF00003002BF2D14FF44043C4F20A034FF44042C4F20A02D26A42F00042DA624FF440433C
S32D00011168C4F20A03FA795A6300BF4FF44043C4F20A03DB6A03F40033002B14BF00230123DBB2002BF1D14FF4AC
S32D000111904043C4F20A039B6BBB73BB7B184607F11407BD4680BC704780B582B000AF4FF4E043C4F204034FF49D
S32D000111B8E042C4F2040202F5805202F13002126842F4805203F5805303F130031A604FF42043C4F204034FF4A8
S32D000111E080721A654FF24003C4F20F034FF24002C4F20F02526942F480125A61FFF77EFF4FF42043C4F20403C5
S32D000112084FF400725A654FF42043C4F204034FF400729A654FF42043C4F204034FF40072DA654FF44043C4F259
S32D000112300A034FF44062C8F200021A604FF44043C4F20A034FF00502C3F60062DA604FF000037B6007E04FF000
S32D00011258FF00FFF7EDFE7B6803F101037B607B68092BCCBF00230123DBB2002BEFD104A1D1E9000104F0D8FD47
S32D0001128007F10807BD4680BD9A9999999999B93F90B486B000AFF860B9607A60FA684FF42043C4F206039A4252
S32D000112A814D14FF4E043C4F204034FF4E042C4F2040202F5805202F13402126842F4806203F5805303F1340374
S32D000112D01A6083E0FA684FF43043C4F206039A4214D14FF4E043C4F204034FF4E042C4F2040202F5805202F17A
S32D000112F83402126842F4006203F5805303F134031A6067E0FA684FF44043C4F206039A4214D14FF4E043C4F204
S32D0001132004034FF4E042C4F2040202F5805202F13402126842F4805203F5805303F134031A604BE0FA684FF4C2
S32D000113485043C4F206039A4214D14FF4E043C4F204034FF4E042C4F2040202F5805202F13402126842F400522B
S32D0001137003F5805303F134031A602FE0FA684FF42043C4F20E039A4214D14FF4E043C4F204034FF4E042C4F201
S32D00011398040202F5805202F12802126842F4806203F5805303F128031A6013E04FF4E043C4F204034FF4E042C9
S32D000113C0C4F2040202F5805202F12802126842F4006203F5805303F128031A60FB68DB78DBB223F00C03DAB2F5
S32D000113E8FB68DA70FB684FF000029A70BB684FF47A7202FB03F27B684FEA031392FBF3F39CB2FB681B78DBB2C1
S32D0001141023F01F03FB75234603F4F8534FEA2323DBB203F01F03DAB2FB7D1343DAB2FB681A70E2B2FB685A70A8
S32D00011438BB684FF4FA4202FB03F27B684FEA031392FBF3F39AB2234619464FEAC121CB1A4FEA43139BB2D31871
S32D000114609CB2FB689B7ADBB223F01F03FB75E3B203F01F03DAB2FB7D1343DAB2FB689A72FB68DB78DBB243F0F0
S32D000114880C03DAB2FB68DA7007F11807BD4690BC704700BF80B483B000AF786000BF7B681B79DBB203F020034A
S32D000114B0002B14BF00230123DBB2002BF3D17B68DB79DBB2184607F10C07BD4680BC704780B483B000AF78603B
S32D000114D80B46FB7000BF7B681B79DBB2DBB26FEA0303DBB24FEAD313DBB2002BF3D17B68FA78DA7107F10C07A7
S32D00011500BD4680BC704700BF80B487B000AFF860B9607A60FB687B61BB683B610BE03B691A787B691A707B6931
S32D0001152803F101037B613B6903F101033B617B68002B0CBF00230123DBB27A6802F1FF327A60002BE7D107F120
S32D000115501C07BD4680BC704780B487B000AFF860B9607A60FB687B6107E0BB68DAB27B691A707B6903F10103CF
S32D000115787B617B68002B0CBF00230123DBB27A6802F1FF327A60002BEBD107F11C07BD4680BC704780B489B076
S32D000115A000AFF860B9607A60FB68FB61BB68BB614FF000037B617B68002B0CBF00230123DBB27A6802F1FF3253
S32D000115C87A60002B19D0FB691B781A46BB691B78D31A7B617B69002B14BF00230123DBB2FA6902F10102FA61C5
S32D000115F0BA6902F10102BA61002B02D04FF0010301E04FF00003002BD5D17B69184607F12407BD4680BC704709
S32D0001161880B483B000AF7860396003E07B6803F101037B607B681B78002B08D07B681B781A463B689A4202D0E3
S32D000116404FF0010301E04FF00003002BEAD17B681B78184607F10C07BD4680BC704700BF80B584B000AF7860AB
S32D0001166839607B681B6BFB60FA683B689A4264D07B681B79002B43D07B685A787B6803F1340310461946FA6852
S32D000116904FF0010304F0B4F80346002B0CBF00230123DBB2002B02D04FF001034BE07B684FF000021A717B6838
S32D000116B85A6A7B681B6AD218FB689A4220D97B68DB78FB7214E07B681B6AFA68D318FB607B685A787B6803F182
S32D000116E0340310461946FA684FF0010304F088F8FB7A03F1FF33FB72FB7A012B94BF00230123DBB2002BE2D128
S32D000117083B68002B19D07B685A787B6803F13403104619463A684FF0010303F05FFF0346002B0CBF00230123C7
S32D00011730DBB2002B02D04FF0010304E07B683A681A634FF00003184607F11007BD4680BD80B584B000AF7860F8
S32D0001175878684FF00001FFF77FFF0346FB73FB7B002B40F0AE807B681B78032B40F095807B685B79002B00F05D
S32D0001178090807B684FF000021A637B6803F1340318464FF000014FF40072FFF7DDFE7B684FF0550283F832220F
S32D000117A87B684FF0AA0283F833227B684FF0520283F834207B684FF0520283F835207B684FF0610283F8362093
S32D000117D07B684FF0410283F837207B684FF0720283F818227B684FF0720283F819227B684FF0410283F81A2200
S32D000117F87B684FF0610283F81B227B681B69DAB27B6883F81C227B681B699BB24FEA2323DAB27B6883F81D229A
S32D000118207B681B694FEA1343DAB27B6883F81E227B681B694FEA1363DAB27B6883F81F227B68DB68DAB27B68A3
S32D0001184883F820227B68DB689BB24FEA2323DAB27B6883F821227B68DB684FEA1343DAB27B6883F822227B68CF
S32D00011870DB684FEA1363DAB27B6883F823227B6859787B6803F134027B685B69084611461A464FF0010303F085
S32D00011898B3FF7B684FF000025A717B685B7818464FF000014FF0000204F08CF80346002B0CBF00230123DBB260
S32D000118C0002B02D04FF00103FB73FB7B184607F11007BD4680BD00BF80B483B000AF786039603B68A3F10203A6
S32D000118E83B607B68DB69A3F102023B689A4202D84FF0000307E07B689B783A6802FB03F27B68DB6AD3181846FA
S32D0001191007F10C07BD4680BC704700BF80B586B000AF786039603B68012B04D97B68DA693B689A4202D84FF0F3
S32D000119380103D3E07B681B78022B5FD0032B00F08A80012B40F0C8803B687B617B694FEA53037A69D3187B618F
S32D000119607B685A6A7B694FEA5323D31878681946FFF776FE0346002B0CBF00230123DBB2002B40F0A6807B6912
S32D000119884FEAC3534FEAD3537A68D31893F834303B617B6903F101037B617B685A6A7B694FEA5323D31878686D
S32D000119B01946FFF755FE0346002B0CBF00230123DBB2002B40F087807B694FEAC3534FEAD3537A68D31893F801
S32D000119D834304FEA03233A6913433B613B6803F00103DBB2002B03D03B694FEA131304E03B694FEA03534FEA10
S32D00011A0013536FE07B685A6A3B684FEA1323D31878681946FFF724FE0346002B0CBF00230123DBB2002B58D1A0
S32D00011A283B684FEA43034FEAC3534FEAD35303F130037A68D31803F10403FB60FB6803F101031B784FEA032328
S32D00011A509AB2FB681B7813439BB29BB242E07B685A6A3B684FEAD313D31878681946FFF7F7FD0346002B0CBF57
S32D00011A7800230123DBB2002B2DD13B684FEA83034FEAC3534FEAD35303F130037A68D31803F10403FB60FB6885
S32D00011AA003F103031B784FEA0362FB6803F102031B784FEA03431A43FB6803F101031B784FEA03231A43FB6814
S32D00011AC81B78134323F0704308E000BF04E000BF02E000BF00E000BF4FF0FF33184607F11807BD4680BD00BFD1
S32D00011AF080B588B000AFF860B9607A60BB68012B04D9FB68DA69BB689A4203D84FF00203FB771AE1FB681B780D
S32D00011B18022B00F08580032B00F0AD80012B40F00181BB68BB61BB694FEA5303BA69D318BB61FB685A6ABB69EC
S32D00011B404FEA5323D318F8681946FFF789FD0346FB77FB7F002B40F0ED80BB694FEAC3534FEAD35303F13003AB
S32D00011B68FA68D31803F104037B61BB6803F00103DBB2002B0ED07B691B78DBB203F00F03DAB27B68DBB24FEA3C
S32D00011B900313DBB21343DBB2DBB201E07B68DBB27A691370BB6903F10103BB61FB684FF001021A71FB685A6ACD
S32D00011BB8BB694FEA5323D318F8681946FFF74CFD0346FB77FB7F002B40F0B280BB694FEAC3534FEAD35303F1BA
S32D00011BE03003FA68D31803F104037B61BB6803F00103DBB2002B04D07B684FEA1313DBB20FE07B691B78DBB217
S32D00011C0823F00F03DAB27B684FEA1323DBB203F00F03DBB21343DBB2DBB27A6913708CE0FB685A6ABB684FEAC6
S32D00011C301323D318F8681946FFF712FD0346FB77FB7F002B7AD1BB684FEA43034FEAC3534FEAD35303F130037E
S32D00011C58FA68D31803F104037B617B68DAB27B691A707B6903F101037A6892B24FEA2222D2B21A7061E0FB682B
S32D00011C805A6ABB684FEAD313D318F8681946FFF7E7FC0346FB77FB7F002B51D1BB684FEA83034FEAC3534FEAC0
S32D00011CA8D35303F13003FA68D31803F104037B617B6903F103031B784FEA03627B6903F102031B784FEA03439E
S32D00011CD01A437B6903F101031B784FEA03231A437B691B78134303F070437A6813437B607B68DAB27B691A70FA
S32D00011CF87B6903F101037A6892B24FEA2222D2B21A707B6903F102037A684FEA1242D2B21A707B6903F10303F8
S32D00011D207A684FEA1262D2B21A700AE04FF00203FB7706E000BF04E000BF02E000BF00E000BFFB684FF001022A
S32D00011D481A71FB7F184607F12007BD4680BD00BF80B584B000AF786039603B68012B04D97B68DA693B689A4211
S32D00011D7003D84FF00203FB7345E04FF00003FB7333E078683968FFF7C9FD0346BB60BB68002B35D0BB68012B8C
S32D00011D9803D14FF00203FB7331E0BB68B3F1FF3F03D14FF00103FB7329E0786839684FF00002FFF799FE03465A
S32D00011DC0FB73FB7B002B1DD17B681B69B3F1FF3F09D07B681B6903F101027B681A617B684FF001025A71BB6806
S32D00011DE83B607B68DA693B689A4294BF00230123DBB2002BC1D102E000BF00E000BFFB7B184607F11007BD4682
S32D00011E1080BD00BF80B586B000AF786039603B68002B0ED17B68DB683B613B69002B04D07B68DA693B699A4264
S32D00011E3818D84FF001033B6114E078683968FFF769FD0346BB60BB68012B02D84FF001036EE07B68DA69BB6874
S32D00011E609A4201D9BB6867E03B683B613B697B6100E000BF7B6903F101037B617B68DA697B699A4209D84FF017
S32D00011E8802037B617A693B699A4202D94FF000034EE078687969FFF73DFD0346BB60BB68002B0FD0BB68B3F152
S32D00011EB0FF3F02D0BB68012B01D1BB683CE07A693B699A42D5D14FF0000335E000BF786879696FF07042FFF7AB
S32D00011ED80BFE0346FB73FB7B002B09D13B68002B06D0786839687A69FFF7FEFD0346FB73FB7B002B12D17B6889
S32D00011F007A69DA607B681B69B3F1FF3F13D07B681B6903F1FF327B681A617B684FF001025A7108E0FB7B012B05
S32D00011F2802D14FF0FF3301E04FF001037B617B69184607F11807BD4680BD00BF80B487B000AF786039607B6880
S32D00011F505B6A03F104033B613B684FEA53227B681B689B78B2FBF3F37B613B691B68FB603B6903F104033B6110
S32D00011F78FB68002B02D14FF0000311E07A69FB689A4208D37A69FB68D31A7B613B6903F104033B61E5E700BFD4
S32D00011FA03B691A687B69D318184607F11C07BD4680BC704780B584B000AF78600B467B807B687A88DA807B6850
S32D00011FC89B68FB60FB68012B05D07B681B68DA69FB689A4202D84FF0020373E0FB68002B08D17B681B681B786F
S32D00011FF0032B03D17B681B689B6AFB60FB68002B16D17B68FA68DA607B681B681B897A889A4202D34FF0020305
S32D0001201858E07B681B689A6A7B884FEA13139BB2D2187B681A613FE07B681B689B784FEA03137B811EE07B683C
S32D000120401B681846F968FFF769FC0346FB60FB68B3F1FF3F02D14FF0010337E0FB68012B05D97B681B68DA69A8
S32D00012068FB689A4202D84FF002032BE07A887B89D31A7B807A887B899A4234BF00230123DBB2002BD7D17B6894
S32D00012090FA68DA607B681B681846F968FFF71CFC02467B884FEA13139BB2D2187B681A617B681B6803F1340283
S32D000120B87B8803F00F034FEA4313D2187B685A614FF00003184607F11007BD4680BD00BF90B585B000AF78602B
S32D000120E039607B68DB8803F101033B813B89002B03D07B681B69002B02D14FF00403E4E03B8903F00F03002B19
S32D0001210840F0CE807B681B6903F101027B681A617B68DB68002B09D17B681B681B893A899A42C0F0BD804FF06E
S32D000121300403CAE03B894FEA13139BB21A467B681B689B7803F1FF331340002B40F0AC807B681A687B68DB68FB
S32D0001215810461946FFF7DEFB0346FB60FB68012B02D84FF00203ACE0FB68B3F1FF3F02D14FF00103A5E07B6834
S32D000121801B68DA69FB689A4200F282803B68002B02D14FF0040398E07B681A687B68DB6810461946FFF736FE6E
S32D000121A80346FB60FB68002B02D14FF0070388E0FB68012B02D14FF0020382E0FB68B3F1FF3F02D14FF00103EF
S32D000121D07BE07B681B6818464FF00001FFF740FA0346002B0CBF00230123DBB2002B02D04FF0010369E07B68D2
S32D000121F81B6803F1340318464FF000014FF40072FFF7A6F97B681C687B681B681846F968FFF75EFB0346236378
S32D000122204FF00003FB7220E07B681B684FF001021A717B681B6818464FF00001FFF710FA0346002B0CBF002347
S32D000122480123DBB2002B02D04FF0010339E07B681B681A6B02F101021A63FB7A03F10103FB727B681B689B78AC
S32D00012270FA7A9A422CBF00230123DBB2002BD3D17B681B687A681268116BFA7A8A1A1A637B68FA68DA607B682C
S32D000122981B681846F968FFF71BFB02467B681A617B683A89DA807B681B6803F134023B8903F00F034FEA43133B
S32D000122C0D2187B685A614FF00003184607F11407BD4690BD80B586B000AF786078684FF00001FFF767FE0346AE
S32D000122E8FB75FB7D002B01D0FB7D47E07B681A687B681B6910461946FFF7AEF90346FB75FB7D002B36D17B68E0
S32D000123105B693B613B691B78FB73FB7B002B03D14FF00403FB752CE03B6903F10B031B7803F00803002B0DD122
S32D000123387B689B69386919464FF00B02FFF72AF90346002B02D14FF0010301E04FF00003002B11D178684FF051
S32D000123600001FFF7B9FE0346FB75FB7D002B14BF00230123DBB2002BBCD102E000BF00E000BFFB7D184607F1D7
S32D000123881807BD4680BD00BF80B584B000AF786078684FF00001FFF709FE0346FB73FB7B002B29D17B681A6844
S32D000123B07B681B6910461946FFF752F90346FB73FB7B002B19D17B685B691B78BB73BB7BE52B14D0BB7B002B6C
S32D000123D811D078684FF00101FFF77AFE0346FB73FB7B002B14BF00230123DBB2002BD9D102E000BF00E000BF52
S32D00012400FB7B002B23D17B681A687B681B6910461946FFF725F90346FB73FB7B002B16D17B685B69BB60B86862
S32D000124284FF000014FF02002FFF792F87B689B69B86819464FF00B02FFF762F87B681B684FF001021A71FB7BB9
S32D00012450184607F11007BD4680BD00BF80B588B000AF786039603B681B68FB6003E0FB6803F10103FB60FB68E7
S32D000124781B782F2B03D0FB681B785C2B02D14FF0010301E04FF00003002BECD17B689B69BB60B8684FF0200155
S32D000124A04FF00B02FFF758F84FF00003FB774FF000033B613B697B614FF00803BB61FA687B69D3181B782E2BE6
S32D000124C839D1FA687B69D3181B78BB777B6903F101037B61BB7F2E2B0CD17B69022B09D8BA683B69D318BA7FE1
S32D000124F01A703B6903F101033B61E6E700BFBB7F2F2B08D0BB7F5C2B05D0BB7F202B02D94FF00603C5E0FA68BE
S32D000125187B69D2183B681A60BB6803F10B02BB7F202B02D84FF0240301E04FF0200313704FF00003B1E0FA68C5
S32D000125407B69D3181B78BB777B6903F101037B61BB7F202B68D9BB7F2F2B65D0BB7F5C2B62D0BB7F2E2B03D038
S32D000125683A69BB699A4214D3BB69082B02D1BB7F2E2B02D04FF006038FE04FF008033B614FF00B03BB61FB7FAB
S32D000125904FEA8303FB7700BFD1E7BB7F5BB2002B0CDAFB7F43F00303FB77BB7FA3F180024DF21043C0F201035F
S32D000125B89B5CBB77BB7F4DF2FC00C0F201001946FFF726F80346002B0CBF00230123DBB2002B02D04FF00603D8
S32D000125E05FE0BB7F402B07D9BB7F5A2B04D8FB7F43F00203FB770DE0BB7F602B0AD9BB7F7A2B07D8FB7F43F049
S32D000126080103FB77BB7FA3F12003BB77BA683B69D318BA7F1A703B6903F101033B618AE700BFFA687B69D218FE
S32D000126303B681A60BB7F202B02D84FF0040301E04FF00003BB773B69002B02D14FF0060327E0BB681B78E52BAD
S32D0001265803D1BB684FF005021A70BB69082B03D1FB7F4FEA8303FB77FB7F03F00303012B03D1BB7F43F01003C3
S32D00012680BB77FB7F03F00C03042B03D1BB7F43F00803BB77BB6803F10B03BA7F1A704FF00003184607F1200729
S32D000126A8BD4680BD80B584B000AF786039603B681B782F2B03D03B681B785C2B08D13B6803F101033B607B6828
S32D000126D04FF000029A6004E07B681B689A697B689A603B681B781F2B0BD878684FF00001FFF760FC0346FB73EA
S32D000126F87B684FF000025A6175E03B4678681946FFF7A8FE0346FB73FB7B002B64D17868FFF7DCFD0346FB7330
S32D000127207B689B69DB7ABB73FB7B002B21D0FB7B042B57D1BB7B03F02003002B10D07B684FF000029A607B6869
S32D000127484FF000025A614FF00003FB73BB7B03F00403002B44D13EE0BB7B03F00403002B3ED14FF00503FB7309
S32D000127703AE0BB7B03F00403002B37D17B685B69BB60BB6803F10B031B7803F01003002B03D14FF00503FB7389
S32D0001279829E0BB6803F115031B784FEA03239AB2BB6803F114031B7813439BB29BB24FEA0342BB6803F11B0338
S32D000127C01B784FEA032399B2BB6803F11A031B780B439BB29BB21A437B689A6091E790E700BF04E000BF02E091
S32D000127E800BF00E000BFFB7B184607F11007BD4680BD00BF80B582B000AF786039607B685A787B6803F1340338
S32D00012810104619463A684FF0010302F0E3FE0346002B0CBF00230123DBB2002B02D04FF0030356E07B6893F833
S32D0001283833324FEA03239AB27B6893F8323213439BB21AB24AF65523CFF6FF739A4202D04FF0020341E07B683B
S32D0001286093F86D304FEA03627B6893F86C304FEA03431A437B6893F86B304FEA03231A437B6893F86A3013437A
S32D0001288823F07F4244F24613C0F254039A4202D14FF0000321E07B6893F889304FEA03627B6893F888304FEA9F
S32D000128B003431A437B6893F887304FEA03231A437B6893F88630134323F07F4244F24613C0F254039A4202D1E0
S32D000128D84FF0000301E04FF00103184607F10807BD4680BD80B592B000AFF860B9601346FB71FB681B68FB6227
S32D00012900FB6A1B78A3F130033B643B6C092B0DD8FB6A03F101031B783A2B07D1FB6A03F10203FB62FB68FA6ADB
S32D000129281A6005E041F2F213C1F6FF731B783B643B6C002B02D04FF00B03C9E241F2EC13C1F6FF733A6C53F8A6
S32D000129502230BB62BB68BA6A1A60BB6A002B02D14FF00C03B8E2BB6A1B78002B20D0BB6A5B78184603F0BEF84B
S32D00012978034687F8273097F8273003F00103DBB283F00103DBB2002B0ED0FB79002B08D097F8273003F0040343
S32D000129A0002B02D04FF00A0396E24FF0000393E2BB6A4FF000021A703B6CDAB2BB6A5A70BB6A5B78184602F036
S32D000129C84FFB034687F8273097F8273003F00103DBB2002B02D04FF0030379E2FB79002B08D097F8273003F020
S32D000129F00403002B02D04FF00A036DE24FF00003FB63B86AF96BFFF7F9FE034687F8473097F84730012B2AD19A
S32D00012A18BB6A03F5F9733B623B6A03F104031B78002B20D03B6A03F10B031B784FEA03623B6A03F10A031B780A
S32D00012A404FEA03431A433B6A03F109031B784FEA03231A433B6A03F108031B781343FB63B86AF96BFFF7CAFE68
S32D00012A68034687F8473097F84730032B02D14FF001032DE297F84730002B02D04FF00D0326E2BB6A93F840302D
S32D00012A904FEA03239AB2BB6A93F83F3013439BB21BB2B3F5007F02D04FF00D0314E2BB6A93F84B304FEA032315
S32D00012AB89AB2BB6A93F84A3013439BB29BB2BB63BB6B002B15D1BB6A93F85B304FEA0362BB6A93F85A304FEAE8
S32D00012AE003431A43BB6A93F859304FEA03231A43BB6A93F858301343BB63BB6ABA6B1A62BB6A93F84430FB7727
S32D00012B08BB6AFA7FDA70FB7F012B05D0FB7F022B02D04FF00D03DBE1FA7FBB6B02FB03F3BB63BB6A93F84130E6
S32D00012B30FB77BB6AFA7F9A70FB7F002B06D0FA7FFB7F03F1FF331340002B02D04FF00D03C2E1BB6A93F8463060
