S01300002E2E2F4645485F526F626F742E7331391E
S32D0000C00000000020D513010031170100311701003117010031170100311701000000000000000000000000009C
S32D0000C02800000000311701003117010000000000311701003117010031170100311701003117010031170100A2
S32D0000C05031170100311701003117010031170100311701003117010031170100311701003117010031170100E8
S32D0000C07831170100311701003117010031170100311701003117010031170100311701003117010031170100C0
S32D0000C0A03117010031170100311701003117010031170100311701003117010031170100311701003117010098
S32D0000C0C83117010031170100311701003117010031170100311701003117010031170100311701003117010070
S32D0000C0F031170100E9B401003117010031170100311701003117010031170100311701003117010031170100F3
S32D0000C118311701003117010031170100311701003117010031170100311701003117010031170100311701001F
S32D0000C140311701003117010031170100311701009D7A0100311701003117010031170100311701003117010028
S32D0000C16831170100311701003117010031170100311701003117010031170100311701003117010031170100CF
S32D0000C190311701003117010031170100FD740100517301002574010081170100D575010031170100311701005F
S32D0000C1B8311701003117010031170100311701003117010031170100311701003117010031170100311701007F
S32D0000C41081F0004102E000BF83F0004330B54FEA41044FEA430594EA050F08BF90EA020F1FBF54EA000C55EAC6
S32D0000C438020C7FEA645C7FEA655C00F0E2804FEA5454D4EB5555B8BF6D420CDD2C4480EA020281EA030382EA0F
S32D0000C460000083EA010180EA020281EA0303362D88BF30BD11F0004F4FEA01314FF4801C4CEA113102D0404263
S32D0000C48861EB410113F0004F4FEA03334CEA133302D0524263EB430394EA050F00F0A780A4F10104D5F1200E8A
S32D0000C4B00DDB02FA0EFC22FA05F2801841F1000103FA0EF2801843FA05F359410EE0A5F120050EF1200E012A2D
S32D0000C4D803FA0EFC28BF4CF0020C43FA05F3C01851EBE37101F0004507D54FF0000EDCF1000C7EEB00006EEB67
S32D0000C5000101B1F5801F1BD3B1F5001F0CD349085FEA30004FEA3C0C04F101044FEA445212F5800F80F09A8000
S32D0000C528BCF1004F08BF5FEA500C50F1000041EB045141EA050130BD5FEA4C0C404141EB010111F4801FA4F114
S32D0000C5500104E9D191F0000F04BF01460020B1FA81F308BF2033A3F10B03B3F120020CDA0C3208DD02F1140C87
S32D0000C578C2F10C0201FA0CF021FA02F10CE002F11402D8BFC2F1200C01FA02F120FA0CFCDCBF41EA0C019040B1
S32D0000C5A0E41AA2BF01EB0451294330BD6FEA04041F3C1CDA0C340EDC04F11404C4F1200220FA04F001FA02F3B6
S32D0000C5C840EA030021FA04F345EA030130BDC4F10C04C4F1200220FA02F001FA04F340EA0300294630BD21FAA8
S32D0000C5F004F0294630BD94F0000F83F4801306BF81F480110134013D4EE77FEA645C18BF7FEA655C29D094EA1C
S32D0000C618050F08BF90EA020F05D054EA000C04BF1946104630BD91EA030F1EBF0021002030BD5FEA545C05D1A3
S32D0000C6404000494128BF41F0004130BD14F580043CBF01F5801130BD01F0004545F0FE4141F470014FF0000031
S32D0000C66830BD7FEA645C1ABF194610467FEA655C1CBF0B46024650EA013406BF52EA033591EA030F41F40021D7
S32D0000C69030BD00BF90F0000F04BF0021704730B54FF4806404F132044FF000054FF0000150E700BF90F0000F66
S32D0000C6B804BF0021704730B54FF4806404F1320410F0004548BF40424FF000013EE700BF42004FEAE2014FEAF9
S32D0000C6E031014FEA02701FBF12F07F4393F07F4F81F06051704792F0000F14BF93F07F4F704730B54FF460741B
S32D0000C70801F0004521F0004120E700BF50EA010208BF704730B54FF000050AE050EA010208BF704730B511F046
S32D0000C730004502D5404261EB41014FF4806404F132045FEA915C3FF4DCAE4FF003025FEADC0C18BF03325FEAA0
S32D0000C758DC0C18BF033202EBDC02C2F1200300FA03FC20FA02F001FA03FE40EA0E0021FA02F11444C1E600BF19
S32D0000C78070B54FF0FF0C4CF4E06C1CEA11541DBF1CEA135594EA0C0F95EA0C0F00F0DEF82C4481EA030621EAF3
S32D0000C7A84C5123EA4C5350EA013518BF52EA033541F4801143F4801338D0A0FB02CE4FF00005E1FB02E506F05F
S32D0000C7D00042E0FB03E54FF00006E1FB03569CF0000F18BF4EF0010EA4F1FF04B6F5007F64F5407404D25FEA0F
S32D0000C7F84E0E6D4146EB060642EAC62141EA55514FEAC52040EA5E504FEACE2EB4F1FD0C88BFBCF5E06F1ED8D2
S32D0000C820BEF1004F08BF5FEA500E50F1000041EB045170BD06F0004646EA010140EA020081EA0301B4EB5C0487
S32D0000C848C2BFD4EB0C0541EA045170BD41F480114FF0000E013C00F3AB8014F1360FDEBF002001F0004170BDF0
S32D0000C870C4F10004203C35DA0C341BDC04F11404C4F1200500FA05F320FA04F001FA05F240EA020001F0004207
S32D0000C89821F0004110EBD37021FA04F642EB06015EEA430E08BF20EAD37070BDC4F10C04C4F1200500FA04F32F
S32D0000C8C020FA05F001FA04F240EA020001F0004110EBD37041F100015EEA430E08BF20EAD37070BDC4F12005C7
S32D0000C8E800FA05F24EEA020E20FA04F301FA05F243EA020321FA04F001F0004121FA04F220EA020000EBD37028
S32D0000C9105EEA430E08BF20EAD37070BD94F0000F0FD101F00046400041EB010111F4801F08BF013CF7D041EA6D
S32D0000C938060195F0000F18BF704703F00046520043EB030313F4801F08BF013DF7D043EA0603704794EA0C0FF1
S32D0000C9600CEA135518BF95EA0C0F0CD050EA410618BF52EA4306D1D181EA030101F000414FF0000070BD50EA38
S32D0000C988410606BF1046194652EA430619D094EA0C0F02D150EA013613D195EA0C0F05D152EA03361CBF10467B
S32D0000C9B019460AD181EA030101F0004141F0FE4141F470014FF0000070BD41F0FE4141F4780170BD70B54FF04D
S32D0000C9D8FF0C4CF4E06C1CEA11541DBF1CEA135594EA0C0F95EA0C0F00F0A7F8A4EB050481EA030E52EA03359B
S32D0000CA004FEA013100F088804FEA03334FF0805545EA131343EA12634FEA022245EA111545EA10654FEA002676
S32D0000CA280EF000419D4208BF964244F1FD0404F5407402D25B084FEA3202B61A65EB03055B084FEA32024FF461
S32D0000CA5080104FF4002CB6EB020E75EB030E22BFB61A754640EA0C005B084FEA3202B6EB020E75EB030E22BF22
S32D0000CA78B61A754640EA5C005B084FEA3202B6EB020E75EB030E22BFB61A754640EA9C005B084FEA3202B6EBEA
S32D0000CAA0020E75EB030E22BFB61A754640EADC0055EA060E18D04FEA051545EA16754FEA06164FEAC30343EAAC
S32D0000CAC852734FEAC2025FEA1C1CC0D111F4801F0BD141EA00014FF000004FF0004CB6E711F4801F04BF0143AE
S32D0000CAF00020B4F1FD0C88BFBCF5E06F3FF6AFAEB5EB030C04BFB6EB020C5FEA500C50F1000041EB045170BDBC
S32D0000CB180EF0004E4EEA113114EB5C04C2BFD4EB0C0541EA045170BD41F480114FF0000E013C90E645EA060EC3
S32D0000CB408DE60CEA135594EA0C0F08BF95EA0C0F3FF43BAF94EA0C0F0AD150EA01347FF434AF95EA0C0F7FF499
S32D0000CB6825AF104619462CE795EA0C0F06D152EA03353FF4FDAE1046194622E750EA410618BF52EA43067FF432
S32D0000CB90C5AE50EA41047FF40DAF52EA43057FF4EBAE12E74FF0FF3C06E000BF4FF0010C02E000BF4FF0010C75
S32D0000CBB84DF804CD4FEA410C7FEA6C5C4FEA430C18BF7FEA6C5C1BD001B050EA410C0CBF52EA430C91EA030FEC
S32D0000CBE002BF90EA020F0020704710F1000F91EA030F58BF994208BF90422CBFD8176FEAE37040F0010070476E
S32D0000CC084FEA410C7FEA6C5C02D150EA013C07D14FEA430C7FEA6C5CD6D152EA033CD3D05DF8040B704700BFCD
S32D0000CC308446104662468C461946634600E000BF01B5FFF7B7FF002848BF10F1000F01BD4DF808EDFFF7F4FF13
S32D0000CC580CBF012000205DF808FB00BF4DF808EDFFF7EAFF34BF012000205DF808FB00BF4DF808EDFFF7E0FF18
S32D0000CC8094BF012000205DF808FB00BF4DF808EDFFF7CEFF94BF012000205DF808FB00BF4DF808EDFFF7C4FF40
S32D0000CCA834BF012000205DF808FB00BF4FEA410212F5001215D211D56FF47873B3EB625212D94FEAC12343F0D6
S32D0000CCD0004343EA505311F0004F23FA02F018BF404270474FF00000704750EA013005D111F0004008BF6FF016
S32D0000CCF8004070474FF00000704700BF4A0011D212F5001211D20DD56FF47873B3EB62520ED44FEAC12343F085
S32D0000CD20004343EA505323FA02F070474FF00000704750EA013002D14FF0FF3070474FF0000070474FEA410241
S32D0000CD48B2F1E04324BFB3F5001CDCF1FE5C0DD901F0004C4FEAC0024CEA5070B2F1004F40EB830008BF20F09E
S32D0000CD700100704711F0804F21D113F13872BCBF01F00040704741F480114FEA5252C2F11802C2F1200C10FAB1
S32D0000CD980CF320FA02F018BF40F001004FEAC1234FEAD32303FA0CFC40EA0C0023FA02F34FEA4303CCE77FEA26
S32D0000CDC0625307D150EA01331EBF4FF0FE4040F44000704701F0004040F0FE4040F40000704700BF80F00040CC
S32D0000CDE802E000BF81F0004142001FBF5FEA410392EA030F7FEA226C7FEA236C6AD04FEA1262D2EB1363C1BF06
S32D0000CE10D218414048404140B8BF5B42192B88BF704710F0004F40F4000020F07F4018BF404211F0004F41F4FA
S32D0000CE38000121F07F4118BF494292EA030F3FD0A2F1010241FA03FC10EB0C00C3F1200301FA03F100F000432B
S32D0000CE6002D5494260EB4000B0F5000F13D3B0F1807F06D340084FEA310102F10102FE2A51D2B1F1004F40EB94
S32D0000CE88C25008BF20F0010040EA03007047490040EB000010F4000FA2F10102EDD1B0FA80FCACF1080CB2EB5F
S32D0000CEB00C0200FA0CF0AABF00EBC25052421843BCBFD0401843704792F0000F81F4000106BF80F400000132EB
S32D0000CED8013BB5E74FEA41037FEA226C18BF7FEA236C21D092EA030F04D092F0000F08BF0846704790EA010FD7
S32D0000CF001CBF0020704712F07F4F04D1400028BF40F00040704712F100723CBF00F50000704700F0004343F0DC
S32D0000CF28FE4040F4000070477FEA226216BF08467FEA23630146420206BF5FEA412390EA010F40F480007047C1
S32D0000CF504FF0000304E000BF10F0004348BF40425FEA000C08BF704743F0964301464FF000001CE050EA010264
S32D0000CF7808BF70474FF000030AE000BF50EA010208BF704711F0004302D5404261EB41015FEA010C02BF84465B
S32D0000CFA00146002043F0B64308BFA3F18053A3F50003BCFA8CF2083AA3EBC25310DB01FA02FC634400FA02FC6B
S32D0000CFC8C2F12002BCF1004F20FA02F243EB020008BF20F00100704702F1200201FA02FCC2F1200250EA4C0034
S32D0000CFF021FA02F243EB020008BF20EADC7070474FF0FF0C1CEAD0521EBF1CEAD15392EA0C0F93EA0C0F6FD019
S32D0000D0181A4480EA010C400218BF5FEA41211ED04FF0006343EA501043EA5111A0FB01310CF00040B1F5000FE7
S32D0000D0403EBF490041EAD3715B0040EA010062F17F02FD2A1DD8B3F1004F40EBC25008BF20F00100704790F058
S32D0000D068000F0CF0004C08BF49024CEA502040EA51207F3AC2BFD2F1FF0340EAC250704740F400004FF0000388
S32D0000D090013A5DDC12F1190FDCBF00F000407047C2F10002410021FA02F1C2F1200200FA02FC5FEA310040F1D5
S32D0000D0B8000053EA4C0308BF20EADC70704792F0000F00F0004C02BF400010F4000F013AF9D040EA0C0093F04C
S32D0000D0E0000F01F0004C02BF490011F4000F013BF9D041EA0C018FE70CEAD15392EA0C0F18BF93EA0C0F0AD00B
S32D0000D10830F0004C18BF31F0004CD8D180EA010000F00040704790F0000F17BF90F0004F084691F0000F91F0BB
S32D0000D130004F14D092EA0C0F01D142020FD193EA0C0F03D14B0218BF084608D180EA010000F0004040F0FE4051
S32D0000D15840F40000704740F0FE4040F4400070474FF0FF0C1CEAD0521EBF1CEAD15392EA0C0F93EA0C0F69D044
S32D0000D180A2EB030280EA010C49024FEA402037D04FF0805343EA111143EA10130CF000408B4238BF5B0042F14E
S32D0000D1A87D024FF4000C8B4224BF5B1A40EA0C00B3EB510F24BFA3EB510340EA5C00B3EB910F24BFA3EB9103A4
S32D0000D1D040EA9C00B3EBD10F24BFA3EBD10340EADC001B0118BF5FEA1C1CE0D1FD2A3FF650AF8B4240EBC25018
S32D0000D1F808BF20F0010070470CF0004C4CEA50207F32C2BFD2F1FF0340EAC250704740F400004FF00003013AF1
S32D0000D22037E792F0000F00F0004C02BF400010F4000F013AF9D040EA0C0093F0000F01F0004C02BF490011F4C9
S32D0000D248000F013BF9D041EA0C0195E70CEAD15392EA0C0F08D142027FF47DAF93EA0C0F7FF470AF084676E7AE
S32D0000D27093EA0C0F04D14B023FF44CAF08466EE730F0004C18BF31F0004CCAD130F000427FF45CAF31F0004376
S32D0000D2987FF43CAF5FE700BF4FF0FF3C06E000BF4FF0010C02E000BF4FF0010C4DF804CD4FEA40024FEA41039F
S32D0000D2C07FEA226C18BF7FEA236C11D001B052EA530C18BF90EA010F58BFB2EB030088BFC81738BF6FEAE1706E
S32D0000D2E818BF40F0010070477FEA226C02D15FEA402C05D17FEA236CE4D15FEA412CE1D05DF8040B704700BF16
S32D0000D310844608466146FFE70FB5FFF7C9FF002848BF10F1000F0FBD4DF808EDFFF7F4FF0CBF012000205DF839
S32D0000D33808FB00BF4DF808EDFFF7EAFF34BF012000205DF808FB00BF4DF808EDFFF7E0FF94BF012000205DF8A9
S32D0000D36008FB00BF4DF808EDFFF7D2FF94BF012000205DF808FB00BF4DF808EDFFF7C8FF34BF012000205DF8B1
S32D0000D38808FB00BF4FEA4002B2F1FE4F0FD34FF09E03B3EB12620DD94FEA002343F0004310F0004F23FA02F060
S32D0000D3B018BF404270474FF00000704712F1610F01D1420205D110F0004008BF6FF0004070474FF00000704797
S32D0000D3D880B483B000AF78607B6823F00043184607F10C07BD4680BC704700BF00000000B0B586B002AF01F0A5
S32D0000D40067F909F0A1FB0346BB6001F02AB941F28013C1F6FF731B78002B01D003F02CFD02F02EFD41F2711363
S32D0000D428C1F6FF731B78122B01F20B8101A252F823F000BF89D40000E1D400000BD700009BD7000067DB0000F7
S32D0000D450DFDB0000D9DC000095D800000FDA000037DB00002FDD0000D1DF000089E0000027E1000015E20000B3
S32D0000D47837E400007DE500000BE600003BE6000002F0C6FB0346002B06D109F059FB0246BB68D31A142B02D93A
S32D0000D4A04FF0010301E04FF00003002B01F0D88041F26C50C1F6FF704EF21811C0F201010FF078FC41F2E44088
S32D0000D4C8C1F6FF704FF000010BF000FB4FF0010002F07AFA01F0C0B841F26C50C1F6FF704EF23011C0F2010181
S32D0000D4F00FF060FCCC48CD4903F032F80AE002F0BFFC41F28013C1F6FF731B78002B01D003F0B2FC02F00CFFB9
S32D0000D518034683F00103DBB2002BECD1BAA1D1E9000109F0A9FAC04803F002F841F26C50C1F6FF704EF244115F
S32D0000D540C0F201010FF036FC4FF00100B949BA4A03F0C2F909F0F8FA03467B6003E0B748B74902F045FF4FF07E
S32D0000D568010003F03DF8034683F00103DBB2002B09D009F0E5FA02467B68D31A022B02D84FF0010301E04FF0C1
S32D0000D5900003002BE3D14FF0010003F025F8034683F00103DBB2002B3FD041F25010C1F6FF7009F01BFC0346A2
S32D0000D5B883F00103DBB2002B13D09B48984902F013FF93A1D1E9000109F056FA9B4802F0AFFF4FF000004FF032
S32D0000D5E07E5101F5A00109F04BFA41F25410C1F6FF7009F0FBFB034683F00103DBB2002B13D089488A4902F0DC
S32D0000D608F3FE83A1D1E9000109F036FA8B4802F08FFF4FF000004FF07E5101F5A00109F02BFA814802F084FF68
S32D0000D6307BA1D1E9000109F023FA41F26C50C1F6FF704EF25011C0F201010FF0B3FB41F26C50C1F6FF704EF273
S32D0000D6587411C0F201010FF0A9FB714802F068FF0AE002F009FC41F28013C1F6FF731B78002B01D003F0FCFB6D
S32D0000D68002F0CAFA0346002B14BF00230123DBB2002BEAD1664802F04FFF02F0BDFA024641F2F013C1F6FF7387
S32D0000D6A81A6041F2F013C1F6FF731B68002B06D141F2F013C1F6FF734FF0FF021A6041F2F013C1F6FF731B68FB
S32D0000D6D0B3F57F0F04D14EF29013C0F2010303E04EF29413C0F2010341F26C50C1F6FF704EF29C11C0F2010152
S32D0000D6F81A460FF05BFB4FF0020002F065F900F0ACBF41F26C50C1F6FF704EF2B811C0F201010FF04BFB4248C2
S32D0000D72002F00AFF09F010FA03467B600AE002F0A7FB41F28013C1F6FF731B78002B01D003F09AFB4FF00000F6
S32D0000D74802F04EFF034683F00103DBB2002B09D009F0F6F902467B68D31A092B02D84FF0010301E04FF00003AF
S32D0000D770002BDCD12E4802F0DFFE41F26C50C1F6FF704EF2D011C0F201010FF013FB4FF0030002F01DF900F03D
S32D0000D79864BF4FF0010002F05DF92848284902F0DBFE09F0CDF903467B600AE002F064FB41F28013C1F6FF73FF
S32D0000D7C01B78002B01D003F057FB02F0B1FD034683F00103DBB2002B09D009F0B5F902467B68D31A022B02D8B0
S32D0000D7E84FF0010301E04FF00003002BDED10E4802F09EFE4FF0000002F02CF90848114902F0AAFE2BE000BF8B
S32D0000D810333333333333C33F9A9999999999A93F9A9999999999B93F00000C420000A040000000000000AA428E
S32D0000D8380000C84100008CC10000A8C100000CC20000E0400000404002F016FB41F28013C1F6FF731B78002BE5
S32D0000D86001D003F009FB02F063FD034683F00103DBB2002BECD1EC4802F05EFEEA4802F019F9EA4803F0C8F8AE
S32D0000D8884FF0070002F0A0F800F0E7BE41F26C50C1F6FF704EF2F011C0F201010FF086FAE14802F045FE09F02D
S32D0000D8B04BF903467B600AE002F0E2FA41F28013C1F6FF731B78002B01D003F0D5FA4FF0010002F089FE0346E8
S32D0000D8D883F00103DBB2002B09D009F031F902467B68D31A092B02D84FF0010301E04FF00003002BDCD1CA4881
S32D0000D90002F01AFECB48CC4902F02AFE0AE002F0B7FA41F28013C1F6FF731B78002B01D003F0AAFA02F004FD18
S32D0000D928034683F00103DBB2002BECD1B8A1D1E9000109F0A1F8BA4802F0FAFD4FF00100BC49BD4A02F0C4FF0A
S32D0000D95041F26C50C1F6FF704EF20821C0F201010FF028FA41F29812C1F6FF724EF21C23C0F2010314460FCBE8
S32D0000D97884E80F0002F080FA41F22C10C1F6FF70AE4903F0D5FF4FF000004FF0804109F073F841F22C10C1F67E
S32D0000D9A0FF70A14903F0C8FFA148A74902F0D8FD09F0CAF803467B600AE002F061FA41F28013C1F6FF731B780E
S32D0000D9C8002B01D003F054FA02F0AEFC034683F00103DBB2002B09D009F0B2F802467B68D31A042B02D84FF004
S32D0000D9F0010301E04FF00003002BDED18A4802F09BFD4FF0080001F0E3FF00F02ABE4FF000008E498A4A02F0DE
S32D0000DA185FFF854802F08CFD09F05AF802460B4610461946FFF76AF903467B600AE002F023FA41F28013C1F6AE
S32D0000DA40FF731B78002B01D003F016FA4FF0010002F0CAFD034683F00103DBB2002B09D009F072F802467B68DC
S32D0000DA68D31A022B02D84FF0010301E04FF00003002BDCD16A4802F05BFD6C4802F058FD4FF000004FF07E511A
S32D0000DA9001F5C00108F0F4FF634802F04DFD4FF001006649664A02F017FF614802F044FD41F26C50C1F6FF7047
S32D0000DAB84EF22C21C0F201010FF078F909F040F803467B600AE002F0D7F941F28013C1F6FF731B78002B01D010
S32D0000DAE003F0CAF941F25010C1F6FF7009F07EF90346002B12D041F25410C1F6FF7009F075F90346002B09D072
S32D0000DB0809F01EF802467B68D31A042B02D84FF0010301E04FF00003002BD4D1404802F007FD4FF0090001F0D2
S32D0000DB304FFF00F096BD41F26C50C1F6FF704EF24421C0F201010FF035F94FF000004FF0804101F5B01108F0AD
S32D0000DB5893FF4FF0040001F037FF00F07EBD3348394902F0F9FC41F22C10C1F6FF70334903F0DEFE4FF0000075
S32D0000DB804FF07E5101F5C00108F07AFF41F22C10C1F6FF70244903F0CFFE0AE002F070F941F28013C1F6FF734B
S32D0000DBA81B78002B01D003F063F902F0BDFB034683F00103DBB2002BECD117A1D1E9000108F05AFF164802F07E
S32D0000DBD0B3FC4FF0050001F0FBFE00F042BD41F26C50C1F6FF704EF24411C0F201010FF0E1F84FF00000174986
S32D0000DBF8114A02F06DFE164801F058FF0B48154902F0AAFC124801F051FF30E0AFF300809A9999999999D93FDC
S32D0000DC209A9999999999B93F000000000000344300000CC200000C420000A0400000AA420000C8410000A042FD
S32D0000DC48000090410000A642000020410000AE420000C8420000304102F00EF941F28013C1F6FF731B78002B83
S32D0000DC7001D003F001F902F05BFB034683F00103DBB2002B0CD04FF0000002F0ADFC034683F00103DBB2002BDA
S32D0000DC9802D04FF0010301E04FF00003002BDBD1B9A1D1E9000108F0E7FE41F26C50C1F6FF704EF26821C0F2CD
S32D0000DCC001010FF077F8B64802F036FC4FF0060001F07EFE00F0C5BC41F22C10C1F6FF70B04903F029FE4FF09A
S32D0000DCE800004FF07E5101F5D00108F0C5FE41F22C10C1F6FF70AA4903F01AFE4FF000004FF07E5101F5A00107
S32D0000DD1008F0B6FE41F22C10C1F6FF70A04903F00BFE4FF00A0001F053FE00F09ABC41F26C50C1F6FF704EF299
S32D0000DD387821C0F201010FF039F841F29812C1F6FF724EF28C23C0F2010314461D460FCD0FC42B68237002F012
S32D0000DD608FF8924802F0E8FB4FF000004FF07E5101F5C00108F084FE894802F0DDFB884801F098FE41F26C5000
S32D0000DD88C1F6FF704EF2A021C0F201010FF00EF8854802F03DFE844802F03AFE8148834902F0DAFB46E041F2E8
S32D0000DDB04C50C1F6FF700EF0E5FD024641F2AC13C1F6FF739B694FF001010C4610461946FFF7D2FA0346002BBE
S32D0000DDD802D14FF000031C46E3B2002B15D041F26C50C1F6FF704EF2B021C0F201010EF0DDFF6F4802F09CFB0D
S32D0000DE0065A1D1E9000108F03BFE654802F094FB14E041F26C50C1F6FF704EF2C021C0F201010EF0C7FF654885
S32D0000DE2802F086FB5AA1D1E9000108F025FE5A4802F07EFB41F24C50C1F6FF700EF09EFD024641F2AC13C1F6FC
S32D0000DE50FF739B6910461946FEF7C8FF03461846FFF7BAFA03464FF00102144618465449FFF782FA0346002BA6
S32D0000DE7802D14FF000031C46E3B2002B93D141F26C50C1F6FF704EF2D021C0F201010EF08DFF4A4802F0BCFD20
S32D0000DEA049484A4902F05CFB46E041F24C50C1F6FF700EF077FD024641F2AC13C1F6FF73DB694FF001010C4620
S32D0000DEC810461946FFF754FA0346002B02D14FF000031C46E3B2002B15D041F26C50C1F6FF704EF2E021C0F29B
S32D0000DEF001010EF05FFF314802F01EFB26A1D1E9000108F0BDFD264802F016FB14E041F26C50C1F6FF704EF234
S32D0000DF18F021C0F201010EF049FF254802F008FB1BA1D1E9000108F0A7FD1B4802F000FB41F24C50C1F6FF7016
S32D0000DF400EF030FD024641F2AC13C1F6FF73DB6910461946FEF74AFF03461846FFF73CFA03464FF00102144636
S32D0000DF6818461549FFF704FA0346002B02D14FF000031C46E3B2002B93D14FF00B0001F023FD6AE3AFF3008002
S32D0000DF90333333333333D33F9A9999999999B93F00000000000020C20000204200000CC20000344300002040A7
S32D0000DFB80000C8410000C8C10000003F0000B44200000C4200005041E94801F06FFD41F24C50C1F6FF700EF014
S32D0000DFE0D1FC03461846FEF777FB04460D4641F24C50C1F6FF700EF0D5FC03461846FEF76BFB02460B46CDE986
S32D0000E008002341F26C50C1F6FF704EF20031C0F2010122462B460EF0C9FED64802F0F8FC41F26C50C1F6FF70D6
S32D0000E0304EF21831C0F201010EF0BCFE41F29812C1F6FF724EF22833C0F2010314460FCB07C4238004F10204DA
S32D0000E0584FEA1343237001F00FFFC74802F068FA4FF000004FF07E5101F5F80108F004FDBF4802F05DFA4FF052
S32D0000E0800C0001F0A5FCECE241F26C50C1F6FF704EF23831C0F201010EF08CFE41F29812C1F6FF724EF248334C
S32D0000E0A8C0F2010314460FCB07C4237001F0E4FEB24802F03DFAA8A1D1E9000108F0DCFCAB4802F035FA41F2F1
S32D0000E0D02C10C1F6FF70AC4903F02EFC4FF000004FF07E5101F5E00108F0CAFC41F22C10C1F6FF70A04903F05B
S32D0000E0F81FFCA44802F01CFA4FF000004FF07E5101F5E80108F0B8FC994802F011FA984801F0CCFC4FF00D0050
S32D0000E12001F056FC9DE241F26C50C1F6FF704EF25831C0F201010EF03DFE41F29812C1F6FF724EF26C33C0F2AE
S32D0000E148010314461D460FCD0FC42B68238001F093FE8D4802F05CFC8A488C4902F0FCF90AE001F089FE41F23F
S32D0000E1708013C1F6FF731B78002B01D002F07CFE02F0D6F8034683F00103DBB2002BECD1794802F0D1F97E4892
S32D0000E19802F03EFC41F22C10C1F6FF707C4903F0C7FB4FF000004FF0804108F065FC41F22C10C1F6FF706E493A
S32D0000E1C003F0BAFB7148754902F0CAF90AE001F057FE41F28013C1F6FF731B78002B01D002F04AFE02F0A4F8E7
S32D0000E1E8034683F00103DBB2002BECD15CA1D1E9000108F041FC5E4802F09AF95C4801F055FC4FF0100001F096
S32D0000E210DFFB26E241F26C50C1F6FF704EF28031C0F201010EF0C6FD41F29812C1F6FF724EF29433C0F20103C1
S32D0000E23814461D460FCD0FC42B68238001F01CFE4FF001005449554A02F042FB4D4802F06FF908F075FC0346BF
S32D0000E2607B600AE001F00CFE41F28013C1F6FF731B78002B01D002F0FFFD4FF0010002F0B3F9034683F00103C6
S32D0000E288DBB2002B09D008F05BFC02467B68D31A092B02D84FF0010301E04FF00003002BDCD1334802F044F97A
S32D0000E2B041F2F013C1F6FF731B68B3F57F0F06D12F48394902F04CF9384BFB6011E02C48374902F045F9374BAC
S32D0000E2D8FB600AE001F0D0FD41F28013C1F6FF731B78002B01D002F0C3FD02F01DF8034683F00103DBB2002B66
S32D0000E300ECD108F0E9FB02460B4610461946FEF7F9FC03467B605AE041F24C50C1F6FF700EF030FB03464FF01A
S32D0000E328010214461846F968FFF722F80346002B02D14FF000031C46E3B2002B38D0174802F0F6F808A1D1E946
S32D0000E350000108F095FB084802F0EEF837E000BF7B14AE47E17A843F9A9999999999C93F9A9999999999B93F48
S32D0000E378000000000000074300000C4200008CC10000204200000CC20000B442000080400000A0420000804109
S32D0000E3A00000AA420000C84100003041000038410000E04033338741B94802F0BDF8B4A1D1E9000108F05CFB1B
S32D0000E3C8B64802F0B5F841F24C50C1F6FF700EF0D5FA03461846F968FEF704FD03461846FEF7F6FF03464FF0B1
S32D0000E3F0010214461846AC49FEF7BEFF0346002B02D14FF000031C46E3B2002B09D008F09BFB02467B68D31A73
S32D0000E418042B02D84FF0010301E04FF00003002B7FF476AF4FF00F0001F0CEFA15E141F26C50C1F6FF704EF252
S32D0000E440A831C0F201010EF0B5FC01F019FD954801F030FB954802F0DFFA954801F02AFB944802F069F808F0B0
S32D0000E4686FFB03467B600AE001F006FD41F28013C1F6FF731B78002B01D002F0F9FC41F24810C1F6FF7008F00C
S32D0000E490ADFC0346002B12D041F24C10C1F6FF7008F0A4FC0346002B09D008F04DFB02467B68D31A042B02D864
S32D0000E4B84FF0010301E04FF00003002BD4D1774802F036F87A4802F033F86FA1D1E9000108F0D2FA714802F008
S32D0000E4E02BF8704801F0E6FA734802F025F86AA1D1E9000108F0C4FA6A4802F01DF841F22C10C1F6FF706D4918
S32D0000E50803F016FA4FF000004FF0804108F0B4FA41F22C10C1F6FF70604903F009FA634802F006F85AA1D1E979
S32D0000E530000108F0A5FA5B4801F0FEFF5E48604902F00EF80AE001F09BFC41F28013C1F6FF731B78002B01D05D
S32D0000E55802F08EFC01F0E8FE034683F00103DBB2002BECD14D4801F0E3FF4FF0100001F02BFA72E0494801F06C
S32D0000E58099FA4FF000004F494F4A02F0A5F94A4801F0D2FF08F0D8FA03467B600AE001F06FFC41F28013C1F6D5
S32D0000E5A8FF731B78002B01D002F062FC4FF0010002F016F8034683F00103DBB2002B09D008F0BEFA02467B6888
S32D0000E5D0D31A092B02D84FF0010301E04FF00003002BDCD12F4801F0A7FF324801F0A4FF29A1D1E9000108F04B
S32D0000E5F843FA344802F00CFA4FF0110001F0E4F92BE041F26C50C1F6FF704EF2B831C0F201010EF0CBFB41F232
S32D0000E6206C50C1F6FF700EF0A9FB234801F084FF4FF0120001F0CCF913E041F27013C1F6FF734FF000021A70C5
S32D0000E6480BE041F26C50C1F6FF704EF2C831C0F201010EF0ABFB00E000BF41F27013C1F6FF731B78002B7EF465
S32D0000E670CEAE41F2E440C1F6FF704FF000010AF029FA4FF00003184607F11007BD46B0BD9A9999999999B93F78
S32D0000E698333333333333C33F0000C8C1000000000000403F000087430000C84200000C4200000CC20000A04246
S32D0000E6C00000A0400000AA420000C8410000884380B592B000AF41F26C50C1F6FF700EF07BFA41F26C50C1F638
S32D0000E6E8FF704EF2E831C0F201010EF05FFB41F2E440C1F6FF704FF000010AF0D3F941F2E440C1F6FF704FF0F1
S32D0000E71001010AF029FA41F26C50C1F6FF704EF2FC31C0F201010EF045FB41F23C10C1F6FF7040F63D1109F026
S32D0000E73837FC41F23C10C1F6FF704FF4FA7109F011FC41F23C10C1F6FF70534909F048FC41F23C10C1F6FF7004
S32D0000E760504909F041FC41F26C50C1F6FF704EF21041C0F201010EF01DFB4B4801F09AF941F26C50C1F6FF7020
S32D0000E7884EF23441C0F201010EF010FB41F28813C1F6FF73434A1A6041F28813C1F6FF731A6841F28413C1F6F9
S32D0000E7B0FF731A6041F29413C1F6FF734FF000021A6041F28013C1F6FF734FF000021A7041F29813C1F6FF73D0
S32D0000E7D84EF25C42C0F2010292E80300186003F10403197041F26C50C1F6FF704EF26441C0F201010EF0DAFA87
S32D0000E80041F24C50C1F6FF700DF0ECFB41F26C50C1F6FF704EF27841C0F201010EF0CAFA07E041F2E040C1F69C
S32D0000E828FF704FF0050109F0EDFA01F04DFA034683F00103DBB2002BEFD141F26C50C1F6FF704EF29041C0F2E6
S32D0000E85001010EF0AFFA41F27013C1F6FF734FF001021A7007F10403184600F021F807F1040241F2AC13C1F639
S32D0000E878FF739A420BD041F2AC13C1F6FF7319464FF04103084611461A460EF0ADFB07F14807BD4680BD00BF5B
S32D0000E8A000000243000034420000C84200000000B0B5ADF5EE5D8CB006AF07F11803A3F1140318604FF00103C9
S32D0000E8C807F5EE5000F117000370DFF8D43707F5EE5101F10C010B60DFF8C43707F5EE5202F10802136007F170
S32D0000E8F01803A3F11403186802F04AFC41F2E440C1F6FF704FF000010AF0E4F807F5CC5303F11803A3F1040324
S32D0000E9181D464FF0000406E028460CF07BF805F1EC0504F1FF34B4F1FF3F0CBF00230123DBB2002BF0D14EF2AB
S32D0000E9401853C0F2010307F5E85101F124011A464FF01403084611461A460EF049FB07F5CC5303F11803A3F181
S32D0000E96804034FF0C90200924FF0010201924FF00102029207F5E85202F1240203924FF4004204924FF4574258
S32D0000E990C0F2FF02059218464FF001014FF001024FF001030CF0A8FA07F5CC5303F11803A3F1040318460CF02E
S32D0000E9B8CDF807F5945303F11803A3F11C031D464FF0050406E028460CF024F805F1EC0504F1FF34B4F1FF3FBE
S32D0000E9E00CBF00230123DBB2002BF0D107F5E25303F118031A464FF0A00310464FF000011A460EF0FEFA07F514
S32D0000EA08E25303F118034FF041021A6003F104034FF000021A6003F104034FF000021A6003F104034FF00002F8
S32D0000EA301A6003F104034FF000021A6003F1040307F5E25303F118034FF042025A6103F118034FF000021A6045
S32D0000EA5803F104034FF000021A6003F104034FF000021A6003F104034FF000021A6003F1040307F5E25303F14E
S32D0000EA8018034FF043029A6203F12C034FF000021A6003F104034FF000021A6003F104034FF000021A6003F18F
S32D0000EAA804034FF000021A6003F1040307F5E25303F118034FF04402DA6303F140034FF000021A6003F1040394
S32D0000EAD04FF000021A6003F104034FF000021A6003F104034FF000021A6003F1040307F5E25303F118034FF077
S32D0000EAF845021A6503F154034FF000021A6003F104034FF000021A6003F104034FF000021A6003F104034FF07E
S32D0000EB2000021A6003F1040307F5E25303F118034FF046025A6603F168034FF000021A6003F104034FF0000273
S32D0000EB481A6003F104034FF000021A6003F104034FF000021A6003F1040307F5E25303F118034FF047029A67F5
S32D0000EB7003F17C034FF000021A6003F104034FF000021A6003F104034FF000021A6003F104034FF000021A6027
S32D0000EB9803F1040307F5E25303F118034FF04802C3F88C2003F190034FF000021A6003F104034FF000021A602C
S32D0000EBC003F104034FF000021A6003F104034FF000021A6003F1040307F5945303F11803A3F11C034FF03302A7
S32D0000EBE800924FF0010201924FF00102029207F5E25202F1180203926FF07F4204924FF45742C0F2FF02059214
S32D0000EC1018464FF004014FF002024FF028030CF06BF907F5D4531D464FF0000406E028460BF0F4FE05F1EC0536
S32D0000EC3804F1FF34B4F1FF3F0CBF00230123DBB2002BF0D107F5E85303F110034FF000021A6003F104034FF0E5
S32D0000EC6000021A6003F104034FF000021A6003F104034FF000021A6003F104034FF000021A6003F104034EF2AD
S32D0000EC882C52C0F2010207F5E85303F1100392E80300186003F10403198007F5E85303F116034FF000021A8045
S32D0000ECB003F102034FF000021A8003F102034FF000021A8003F102034FF000021A8003F102034FF000021A80E6
S32D0000ECD803F102034FF000021A8003F102034FF000021A8003F1020307F5D4524FF0140300934FF0010301938B
S32D0000ED004FF00103029307F5E85303F1100303934FF4004304934FF45743C0F2FF03059310464FF001014FF01D
S32D0000ED2801024FF0BE030CF0E3F841F2E440C1F6FF704FF45741C0F2FF0109F025FF41F2E440C1F6FF704EF2FF
S32D0000ED50A441C0F201014FF000024FF0DE0309F02BFF07F5EE5303F10803186807F5EE5202F10C021168FEF711
S32D0000ED7843F903461C4641F23050C1F6FF700CF00BFA034620461946FEF72EF8034607F5EE5000F108000360A4
S32D0000EDA007F5EE5101F10C010868C049FEF720F8034607F5EE5202F10C02136007F5EE5303F10803186807F5D4
S32D0000EDC8EE5202F10C021168FEF7CAF9034607F5EE5000F10800036041F2E440C1F6FF7007F5EE5202F1080216
S32D0000EDF011684FF048024FF0DE0309F027FF4FF001031C4607F5EE5303F108031868A849FEF794FA0346002B6B
S32D0000EE1802D14FF000031C46E3B2002B07D041F2E040C1F6FF704FF00A0108F0EBFF07F5E85202F13C0207F5B6
S32D0000EE40E85303F1380341F2E440C1F6FF7011461A4609F0CDFF0346002B00F0A4854FF0000307F5EE5000F147
S32D0000EE6810000360E2E007F5945303F11803A3F11C0307F5EE5101F110010A684FF0EC0101FB02F2991807F529
S32D0000EE90E85303F13C031A6807F5E85000F138000368084611461A464FF000030BF008FF0346002B0CBF0023F1
S32D0000EEB80123DBB2002B00F0AD804FF0000307F5E85101F10C010B804FF0200307F5E85202F10D02137007F519
S32D0000EEE0E25101F1180107F5EE5303F110031A6813464FEA83039B184FEA8303CB181B7807F5E85000F10C00CF
S32D0000EF08037007F5EE5101F110010B68002B06D14FF0410307F5E85202F10C02137007F5EE5000F110000368D2
S32D0000EF30012B06D14FF0420307F5E85101F10C010B7041F2E440C1F6FF704FF0000109F0C1FD41F2E440C1F6FB
S32D0000EF58FF704EF2B441C0F201010AF039F907F5E85303F10C0341F2E440C1F6FF7019464FF000024FF0070367
S32D0000EF800AF06AF841F26C50C1F6FF704EF2C841C0F201010DF00EFF07F5E85303F10C0341F26C50C1F6FF709C
S32D0000EFA819460DF003FF41F26C50C1F6FF704EF2DC41C0F201010DF0F9FE07F5E85202F10C02137807F5EA52C9
S32D0000EFD01046194602F008F807F5EA5207F11803A3F114031B6893420CD007F11803A3F114031B6819464FF063
S32D0000EFF84103084611461A460DF0F6FF4FF0000307F5EE5000F1170003704FF0000000F0DBFC18E007F5EE5180
S32D0000F02001F110010B6803F1010307F5EE5202F11002136007F5EE5000F110000368072BCCBF00230123DBB269
S32D0000F048002B7FF410AF07F5E85101F13C010A6807F5E85000F13800036807F5D451084611461A464FF0000337
S32D0000F0700BF026FE0346002B0CBF00230123DBB2002B00F0908441F2E440C1F6FF704FF0000109F01FFD07F543
S32D0000F098DA5303F12C031D464FF000040DE000BF000000000000803F0000204128460BF0B1FC05F1EC0504F196
S32D0000F0C0FF34B4F1FF3F0CBF00230123DBB2002BF0D107F5E65303F138034FF000021A6003F104034FF0000226
S32D0000F0E81A6003F104034FF000021A6003F104034FF000021A6003F104034FF000021A6003F104034EF2405291
S32D0000F110C0F2010207F5E65303F1380307CA03C31A8003F102034FEA12421A7007F5E85303F103034FF0000205
S32D0000F1381A7003F101034FF000021A7003F101034FF000021A7003F101034FF000021A7003F101034FF000029D
S32D0000F1601A7003F101034FF000021A7003F101034FF000021A7003F101034FF000021A7003F101034FF0000275
S32D0000F1881A7003F1010307F5DA5202F12C024FF0C90300934FF0010301934FF00103029307F5E65303F13803DD
S32D0000F1B003934FF4004304934FF45743C0F2FF03059310464FF001014FF001024FF001030BF092FE07F5DA5385
S32D0000F1D803F12C0318460BF0B9FC07F5C05303F10803A3F104031A464FF4C87310464FF000011A460DF001FF5E
S32D0000F20007F5C05303F10803A3F1040345F25742C0F253021A6003F104034FF000021A6003F104034FF00002F4
S32D0000F2281A6003F104034FF000021A6003F104034FF000021A6003F1040307F5C05303F10803A3F1040344F6F4
S32D0000F2505352C0F253025A6103F118034FF000021A6003F104034FF000021A6003F104034FF000021A6003F1FF
S32D0000F27804034FF000021A6003F1040307F5C05303F10803A3F1040345F24D42C0F253029A6203F12C034FF0D7
S32D0000F2A000021A6003F104034FF000021A6003F104034FF000021A6003F104034FF000021A6003F1040307F5AB
S32D0000F2C8C05303F10803A3F1040345F24972C0F25302DA6303F140034FF000021A6003F104034FF000021A608D
S32D0000F2F003F104034FF000021A6003F104034FF000021A6003F1040307F5C05303F10803A3F1040344F6535201
S32D0000F318C0F24C021A6503F154034FF000021A6003F104034FF000021A6003F104034FF000021A6003F10403DB
S32D0000F3404FF000021A6003F1040307F5C05303F10803A3F1040345F24D42C0F24C025A6603F168034FF000021A
S32D0000F3681A6003F104034FF000021A6003F104034FF000021A6003F104034FF000021A6003F1040307F5C053D1
S32D0000F39003F10803A3F1040345F24972C0F24C029A6703F17C034FF000021A6003F104034FF000021A6003F1EA
S32D0000F3B804034FF000021A6003F104034FF000021A6003F1040307F5C05303F10803A3F1040344F65352C0F27A
S32D0000F3E04202C3F88C2003F190034FF000021A6003F104034FF000021A6003F104034FF000021A6003F10403AB
S32D0000F4084FF000021A6003F1040307F5C05303F10803A3F1040345F24D42C0F24202C3F8A02003F1A4034FF066
S32D0000F43000021A6003F104034FF000021A6003F104034FF000021A6003F104034FF000021A6003F1040307F519
S32D0000F458C05303F10803A3F1040345F24972C0F24202C3F8B42003F1B8034FF000021A6003F104034FF00002BC
S32D0000F4801A6003F104034FF000021A6003F104034FF000021A6003F1040307F5C05303F10803A3F1040344F69A
S32D0000F4A85352C0F24302C3F8C82003F1CC034FF000021A6003F104034FF000021A6003F104034FF000021A600D
S32D0000F4D003F104034FF000021A6003F1040307F5C05303F10803A3F1040345F24D42C0F24302C3F8DC2003F14C
S32D0000F4F8E0034FF000021A6003F104034FF000021A6003F104034FF000021A6003F104034FF000021A6003F132
S32D0000F520040307F5C05303F10803A3F1040345F24972C0F24302C3F8F02003F1F4034FF000021A6003F10403B8
S32D0000F5484FF000021A6003F104034FF000021A6003F104034FF000021A6003F1040307F5C05303F10803A3F1D1
S32D0000F570040344F65352C0F24402C3F8042103F584734FF000021A6003F104034FF000021A6003F104034FF015
S32D0000F59800021A6003F104034FF000021A6003F1040307F5C05303F10803A3F1040345F24D42C0F24402C3F8F6
S32D0000F5C0182103F58E734FF000021A6003F104034FF000021A6003F104034FF000021A6003F104034FF0000288
S32D0000F5E81A6003F1040307F5C05303F10803A3F1040345F24972C0F24402C3F82C2103F598734FF000021A6027
S32D0000F61003F104034FF000021A6003F104034FF000021A6003F104034FF000021A6003F1040307F5C05303F1AC
S32D0000F6380803A3F1040344F65352C0F25202C3F8402103F5A2734FF000021A6003F104034FF000021A6003F18B
S32D0000F66004034FF000021A6003F104034FF000021A6003F1040307F5C05303F10803A3F1040345F24D42C0F2E8
S32D0000F6885202C3F8542103F5AC734FF000021A6003F104034FF000021A6003F104034FF000021A6003F1040397
S32D0000F6B04FF000021A6003F1040307F5C05303F10803A3F1040345F25342C0F25002C3F8682103F5B6734FF059
S32D0000F6D800021A6003F104034FF000021A6003F104034FF000021A6003F104034FF000021A6003F1040307F56F
S32D0000F700C05303F10803A3F1040345F25202C0F25302C3F87C2103F5C0734FF000021A6003F104034FF0000222
S32D0000F7281A6003F104034FF000021A6003F104034FF000021A6003F1040307F11803A3F10C031D464FF0130463
S32D0000F75006E028460BF062F905F1EC0504F1FF34B4F1FF3F0CBF00230123DBB2002BF0D107F11803A3F10C03AE
S32D0000F7784FF0010200924FF0010201924FF00102029207F5C05202F10802A2F1040203926FF07F4204924FF4B2
S32D0000F7A05742C0F2FF02059218464FF005014FF004024FF028030BF09FFB41F26C50C1F6FF704EF2E041C0F249
S32D0000F7C801010DF0F3FA07F5E85202F13C0207F5E85303F1380341F2E440C1F6FF7011461A4609F001FB0346E8
S32D0000F7F0002B00F0C6804FF0000307F5EE5101F110010B60B0E007F11803A3F10C0307F5EE5000F110000268B4
S32D0000F8184FF0EC0101FB02F2991807F5E85303F13C031A6807F5E85000F138000368084611461A464FF00003FA
S32D0000F8400BF03EFA0346002B0CBF00230123DBB2002B7DD007F5EE5101F110010B68132B39D007F5EE5202F1B5
S32D0000F86810021368DBB2184600F0AEF84FF0000307F5EE5000F11700037041F2E440C1F6FF704FF0000109F0B7
S32D0000F89021F907F5EC5303F1040318464FF0410101F0A2FB07F5EC5202F1040207F11803A3F114031B68934244
S32D0000F8B849D007F11803A3F114031B6819464FF04103084611461A460DF08EFB55E041F26C50C1F6FF704EF2D1
S32D0000F8E0F441C0F201010DF065FA41F2E440C1F6FF704FF0000109F0EDF803E000F0C0FA00F08AF907F5E852E4
S32D0000F90802F13C0207F5E85303F1380341F2E440C1F6FF7011461A4609F066FA034683F00103DBB2002BE5D17F
S32D0000F9304FF0000307F5EE5101F117010B7041F27013C1F6FF734FF000021A7019E018E007F5EE5202F11002CB
S32D0000F958136803F1010307F5EE5000F11000036007F5EE5101F110010B68132BCCBF00230123DBB2002B7FF484
S32D0000F98042AF07F5EE5202F117021378002B7FF41EAF41F26C50C1F6FF704EF20451C0F201010DF007FA07F5D2
S32D0000F9A8EE5000F117000378002B7FF4D6A900BF07F11803A3F11403186807F5EC7707F5E057BD46B0BD00BF95
S32D0000F9D080B582B000AF0346FB7141F27113C1F6FF73FA791A7041F29413C1F6FF731B6803F1010241F294130A
S32D0000F9F8C1F6FF731A60FA7913464FEA83039B184FEA83034EF6D052C0F201029B1841F26C50C1F6FF704EF21E
S32D0000FA205451C0F201011A460DF0C4F9FA7913464FEA83039B184FEA83034EF6D052C0F201029B1841F298109F
S32D0000FA48C1F6FF7019460DF0DEFA07F10807BD4680BD00BF80B582B000AF0346FB71FB79002B0DD041F23C106A
S32D0000FA70C1F6FF700D4908F0B7FA41F29013C1F6FF730A4A1A600CE041F23C10C1F6FF70074908F0A9FA41F2C7
S32D0000FA989013C1F6FF73044A1A6007F10807BD4680BD00BF000002430000344290B585B000AF78607868FCF717
S32D0000FAC00BFE02460B4641F26C50C1F6FF704EF27051C0F201010DF06DF94FF001031C4678684849FDF748FCFB
S32D0000FAE80346002B02D14FF000031C46E3B2002B2CD041F25810C1F6FF7007F073F90346002B06D041F22C106C
S32D0000FB10C1F6FF703C4901F00FFF07F015F80346FB6000BF41F25810C1F6FF7007F05EF90346002B09D007F063
S32D0000FB3807F80246FB68D31A092B02D84FF0010301E04FF00003002BE8D142E04FF001031C4678682B49FDF7A1
S32D0000FB60EDFB0346002B02D14FF000031C46E3B2002B32D041F25C10C1F6FF7007F036F90346002B06D041F27A
S32D0000FB882C10C1F6FF701E4901F0D2FE41F22C10C1F6FF701C4901F0CBFE06F0D1FF0346BB6000BF41F25C1089
S32D0000FBB0C1F6FF7007F01AF90346002B09D006F0C3FF0246BB68D31A092B02D84FF0010301E04FF00003002BFB
S32D0000FBD8E8D141F26C50C1F6FF704EF29451C0F201010DF0E3F841F22C10C1F6FF70074901F09EFE07F11407FB
S32D0000FC00BD4690BD0000BE420000A0420000A0400000A0C20000000090B583B000AF41F26010C1F6FF7007F07B
S32D0000FC2877FD03464FF00102144618462449FDF79FFB0346002B02D14FF000031C46E3B2002B03D04FF000033C
S32D0000FC507B6025E041F26010C1F6FF7007F05CFD03461846FCF738FD02460B464FF001010C461046194612A328
S32D0000FC78D3E90023FDF710F80346002B02D14FF000031C46E3B2002B03D04FF0FF037B6002E04FF47F037B6067
S32D0000FCA041F2E440C1F6FF70796808F013FF7B68184607F10C07BD4690BD00BFAFF30080333333333333F33FED
S32D0000FCC800000040AFF3008080B582B000AF4FF00103FB7141F25010C1F6FF7007F082F8034683F00103DBB270
S32D0000FCF0002B11D041F2E440C1F6FF704EF2A851C0F201014FF000024FF0000309F0A4F94FF00003FB710DE0BC
S32D0000FD1841F2E440C1F6FF704EF2C051C0F201014FF000024FF0000309F092F941F25410C1F6FF7007F056F832
S32D0000FD40034683F00103DBB2002B11D041F2E440C1F6FF704EF2D851C0F201014FF001024FF0000309F078F9B4
S32D0000FD684FF00003FB710DE041F2E440C1F6FF704EF2C051C0F201014FF001024FF0000309F066F941F24810E9
S32D0000FD90C1F6FF7007F02AF8034683F00103DBB2002B11D041F2E440C1F6FF704EF2A851C0F201014FF0020200
S32D0000FDB84FF0000309F04CF94FF00003FB710DE041F2E440C1F6FF704EF2C051C0F201014FF002024FF00003FB
S32D0000FDE009F03AF941F24C10C1F6FF7006F0FEFF034683F00103DBB2002B11D041F2E440C1F6FF704EF2A85112
S32D0000FE08C0F201014FF003024FF0000309F020F94FF00003FB710DE041F2E440C1F6FF704EF2C051C0F2010163
S32D0000FE304FF003024FF0000309F00EF9FFF7ECFE0346002B0CBF00230123DBB2002B10D041F2E440C1F6FF70A3
S32D0000FE584EF2F051C0F201014FF004024FF0000309F0F6F84FF00003FB71FB79184607F10807BD4680BD00BF53
S32D0000FE8080B500AF41F25010C1F6FF7006F0AEFF034683F00103DBB2002B0AD041F2E440C1F6FF704EF6906110
S32D0000FEA8C0F2900108F070FE09E041F2E440C1F6FF704AF6A911C0F2A90108F065FE41F2E440C1F6FF704FF0B0
S32D0000FED00F014FF0DC024FF00A0309F09DFF41F25410C1F6FF7006F081FF034683F00103DBB2002B0AD041F23E
S32D0000FEF8E440C1F6FF704EF69061C0F2900108F043FE09E041F2E440C1F6FF704AF6A911C0F2A90108F038FEF7
S32D0000FF2041F2E440C1F6FF7040F231114FF0DC024FF00A0309F070FF41F24810C1F6FF7006F054FF034683F03B
S32D0000FF480103DBB2002B0AD041F2E440C1F6FF704EF69061C0F2900108F016FE09E041F2E440C1F6FF704AF64E
S32D0000FF70A911C0F2A90108F00BFE41F2E440C1F6FF704FF00F014FF00A024FF00A0309F043FF41F24C10C1F668
S32D0000FF98FF7006F027FF034683F00103DBB2002B0AD041F2E440C1F6FF704EF69061C0F2900108F0E9FD09E0A2
S32D0000FFC041F2E440C1F6FF704AF6A911C0F2A90108F0DEFD41F2E440C1F6FF7040F231114FF00A024FF00A03E5
S32D0000FFE809F016FF41F2E440C1F6FF706FF07F4108F0CAFD41F2E440C1F6FF704EF20861C0F201014FF0030264
S32D000100104FF0000309F020F841F2E440C1F6FF704EF22461C0F201014FF004024FF0000309F012F841F24C501F
S32D00010038C1F6FF700CF0A2FC03461846FDF7A2F9034641F2E440C1F6FF7019464FF003024FF0070309F01CF8E4
S32D0001006041F24C50C1F6FF700CF09CFC03461846FDF78CF9034641F2E440C1F6FF7019464FF003024FF00D0310
S32D0001008809F006F841F24C50C1F6FF700CF096FC03461846FDF776F9034641F2E440C1F6FF7019464FF003025C
S32D000100B04FF0150308F0F0FF41F2E440C1F6FF704EF24061C0F201014FF005024FF0000308F0C2FF41F28413C6
S32D000100D8C1F6FF731B6841F2E440C1F6FF7019464FF005024FF0050308F0F2FF41F23410C1F6FF7007F0D2FA9B
S32D00010100034641F2E440C1F6FF7019464FF005024FF0120308F0C0FF41F2E440C1F6FF704EF25461C0F2010134
S32D000101284FF006024FF0000308F092FF41F28813C1F6FF731B6841F2E440C1F6FF7019464FF006024FF00503B2
S32D0001015008F0C2FF41F23810C1F6FF7007F0A2FA034641F2E440C1F6FF7019464FF006024FF0120308F090FF4C
S32D0001017841F2E440C1F6FF704EF26861C0F201014FF007024FF0000308F062FF41F28C13C1F6FF731B6841F28A
S32D000101A0E440C1F6FF7019464FF007024FF0060308F092FF41F2E440C1F6FF704EF27C61C0F201014FF00802D7
S32D000101C84FF0000308F044FF41F29013C1F6FF731B6841F2E440C1F6FF7019464FF008024FF0060308F074FF31
S32D000101F041F2E440C1F6FF704EF29061C0F201014FF009024FF0000308F026FF41F2E440C1F6FF7041F298117C
S32D00010218C1F6FF714FF009024FF0050308F018FF41F2E440C1F6FF704EF2A461C0F201014FF00A024FF00003ED
S32D0001024008F00AFF41F26010C1F6FF7007F064FA034641F2E440C1F6FF7019464FF00A024FF0060308F038FF89
S32D0001026841F2E440C1F6FF704EF2BC61C0F201014FF00B024FF0000308F0EAFE41F26C10C1F6FF7007F044FA61
S32D00010290034641F2E440C1F6FF7019464FF00B024FF0040308F018FF41F26810C1F6FF7007F032FA034641F209
S32D000102B8E440C1F6FF7019464FF00B024FF00B0308F006FF41F26410C1F6FF7007F020FA034641F2E440C1F6A3
S32D000102E0FF7019464FF00B024FF0120308F0F4FE41F2E440C1F6FF704EF2D861C0F201014FF00B024FF00A0355
S32D0001030808F0A6FE41F2E440C1F6FF704EF2D861C0F201014FF00B024FF0110308F098FE80BD00BF0000000057
S32D00010330F8B500AF41F23410C1F6FF7007F0B2F9044600F0F9FD0346E41841F23810C1F6FF7007F0A7F903460D
S32D00010358E41800F095FD0346E2184DF24F13C1F6C21383FB02134FEAA3114FEAE273CB1A1846FCF79BF9024668
S32D000103800B461046194616A3D3E90023FCF7F8F902460B4614461D4641F27413C1F6FF731B681846FCF798F92E
S32D000103A802460B46104619460DA3D3E90023FCF7E3F902460B464FF001010E4620462946FCF76AFC0346002BAA
S32D000103D002D14FF000031E46F3B21846F8BD00BF5E3855297A6A1F40666666666666EE3F80B586B000AF786034
S32D000103F839603868FCF76CF902460B461046194645A3D3E90023FCF7B7F902460B4610461946FCF793FC034674
S32D000104203B6041F28413C1F6FF731B6878681946FCF7DCFC034618463D49FCF795FE03463B6141F28813C1F675
S32D00010448FF731B6838681946FCF7CCFC034618463549FCF785FE0346FB604FF000037B6142E041F28413C1F6D6
S32D00010470FF731B6818463969FCF7BAFC03461A4641F28413C1F6FF731A6041F28813C1F6FF731B681846F96870
S32D00010498FCF7AAFC03461A4641F28813C1F6FF731A6041F28413C1F6FF731B6883F0004341F22410C1F6FF70C9
S32D000104C0194601F039FA41F28813C1F6FF731B6841F21C10C1F6FF70194601F02DFA12A1D1E9000106F0CCFAEA
S32D000104E87B6903F101037B617B69092BCCBF00230123DBB2002BB4D141F28413C1F6FF737A681A6041F28813E9
S32D00010510C1F6FF733A681A6007F11807BD4680BD6891ED7C3F35F03F7B14AE47E17A843F00002041AFF30080F6
S32D0001053880B582B000AF786078687968FFF754FF41F28013C1F6FF734FF001021A7007F10807BD4680BD00BFDB
S32D00010560B0B584B002AF7860396041F23410C1F6FF7007F0ABF841F23810C1F6FF7007F0A5F838681749FCF752
S32D000105883BFD03461A4641F27413C1F6FF731A607868FFF7CDFF41F28013C1F6FF734FF001021A707868FCF7D6
S32D000105B093F804460D463868FCF78EF802460B46CDE9002341F26C50C1F6FF704EF2DC61C0F2010122462B464A
S32D000105D80CF0ECFB07F10807BD46B0BD0000C03F80B584B000AF0346FB714FF00003FB73FB79002B02D0012B81
S32D000106007ED0FAE041F24810C1F6FF7006F0EEFB034683F00103DBB2002B0ED041F24C10C1F6FF7006F0E2FB35
S32D00010628034683F00103DBB2002B02D04FF0010301E04FF00003FB7341F24810C1F6FF7006F0D0FB034683F057
S32D000106500103DBB2002B0ED041F28813C1F6FF731B6818466F49FCF75FFE0346002B02D14FF0010301E04FF057
S32D000106780003002B0FD041F26C50C1F6FF704EF20471C0F201010CF091FB41F21C10C1F6FF7001F0FDF841F2A2
S32D000106A04C10C1F6FF7006F0A1FB034683F00103DBB2002B0ED041F28413C1F6FF731B6818465849FCF730FE2B
S32D000106C80346002B02D14FF0010301E04FF00003002B00F0998041F26C50C1F6FF704EF25071C0F201010CF05C
S32D000106F061FB41F22410C1F6FF7001F0CDF887E041F25010C1F6FF7006F070FB034683F00103DBB2002B0ED065
S32D0001071841F25410C1F6FF7006F064FB034683F00103DBB2002B02D04FF0010301E04FF00003FB7341F25010EF
S32D00010740C1F6FF7006F052FB034683F00103DBB2002B0ED041F28813C1F6FF731B6818463049FCF7E1FD034660
S32D00010768002B02D14FF0010301E04FF00003002B0FD041F26C50C1F6FF704EF29C71C0F201010CF013FB41F2A1
S32D000107901C10C1F6FF7001F07FF841F25410C1F6FF7006F023FB034683F00103DBB2002B0ED041F28413C1F6D8
S32D000107B8FF731B6818461949FCF7B2FD0346002B02D14FF0010301E04FF00003002B1DD041F26C50C1F6FF70E1
S32D000107E04EF2E871C0F201010CF0E4FA41F22410C1F6FF7001F050F80CE041F26C50C1F6FF704EF63801C0F2CD
S32D0001080801010CF0D3FA02E000BF00E000BFFB7B184607F11007BD4680BD00BF0000000090B587B002AF03465E
S32D000108303960FB71FB79002B02D04FF0010301E04FF0FF33FB60FB79002B02D04FF0FF3301E04FF00103BB6012
S32D00010858F868FCF77DFB034618463968FCF7CCFB03461C46B868FCF773FB034618463968FCF7C2FB03462046D1
S32D000108801946FFF7B5FD41F28013C1F6FF734FF000021A70FB79002B04D04EF67804C0F2010403E04EF68004F3
S32D000108A8C0F201043868FBF713FF02460B46CDE9002341F26C50C1F6FF704EF68801C0F2010122460CF072FAEE
S32D000108D007F11407BD4690BD2DE9F04387B000AF0346B9607A60FB7341F23810C1F6FF7006F0ECFE41F23410C5
S32D000108F8C1F6FF7006F0E6FE434B7B61B868FBF7E7FE02460B4641F26C50C1F6FF704EF6A001C0F201010CF02D
S32D0001092049FAFB7B18467968FFF77EFF00BF41F23810C1F6FF7006F0B5FE044641F23410C1F6FF7006F0AEFEAB
S32D000109480346E41800F09CFA0346E3184FEAD372D3184FEA63031846FBF7A8FE02460B461046194622A3D3E9A4
S32D000109700023FBF705FF02460B4614461D46B868FBF7AAFE02460B46104619461CA3D3E90023FBF7F5FE024616
S32D000109980B46104619461AA3D3E90023FCF716F802460B46904699467869FBF791FE02460B4640464946FBF73D
S32D000109C0DFFE02460B464FF001010E4620462946FCF748F90346002B02D14FF000031E46F3B2002BA3D10B4870
S32D000109E8FFF7A6FD07F11C07BD46BDE8F08300BF2005C771724A993F182D4454FB2109400000000000806640F9
S32D00010A100000904000000000B0B58AB002AF786041F24C50C1F6FF700BF0CCFF0346FB61F8697968FCF7DAF957
S32D00010A3803467B617868F969FCF7D4F903463B611FE041F2E040C1F6FF704FF0050107F0D9F941F24C50C1F677
S32D00010A60FF700BF0AFFF0346FB6141F26C50C1F6FF704EF6BC01C0F201010CF09BF94FF00000B949B94AFFF716
S32D00010A8827FF4FF001031C46F869B749FCF752FC0346002B02D14FF000031C46E3B2002BCFD1F869FBF714FE22
S32D00010AB004460D467868FBF70FFE02460B46CDE9002341F26C50C1F6FF704EF6E801C0F2010122462B460CF05E
S32D00010AD86DF94FF001031C467869A349FCF748FC0346002B02D14FF000031C46E3B2002B01D07B6912E07869AD
S32D00010B00FBF7EAFD02460B461046194694A3D3E90023FBF783FC02460B4610461946FCF711F903467B614FF069
S32D00010B2801031C4638699049FCF722FC0346002B02D14FF000031C46E3B2002B01D03B6912E03869FBF7C4FD47
S32D00010B5002460B461046194681A3D3E90023FBF75DFC02460B4610461946FCF7EBF803463B614FF001031C462C
S32D00010B7838697969FCF7DEFB0346002B02D14FF000031C46E3B2002B03D04FF00103FB7602E04FF00003FB7638
S32D00010BA0FB7E002B01D03B6900E07B69FA7E10461946704AFFF790FE41F26C50C1F6FF704EF61011C0F20101B0
S32D00010BC80CF0F4F80EE141F24C50C1F6FF700BF0F5FE03464FF00102144618466249FCF7BDFB0346002B02D164
S32D00010BF04FF000031C46E3B2002B12D041F26C50C1F6FF704EF62C11C0F201010CF0D2F841F24C50C1F6FF708B
S32D00010C180BF0D4FE0346FB6109E041F26C50C1F6FF704EF64011C0F201010CF0BFF8FFF723F9F8697968FCF7FA
S32D00010C40D5F803461846FCF7C7FB03461846FBF743FD04460D46F869FBF73EFD02460B46CDE9002341F26C50F7
S32D00010C68C1F6FF704EF65411C0F2010122462B460CF09CF8F8697968FCF7B4F803467B617868F969FCF7AEF890
S32D00010C9003463B614FF001031C4678693449FCF76BFB0346002B02D14FF000031C46E3B2002B01D07B6912E0A2
S32D00010CB87869FBF70DFD02460B461046194626A3D3E90023FBF7A6FB02460B4610461946FCF734F803467B6115
S32D00010CE04FF001031C4638692149FCF745FB0346002B02D14FF000031C46E3B2002B01D03B6912E03869FBF75D
S32D00010D08E7FC02460B461046194613A3D3E90023FBF780FB02460B4610461946FCF70EF803463B614FF001031A
S32D00010D301C4638697969FCF701FB0346002B02D14FF000031C46E3B2002B17D04FF00103FB76F8690849FCF7D5
S32D00010D584BF80346FB6116E000000000008076400000004000007041000000000000C8410000803F4FF000035D
S32D00010D80FB76F8693749FCF731F80346FB6141F24C50C1F6FF700BF015FE034618467968FCF724F803461846F0
S32D00010DA8FCF716FB034618462D49FCF7D9F90346FB604FF001031C46F8682949FCF7BAFA0346002B02D14FF0EE
S32D00010DD000031C46E3B2002B01D0234B00E0FB68FA7E10461946214AFFF776FD41F24C50C1F6FF700BF0E6FD79
S32D00010DF8034618467968FBF7F5FF03461846FCF7E7FA03464FF00102144618461649FCF7AFFA0346002B02D15E
S32D00010E204FF000031C46E3B2002B7FF4D0AE41F24C50C1F6FF700BF0C5FD03461846FBF74BFC02460B4641F2F0
S32D00010E486C50C1F6FF704EF66C11C0F201010BF0ADFF07F12007BD46B0BD00BF0000803F00000040000070417F
S32D00010E700000C03FAFF3008080B400AFBD4680BC704700BF00000000B0B582B000AF41F28813C1F6FF731B68DA
S32D00010E981846FCF79DFA03467B607868FBF718FC02460B46104619461DA3D3E90023FBF763FC02460B46144608
S32D00010EC01D467868FBF708FC02460B4620462946FBF756FC02460B4614461D467868FBF7FBFB02460B462046FB
S32D00010EE82946FBF797FA02460B46104619460EA3D3E90023FBF78CFA02460B4610461946FBF7D4FE03463B609D
S32D00010F103B6823EAE3733B603B68184607F10807BD46B0BDAFF30080F5D896016729793F75931804560E0640FD
S32D00010F38B0B582B000AF41F28413C1F6FF731B681846FCF745FA03467B607868FBF7C0FB02460B46104619463F
S32D00010F601DA3D3E90023FBF70BFC02460B4614461D467868FBF7B0FB02460B4620462946FBF7FEFB02460B4605
S32D00010F8814461D467868FBF7A3FB02460B4620462946FBF73FFA02460B46104619460EA3D3E90023FBF734FA76
S32D00010FB002460B4610461946FBF77CFE03463B603B6823EAE3733B603B68184607F10807BD46B0BDAFF3008039
S32D00010FD8F5D896016729793F75931804560E064080B592B000AF78600B46FB707B68184600F016F97B6803F19F
S32D000110000803184600F010F97B6803F11003184600F00AF97B6803F11803184600F004F97B6803F1200318468F
S32D0001102800F0FEF87B6803F12803184600F0F8F87B6803F13003184600F0F2F87B6803F13803184600F0ECF8ED
S32D000110507B68FA7883F8402007F1080318464049404A00F0CDF87B6807F1080292E8030083E8030007F110033D
S32D0001107818463B493B4A00F0BFF87B6803F1080307F1100292E8030083E8030007F1180318463549354A00F006
S32D000110A0AFF87B6803F1100307F1180292E8030083E8030007F1200318462F492F4A00F09FF87B6803F11803B0
S32D000110C807F1200292E8030083E8030007F1280318462349284A00F08FF87B6803F1200307F1280292E8030085
S32D000110F083E8030007F1300318462249224A00F07FF87B6803F1280307F1300292E8030083E8030007F1380352
S32D00011118184612491B4A00F06FF87B6803F1300307F1380292E8030083E8030007F1400318460A490B4A00F0DB
S32D000111405FF87B6803F1380307F1400292E8030083E803007B68184607F14807BD4680BD0000EC410000984124
S32D0001116800004041000034420000C841CDCC58429A9999419A994B42000078410000C0400000D8410000A041A5
S32D0001119080B582B000AF78607B68184600F044F87B6803F10803184600F03EF87B6803F11003184600F038F807
S32D000111B87B6803F11803184600F032F87B6803F12003184600F02CF87B6803F12803184600F026F87B6803F1ED
S32D000111E03003184600F020F87B6803F13803184600F01AF87B68184607F10807BD4680BD80B485B000AFF860DD
S32D00011208B9607A60FB68BA681A60FB687A685A60FB68184607F11407BD4680BC704700BF80B483B000AF78604F
S32D000112307B68184607F10C07BD4680BC704700BF80B582B000AF786039607B68012B40F095803A684FF6FF735A
S32D000112589A4240F08F8041F21C10C1F6FF704FF00001464A00F0BCFA41F22410C1F6FF704FF00101414A00F008
S32D00011280B3FA41F22C10C1F6FF704FF002013E4A00F0AAFA41F23410C1F6FF704FF0060105F048FE41F2381006
S32D000112A8C1F6FF704FF0070105F040FE41F23C10C1F6FF704FF0000106F036FE41F24810C1F6FF704FF01F0158
S32D000112D005F068FC41F24C10C1F6FF704FF0000105F060FC41F25010C1F6FF704FF01E0105F058FC41F2541059
S32D000112F8C1F6FF704FF0010105F050FC41F25810C1F6FF704FF0080105F048FC41F25C10C1F6FF704FF00901CF
S32D0001132005F040FC41F26010C1F6FF704FF00F0106F0E0F941F26410C1F6FF704FF0130106F0D8F941F26810F4
S32D00011348C1F6FF704FF0110106F0D0F941F26C10C1F6FF704FF0100106F0C8F941F27810C1F6FF70FFF75CFF32
S32D0001137041F2AC10C1F6FF70FFF70AFF07F10807BD4680BD000040410000A04080B500AF4FF001004FF6FF71B9
S32D00011398FFF752FF80BD00BF80B500AF41F6E812C1F6FF7241F21C13C1F6FF73D31A194641F21C13C1F6FF7344
S32D000113C01A460B4610464FF000011A460BF019FE80BD00BF0CF08EFE00F0B0F9FFF7E0FF0CF060FE0CF0FCFD04
S32D000113E80CF094FE00F00CF84FF0000041F2F411C1F6FF71FBF7FCFF034618460BF0D8FD80B500AF4FF4E04308
S32D00011410C4F204034FF4E042C4F2040202F5805202F13802126842F4785203F5805303F138031A6000F02EF9D4
S32D0001143800F094F841F23043C1F6FF734FF058021A6041F23043C1F6FF731B684FF47A7202FB03F241F22C4312
S32D00011460C1F6FF731A6041F22C43C1F6FF731B681A464FF4E043C4F2040303F5825303F104031B6803F07063D8
S32D000114884FEA136303F10103B2FBF3F31A4641F23443C1F6FF731A604FF4E043C4F204034FF4E042C4F204020A
S32D000114B002F5805202F13C02126842F0225203F5805303F13C031A604FF4E043C4F204034FF4E042C4F2040237
S32D000114D802F5805202F13002126842F0006203F5805303F130031A604FF45043C4F203034FF480721A614FF0FC
S32D00011500640005F037F94FF45043C4F203034FF45042C4F20302526922F010025A614FF45043C4F203034FF0A6
S32D0001152800021A604FF45043C4F203034FF010025A6106F01FFA06F0C7FA41F22840C1F6FF7005F097F941F23B
S32D00011550E440C1F6FF7007F00BF941F2883005F075FA80BD80B400AF4FF48043C4F206034FF000025A704FF4A5
S32D000115788043C4F206034FF098021A704FF48043C4F206039B79DBB203F01003002B0CBF00230123DBB2002BFE
S32D000115A0F0D14FF48043C4F206039B79DBB203F00C034FEA9303022B0CBF00230123DBB2002BEED14FF4804368
S32D000115C8C4F206034FF018021A714FF48043C4F206034FF000025A714FF4E043C4F2040303F5825303F1040395
S32D000115F04FF00002C0F213121A604FF48043C4F206034FF054025A7100BF4FF48043C4F206039B79DBB203F0FD
S32D000116182003002B14BF00230123DBB2002BF0D100BF4FF48043C4F206039B79DBB203F04003002B14BF002346
S32D000116400123DBB2002BF0D14FF48043C4F206034FF48042C4F206021278D2B202F03F02D2B21A704FF4804301
S32D00011668C4F206039B79DBB203F00C034FEA9303032B0CBF00230123DBB2002BEED14FF000031846BD4680BC8C
S32D00011690704700BF80B400AF4FF44043C4F204034FF480725A634FF2C003C4F20F034FF2C002C4F20F0252690C
S32D000116B842F400525A614FF2C003C4F20F034FF2C002C4F20F02126842F400521A604FF44043C4F2040340F2F9
S32D000116E00312C0F20A021A634FF46143CEF200034FF46142CEF20002D2F8882142F08062C3F888214FF4614367
S32D00011708CEF200034FF46142CEF20002926842F080629A60BD4680BC704700BF80B483B000AF7860FEE700BFF8
S32D0001173080B400AF00BEBD4680BC704780B400AF4FF0E0224CF20003C0F20003C2F8083D4FF40053C4F2050386
S32D000117584CF22052DA814FF40053C4F205034DF62812DA814FF40053C4F205034FF0D2021A80BD4680BC704734
S32D0001178080B500AF4FF44043C4F20403D3F8A03003F48053002B0CBF00230123DBB2002B1FD04FF44043C4F20E
S32D000117A804034FF44042C4F20402D2F8A02022F48052C3F8A02041F26C50C1F6FF700BF0D9FA4FF2C003C4F200
S32D000117D00F034FF2C002C4F20F02126822F400521A6080BD0000000090B585B000AFF8600B467A60FB72FB68F9
S32D000117F8FA7A1A71FB684FF000025A714FF001031C4678682049FBF7B3FD0346002B02D14FF000031C46E3B244
S32D00011820002B02D01A4B7B6011E04FF001031C4678681849FBF78CFD0346002B02D14FF000031C46E3B2002B5F
S32D0001184801D0124B7B607868FAF742FF02460B46104619460AA3D3E90023FAF78DFF02460B4610461946FBF7BF
S32D0001187069FA0246FB681A60FB68184607F11407BD4690BDAFF30080ABAAAAAAAAAA2040000040410000803FDE
S32D0001189880B582B000AF78607B685B79002B10D07B684FF000025A717B681B7941F22840C1F6FF7019464FF0AC
S32D000118C000024FF01E0305F023F807F10807BD4680BD00BF80B584B000AF786039603B687F2B03DD4FF07F030A
S32D000118E8FB7309E03B6813F1800F03DA4FF08003FB7301E03B68FB737B685B79FA7B9A420FD07B68FA7B5A713B
S32D000119107B681A79FB7B41F22840C1F6FF7011461A464FF01E0304F0F3FF07F11007BD4680BD00BF00000000F0
S32D00011938B0B584B000AF786039604FF001031C4638684D49FBF7F6FC0346002B02D14FF000031C46E3B2002B5D
S32D0001196002D0474B3B6011E04FF001031C4638684449FBF701FD0346002B02D14FF000031C46E3B2002B01D02A
S32D000119883E4B3B603868FAF7A3FE04460D467B681B681846FAF79CFE02460B46104619464FF000024FF080435D
S32D000119B003F5B203FBF70EF802460B4620462946FAF7DEFE02460B4610461946FBF7BAF903463B604FF001030E
S32D000119D81C4638682A49FBF7C1FC0346002B02D14FF000031C46E3B2002B14D03868FAF76FFE02460B46104640
S32D00011A0019461DA3D3E90023FAF7BAFE02460B4610461946FBF74EF90346FB6022E03868FAF75AFE02460B4661
S32D00011A28104619464FF000024FF0804303F5C003FAF7A2FE02460B46104619464FF000024FF0804303F5B2030D
S32D00011A50FAF7C0FF02460B4610461946FBF72AF90346FB607868F968FFF734FF07F11007BD46B0BDAFF30080A5
S32D00011A7852B81E85EB51F43F0000C8C20000C84200000000AFF3008080B485B000AF02460B46FA71BB71BB79F1
S32D00011AA0002B07D141F2F813C1F6FF734FF000021A7006E041F2F813C1F6FF734FF001021A704FF03803FB73E1
S32D00011AC841F2F813C1F6FF731A78FB7B1343FB734FF4C043C4F206034FF4C042C4F206029278D2B242F01002E2
S32D00011AF0D2B29A704FF4C043C4F206034FF4C042C4F206029278D2B242F02002D2B29A704FF4C043C4F20603BC
S32D00011B18FA7B1A7107F11407BD4680BC704700BF80B483B000AF4FF001037B6004E000BF7B6803F101037B6049
S32D00011B407B68312BCCBF00230123DBB2002BF2D107F10C07BD4680BC704700BF80B582B000AF02460B46FA7110
S32D00011B68BB7141F2F913C1F6FF731B7818464FF00001FFF789FF4FF4C043C4F20603DB78DBB203F00203002B03
S32D00011B9014BF00230123DBB2002BF0D14FF4C043C4F206034FF4C042C4F20602D278D2B242F00202D2B2DA70B9
S32D00011BB84FF4C043C4F20603FA791A714FF4C043C4F20603DB78DBB203F00203002B14BF00230123DBB2002B21
S32D00011BE0F0D14FF4C043C4F206034FF4C042C4F20602D278D2B242F00202D2B2DA704FF4C043C4F20603BA7903
S32D00011C081A714FF4C043C4F20603DB78DBB203F00203002B14BF00230123DBB2002BF0D14FF4C043C4F2060382
S32D00011C304FF4C042C4F20602D278D2B242F00202D2B2DA704FF4C043C4F206034FF4C042C4F206029278D2B21A
S32D00011C5822F02002D2B29A704FF4C043C4F206034FF4C042C4F206029278D2B222F01002D2B29A70FFF754FF0A
S32D00011C8007F10807BD4680BD80B582B000AF0346FB71FB79184600F06BF807F10807BD4680BD00BF80B582B091
S32D00011CA800AF02460B46FA71BB7100F039F8FB794FEA4303DBB21846FFF7E2FFBB791846FFF7DEFF00F03EF8CD
S32D00011CD007F10807BD4680BD80B500AF4FF0FF0000F046F80346184680BD00BF80B584B000AF0346FB7100F0EE
S32D00011CF817F8FB794FEA4303DBB243F00103DBB2DBB21846FFF7BCFFFFF7E2FF0346FB7300F018F8FB7B18466C
S32D00011D2007F11007BD4680BD80B400AF4FF24003C4F20F034FF24002C4F20F02926842F480129A60BD4680BCD1
S32D00011D48704700BF80B400AF4FF24003C4F20F034FF24002C4F20F02526842F480125A60BD4680BC704700BF8C
S32D00011D7080B485B000AF0346FB714FF00003BB7303E0FB7B03F10103FB734FF44043C4F20A03DB6A4FF0000338
S32D00011D98002BF2D14FF44043C4F20A034FF44042C4F20A02D26A42F00042DA624FF44043C4F20A03FA795A6379
S32D00011DC000BF4FF44043C4F20A03DB6A03F40033002B14BF00230123DBB2002BF1D14FF44043C4F20A039B6BEF
S32D00011DE8BB73BB7B184607F11407BD4680BC704780B582B000AF4FF4E043C4F204034FF4E042C4F2040202F5B0
S32D00011E10805202F13002126842F4805203F5805303F130031A604FF42043C4F204034FF480721A654FF2400323
S32D00011E38C4F20F034FF24002C4F20F02526942F480125A61FFF77EFF4FF42043C4F204034FF400725A654FF49E
S32D00011E602043C4F204034FF400729A654FF42043C4F204034FF40072DA654FF44043C4F20A034FF44062C8F200
S32D00011E8800021A604FF44043C4F20A034FF00502C3F60062DA604FF000037B6007E04FF0FF00FFF7EDFE7B6885
S32D00011EB003F101037B607B68092BCCBF00230123DBB2002BEFD104A1D1E9000104F0D8FD07F10807BD4680BD5F
S32D00011ED89A9999999999B93F90B486B000AFF860B9607A60FA684FF42043C4F206039A4214D14FF4E043C4F234
S32D00011F0004034FF4E042C4F2040202F5805202F13402126842F4806203F5805303F134031A6083E0FA684FF48E
S32D00011F283043C4F206039A4214D14FF4E043C4F204034FF4E042C4F2040202F5805202F13402126842F400624F
S32D00011F5003F5805303F134031A6067E0FA684FF44043C4F206039A4214D14FF4E043C4F204034FF4E042C4F2C5
S32D00011F78040202F5805202F13402126842F4805203F5805303F134031A604BE0FA684FF45043C4F206039A4252
S32D00011FA014D14FF4E043C4F204034FF4E042C4F2040202F5805202F13402126842F4005203F5805303F13403FF
S32D00011FC81A602FE0FA684FF42043C4F20E039A4214D14FF4E043C4F204034FF4E042C4F2040202F5805202F1D1
S32D00011FF02802126842F4806203F5805303F128031A6013E04FF4E043C4F204034FF4E042C4F2040202F58052A2
S32D0001201802F12802126842F4006203F5805303F128031A60FB68DB78DBB223F00C03DAB2FB68DA70FB684FF0C6
S32D0001204000029A70BB684FF47A7202FB03F27B684FEA031392FBF3F39CB2FB681B78DBB223F01F03FB7523469D
S32D0001206803F4F8534FEA2323DBB203F01F03DAB2FB7D1343DAB2FB681A70E2B2FB685A70BB684FF4FA4202FBB3
S32D0001209003F27B684FEA031392FBF3F39AB2234619464FEAC121CB1A4FEA43139BB2D3189CB2FB689B7ADBB259
S32D000120B823F01F03FB75E3B203F01F03DAB2FB7D1343DAB2FB689A72FB68DB78DBB243F00C03DAB2FB68DA7097
S32D000120E007F11807BD4690BC704700BF80B483B000AF786000BF7B681B79DBB203F02003002B14BF00230123E9
S32D00012108DBB2002BF3D17B68DB79DBB2184607F10C07BD4680BC704780B483B000AF78600B46FB7000BF7B68BD
S32D000121301B79DBB2DBB26FEA0303DBB24FEAD313DBB2002BF3D17B68FA78DA7107F10C07BD4680BC704700BFEB
S32D0001215880B487B000AFF860B9607A60FB687B61BB683B610BE03B691A787B691A707B6903F101037B613B690A
S32D0001218003F101033B617B68002B0CBF00230123DBB27A6802F1FF327A60002BE7D107F11C07BD4680BC70471B
S32D000121A880B487B000AFF860B9607A60FB687B6107E0BB68DAB27B691A707B6903F101037B617B68002B0CBFCF
S32D000121D000230123DBB27A6802F1FF327A60002BEBD107F11C07BD4680BC704780B489B000AFF860B9607A60CD
S32D000121F8FB68FB61BB68BB614FF000037B617B68002B0CBF00230123DBB27A6802F1FF327A60002B19D0FB6997
S32D000122201B781A46BB691B78D31A7B617B69002B14BF00230123DBB2FA6902F10102FA61BA6902F10102BA617E
S32D00012248002B02D04FF0010301E04FF00003002BD5D17B69184607F12407BD4680BC704780B483B000AF7860EA
S32D00012270396003E07B6803F101037B607B681B78002B08D07B681B781A463B689A4202D04FF0010301E04FF00A
S32D000122980003002BEAD17B681B78184607F10C07BD4680BC704700BF80B584B000AF786039607B681B6BFB604D
S32D000122C0FA683B689A4264D07B681B79002B43D07B685A787B6803F1340310461946FA684FF0010304F0B4F868
S32D000122E80346002B0CBF00230123DBB2002B02D04FF001034BE07B684FF000021A717B685A6A7B681B6AD218A1
S32D00012310FB689A4220D97B68DB78FB7214E07B681B6AFA68D318FB607B685A787B6803F1340310461946FA68E5
S32D000123384FF0010304F088F8FB7A03F1FF33FB72FB7A012B94BF00230123DBB2002BE2D13B68002B19D07B6877
S32D000123605A787B6803F13403104619463A684FF0010303F05FFF0346002B0CBF00230123DBB2002B02D04FF034
S32D00012388010304E07B683A681A634FF00003184607F11007BD4680BD80B584B000AF786078684FF00001FFF747
S32D000123B07FFF0346FB73FB7B002B40F0AE807B681B78032B40F095807B685B79002B00F090807B684FF00002DB
S32D000123D81A637B6803F1340318464FF000014FF40072FFF7DDFE7B684FF0550283F832227B684FF0AA0283F896
S32D0001240033227B684FF0520283F834207B684FF0520283F835207B684FF0610283F836207B684FF0410283F897
S32D0001242837207B684FF0720283F818227B684FF0720283F819227B684FF0410283F81A227B684FF0610283F87B
S32D000124501B227B681B69DAB27B6883F81C227B681B699BB24FEA2323DAB27B6883F81D227B681B694FEA13433F
S32D00012478DAB27B6883F81E227B681B694FEA1363DAB27B6883F81F227B68DB68DAB27B6883F820227B68DB6852
S32D000124A09BB24FEA2323DAB27B6883F821227B68DB684FEA1343DAB27B6883F822227B68DB684FEA1363DAB2D0
S32D000124C87B6883F823227B6859787B6803F134027B685B69084611461A464FF0010303F0B3FF7B684FF00002C9
S32D000124F05A717B685B7818464FF000014FF0000204F08CF80346002B0CBF00230123DBB2002B02D04FF0010392
S32D00012518FB73FB7B184607F11007BD4680BD00BF80B483B000AF786039603B68A3F102033B607B68DB69A3F12B
S32D0001254002023B689A4202D84FF0000307E07B689B783A6802FB03F27B68DB6AD318184607F10C07BD4680BCA1
S32D00012568704700BF80B586B000AF786039603B68012B04D97B68DA693B689A4202D84FF00103D3E07B681B78AC
S32D00012590022B5FD0032B00F08A80012B40F0C8803B687B617B694FEA53037A69D3187B617B685A6A7B694FEA94
S32D000125B85323D31878681946FFF776FE0346002B0CBF00230123DBB2002B40F0A6807B694FEAC3534FEAD353C4
S32D000125E07A68D31893F834303B617B6903F101037B617B685A6A7B694FEA5323D31878681946FFF755FE0346C6
S32D00012608002B0CBF00230123DBB2002B40F087807B694FEAC3534FEAD3537A68D31893F834304FEA03233A6927
S32D0001263013433B613B6803F00103DBB2002B03D03B694FEA131304E03B694FEA03534FEA13536FE07B685A6AB5
S32D000126583B684FEA1323D31878681946FFF724FE0346002B0CBF00230123DBB2002B58D13B684FEA43034FEA3D
S32D00012680C3534FEAD35303F130037A68D31803F10403FB60FB6803F101031B784FEA03239AB2FB681B78134387
S32D000126A89BB29BB242E07B685A6A3B684FEAD313D31878681946FFF7F7FD0346002B0CBF00230123DBB2002B8C
S32D000126D02DD13B684FEA83034FEAC3534FEAD35303F130037A68D31803F10403FB60FB6803F103031B784FEA5A
S32D000126F80362FB6803F102031B784FEA03431A43FB6803F101031B784FEA03231A43FB681B78134323F07043C7
S32D0001272008E000BF04E000BF02E000BF00E000BF4FF0FF33184607F11807BD4680BD00BF80B588B000AFF860A7
S32D00012748B9607A60BB68012B04D9FB68DA69BB689A4203D84FF00203FB771AE1FB681B78022B00F08580032BCC
S32D0001277000F0AD80012B40F00181BB68BB61BB694FEA5303BA69D318BB61FB685A6ABB694FEA5323D318F868DE
S32D000127981946FFF789FD0346FB77FB7F002B40F0ED80BB694FEAC3534FEAD35303F13003FA68D31803F10403F9
S32D000127C07B61BB6803F00103DBB2002B0ED07B691B78DBB203F00F03DAB27B68DBB24FEA0313DBB21343DBB29A
S32D000127E8DBB201E07B68DBB27A691370BB6903F10103BB61FB684FF001021A71FB685A6ABB694FEA5323D31831
S32D00012810F8681946FFF74CFD0346FB77FB7F002B40F0B280BB694FEAC3534FEAD35303F13003FA68D31803F19F
S32D0001283804037B61BB6803F00103DBB2002B04D07B684FEA1313DBB20FE07B691B78DBB223F00F03DAB27B6892
S32D000128604FEA1323DBB203F00F03DBB21343DBB2DBB27A6913708CE0FB685A6ABB684FEA1323D318F868194616
S32D00012888FFF712FD0346FB77FB7F002B7AD1BB684FEA43034FEAC3534FEAD35303F13003FA68D31803F10403B2
S32D000128B07B617B68DAB27B691A707B6903F101037A6892B24FEA2222D2B21A7061E0FB685A6ABB684FEAD31309
S32D000128D8D318F8681946FFF7E7FC0346FB77FB7F002B51D1BB684FEA83034FEAC3534FEAD35303F13003FA68B3
S32D00012900D31803F104037B617B6903F103031B784FEA03627B6903F102031B784FEA03431A437B6903F10103AF
S32D000129281B784FEA03231A437B691B78134303F070437A6813437B607B68DAB27B691A707B6903F101037A6810
S32D0001295092B24FEA2222D2B21A707B6903F102037A684FEA1242D2B21A707B6903F103037A684FEA1262D2B23E
S32D000129781A700AE04FF00203FB7706E000BF04E000BF02E000BF00E000BFFB684FF001021A71FB7F184607F17E
S32D000129A02007BD4680BD00BF80B584B000AF786039603B68012B04D97B68DA693B689A4203D84FF00203FB737B
S32D000129C845E04FF00003FB7333E078683968FFF7C9FD0346BB60BB68002B35D0BB68012B03D14FF00203FB732F
S32D000129F031E0BB68B3F1FF3F03D14FF00103FB7329E0786839684FF00002FFF799FE0346FB73FB7B002B1DD17F
S32D00012A187B681B69B3F1FF3F09D07B681B6903F101027B681A617B684FF001025A71BB683B607B68DA693B683A
S32D00012A409A4294BF00230123DBB2002BC1D102E000BF00E000BFFB7B184607F11007BD4680BD00BF80B586B01A
S32D00012A6800AF786039603B68002B0ED17B68DB683B613B69002B04D07B68DA693B699A4218D84FF001033B6198
S32D00012A9014E078683968FFF769FD0346BB60BB68012B02D84FF001036EE07B68DA69BB689A4201D9BB6867E0BF
S32D00012AB83B683B613B697B6100E000BF7B6903F101037B617B68DA697B699A4209D84FF002037B617A693B696B
S32D00012AE09A4202D94FF000034EE078687969FFF73DFD0346BB60BB68002B0FD0BB68B3F1FF3F02D0BB68012BF7
S32D00012B0801D1BB683CE07A693B699A42D5D14FF0000335E000BF786879696FF07042FFF70BFE0346FB73FB7B6F
S32D00012B30002B09D13B68002B06D0786839687A69FFF7FEFD0346FB73FB7B002B12D17B687A69DA607B681B69D6
