S01300002E2E2F4645485F526F626F742E7331391E
S32D0000C000000000205D120100B9150100B9150100B9150100B9150100B915010000000000000000000000000077
S32D0000C02800000000B9150100B915010000000000B9150100B9150100B9150100B9150100B9150100B915010072
S32D0000C050B9150100B9150100B9150100B9150100B9150100B9150100B9150100B9150100B9150100B9150100AC
S32D0000C078B9150100B9150100B9150100B9150100B9150100B9150100B9150100B9150100B9150100B915010084
S32D0000C0A0B9150100B9150100B9150100B9150100B9150100B9150100B9150100B9150100B9150100B91501005C
S32D0000C0C8B9150100B9150100B9150100B9150100B9150100B9150100B9150100B9150100B9150100B915010034
S32D0000C0F0B915010021B30100B9150100B9150100B9150100B9150100B9150100B9150100B9150100B915010006
S32D0000C118B9150100B9150100B9150100B9150100B9150100B9150100B9150100B9150100B9150100B9150100E3
S32D0000C140B9150100B9150100B9150100B9150100B5780100B9150100B9150100B9150100B9150100B91501005C
S32D0000C168B9150100B9150100B9150100B9150100B9150100B9150100B9150100B9150100B9150100B915010093
S32D0000C190B9150100B9150100B915010015730100697101003D72010009160100ED730100B9150100B9150100E1
S32D0000C1B8B9150100B9150100B9150100B9150100B9150100B9150100B9150100B9150100B9150100B915010043
S32D0000C41081F0004102E000BF83F0004330B54FEA41044FEA430594EA050F08BF90EA020F1FBF54EA000C55EAC6
S32D0000C438020C7FEA645C7FEA655C00F0E2804FEA5454D4EB5555B8BF6D420CDD2C4480EA020281EA030382EA0F
S32D0000C460000083EA010180EA020281EA0303362D88BF30BD11F0004F4FEA01314FF4801C4CEA113102D0404263
S32D0000C48861EB410113F0004F4FEA03334CEA133302D0524263EB430394EA050F00F0A780A4F10104D5F1200E8A
S32D0000C4B00DDB02FA0EFC22FA05F2801841F1000103FA0EF2801843FA05F359410EE0A5F120050EF1200E012A2D
S32D0000C4D803FA0EFC28BF4CF0020C43FA05F3C01851EBE37101F0004507D54FF0000EDCF1000C7EEB00006EEB67
S32D0000C5000101B1F5801F1BD3B1F5001F0CD349085FEA30004FEA3C0C04F101044FEA445212F5800F80F09A8000
S32D0000C528BCF1004F08BF5FEA500C50F1000041EB045141EA050130BD5FEA4C0C404141EB010111F4801FA4F114
S32D0000C5500104E9D191F0000F04BF01460020B1FA81F308BF2033A3F10B03B3F120020CDA0C3208DD02F1140C87
S32D0000C578C2F10C0201FA0CF021FA02F10CE002F11402D8BFC2F1200C01FA02F120FA0CFCDCBF41EA0C019040B1
S32D0000C5A0E41AA2BF01EB0451294330BD6FEA04041F3C1CDA0C340EDC04F11404C4F1200220FA04F001FA02F3B6
S32D0000C5C840EA030021FA04F345EA030130BDC4F10C04C4F1200220FA02F001FA04F340EA0300294630BD21FAA8
S32D0000C5F004F0294630BD94F0000F83F4801306BF81F480110134013D4EE77FEA645C18BF7FEA655C29D094EA1C
S32D0000C618050F08BF90EA020F05D054EA000C04BF1946104630BD91EA030F1EBF0021002030BD5FEA545C05D1A3
S32D0000C6404000494128BF41F0004130BD14F580043CBF01F5801130BD01F0004545F0FE4141F470014FF0000031
S32D0000C66830BD7FEA645C1ABF194610467FEA655C1CBF0B46024650EA013406BF52EA033591EA030F41F40021D7
S32D0000C69030BD00BF90F0000F04BF0021704730B54FF4806404F132044FF000054FF0000150E700BF90F0000F66
S32D0000C6B804BF0021704730B54FF4806404F1320410F0004548BF40424FF000013EE700BF42004FEAE2014FEAF9
S32D0000C6E031014FEA02701FBF12F07F4393F07F4F81F06051704792F0000F14BF93F07F4F704730B54FF460741B
S32D0000C70801F0004521F0004120E700BF50EA010208BF704730B54FF000050AE050EA010208BF704730B511F046
S32D0000C730004502D5404261EB41014FF4806404F132045FEA915C3FF4DCAE4FF003025FEADC0C18BF03325FEAA0
S32D0000C758DC0C18BF033202EBDC02C2F1200300FA03FC20FA02F001FA03FE40EA0E0021FA02F11444C1E600BF19
S32D0000C78070B54FF0FF0C4CF4E06C1CEA11541DBF1CEA135594EA0C0F95EA0C0F00F0DEF82C4481EA030621EAF3
S32D0000C7A84C5123EA4C5350EA013518BF52EA033541F4801143F4801338D0A0FB02CE4FF00005E1FB02E506F05F
S32D0000C7D00042E0FB03E54FF00006E1FB03569CF0000F18BF4EF0010EA4F1FF04B6F5007F64F5407404D25FEA0F
S32D0000C7F84E0E6D4146EB060642EAC62141EA55514FEAC52040EA5E504FEACE2EB4F1FD0C88BFBCF5E06F1ED8D2
S32D0000C820BEF1004F08BF5FEA500E50F1000041EB045170BD06F0004646EA010140EA020081EA0301B4EB5C0487
S32D0000C848C2BFD4EB0C0541EA045170BD41F480114FF0000E013C00F3AB8014F1360FDEBF002001F0004170BDF0
S32D0000C870C4F10004203C35DA0C341BDC04F11404C4F1200500FA05F320FA04F001FA05F240EA020001F0004207
S32D0000C89821F0004110EBD37021FA04F642EB06015EEA430E08BF20EAD37070BDC4F10C04C4F1200500FA04F32F
S32D0000C8C020FA05F001FA04F240EA020001F0004110EBD37041F100015EEA430E08BF20EAD37070BDC4F12005C7
S32D0000C8E800FA05F24EEA020E20FA04F301FA05F243EA020321FA04F001F0004121FA04F220EA020000EBD37028
S32D0000C9105EEA430E08BF20EAD37070BD94F0000F0FD101F00046400041EB010111F4801F08BF013CF7D041EA6D
S32D0000C938060195F0000F18BF704703F00046520043EB030313F4801F08BF013DF7D043EA0603704794EA0C0FF1
S32D0000C9600CEA135518BF95EA0C0F0CD050EA410618BF52EA4306D1D181EA030101F000414FF0000070BD50EA38
S32D0000C988410606BF1046194652EA430619D094EA0C0F02D150EA013613D195EA0C0F05D152EA03361CBF10467B
S32D0000C9B019460AD181EA030101F0004141F0FE4141F470014FF0000070BD41F0FE4141F4780170BD70B54FF04D
S32D0000C9D8FF0C4CF4E06C1CEA11541DBF1CEA135594EA0C0F95EA0C0F00F0A7F8A4EB050481EA030E52EA03359B
S32D0000CA004FEA013100F088804FEA03334FF0805545EA131343EA12634FEA022245EA111545EA10654FEA002676
S32D0000CA280EF000419D4208BF964244F1FD0404F5407402D25B084FEA3202B61A65EB03055B084FEA32024FF461
S32D0000CA5080104FF4002CB6EB020E75EB030E22BFB61A754640EA0C005B084FEA3202B6EB020E75EB030E22BF22
S32D0000CA78B61A754640EA5C005B084FEA3202B6EB020E75EB030E22BFB61A754640EA9C005B084FEA3202B6EBEA
S32D0000CAA0020E75EB030E22BFB61A754640EADC0055EA060E18D04FEA051545EA16754FEA06164FEAC30343EAAC
S32D0000CAC852734FEAC2025FEA1C1CC0D111F4801F0BD141EA00014FF000004FF0004CB6E711F4801F04BF0143AE
S32D0000CAF00020B4F1FD0C88BFBCF5E06F3FF6AFAEB5EB030C04BFB6EB020C5FEA500C50F1000041EB045170BDBC
S32D0000CB180EF0004E4EEA113114EB5C04C2BFD4EB0C0541EA045170BD41F480114FF0000E013C90E645EA060EC3
S32D0000CB408DE60CEA135594EA0C0F08BF95EA0C0F3FF43BAF94EA0C0F0AD150EA01347FF434AF95EA0C0F7FF499
S32D0000CB6825AF104619462CE795EA0C0F06D152EA03353FF4FDAE1046194622E750EA410618BF52EA43067FF432
S32D0000CB90C5AE50EA41047FF40DAF52EA43057FF4EBAE12E74FF0FF3C06E000BF4FF0010C02E000BF4FF0010C75
S32D0000CBB84DF804CD4FEA410C7FEA6C5C4FEA430C18BF7FEA6C5C1BD001B050EA410C0CBF52EA430C91EA030FEC
S32D0000CBE002BF90EA020F0020704710F1000F91EA030F58BF994208BF90422CBFD8176FEAE37040F0010070476E
S32D0000CC084FEA410C7FEA6C5C02D150EA013C07D14FEA430C7FEA6C5CD6D152EA033CD3D05DF8040B704700BFCD
S32D0000CC308446104662468C461946634600E000BF01B5FFF7B7FF002848BF10F1000F01BD4DF808EDFFF7F4FF13
S32D0000CC580CBF012000205DF808FB00BF4DF808EDFFF7EAFF34BF012000205DF808FB00BF4DF808EDFFF7E0FF18
S32D0000CC8094BF012000205DF808FB00BF4DF808EDFFF7CEFF94BF012000205DF808FB00BF4DF808EDFFF7C4FF40
S32D0000CCA834BF012000205DF808FB00BF4FEA410212F5001215D211D56FF47873B3EB625212D94FEAC12343F0D6
S32D0000CCD0004343EA505311F0004F23FA02F018BF404270474FF00000704750EA013005D111F0004008BF6FF016
S32D0000CCF8004070474FF00000704700BF4A0011D212F5001211D20DD56FF47873B3EB62520ED44FEAC12343F085
S32D0000CD20004343EA505323FA02F070474FF00000704750EA013002D14FF0FF3070474FF0000070474FEA410241
S32D0000CD48B2F1E04324BFB3F5001CDCF1FE5C0DD901F0004C4FEAC0024CEA5070B2F1004F40EB830008BF20F09E
S32D0000CD700100704711F0804F21D113F13872BCBF01F00040704741F480114FEA5252C2F11802C2F1200C10FAB1
S32D0000CD980CF320FA02F018BF40F001004FEAC1234FEAD32303FA0CFC40EA0C0023FA02F34FEA4303CCE77FEA26
S32D0000CDC0625307D150EA01331EBF4FF0FE4040F44000704701F0004040F0FE4040F40000704700BF80F00040CC
S32D0000CDE802E000BF81F0004142001FBF5FEA410392EA030F7FEA226C7FEA236C6AD04FEA1262D2EB1363C1BF06
S32D0000CE10D218414048404140B8BF5B42192B88BF704710F0004F40F4000020F07F4018BF404211F0004F41F4FA
S32D0000CE38000121F07F4118BF494292EA030F3FD0A2F1010241FA03FC10EB0C00C3F1200301FA03F100F000432B
S32D0000CE6002D5494260EB4000B0F5000F13D3B0F1807F06D340084FEA310102F10102FE2A51D2B1F1004F40EB94
S32D0000CE88C25008BF20F0010040EA03007047490040EB000010F4000FA2F10102EDD1B0FA80FCACF1080CB2EB5F
S32D0000CEB00C0200FA0CF0AABF00EBC25052421843BCBFD0401843704792F0000F81F4000106BF80F400000132EB
S32D0000CED8013BB5E74FEA41037FEA226C18BF7FEA236C21D092EA030F04D092F0000F08BF0846704790EA010FD7
S32D0000CF001CBF0020704712F07F4F04D1400028BF40F00040704712F100723CBF00F50000704700F0004343F0DC
S32D0000CF28FE4040F4000070477FEA226216BF08467FEA23630146420206BF5FEA412390EA010F40F480007047C1
S32D0000CF504FF0000304E000BF10F0004348BF40425FEA000C08BF704743F0964301464FF000001CE050EA010264
S32D0000CF7808BF70474FF000030AE000BF50EA010208BF704711F0004302D5404261EB41015FEA010C02BF84465B
S32D0000CFA00146002043F0B64308BFA3F18053A3F50003BCFA8CF2083AA3EBC25310DB01FA02FC634400FA02FC6B
S32D0000CFC8C2F12002BCF1004F20FA02F243EB020008BF20F00100704702F1200201FA02FCC2F1200250EA4C0034
S32D0000CFF021FA02F243EB020008BF20EADC7070474FF0FF0C1CEAD0521EBF1CEAD15392EA0C0F93EA0C0F6FD019
S32D0000D0181A4480EA010C400218BF5FEA41211ED04FF0006343EA501043EA5111A0FB01310CF00040B1F5000FE7
S32D0000D0403EBF490041EAD3715B0040EA010062F17F02FD2A1DD8B3F1004F40EBC25008BF20F00100704790F058
S32D0000D068000F0CF0004C08BF49024CEA502040EA51207F3AC2BFD2F1FF0340EAC250704740F400004FF0000388
S32D0000D090013A5DDC12F1190FDCBF00F000407047C2F10002410021FA02F1C2F1200200FA02FC5FEA310040F1D5
S32D0000D0B8000053EA4C0308BF20EADC70704792F0000F00F0004C02BF400010F4000F013AF9D040EA0C0093F04C
S32D0000D0E0000F01F0004C02BF490011F4000F013BF9D041EA0C018FE70CEAD15392EA0C0F18BF93EA0C0F0AD00B
S32D0000D10830F0004C18BF31F0004CD8D180EA010000F00040704790F0000F17BF90F0004F084691F0000F91F0BB
S32D0000D130004F14D092EA0C0F01D142020FD193EA0C0F03D14B0218BF084608D180EA010000F0004040F0FE4051
S32D0000D15840F40000704740F0FE4040F4400070474FF0FF0C1CEAD0521EBF1CEAD15392EA0C0F93EA0C0F69D044
S32D0000D180A2EB030280EA010C49024FEA402037D04FF0805343EA111143EA10130CF000408B4238BF5B0042F14E
S32D0000D1A87D024FF4000C8B4224BF5B1A40EA0C00B3EB510F24BFA3EB510340EA5C00B3EB910F24BFA3EB9103A4
S32D0000D1D040EA9C00B3EBD10F24BFA3EBD10340EADC001B0118BF5FEA1C1CE0D1FD2A3FF650AF8B4240EBC25018
S32D0000D1F808BF20F0010070470CF0004C4CEA50207F32C2BFD2F1FF0340EAC250704740F400004FF00003013AF1
S32D0000D22037E792F0000F00F0004C02BF400010F4000F013AF9D040EA0C0093F0000F01F0004C02BF490011F4C9
S32D0000D248000F013BF9D041EA0C0195E70CEAD15392EA0C0F08D142027FF47DAF93EA0C0F7FF470AF084676E7AE
S32D0000D27093EA0C0F04D14B023FF44CAF08466EE730F0004C18BF31F0004CCAD130F000427FF45CAF31F0004376
S32D0000D2987FF43CAF5FE700BF4FF0FF3C06E000BF4FF0010C02E000BF4FF0010C4DF804CD4FEA40024FEA41039F
S32D0000D2C07FEA226C18BF7FEA236C11D001B052EA530C18BF90EA010F58BFB2EB030088BFC81738BF6FEAE1706E
S32D0000D2E818BF40F0010070477FEA226C02D15FEA402C05D17FEA236CE4D15FEA412CE1D05DF8040B704700BF16
S32D0000D310844608466146FFE70FB5FFF7C9FF002848BF10F1000F0FBD4DF808EDFFF7F4FF0CBF012000205DF839
S32D0000D33808FB00BF4DF808EDFFF7EAFF34BF012000205DF808FB00BF4DF808EDFFF7E0FF94BF012000205DF8A9
S32D0000D36008FB00BF4DF808EDFFF7D2FF94BF012000205DF808FB00BF4DF808EDFFF7C8FF34BF012000205DF8B1
S32D0000D38808FB00BF4FEA4002B2F1FE4F0FD34FF09E03B3EB12620DD94FEA002343F0004310F0004F23FA02F060
S32D0000D3B018BF404270474FF00000704712F1610F01D1420205D110F0004008BF6FF0004070474FF00000704797
S32D0000D3D880B582B000AF786039603868FFF7B8FD0346786819460FF0C5FC0346184607F10807BD4680BD00BF60
S32D0000D40080B483B000AF78607B6823F00043184607F10C07BD4680BC704700BF00000000B0B584B000AF00F081
S32D0000D42817FF09F099FA0346BB6000F0D0BE41F28013C1F6FF731B78002B01D003F0B0FB02F0EEFA41F27113A5
S32D0000D450C1F6FF731B78122B00F2A58601A252F823F000BFB1D40000C7DA0000E9DA000005DB0000DDDB000058
S32D0000D478FBDB000017DC000021DC00003FDC00005BDC0000A3DD0000DDDD0000F9DD000063DE00000BDF000033
S32D0000D4A027DF000023E1000041E1000083E1000002F086F90346002B06D109F051FA0246BB68D31A142B02D95C
S32D0000D4C84FF0010301E04FF00003002B00F072864FF05A037B6041F26C50C1F6FF704EF6C831C0F201010FF041
S32D0000D4F07DFB41F2E440C1F6FF704FF000010BF005FA41F26C50C1F6FF704EF6E431C0F201010FF06BFBC84848
S32D0000D518C84902F05DFD0AE002F082FA41F28013C1F6FF731B78002B01D003F039FB02F04FFC034683F001038E
S32D0000D540DBB2002BECD1B8A1D1E9000109F0DCF9BB4802F02DFD41F26C50C1F6FF704EF6F831C0F201010FF012
S32D0000D56841FB7B68A3F105031846FFF7F1FC03464FF001001946B14A02F0E6FE09F0ECF903463B6002E0AE4846
S32D0000D59002F00EFD4FF0010002F062FD034683F00103DBB2002B09D009F0DAF902463B68D31A042B02D84FF0A2
S32D0000D5B8010301E04FF00003002BE4D19E4802F0F3FC99A1D1E9000109F09AF941F26C50C1F6FF704EF6044158
S32D0000D5E0C0F201010FF002FB41F26C50C1F6FF704EF62841C0F201010FF0F8FA8E4802F0D7FC0AE002F010FA85
S32D0000D60841F28013C1F6FF731B78002B01D003F0C7FA02F0D1F80346002B14BF00230123DBB2002BEAD184483A
S32D0000D63002F0BEFC02F0C4F8024641F2F013C1F6FF731A6041F2F013C1F6FF731B68B3F57F0F04D14EF6444399
S32D0000D658C0F2010303E04EF64843C0F2010341F26C50C1F6FF704EF65041C0F201011A460FF0B8FA41F26C50E8
S32D0000D680C1F6FF704EF66C41C0F201010FF0AEFA694802F08DFC09F063F903463B600AE002F0C2F941F2801348
S32D0000D6A8C1F6FF731B78002B01D003F079FA4FF0000002F0D1FC034683F00103DBB2002B09D009F049F9024664
S32D0000D6D03B68D31A092B02D84FF0010301E04FF00003002BDCD1564802F062FC41F26C50C1F6FF704EF6844144
S32D0000D6F8C0F201010FF076FA41F29812C1F6FF724EF6A443C0F2010314461D460FCD0FC495E80F0007C4238095
S32D0000D7204FF0010001F06CFF4848494902F054FC0AE002F079F941F28013C1F6FF731B78002B01D003F030FAF2
S32D0000D74802F046FB034683F00103DBB2002BECD1394802F029FC4FF0000001F04DFF34483A4902F035FC0AE02B
S32D0000D77002F05AF941F28013C1F6FF731B78002B01D003F011FA02F027FB034683F00103DBB2002BECD12A480F
S32D0000D79802F00AFC284801F05BFF2D4802F074FE41F26C50C1F6FF704EF66C41C0F201010FF018FA234802F0AF
S32D0000D7C0F7FB09F0CDF803463B600AE002F02CF941F28013C1F6FF731B78002B01D003F0E3F94FF0010002F027
S32D0000D7E83BFC034683F00103DBB2002B09D009F0B3F802463B68D31A092B02D84FF0010301E04FF00003002B70
S32D0000D810DCD10B4802F0CCFB0748084902F0DCFB27E000BFAFF30080333333333333C33F9A9999999999B93F1D
S32D0000D83800000C420000A040000000000000C84100008CC100000CC20000E040000040400000344302F0E4F88B
S32D0000D86041F28013C1F6FF731B78002B01D003F09BF902F0B1FA034683F00103DBB2002BECD1BBA1D1E90001AC
S32D0000D88809F03EF8BC4802F08FFBBC4802F0FCFD41F26C50C1F6FF704EF6C441C0F201010FF0A0F941F298124D
S32D0000D8B0C1F6FF724EF6D843C0F2010314460FCB84E80F0002F0B0F841F22C10C1F6FF70AD4903F075FF4FF093
S32D0000D8D800004FF0804109F013F841F22C10C1F6FF70A54903F068FFA648A74902F070FB09F032F803463B60FF
S32D0000D9000AE002F091F841F28013C1F6FF731B78002B01D003F048F902F05EFA034683F00103DBB2002B09D047
S32D0000D92809F01AF802463B68D31A042B02D84FF0010301E04FF00003002BDED18E4802F033FB924802F0A0FD46
S32D0000D95041F22C10C1F6FF708B4903F031FF4FF000004FF0804108F0CFFF41F22C10C1F6FF70834903F024FFA1
S32D0000D9788448874902F02CFB08F0EEFF03463B600AE002F04DF841F28013C1F6FF731B78002B01D003F004F974
S32D0000D9A002F01AFA034683F00103DBB2002B09D008F0D6FF02463B68D31A042B02D84FF0010301E04FF00003EE
S32D0000D9C8002BDED16C4802F0EFFA6B4801F040FE694802F059FD6B4802F0E6FA08F0BCFF03463B600AE002F0F5
S32D0000D9F01BF841F28013C1F6FF731B78002B01D003F0D2F84FF0010002F02AFB034683F00103DBB2002B09D013
S32D0000DA1808F0A2FF02463B68D31A092B02D84FF0010301E04FF00003002BDCD1524802F0BBFA584802F0B8FA9E
S32D0000DA404DA1D1E9000108F05FFF4E4802F020FD4E4802F0ADFA08F083FF03463B600AE001F0E2FF41F2801305
S32D0000DA68C1F6FF731B78002B01D003F099F841F25010C1F6FF7009F0C1F80346002B12D041F25410C1F6FF70D6
S32D0000DA9009F0B8F80346002B09D008F061FF02463B68D31A022B02D84FF0010301E04FF00003002BD4D132488B
S32D0000DAB802F07AFA4FF0120001F058FD7AE341F2AC13C1F6FF7393E8030002F0E1FE4FF0020001F04BFD4FF0C3
S32D0000DAE0010001F08DFD76E302F076F90346002B00F06683224802F05BFA4FF0030001F039FD5DE34FF00A00F2
S32D0000DB0801F034FD4FF0010001F076FD41F2AC13C1F6FF7303F1300393E8030002F0B8FE0AE001F07DFF41F237
S32D0000DB308013C1F6FF731B78002B01D003F034F802F04AF9034683F00103DBB2002BECD10B4802F02DFA0F4830
S32D0000DB5802F09AFC104801F07BFD0E480F4902F037FA28E0AFF300809A9999999999D93F333333333333C33F78
S32D0000DB8000000000000087430000204200000CC2000090410000B4420000804100000C420000C84200007041EC
S32D0000DBA801F03EFF41F28013C1F6FF731B78002B01D002F0F5FF02F00BF9034683F00103DBB2002BECD1F64854
S32D0000DBD002F0EEF9F44801F03FFDFCE241F2AC13C1F6FF7303F1080393E8030002F054FE4FF0050001F0BEFC3C
S32D0000DBF8EDE202F0EDF80346002B00F0DF82E84802F0D2F94FF0060001F0B0FCD6E24FF0070001F0ABFCDAE273
S32D0000DC2041F2AC13C1F6FF7303F1100393E8030002F032FE4FF0080001F09CFCCBE202F0CBF80346002B00F07E
S32D0000DC48BF82D74802F0B0F94FF0090001F08EFCB6E2D44802F0A8F90AE001F0E1FE41F28013C1F6FF731B786D
S32D0000DC70002B01D002F098FF4FF0000002F0F0F9034683F00103DBB2002BEAD1C64802F08FF9C74802F08CF9A6
S32D0000DC98C1A1D1E9000108F033FEC14802F084F94FF00000C149C24A02F04EFBBE4802F07BF941F26C50C1F6FE
S32D0000DCC0FF704EF6E841C0F201010EF08FFF0AE001F0AAFE41F28013C1F6FF731B78002B01D002F061FF41F294
S32D0000DCE85010C1F6FF7008F089FF0346002BEBD1AB4802F059F941F26C50C1F6FF704EF60051C0F201010EF045
S32D0000DD106DFF4FF00003FB6036E04FF000004FF07E5101F5C00108F0EFFD41F25010C1F6FF7008F067FF03467E
S32D0000DD38002B21D04FF00003FB6041F26C50C1F6FF704EF62451C0F201010EF04BFF41F2E040C1F6FF7009F0C8
S32D0000DD6061FF934802F024F941F25010C1F6FF7008F048FF0346002BF6D18B4802F018F9FB6803F10103FB608C
S32D0000DD88FB680A2BCCBF00230123DBB2002BC0D14FF00A0001F0EAFB19E2834802F004F94FF000004FF07E5199
S32D0000DDB001F5C00108F0A8FD7B4802F0F9F841F2AC13C1F6FF7303F1180393E8030002F063FD4FF00B0001F016
S32D0000DDD8CDFBFCE101F0FCFF0346002B00F0F2816F4802F0E1F84FF00C0001F0BFFBE9E1704802F049FB6A48D3
S32D0000DE0001F02AFC6E4802F0D5FE41F22C10C1F6FF706C4903F0D4FC4FF000004FF07E5101F5C00108F070FDEC
S32D0000DE2841F22C10C1F6FF705D4903F0C5FC5E4802F0BAF84FF000004FF07E5101F5C00108F05EFD564802F0AC
S32D0000DE50AFF8554801F000FC4FF00D0001F08AFBB9E141F2AC13C1F6FF7303F1380393E8030002F011FD0AE065
S32D0000DE7801F0D6FD41F28013C1F6FF731B78002B01D002F08DFE01F0A3FF034683F00103DBB2002BECD142486B
S32D0000DEA002F086F8484802F0F3FA484801F0D4FB3E48434902F090F80AE001F0B5FD41F28013C1F6FF731B788A
S32D0000DEC8002B01D002F06CFE01F082FF034683F00103DBB2002BECD1314802F065F8304801F0B6FB41F2AC1359
S32D0000DEF0C1F6FF7303F1200393E8030002F0CCFC4FF00E0001F036FB65E101F065FF0346002B00F05D812448D4
S32D0000DF1802F04AF84FF00F0001F028FB54E101F04BFC0346B3F57F0F14BF00230123DBB2002B78D041F26C5050
S32D0000DF40C1F6FF704EF66C51C0F201010EF04EFE1F4802F09DFA15481E4902F03DF80AE001F062FD41F28013B3
S32D0000DF68C1F6FF731B78002B01D002F019FE01F02FFF034683F00103DBB2002BECD1084802F012F80E4802F0E2
S32D0000DF907FFA0E4801F060FB044802F009F826E09A9999999999A93F0000000000000C4200000CC20000B44272
S32D0000DFB80000C841000007430000A04100002042000087430000C842000034430000803F01F026FD41F28013C1
S32D0000DFE0C1F6FF731B78002B01D002F0DDFD4FF0000002F035F8034683F00103DBB2002BEAD18F4801F0D4FF63
S32D0000E0088D4801F025FB8D4801F0CEFF88A1D1E9000108F075FC884801F0C6FF4FF0100001F0A4FAD3E001F01C
S32D0000E030C7FB0346FF2B14BF00230123DBB2002B5CD041F26C50C1F6FF704EF69C51C0F201010EF0CBFD7A480D
S32D0000E05802F01AFA7A487B4901F0BAFF0AE001F0DFFC41F28013C1F6FF731B78002B01D002F096FD01F0ACFE10
S32D0000E080034683F00103DBB2002BECD16C4801F08FFF6F4802F0FCF96E4801F0DDFA6A4801F086FF0AE001F0EB
S32D0000E0A8BFFC41F28013C1F6FF731B78002B01D002F076FD4FF0000001F0CEFF034683F00103DBB2002BEAD17C
S32D0000E0D05B4801F06DFF5A4801F0BEFA594801F067FF55A1D1E9000108F00EFC544801F05FFF4FF0100001F001
S32D0000E0F83DFA6CE041F26C50C1F6FF704EF6C851C0F201010EF06EFD41F2E040C1F6FF704FF0050109F092FDA2
S32D0000E12059E041F2AC13C1F6FF7303F1280393E8030002F0B1FB4FF0110001F01BFA4AE001F04AFE0346002B15
S32D0000E14844D03D4801F030FF3F4802F09DF93B4801F02AFF00BF4FF0010001F07DFF034683F00103DBB2002B60
S32D0000E170F5D1334801F01CFF4FF0120001F0FAF928E041F26C50C1F6FF704EF6F051C0F201010EF02BFD41F250
S32D0000E1987013C1F6FF734FF000021A7017E041F26C50C1F6FF704EF60461C0F201010EF019FD0CE000BF0AE0D0
S32D0000E1C000BF08E000BF06E000BF04E000BF02E000BF00E000BF41F27013C1F6FF731B78002B7FF428A941F22F
S32D0000E1E8E440C1F6FF704FF000010AF08BFB41F2E440C1F6FF704EF62461C0F201010AF003FF41F26C50C1F663
S32D0000E210FF704EF63461C0F201010EF0E7FC41F26C50C1F6FF700EF0C5FC4FF00003184607F11007BD46B0BD10
S32D0000E2389A9999999999B93F0000000000000CC200000C420000803F000087430000C84280B592B000AF41F221
S32D0000E2606C50C1F6FF700EF0D3FB41F26C50C1F6FF704EF64461C0F201010EF0B7FC41F2E440C1F6FF704FF0C3
S32D0000E28800010AF02BFB41F2E440C1F6FF704FF001010AF081FB41F26C50C1F6FF704EF65861C0F201010EF04F
S32D0000E2B09DFC41F23C10C1F6FF7040F63D1109F08FFD41F23C10C1F6FF704FF4FA7109F069FD41F23C10C1F611
S32D0000E2D8FF705B4909F0A0FD41F26C50C1F6FF704EF66C61C0F201010EF07CFC554801F0AFF941F22C10C1F6C3
S32D0000E300FF70534903F05CFA4DA1D1E9000108F0FBFA41F22C10C1F6FF704E4903F050FA41F26C50C1F6FF7087
S32D0000E3284EF69061C0F201010EF05CFC41F28813C1F6FF73454A1A6041F28813C1F6FF731A6841F28413C1F68E
S32D0000E350FF731A6041F29413C1F6FF734FF000021A6041F28013C1F6FF734FF000021A7041F29813C1F6FF7334
S32D0000E3784EF6B862C0F2010292E80300186003F10403197041F26C50C1F6FF704EF6C061C0F201010EF026FC9D
S32D0000E3A041F24C50C1F6FF700DF038FD41F26C50C1F6FF704EF6D461C0F201010EF016FC07E041F2E040C1F6E5
S32D0000E3C8FF704FF0050109F039FC01F051FA034683F00103DBB2002BEFD141F26C50C1F6FF704EF6EC61C0F279
S32D0000E3F001010EF0FBFB41F27013C1F6FF734FF001021A7007F10403184600F025F807F1040241F2AC13C1F64D
S32D0000E418FF739A420BD041F2AC13C1F6FF7319464FF04103084611461A460FF035FB07F14807BD4680BD00BF36
S32D0000E4409A9999999999C93F000034420000C842000020C200000000B0B5ADF5EE5D8CB006AF07F11803A3F1C3
S32D0000E468140318604FF0010307F5EE5000F117000370DFF8D43707F5EE5101F10C010B60DFF8C43707F5EE526A
S32D0000E49002F10802136007F11803A3F11403186802F0BAFD41F2E440C1F6FF704FF000010AF02CFA07F5CC530F
S32D0000E4B803F11803A3F104031D464FF0000406E028460CF0C3F905F1EC0504F1FF34B4F1FF3F0CBF00230123D6
S32D0000E4E0DBB2002BF0D14EF67473C0F2010307F5E85101F124011A464FF01403084611461A460FF0CDFA07F5EB
S32D0000E508CC5303F11803A3F104034FF0C90200924FF0010201924FF00102029207F5E85202F1240203924FF4AE
S32D0000E530004204924FF45742C0F2FF02059218464FF001014FF001024FF001030CF0F0FB07F5CC5303F118038A
S32D0000E558A3F1040318460CF015FA07F5945303F11803A3F11C031D464FF0050406E028460CF06CF905F1EC05A5
S32D0000E58004F1FF34B4F1FF3F0CBF00230123DBB2002BF0D107F5E25303F118031A464FF0A00310464FF00001BF
S32D0000E5A81A460FF082FA07F5E25303F118034FF041021A6003F104034FF000021A6003F104034FF000021A60C2
S32D0000E5D003F104034FF000021A6003F104034FF000021A6003F1040307F5E25303F118034FF042025A6103F144
S32D0000E5F818034FF000021A6003F104034FF000021A6003F104034FF000021A6003F104034FF000021A6003F109
S32D0000E620040307F5E25303F118034FF043029A6203F12C034FF000021A6003F104034FF000021A6003F1040376
S32D0000E6484FF000021A6003F104034FF000021A6003F1040307F5E25303F118034FF04402DA6303F140034FF0C0
S32D0000E67000021A6003F104034FF000021A6003F104034FF000021A6003F104034FF000021A6003F1040307F5E7
S32D0000E698E25303F118034FF045021A6503F154034FF000021A6003F104034FF000021A6003F104034FF0000213
S32D0000E6C01A6003F104034FF000021A6003F1040307F5E25303F118034FF046025A6603F168034FF000021A6060
S32D0000E6E803F104034FF000021A6003F104034FF000021A6003F104034FF000021A6003F1040307F5E25303F1C2
S32D0000E71018034FF047029A6703F17C034FF000021A6003F104034FF000021A6003F104034FF000021A6003F1A9
S32D0000E73804034FF000021A6003F1040307F5E25303F118034FF04802C3F88C2003F190034FF000021A6003F190
S32D0000E76004034FF000021A6003F104034FF000021A6003F104034FF000021A6003F1040307F5945303F1180370
S32D0000E788A3F11C034FF0330200924FF0010201924FF00102029207F5E25202F1180203926FF07F4204924FF434
S32D0000E7B05742C0F2FF02059218464FF004014FF002024FF028030CF0B3FA07F5D4531D464FF0000406E0284643
S32D0000E7D80CF03CF805F1EC0504F1FF34B4F1FF3F0CBF00230123DBB2002BF0D107F5E85303F110034FF00002E7
S32D0000E8001A6003F104034FF000021A6003F104034FF000021A6003F104034FF000021A6003F104034FF0000212
S32D0000E8281A6003F104034EF68872C0F2010207F5E85303F1100392E80300186003F10403198007F5E85303F168
S32D0000E85016034FF000021A8003F102034FF000021A8003F102034FF000021A8003F102034FF000021A8003F136
S32D0000E87802034FF000021A8003F102034FF000021A8003F102034FF000021A8003F1020307F5D4524FF0140379
S32D0000E8A000934FF0010301934FF00103029307F5E85303F1100303934FF4004304934FF45743C0F2FF030593EE
S32D0000E8C810464FF001014FF001024FF0BE030CF02BFA41F2E440C1F6FF704FF45741C0F2FF010AF06DF841F28C
S32D0000E8F0E440C1F6FF704EF60071C0F201014FF000024FF0DE030AF073F807F5EE5303F10803186807F5EE5289
S32D0000E91802F10C021168FEF76FFB03461C4641F23050C1F6FF700CF053FB034620461946FEF75AFA034607F58E
S32D0000E940EE5000F10800036007F5EE5101F10C010868C049FEF74CFA034607F5EE5202F10C02136007F5EE53EB
S32D0000E96803F10803186807F5EE5202F10C021168FEF7F6FB034607F5EE5000F10800036041F2E440C1F6FF700A
S32D0000E99007F5EE5202F1080211684FF048024FF0DE030AF06FF84FF001031C4607F5EE5303F108031868A8494B
S32D0000E9B8FEF7C0FC0346002B02D14FF000031C46E3B2002B07D041F2E040C1F6FF704FF00A0109F033F907F51A
S32D0000E9E0E85202F13C0207F5E85303F1380341F2E440C1F6FF7011461A460AF015F90346002B00F0A2854FF032
S32D0000EA08000307F5EE5000F110000360E2E007F5945303F11803A3F11C0307F5EE5101F110010A684FF0EC01FC
S32D0000EA3001FB02F2991807F5E85303F13C031A6807F5E85000F138000368084611461A464FF000030CF050F8D8
S32D0000EA580346002B0CBF00230123DBB2002B00F0AD804FF0000307F5E85101F10C010B804FF0200307F5E8529C
S32D0000EA8002F10D02137007F5E25101F1180107F5EE5303F110031A6813464FEA83039B184FEA8303CB181B78E3
S32D0000EAA807F5E85000F10C00037007F5EE5101F110010B68002B06D14FF0410307F5E85202F10C02137007F5B0
S32D0000EAD0EE5000F110000368012B06D14FF0420307F5E85101F10C010B7041F2E440C1F6FF704FF0000109F082
S32D0000EAF809FF41F2E440C1F6FF704EF61071C0F201010AF081FA07F5E85303F10C0341F2E440C1F6FF70194667
S32D0000EB204FF000024FF007030AF0B2F941F26C50C1F6FF704EF62471C0F201010EF056F807F5E85303F10C0370
S32D0000EB4841F26C50C1F6FF7019460EF04BF841F26C50C1F6FF704EF63871C0F201010EF041F807F5E85202F1D4
S32D0000EB700C02137807F5EA521046194602F078F907F5EA5207F11803A3F114031B6893420CD007F11803A3F1BD
S32D0000EB9814031B6819464FF04103084611461A460EF07AFF4FF0000307F5EE5000F1170003704FF0000000F031
S32D0000EBC0D9FC18E007F5EE5101F110010B6803F1010307F5EE5202F11002136007F5EE5000F110000368072B25
S32D0000EBE8CCBF00230123DBB2002B7FF410AF07F5E85101F13C010A6807F5E85000F13800036807F5D451084636
S32D0000EC1011461A464FF000030BF06EFF0346002B0CBF00230123DBB2002B00F08E8441F2E440C1F6FF704FF079
S32D0000EC38000109F067FE07F5DA5303F12C031D464FF000040DE000BF000000000000803F0000204128460BF028
S32D0000EC60F9FD05F1EC0504F1FF34B4F1FF3F0CBF00230123DBB2002BF0D107F5E65303F138034FF000021A60F4
S32D0000EC8803F104034FF000021A6003F104034FF000021A6003F104034FF000021A6003F104034FF000021A6086
S32D0000ECB003F104034EF69C72C0F2010207F5E65303F1380307CA03C31A8003F102034FEA12421A7007F5E85358
S32D0000ECD803F103034FF000021A7003F101034FF000021A7003F101034FF000021A7003F101034FF000021A7000
S32D0000ED0003F101034FF000021A7003F101034FF000021A7003F101034FF000021A7003F101034FF000021A70D9
S32D0000ED2803F101034FF000021A7003F1010307F5DA5202F12C024FF0C90300934FF0010301934FF0010302936C
S32D0000ED5007F5E65303F1380303934FF4004304934FF45743C0F2FF03059310464FF001014FF001024FF0010339
S32D0000ED780BF0DAFF07F5DA5303F12C0318460BF001FE07F5C05303F10803A3F104031A464FF4C87310464FF0D9
S32D0000EDA000011A460EF085FE07F5C05303F10803A3F1040345F25742C0F253021A6003F104034FF000021A60B3
S32D0000EDC803F104034FF000021A6003F104034FF000021A6003F104034FF000021A6003F1040307F5C05303F1FD
S32D0000EDF00803A3F1040344F65352C0F253025A6103F118034FF000021A6003F104034FF000021A6003F1040333
S32D0000EE184FF000021A6003F104034FF000021A6003F1040307F5C05303F10803A3F1040345F24D42C0F25302EA
S32D0000EE409A6203F12C034FF000021A6003F104034FF000021A6003F104034FF000021A6003F104034FF0000222
S32D0000EE681A6003F1040307F5C05303F10803A3F1040345F24972C0F25302DA6303F140034FF000021A6003F142
S32D0000EE9004034FF000021A6003F104034FF000021A6003F104034FF000021A6003F1040307F5C05303F108031D
S32D0000EEB8A3F1040344F65352C0F24C021A6503F154034FF000021A6003F104034FF000021A6003F104034FF03D
S32D0000EEE000021A6003F104034FF000021A6003F1040307F5C05303F10803A3F1040345F24D42C0F24C025A66A8
S32D0000EF0803F168034FF000021A6003F104034FF000021A6003F104034FF000021A6003F104034FF000021A609F
S32D0000EF3003F1040307F5C05303F10803A3F1040345F24972C0F24C029A6703F17C034FF000021A6003F10403F3
S32D0000EF584FF000021A6003F104034FF000021A6003F104034FF000021A6003F1040307F5C05303F10803A3F1C7
S32D0000EF80040344F65352C0F24202C3F88C2003F190034FF000021A6003F104034FF000021A6003F104034FF0EE
S32D0000EFA800021A6003F104034FF000021A6003F1040307F5C05303F10803A3F1040345F24D42C0F24202C3F8EE
S32D0000EFD0A02003F1A4034FF000021A6003F104034FF000021A6003F104034FF000021A6003F104034FF0000255
S32D0000EFF81A6003F1040307F5C05303F10803A3F1040345F24972C0F24202C3F8B42003F1B8034FF000021A60EC
S32D0000F02003F104034FF000021A6003F104034FF000021A6003F104034FF000021A6003F1040307F5C05303F1A2
S32D0000F0480803A3F1040344F65352C0F24302C3F8C82003F1CC034FF000021A6003F104034FF000021A6003F153
S32D0000F07004034FF000021A6003F104034FF000021A6003F1040307F5C05303F10803A3F1040345F24D42C0F2DE
S32D0000F0984302C3F8DC2003F1E0034FF000021A6003F104034FF000021A6003F104034FF000021A6003F1040355
S32D0000F0C04FF000021A6003F1040307F5C05303F10803A3F1040345F24972C0F24302C3F8F02003F1F4034FF0E5
S32D0000F0E800021A6003F104034FF000021A6003F104034FF000021A6003F104034FF000021A6003F1040307F565
S32D0000F110C05303F10803A3F1040344F65352C0F24402C3F8042103F584734FF000021A6003F104034FF0000287
S32D0000F1381A6003F104034FF000021A6003F104034FF000021A6003F1040307F5C05303F10803A3F1040345F2E8
S32D0000F1604D42C0F24402C3F8182103F58E734FF000021A6003F104034FF000021A6003F104034FF000021A60E6
S32D0000F18803F104034FF000021A6003F1040307F5C05303F10803A3F1040345F24972C0F24402C3F82C2103F515
S32D0000F1B098734FF000021A6003F104034FF000021A6003F104034FF000021A6003F104034FF000021A6003F155
S32D0000F1D8040307F5C05303F10803A3F1040344F65352C0F25202C3F8402103F5A2734FF000021A6003F1040395
S32D0000F2004FF000021A6003F104034FF000021A6003F104034FF000021A6003F1040307F5C05303F10803A3F11C
S32D0000F228040345F24D42C0F25202C3F8542103F5AC734FF000021A6003F104034FF000021A6003F104034FF0F3
S32D0000F25000021A6003F104034FF000021A6003F1040307F5C05303F10803A3F1040345F25342C0F25002C3F82F
S32D0000F278682103F5B6734FF000021A6003F104034FF000021A6003F104034FF000021A6003F104034FF000025B
S32D0000F2A01A6003F1040307F5C05303F10803A3F1040345F25202C0F25302C3F87C2103F5C0734FF000021A6052
S32D0000F2C803F104034FF000021A6003F104034FF000021A6003F104034FF000021A6003F1040307F11803A3F154
S32D0000F2F00C031D464FF0130406E028460BF0AAFA05F1EC0504F1FF34B4F1FF3F0CBF00230123DBB2002BF0D1B8
S32D0000F31807F11803A3F10C034FF0010200924FF0010201924FF00102029207F5C05202F10802A2F10402039259
S32D0000F3406FF07F4204924FF45742C0F2FF02059218464FF005014FF004024FF028030BF0E7FC41F26C50C1F6ED
S32D0000F368FF704EF63C71C0F201010DF03BFC07F5E85202F13C0207F5E85303F1380341F2E440C1F6FF7011468E
S32D0000F3901A4609F049FC0346002B00F0C4804FF0000307F5EE5101F110010B60AEE007F11803A3F10C0307F5DE
S32D0000F3B8EE5000F1100002684FF0EC0101FB02F2991807F5E85303F13C031A6807F5E85000F1380003680846AF
S32D0000F3E011461A464FF000030BF086FB0346002B0CBF00230123DBB2002B7BD007F5EE5101F110010B68132B12
S32D0000F40839D007F5EE5202F110021368DBB2184600F0ACF84FF0000307F5EE5000F11700037041F2E440C1F68D
S32D0000F430FF704FF0000109F069FA07F5EC5303F1040318464FF0410101F012FD07F5EC5202F1040207F1180348
S32D0000F458A3F114031B68934247D007F11803A3F114031B6819464FF04103084611461A460EF012FB53E041F2D3
S32D0000F4806C50C1F6FF704EF65071C0F201010DF0ADFB41F2E440C1F6FF704FF0000109F035FA01E000F0C0FAAE
S32D0000F4A807F5E85202F13C0207F5E85303F1380341F2E440C1F6FF7011461A4609F0B0FB034683F00103DBB244
S32D0000F4D0002BE7D14FF0000307F5EE5101F117010B7041F27013C1F6FF734FF000021A7019E018E007F5EE5252
S32D0000F4F802F11002136803F1010307F5EE5000F11000036007F5EE5101F110010B68132BCCBF00230123DBB282
S32D0000F520002B7FF444AF07F5EE5202F117021378002B7FF420AF41F26C50C1F6FF704EF66071C0F201010DF011
S32D0000F54851FB07F5EE5000F117000378002B7FF4D8A900BF07F11803A3F11403186807F5EC7707F5E057BD46DB
S32D0000F570B0BD00BF80B582B000AF0346FB7141F27113C1F6FF73FA791A7041F29413C1F6FF731B6803F101021C
S32D0000F59841F29413C1F6FF731A60FA7913464FEA83039B184FEA83034FF2B872C0F201029B1841F26C50C1F652
S32D0000F5C0FF704EF6B071C0F201011A460DF00EFBFA7913464FEA83039B184FEA83034FF2B872C0F201029B185F
S32D0000F5E841F29810C1F6FF7019460EF064FA07F10807BD4680BD00BF80B582B000AF0346FB71FB79002B0DD0EC
S32D0000F61041F23C10C1F6FF700D4908F001FC41F29013C1F6FF730A4A1A600CE041F23C10C1F6FF70074908F036
S32D0000F638F3FB41F29013C1F6FF73044A1A6007F10807BD4680BD00BF000002430000344290B585B000AF78602D
S32D0000F6607868FDF739F802460B4641F26C50C1F6FF704EF6C471C0F201010DF0B7FA4FF001031C4678684849D8
S32D0000F688FDF776FE0346002B02D14FF000031C46E3B2002B2CD041F25810C1F6FF7007F0ADFA0346002B06D09C
S32D0000F6B041F22C10C1F6FF703C4902F081F807F04FF90346FB6000BF41F25810C1F6FF7007F098FA0346002B47
S32D0000F6D809D007F041F90246FB68D31A092B02D84FF0010301E04FF00003002BE8D142E04FF001031C46786863
S32D0000F7002B49FDF71BFE0346002B02D14FF000031C46E3B2002B32D041F25C10C1F6FF7007F070FA0346002B13
S32D0000F72806D041F22C10C1F6FF701E4902F044F841F22C10C1F6FF701C4902F03DF807F00BF90346BB6000BF74
S32D0000F75041F25C10C1F6FF7007F054FA0346002B09D007F0FDF80246BB68D31A092B02D84FF0010301E04FF07F
S32D0000F7780003002BE8D141F26C50C1F6FF704EF6E871C0F201010DF02DFA41F22C10C1F6FF70074902F010F813
S32D0000F7A007F11407BD4690BD0000BE42000020420000A040000020C2000000000000000090B583B000AF41F25A
S32D0000F7C86010C1F6FF7007F0AFFE03464FF00102144618462449FDF7CBFD0346002B02D14FF000031C46E3B2ED
S32D0000F7F0002B03D04FF000037B6025E041F26010C1F6FF7007F094FE03461846FCF764FF02460B464FF00101A2
S32D0000F8180C461046194612A3D3E90023FDF73CFA0346002B02D14FF000031C46E3B2002B03D04FF0FF037B6063
S32D0000F84002E04FF47F037B6041F2E440C1F6FF70796809F05BF87B68184607F10C07BD4690BD00BFAFF30080F1
S32D0000F868333333333333F33F00000040AFF3008080B582B000AF4FF00103FB7141F25010C1F6FF7007F0BAF984
S32D0000F890034683F00103DBB2002B11D041F2E440C1F6FF704EF6FC71C0F201014FF000024FF0000309F0ECFAAD
S32D0000F8B84FF00003FB710DE041F2E440C1F6FF704FF21401C0F201014FF000024FF0000309F0DAFA41F2541019
S32D0000F8E0C1F6FF7007F08EF9034683F00103DBB2002B11D041F2E440C1F6FF704FF22C01C0F201014FF001021C
S32D0000F9084FF0000309F0C0FA4FF00003FB710DE041F2E440C1F6FF704FF21401C0F201014FF001024FF0000336
S32D0000F93009F0AEFA41F24810C1F6FF7007F062F9034683F00103DBB2002B11D041F2E440C1F6FF704EF6FC717E
S32D0000F958C0F201014FF002024FF0000309F094FA4FF00003FB710DE041F2E440C1F6FF704FF21401C0F201019F
S32D0000F9804FF002024FF0000309F082FA41F24C10C1F6FF7007F036F9034683F00103DBB2002B11D041F2E440D4
S32D0000F9A8C1F6FF704EF6FC71C0F201014FF003024FF0000309F068FA4FF00003FB710DE041F2E440C1F6FF70AD
S32D0000F9D04FF21401C0F201014FF003024FF0000309F056FAFFF7ECFE0346002B0CBF00230123DBB2002B10D032
S32D0000F9F841F2E440C1F6FF704FF24401C0F201014FF004024FF0000309F03EFA4FF00003FB71FB79184607F1FA
S32D0000FA200807BD4680BD00BF80B500AF41F25010C1F6FF7007F0E6F8034683F00103DBB2002B0AD041F2E4408F
S32D0000FA48C1F6FF704EF69061C0F2900108F0B8FF09E041F2E440C1F6FF704AF6A911C0F2A90108F0ADFF41F2B0
S32D0000FA70E440C1F6FF704FF00F014FF0DC024FF00A030AF0E5F841F25410C1F6FF7007F0B9F8034683F001036A
S32D0000FA98DBB2002B0AD041F2E440C1F6FF704EF69061C0F2900108F08BFF09E041F2E440C1F6FF704AF6A911D7
S32D0000FAC0C0F2A90108F080FF41F2E440C1F6FF7040F231114FF0DC024FF00A030AF0B8F841F24810C1F6FF7090
S32D0000FAE807F08CF8034683F00103DBB2002B0AD041F2E440C1F6FF704EF69061C0F2900108F05EFF09E041F2BD
S32D0000FB10E440C1F6FF704AF6A911C0F2A90108F053FF41F2E440C1F6FF704FF00F014FF00A024FF00A030AF080
S32D0000FB388BF841F24C10C1F6FF7007F05FF8034683F00103DBB2002B0AD041F2E440C1F6FF704EF69061C0F263
S32D0000FB60900108F031FF09E041F2E440C1F6FF704AF6A911C0F2A90108F026FF41F2E440C1F6FF7040F23111F4
S32D0000FB884FF00A024FF00A030AF05EF841F2E440C1F6FF706FF07F4108F012FF41F2E440C1F6FF704FF25C01A8
S32D0000FBB0C0F201014FF003024FF0000309F068F941F2E440C1F6FF704FF27801C0F201014FF004024FF0000321
S32D0000FBD809F05AF941F24C50C1F6FF700CF0EAFD03461846FDF7CEFB034641F2E440C1F6FF7019464FF003020E
S32D0000FC004FF0070309F064F941F24C50C1F6FF700CF0E4FD03461846FDF7B8FB034641F2E440C1F6FF701946F2
S32D0000FC284FF003024FF00D0309F04EF941F24C50C1F6FF700CF0DEFD03461846FDF7A2FB034641F2E440C1F680
S32D0000FC50FF7019464FF003024FF0150309F038F941F2E440C1F6FF704FF29401C0F201014FF005024FF0000364
S32D0000FC7809F00AF941F28413C1F6FF731B6841F2E440C1F6FF7019464FF005024FF0050309F03AF941F23410E0
S32D0000FCA0C1F6FF7007F00AFC034641F2E440C1F6FF7019464FF005024FF0120309F008F941F2E440C1F6FF70DD
S32D0000FCC84FF2A801C0F201014FF006024FF0000309F0DAF841F28813C1F6FF731B6841F2E440C1F6FF701946C6
S32D0000FCF04FF006024FF0050309F00AF941F23810C1F6FF7007F0DAFB034641F2E440C1F6FF7019464FF0060283
S32D0000FD184FF0120309F0D8F841F2E440C1F6FF704FF2BC01C0F201014FF007024FF0000309F0AAF841F28C137A
S32D0000FD40C1F6FF731B6841F2E440C1F6FF7019464FF007024FF0060309F0DAF841F2E440C1F6FF704FF2D00123
S32D0000FD68C0F201014FF008024FF0000309F08CF841F29013C1F6FF731B6841F2E440C1F6FF7019464FF008020A
S32D0000FD904FF0060309F0BCF841F2E440C1F6FF704FF2E401C0F201014FF009024FF0000309F06EF841F2E440B7
S32D0000FDB8C1F6FF7041F29811C1F6FF714FF009024FF0050309F060F880BD00BF00000000F8B500AF41F2341043
S32D0000FDE0C1F6FF7007F06AFB044600F0E9FF0346E41841F23810C1F6FF7007F05FFB0346E41800F085FF034618
S32D0000FE08E2184DF24F13C1F6C21383FB02134FEAA3114FEAE273CB1A1846FCF747FC02460B461046194616A317
S32D0000FE30D3E90023FCF7A4FC02460B4614461D4641F27413C1F6FF731B681846FCF744FC02460B461046194697
S32D0000FE580DA3D3E90023FCF78FFC02460B464FF001010E4620462946FCF716FF0346002B02D14FF000031E4677
S32D0000FE80F3B21846F8BD00BF5E3855297A6A1F40666666666666EE3F80B586B000AF7860396041F28413C1F6E9
S32D0000FEA8FF731B6878681946FCF79CFF034618463B49FDF755F903463B6141F28813C1F6FF731B68386819469F
S32D0000FED0FCF78CFF034618463349FDF745F90346FB604FF000037B6142E041F28413C1F6FF731B6818463969D7
S32D0000FEF8FCF77AFF03461A4641F28413C1F6FF731A6041F28813C1F6FF731B681846F968FCF76AFF03461A461C
S32D0000FF2041F28813C1F6FF731A6041F28413C1F6FF731B6883F0004341F22410C1F6FF70194601F03DFC41F2CD
S32D0000FF488813C1F6FF731B6841F21C10C1F6FF70194601F031FC10A1D1E9000106F0D0FC7B6903F101037B615C
S32D0000FF707B69092BCCBF00230123DBB2002BB4D141F28413C1F6FF737A681A6041F28813C1F6FF733A681A60DA
S32D0000FF9807F11807BD4680BD7B14AE47E17A843F00002041AFF3008080B582B000AF786078687968FFF76CFFAF
S32D0000FFC041F28013C1F6FF734FF001021A7007F10807BD4680BD00BFB0B584B002AF7860396041F23410C1F669
S32D0000FFE8FF7007F07BFA41F23810C1F6FF7007F075FA38681749FCF7FFFF03461A4641F27413C1F6FF731A6012
S32D000100107868FFF7CDFF41F28013C1F6FF734FF001021A707868FCF757FB04460D463868FCF752FB02460B4629
S32D00010038CDE9002341F26C50C1F6FF704FF2F801C0F2010122462B460CF0CCFD07F10807BD46B0BD0000C03FA9
S32D0001006080B584B000AF0346FB714FF00003FB73FB79002B02D0012B7ED0FAE041F24810C1F6FF7006F0BEFDCD
S32D00010088034683F00103DBB2002B0ED041F24C10C1F6FF7006F0B2FD034683F00103DBB2002B02D04FF001030C
S32D000100B001E04FF00003FB7341F24810C1F6FF7006F0A0FD034683F00103DBB2002B0ED041F28813C1F6FF73FF
S32D000100D81B6818466F49FDF723F90346002B02D14FF0010301E04FF00003002B0FD041F26C50C1F6FF704FF243
S32D000101002011C0F201010CF071FD41F21C10C1F6FF7001F005FB41F24C10C1F6FF7006F071FD034683F0010332
S32D00010128DBB2002B0ED041F28413C1F6FF731B6818465849FDF7F4F80346002B02D14FF0010301E04FF0000310
S32D00010150002B00F0998041F26C50C1F6FF704FF26C11C0F201010CF041FD41F22410C1F6FF7001F0D5FA87E0D7
S32D0001017841F25010C1F6FF7006F040FD034683F00103DBB2002B0ED041F25410C1F6FF7006F034FD034683F076
S32D000101A00103DBB2002B02D04FF0010301E04FF00003FB7341F25010C1F6FF7006F022FD034683F00103DBB2B3
S32D000101C8002B0ED041F28813C1F6FF731B6818463049FDF7A5F80346002B02D14FF0010301E04FF00003002B45
S32D000101F00FD041F26C50C1F6FF704FF2B811C0F201010CF0F3FC41F21C10C1F6FF7001F087FA41F25410C1F6FE
S32D00010218FF7006F0F3FC034683F00103DBB2002B0ED041F28413C1F6FF731B6818461949FDF776F80346002B01
S32D0001024002D14FF0010301E04FF00003002B1DD041F26C50C1F6FF704FF20421C0F201010CF0C4FC41F22410EC
S32D00010268C1F6FF7001F058FA0CE041F26C50C1F6FF704FF25421C0F201010CF0B3FC02E000BF00E000BFFB7B32
S32D00010290184607F11007BD4680BD00BF0000000090B587B002AF03463960FB71FB79002B02D04FF0010301E0C3
S32D000102B84FF0FF33FB60FB79002B02D04FF0FF3301E04FF00103BB60F868FCF741FE034618463968FCF790FECF
S32D000102E003461C46B868FCF737FE034618463968FCF786FE034620461946FFF7CDFD41F28013C1F6FF734FF041
S32D0001030800021A70FB79002B04D04FF29424C0F2010403E04FF29C24C0F201043868FCF7D7F902460B46CDE9CA
S32D00010330002341F26C50C1F6FF704FF2A421C0F2010122460CF052FC07F11407BD4690BD2DE9F04387B000AF68
S32D000103580346B9607A60FB7341F23810C1F6FF7007F0BCF841F23410C1F6FF7007F0B6F8434B7B61B868FCF7C1
S32D00010380ABF902460B4641F26C50C1F6FF704FF2BC21C0F201010CF029FCFB7B18467968FFF77EFF00BF41F2EF
S32D000103A83810C1F6FF7007F085F8044641F23410C1F6FF7007F07EF80346E41800F0A4FC0346E3184FEAD37259
S32D000103D0D3184FEA63031846FCF76CF902460B461046194622A3D3E90023FCF7C9F902460B4614461D46B868A1
S32D000103F8FCF76EF902460B46104619461CA3D3E90023FCF7B9F902460B46104619461AA3D3E90023FCF7DAFA3A
S32D0001042002460B46904699467869FCF755F902460B4640464946FCF7A3F902460B464FF001010E4620462946FD
S32D00010448FCF70CFC0346002B02D14FF000031E46F3B2002BA3D10B48FFF7A6FD07F11C07BD46BDE8F08300BF78
S32D000104702005C771724A993F182D4454FB21094000000000008066400000904000000000B0B588B002AF78600E
S32D0001049841F24C50C1F6FF700CF0ACF903467B6178697968FCF79EFC0346FB6078687969FCF798FC0346BB60DA
S32D000104C01FE041F2E040C1F6FF704FF0050107F0B9FB41F24C50C1F6FF700CF08FF903467B6141F26C50C1F661
S32D000104E8FF704FF2D821C0F201010CF07BFB4FF00000B949B94AFFF727FF4FF001031C467869B749FCF716FF28
S32D000105100346002B02D14FF000031C46E3B2002BCFD17869FCF7D8F804460D467868FCF7D3F802460B46CDE943
S32D00010538002341F26C50C1F6FF704FF20431C0F2010122462B460CF04DFB4FF001031C46F868A349FCF70CFF26
S32D000105600346002B02D14FF000031C46E3B2002B01D0FB6812E0F868FCF7AEF802460B461046194694A3D3E961
S32D000105880023FBF747FF02460B4610461946FCF7D5FB0346FB604FF001031C46B8689049FCF7E6FE0346002B4B
S32D000105B002D14FF000031C46E3B2002B01D0BB6812E0B868FCF788F802460B461046194681A3D3E90023FBF729
S32D000105D821FF02460B4610461946FCF7AFFB0346BB604FF001031C46B868F968FCF7A2FE0346002B02D14FF046
S32D0001060000031C46E3B2002B03D04FF00103FB7402E04FF00003FB74FB7C002B01D0BB6800E0FB68FA7C1046E9
S32D000106281946704AFFF790FE41F26C50C1F6FF704FF22C31C0F201010CF0D4FAE5E041F24C50C1F6FF700CF01F
S32D00010650D5F803464FF00102144618466249FCF781FE0346002B02D14FF000031C46E3B2002B12D041F26C50D2
S32D00010678C1F6FF704FF24831C0F201010CF0B2FA41F24C50C1F6FF700CF0B4F803467B6109E041F26C50C1F6C6
S32D000106A0FF704FF25C31C0F201010CF09FFAFFF7BBF978697968FCF799FB03461846FCF79FFE03461846FCF7E1
S32D000106C807F804460D467869FCF702F802460B46CDE9002341F26C50C1F6FF704FF27031C0F2010122462B46A3
S32D000106F00CF07CFA78697968FCF778FB0346FB6078687969FCF772FB0346BB604FF001031C46F8683449FCF7A2
S32D000107182FFE0346002B02D14FF000031C46E3B2002B01D0FB6812E0F868FBF7D1FF02460B461046194626A37B
S32D00010740D3E90023FBF76AFE02460B4610461946FCF7F8FA0346FB604FF001031C46B8682149FCF709FE034608
S32D00010768002B02D14FF000031C46E3B2002B01D0BB6812E0B868FBF7ABFF02460B461046194613A3D3E900237B
S32D00010790FBF744FE02460B4610461946FCF7D2FA0346BB604FF001031C46B868F968FCF7C5FD0346002B02D173
S32D000107B84FF000031C46E3B2002B17D04FF00103FB7478690849FCF70FFB03467B6116E0000000000080764095
S32D000107E00000004000007041000000000000C8410000803F4FF00003FB7478692249FCF7F5FA03467B61FB7CB6
S32D0001080818462049204AFFF79FFD41F24C50C1F6FF700BF0EFFF034618467968FCF7E2FA03461846FCF7E8FD4A
S32D0001083003464FF00102144618461649FCF79CFD0346002B02D14FF000031C46E3B2002B7FF4F9AE41F24C50D7
S32D00010858C1F6FF700BF0CEFF03461846FBF738FF02460B4641F26C50C1F6FF704FF28831C0F201010CF0B6F9AC
S32D0001088007F11807BD46B0BD0000803F00000040000070410000C03F2DE9B04F90B008AF07F1080383E8030096
S32D000108A841F24C50C1F6FF700BF084FF0346FB6141F24C50C1F6FF700BF08CFF0346BB610FE041F2E040C1F630
S32D000108D0FF704FF0050107F0B5F941F24C50C1F6FF700BF06BFF0346FB614FF001031C46F869A949FCF722FD97
S32D000108F80346002B02D14FF000031C46E3B2002BDFD141F24C50C1F6FF700BF053FF0346FB6141F24C50C1F609
S32D00010920FF700BF05BFF0346BB61BB681846F969FCF75CFA034618464FF00201FCF74CFD0446FB681846B96901
S32D00010948FCF750FA034618464FF00201FCF740FD034620461946FCF747FA034618460CF00BFA024641F274133E
S32D00010970C1F6FF731A60FB681846B969FCF736FA03461C46BB681846F969FCF72FFA0346204619460CF0F0F912
S32D0001099803461846FBF79CFE02460B461046194677A3D3E90023FBF7E7FE02460B4610461946FCF7C3F9034699
S32D000109C07B61F869FBF788FE04460D46B869FBF783FEC7E90001BB681846FBF77DFE82468B46FB681846FBF737
S32D000109E877FE804689467869FBF772FE02460B46D7E90001CDE90001CDE902ABCDE90489CDE9062341F26C500E
S32D00010A10C1F6FF704FF2AC31C0F2010122462B460CF0E4F84FF001031C4678695A49FCF7A3FC0346002B02D10C
S32D00010A384FF000031C46E3B2002B01D07B6912E07869FBF745FE02460B46104619464EA3D3E90023FBF7DEFC84
S32D00010A6002460B4610461946FCF76CF903467B6178694949FCF7BCF903467B614FF001031C4678694549FCF755
S32D00010A8877FC0346002B02D14FF000031C46E3B2002B05D078693F49FCF7A4F9034600E07B697B617869FFF793
S32D00010AB0EFFC41F24C50C1F6FF700BF07FFE0346FB6141F24C50C1F6FF700BF087FE0346BB61BB681846F9695D
S32D00010AD8FCF788F9034618464FF00201FCF778FC0446FB681846B969FCF77CF9034618464FF00201FCF76CFC52
S32D00010B00034620461946FCF773F9034618460CF037F9024641F27413C1F6FF731A6041F27413C1F6FF731B687B
S32D00010B281846FBF7D5FD02460B4641F26C50C1F6FF704FF2E431C0F201010CF053F841F23410C1F6FF7006F0EA
S32D00010B50C9FC41F23810C1F6FF7006F0C3FC41F27813C1F6FF7307F1080292E8030083E803000B48FFF71CFA28
S32D00010B7807F12007BD46BDE8B08F00BFAFF30080F8C1631ADCA54C400000000000807640000000000000B443F7
S32D00010BA000000C42AFF3008080B400AFBD4680BC704700BF90B589B000AF78604E4BBB6141F23410C1F6FF70C7
S32D00010BC806F08CFC41F23810C1F6FF7006F086FC41F27413C1F6FF737A681A6005F0BCFE03467B6166E041F2DB
S32D00010BF06410C1F6FF7006F09BFC03463B6141F26810C1F6FF7006F093FC0346FB6041F26C10C1F6FF7006F005
S32D00010C188BFC0346BB604FF001031C46F8683449FCF7A6FB0346002B02D14FF000031C46E3B2002B02D04FF0F0
S32D00010C400003FB774FF001031C4638692A49FCF793FB0346002B02D14FF000031C46E3B2002B02D04FF0020315
S32D00010C68FB774FF001031C46B8682149FCF780FB0346002B02D14FF000031C46E3B2002B02D04FF00103FB771C
S32D00010C90FB7F012B0CD0022B05D0002B0DD11748FFF786F90AE016481649FFF7F5F805E014481349FFF7F0F8CF
S32D00010CB800E000BFFFF78CF8034683F00103DBB2002B09D005F048FE02467B69D31A042B02D84FF0010301E022
S32D00010CE04FF00003002B82D10748FFF761F907F12407BD4690BD00BF0000C03F0000A0410000204000002041B3
S32D00010D080000000000000000B0B582B000AF41F28813C1F6FF731B681846FCF76DFB03467B607868FBF7D4FC7D
S32D00010D3002460B46104619461DA3D3E90023FBF71FFD02460B4614461D467868FBF7C4FC02460B462046294643
S32D00010D58FBF712FD02460B4614461D467868FBF7B7FC02460B4620462946FBF753FB02460B46104619460EA3E3
S32D00010D80D3E90023FBF748FB02460B4610461946FBF790FF03463B603B6823EAE3733B603B68184607F10807D4
S32D00010DA8BD46B0BDAFF30080F5D896016729793F75931804560E0640B0B582B000AF41F28413C1F6FF731B6854
S32D00010DD01846FCF715FB03467B607868FBF77CFC02460B46104619461DA3D3E90023FBF7C7FC02460B46144690
S32D00010DF81D467868FBF76CFC02460B4620462946FBF7BAFC02460B4614461D467868FBF75FFC02460B46204697
S32D00010E202946FBF7FBFA02460B46104619460EA3D3E90023FBF7F0FA02460B4610461946FBF738FF03463B6038
S32D00010E483B6823EAE3733B603B68184607F10807BD46B0BDAFF30080F5D896016729793F75931804560E0640C6
S32D00010E7080B592B000AF78600B46FB707B68184600F016F97B6803F10803184600F010F97B6803F110031846D8
S32D00010E9800F00AF97B6803F11803184600F004F97B6803F12003184600F0FEF87B6803F12803184600F0F8F87D
S32D00010EC07B6803F13003184600F0F2F87B6803F13803184600F0ECF87B68FA7883F8402007F108031846404963
S32D00010EE8404A00F0CDF87B6807F1080292E8030083E8030007F1100318463B493B4A00F0BFF87B6803F10803D1
S32D00010F1007F1100292E8030083E8030007F1180318463549354A00F0AFF87B6803F1100307F1180292E803003F
S32D00010F3883E8030007F1200318462F492F4A00F09FF87B6803F1180307F1200292E8030083E8030007F1280311
S32D00010F6018462349284A00F08FF87B6803F1200307F1280292E8030083E8030007F1300318462249224A00F058
S32D00010F887FF87B6803F1280307F1300292E8030083E8030007F13803184612491B4A00F06FF87B6803F13003FA
S32D00010FB007F1380292E8030083E8030007F1400318460A490B4A00F05FF87B6803F1380307F1400292E80300A4
S32D00010FD883E803007B68184607F14807BD4680BD0000EC410000984100004041000034420000C8410000584214
S32D0001100000009C41CDCC5642000078410000C0400000D8410000A04180B582B000AF78607B68184600F044F8A5
S32D000110287B6803F10803184600F03EF87B6803F11003184600F038F87B6803F11803184600F032F87B6803F18A
S32D000110502003184600F02CF87B6803F12803184600F026F87B6803F13003184600F020F87B6803F1380318468E
S32D0001107800F01AF87B68184607F10807BD4680BD80B485B000AFF860B9607A60FB68BA681A60FB687A685A605E
S32D000110A0FB68184607F11407BD4680BC704700BF80B483B000AF78607B68184607F10C07BD4680BC704700BFA9
S32D000110C880B582B000AF786039607B68012B40F095803A684FF6FF739A4240F08F8041F21C10C1F6FF704FF0E6
S32D000110F00001464A00F0BCFA41F22410C1F6FF704FF00101414A00F0B3FA41F22C10C1F6FF704FF002013E4A45
S32D0001111800F0AAFA41F23410C1F6FF704FF0060105F010FE41F23810C1F6FF704FF0070105F008FE41F23C10CC
S32D00011140C1F6FF704FF0000106F00EFE41F24810C1F6FF704FF01F0105F030FC41F24C10C1F6FF704FF00001F2
S32D0001116805F028FC41F25010C1F6FF704FF01E0105F020FC41F25410C1F6FF704FF0010105F018FC41F2581075
S32D00011190C1F6FF704FF0080105F010FC41F25C10C1F6FF704FF0090105F008FC41F26010C1F6FF704FF00F01A2
S32D000111B806F0A8F941F26410C1F6FF704FF0130106F0A0F941F26810C1F6FF704FF0110106F098F941F26C106A
S32D000111E0C1F6FF704FF0100106F090F941F27810C1F6FF70FFF75CFF41F2AC10C1F6FF70FFF70AFF07F108079E
S32D00011208BD4680BD000040410000A04080B500AF4FF001004FF6FF71FFF752FF80BD00BF80B500AF41F6EC12E1
S32D00011230C1F6FF7241F21C13C1F6FF73D31A194641F21C13C1F6FF731A460B4610464FF000011A460CF02DFC39
S32D0001125880BD00BF0DF0A2FC00F0B0F9FFF7E0FF0DF074FC0DF010FC0DF0A8FC00F00CF84FF0000041F2F411E0
S32D00011280C1F6FF71FCF7CCF8034618460CF0ECFB80B500AF4FF4E043C4F204034FF4E042C4F2040202F58052E6
S32D000112A802F13802126842F4785203F5805303F138031A6000F02EF900F094F841F23043C1F6FF734FF0580201
S32D000112D01A6041F23043C1F6FF731B684FF47A7202FB03F241F22C43C1F6FF731A6041F22C43C1F6FF731B686F
S32D000112F81A464FF4E043C4F2040303F5825303F104031B6803F070634FEA136303F10103B2FBF3F31A4641F266
S32D000113203443C1F6FF731A604FF4E043C4F204034FF4E042C4F2040202F5805202F13C02126842F0225203F52E
S32D00011348805303F13C031A604FF4E043C4F204034FF4E042C4F2040202F5805202F13002126842F0006203F5BE
S32D00011370805303F130031A604FF45043C4F203034FF480721A614FF0640005F037F94FF45043C4F203034FF4FB
S32D000113985042C4F20302526922F010025A614FF45043C4F203034FF000021A604FF45043C4F203034FF010020F
S32D000113C05A6106F0E7F906F08FFA41F22840C1F6FF7005F097F941F2E440C1F6FF7007F0E3F841F2883005F079
S32D000113E875FA80BD80B400AF4FF48043C4F206034FF000025A704FF48043C4F206034FF098021A704FF4804349
S32D00011410C4F206039B79DBB203F01003002B0CBF00230123DBB2002BF0D14FF48043C4F206039B79DBB203F038
S32D000114380C034FEA9303022B0CBF00230123DBB2002BEED14FF48043C4F206034FF018021A714FF48043C4F28C
S32D0001146006034FF000025A714FF4E043C4F2040303F5825303F104034FF00002C0F213121A604FF48043C4F20F
S32D0001148806034FF054025A7100BF4FF48043C4F206039B79DBB203F02003002B14BF00230123DBB2002BF0D1D3
S32D000114B000BF4FF48043C4F206039B79DBB203F04003002B14BF00230123DBB2002BF0D14FF48043C4F206032F
S32D000114D84FF48042C4F206021278D2B202F03F02D2B21A704FF48043C4F206039B79DBB203F00C034FEA93039C
S32D00011500032B0CBF00230123DBB2002BEED14FF000031846BD4680BC704700BF80B400AF4FF44043C4F204034A
S32D000115284FF480725A634FF2C003C4F20F034FF2C002C4F20F02526942F400525A614FF2C003C4F20F034FF201
S32D00011550C002C4F20F02126842F400521A604FF44043C4F2040340F20312C0F20A021A634FF46143CEF20003B8
S32D000115784FF46142CEF20002D2F8882142F08062C3F888214FF46143CEF200034FF46142CEF20002926842F033
S32D000115A080629A60BD4680BC704700BF80B483B000AF7860FEE700BF80B400AF00BEBD4680BC704780B400AF7F
S32D000115C84FF0E0224CF20003C0F20003C2F8083D4FF40053C4F205034CF22052DA814FF40053C4F205034DF6C8
S32D000115F02812DA814FF40053C4F205034FF0D2021A80BD4680BC704780B500AF4FF44043C4F20403D3F8A0303E
S32D0001161803F48053002B0CBF00230123DBB2002B1FD04FF44043C4F204034FF44042C4F20402D2F8A02022F451
S32D000116408052C3F8A02041F26C50C1F6FF700BF0B1FA4FF2C003C4F20F034FF2C002C4F20F02126822F40052FB
S32D000116681A6080BD0000000090B585B000AFF8600B467A60FB72FB68FA7A1A71FB684FF000025A714FF001036F
S32D000116901C4678682049FBF76FFE0346002B02D14FF000031C46E3B2002B02D01A4B7B6011E04FF001031C46CE
S32D000116B878681849FBF748FE0346002B02D14FF000031C46E3B2002B01D0124B7B607868FAF7FEFF02460B466F
S32D000116E0104619460AA3D3E90023FBF749F802460B4610461946FBF725FB0246FB681A60FB68184607F114070E
S32D00011708BD4690BDAFF30080ABAAAAAAAAAA2040000040410000803F80B582B000AF78607B685B79002B10D0F3
S32D000117307B684FF000025A717B681B7941F22840C1F6FF7019464FF000024FF01E0305F023F807F10807BD4649
S32D0001175880BD00BF80B584B000AF786039603B687F2B03DD4FF07F03FB7309E03B6813F1800F03DA4FF08003C3
S32D00011780FB7301E03B68FB737B685B79FA7B9A420FD07B68FA7B5A717B681A79FB7B41F22840C1F6FF701146CC
S32D000117A81A464FF01E0304F0F3FF07F11007BD4680BD00BF00000000B0B584B000AF786039604FF001031C4600
S32D000117D038684D49FBF7B2FD0346002B02D14FF000031C46E3B2002B02D0474B3B6011E04FF001031C46386833
S32D000117F84449FBF7BDFD0346002B02D14FF000031C46E3B2002B01D03E4B3B603868FAF75FFF04460D467B687A
S32D000118201B681846FAF758FF02460B46104619464FF000024FF0804303F5B203FBF7CAF802460B462046294610
S32D00011848FAF79AFF02460B4610461946FBF776FA03463B604FF001031C4638682A49FBF77DFD0346002B02D1E8
S32D000118704FF000031C46E3B2002B14D03868FAF72BFF02460B46104619461DA3D3E90023FAF776FF02460B465A
S32D0001189810461946FBF70AFA0346FB6022E03868FAF716FF02460B46104619464FF000024FF0804303F5C003DE
S32D000118C0FAF75EFF02460B46104619464FF000024FF0804303F5B203FBF77CF802460B4610461946FBF7E6F9E8
S32D000118E80346FB607868F968FFF734FF07F11007BD46B0BDAFF3008052B81E85EB51F43F0000C8C20000C84272
S32D0001191000000000AFF3008080B485B000AF02460B46FA71BB71BB79002B07D141F2F813C1F6FF734FF000025F
S32D000119381A7006E041F2F813C1F6FF734FF001021A704FF03803FB7341F2F813C1F6FF731A78FB7B1343FB73C2
S32D000119604FF4C043C4F206034FF4C042C4F206029278D2B242F01002D2B29A704FF4C043C4F206034FF4C042A6
S32D00011988C4F206029278D2B242F02002D2B29A704FF4C043C4F20603FA7B1A7107F11407BD4680BC704700BF35
S32D000119B080B483B000AF4FF001037B6004E000BF7B6803F101037B607B68312BCCBF00230123DBB2002BF2D1EF
S32D000119D807F10C07BD4680BC704700BF80B582B000AF02460B46FA71BB7141F2F913C1F6FF731B7818464FF042
S32D00011A000001FFF789FF4FF4C043C4F20603DB78DBB203F00203002B14BF00230123DBB2002BF0D14FF4C04357
S32D00011A28C4F206034FF4C042C4F20602D278D2B242F00202D2B2DA704FF4C043C4F20603FA791A714FF4C043B2
S32D00011A50C4F20603DB78DBB203F00203002B14BF00230123DBB2002BF0D14FF4C043C4F206034FF4C042C4F212
S32D00011A780602D278D2B242F00202D2B2DA704FF4C043C4F20603BA791A714FF4C043C4F20603DB78DBB203F0CA
S32D00011AA00203002B14BF00230123DBB2002BF0D14FF4C043C4F206034FF4C042C4F20602D278D2B242F0020248
S32D00011AC8D2B2DA704FF4C043C4F206034FF4C042C4F206029278D2B222F02002D2B29A704FF4C043C4F20603C4
S32D00011AF04FF4C042C4F206029278D2B222F01002D2B29A70FFF754FF07F10807BD4680BD80B582B000AF034695
S32D00011B18FB71FB79184600F06BF807F10807BD4680BD00BF80B582B000AF02460B46FA71BB7100F039F8FB792C
S32D00011B404FEA4303DBB21846FFF7E2FFBB791846FFF7DEFF00F03EF807F10807BD4680BD80B500AF4FF0FF0041
S32D00011B6800F046F80346184680BD00BF80B584B000AF0346FB7100F017F8FB794FEA4303DBB243F00103DBB26D
S32D00011B90DBB21846FFF7BCFFFFF7E2FF0346FB7300F018F8FB7B184607F11007BD4680BD80B400AF4FF2400372
S32D00011BB8C4F20F034FF24002C4F20F02926842F480129A60BD4680BC704700BF80B400AF4FF24003C4F20F034C
S32D00011BE04FF24002C4F20F02526842F480125A60BD4680BC704700BF80B485B000AF0346FB714FF00003BB735E
S32D00011C0803E0FB7B03F10103FB734FF44043C4F20A03DB6A4FF00003002BF2D14FF44043C4F20A034FF44042A2
S32D00011C30C4F20A02D26A42F00042DA624FF44043C4F20A03FA795A6300BF4FF44043C4F20A03DB6A03F4003367
S32D00011C58002B14BF00230123DBB2002BF1D14FF44043C4F20A039B6BBB73BB7B184607F11407BD4680BC704744
S32D00011C8080B582B000AF4FF4E043C4F204034FF4E042C4F2040202F5805202F13002126842F4805203F58053A0
S32D00011CA803F130031A604FF42043C4F204034FF480721A654FF24003C4F20F034FF24002C4F20F02526942F4CE
S32D00011CD080125A61FFF77EFF4FF42043C4F204034FF400725A654FF42043C4F204034FF400729A654FF4204391
S32D00011CF8C4F204034FF40072DA654FF44043C4F20A034FF44062C8F200021A604FF44043C4F20A034FF0050299
S32D00011D20C3F60062DA604FF000037B6007E04FF0FF00FFF7EDFE7B6803F101037B607B68092BCCBF002301237D
S32D00011D48DBB2002BEFD104A1D1E9000104F0D8FD07F10807BD4680BD9A9999999999B93F90B486B000AFF86074
S32D00011D70B9607A60FA684FF42043C4F206039A4214D14FF4E043C4F204034FF4E042C4F2040202F5805202F1C9
S32D00011D983402126842F4806203F5805303F134031A6083E0FA684FF43043C4F206039A4214D14FF4E043C4F2CD
S32D00011DC004034FF4E042C4F2040202F5805202F13402126842F4006203F5805303F134031A6067E0FA684FF46C
S32D00011DE84043C4F206039A4214D14FF4E043C4F204034FF4E042C4F2040202F5805202F13402126842F4805211
S32D00011E1003F5805303F134031A604BE0FA684FF45043C4F206039A4214D14FF4E043C4F204034FF4E042C4F212
S32D00011E38040202F5805202F13402126842F4005203F5805303F134031A602FE0FA684FF42043C4F20E039A4257
S32D00011E6014D14FF4E043C4F204034FF4E042C4F2040202F5805202F12802126842F4806203F5805303F12803C8
S32D00011E881A6013E04FF4E043C4F204034FF4E042C4F2040202F5805202F12802126842F4006203F5805303F1C3
S32D00011EB028031A60FB68DB78DBB223F00C03DAB2FB68DA70FB684FF000029A70BB684FF47A7202FB03F27B68EB
S32D00011ED84FEA031392FBF3F39CB2FB681B78DBB223F01F03FB75234603F4F8534FEA2323DBB203F01F03DAB24B
S32D00011F00FB7D1343DAB2FB681A70E2B2FB685A70BB684FF4FA4202FB03F27B684FEA031392FBF3F39AB22346BC
S32D00011F2819464FEAC121CB1A4FEA43139BB2D3189CB2FB689B7ADBB223F01F03FB75E3B203F01F03DAB2FB7DBE
S32D00011F501343DAB2FB689A72FB68DB78DBB243F00C03DAB2FB68DA7007F11807BD4690BC704700BF80B483B010
S32D00011F7800AF786000BF7B681B79DBB203F02003002B14BF00230123DBB2002BF3D17B68DB79DBB2184607F1FF
S32D00011FA00C07BD4680BC704780B483B000AF78600B46FB7000BF7B681B79DBB2DBB26FEA0303DBB24FEAD31304
S32D00011FC8DBB2002BF3D17B68FA78DA7107F10C07BD4680BC704700BF80B487B000AFF860B9607A60FB687B616A
S32D00011FF0BB683B610BE03B691A787B691A707B6903F101037B613B6903F101033B617B68002B0CBF0023012364
S32D00012018DBB27A6802F1FF327A60002BE7D107F11C07BD4680BC704780B487B000AFF860B9607A60FB687B6194
S32D0001204007E0BB68DAB27B691A707B6903F101037B617B68002B0CBF00230123DBB27A6802F1FF327A60002BFD
S32D00012068EBD107F11C07BD4680BC704780B489B000AFF860B9607A60FB68FB61BB68BB614FF000037B617B6816
S32D00012090002B0CBF00230123DBB27A6802F1FF327A60002B19D0FB691B781A46BB691B78D31A7B617B69002B7D
S32D000120B814BF00230123DBB2FA6902F10102FA61BA6902F10102BA61002B02D04FF0010301E04FF00003002BDC
S32D000120E0D5D17B69184607F12407BD4680BC704780B483B000AF7860396003E07B6803F101037B607B681B783A
S32D00012108002B08D07B681B781A463B689A4202D04FF0010301E04FF00003002BEAD17B681B78184607F10C0753
S32D00012130BD4680BC704700BF80B584B000AF786039607B681B6BFB60FA683B689A4264D07B681B79002B43D0B4
S32D000121587B685A787B6803F1340310461946FA684FF0010304F0B4F80346002B0CBF00230123DBB2002B02D08B
S32D000121804FF001034BE07B684FF000021A717B685A6A7B681B6AD218FB689A4220D97B68DB78FB7214E07B6868
S32D000121A81B6AFA68D318FB607B685A787B6803F1340310461946FA684FF0010304F088F8FB7A03F1FF33FB7242
S32D000121D0FB7A012B94BF00230123DBB2002BE2D13B68002B19D07B685A787B6803F13403104619463A684FF02A
S32D000121F8010303F05FFF0346002B0CBF00230123DBB2002B02D04FF0010304E07B683A681A634FF0000318468A
S32D0001222007F11007BD4680BD80B584B000AF786078684FF00001FFF77FFF0346FB73FB7B002B40F0AE807B6823
S32D000122481B78032B40F095807B685B79002B00F090807B684FF000021A637B6803F1340318464FF000014FF4EF
S32D000122700072FFF7DDFE7B684FF0550283F832227B684FF0AA0283F833227B684FF0520283F834207B684FF0AF
S32D00012298520283F835207B684FF0610283F836207B684FF0410283F837207B684FF0720283F818227B684FF0F9
S32D000122C0720283F819227B684FF0410283F81A227B684FF0610283F81B227B681B69DAB27B6883F81C227B68FA
S32D000122E81B699BB24FEA2323DAB27B6883F81D227B681B694FEA1343DAB27B6883F81E227B681B694FEA136318
S32D00012310DAB27B6883F81F227B68DB68DAB27B6883F820227B68DB689BB24FEA2323DAB27B6883F821227B681F
S32D00012338DB684FEA1343DAB27B6883F822227B68DB684FEA1363DAB27B6883F823227B6859787B6803F13402B1
S32D000123607B685B69084611461A464FF0010303F0B3FF7B684FF000025A717B685B7818464FF000014FF0000236
S32D0001238804F08CF80346002B0CBF00230123DBB2002B02D04FF00103FB73FB7B184607F11007BD4680BD00BF0B
S32D000123B080B483B000AF786039603B68A3F102033B607B68DB69A3F102023B689A4202D84FF0000307E07B687C
S32D000123D89B783A6802FB03F27B68DB6AD318184607F10C07BD4680BC704700BF80B586B000AF786039603B68D0
S32D00012400012B04D97B68DA693B689A4202D84FF00103D3E07B681B78022B5FD0032B00F08A80012B40F0C88091
S32D000124283B687B617B694FEA53037A69D3187B617B685A6A7B694FEA5323D31878681946FFF776FE0346002BA7
S32D000124500CBF00230123DBB2002B40F0A6807B694FEAC3534FEAD3537A68D31893F834303B617B6903F1010377
S32D000124787B617B685A6A7B694FEA5323D31878681946FFF755FE0346002B0CBF00230123DBB2002B40F0878037
S32D000124A07B694FEAC3534FEAD3537A68D31893F834304FEA03233A6913433B613B6803F00103DBB2002B03D0A6
S32D000124C83B694FEA131304E03B694FEA03534FEA13536FE07B685A6A3B684FEA1323D31878681946FFF724FEE2
S32D000124F00346002B0CBF00230123DBB2002B58D13B684FEA43034FEAC3534FEAD35303F130037A68D31803F19E
S32D000125180403FB60FB6803F101031B784FEA03239AB2FB681B7813439BB29BB242E07B685A6A3B684FEAD31328
S32D00012540D31878681946FFF7F7FD0346002B0CBF00230123DBB2002B2DD13B684FEA83034FEAC3534FEAD3530C
S32D0001256803F130037A68D31803F10403FB60FB6803F103031B784FEA0362FB6803F102031B784FEA03431A43A1
S32D00012590FB6803F101031B784FEA03231A43FB681B78134323F0704308E000BF04E000BF02E000BF00E000BFD6
S32D000125B84FF0FF33184607F11807BD4680BD00BF80B588B000AFF860B9607A60BB68012B04D9FB68DA69BB68B3
S32D000125E09A4203D84FF00203FB771AE1FB681B78022B00F08580032B00F0AD80012B40F00181BB68BB61BB69C0
S32D000126084FEA5303BA69D318BB61FB685A6ABB694FEA5323D318F8681946FFF789FD0346FB77FB7F002B40F03A
S32D00012630ED80BB694FEAC3534FEAD35303F13003FA68D31803F104037B61BB6803F00103DBB2002B0ED07B695D
S32D000126581B78DBB203F00F03DAB27B68DBB24FEA0313DBB21343DBB2DBB201E07B68DBB27A691370BB6903F117
S32D000126800103BB61FB684FF001021A71FB685A6ABB694FEA5323D318F8681946FFF74CFD0346FB77FB7F002B98
S32D000126A840F0B280BB694FEAC3534FEAD35303F13003FA68D31803F104037B61BB6803F00103DBB2002B04D0DE
S32D000126D07B684FEA1313DBB20FE07B691B78DBB223F00F03DAB27B684FEA1323DBB203F00F03DBB21343DBB214
S32D000126F8DBB27A6913708CE0FB685A6ABB684FEA1323D318F8681946FFF712FD0346FB77FB7F002B7AD1BB681E
S32D000127204FEA43034FEAC3534FEAD35303F13003FA68D31803F104037B617B68DAB27B691A707B6903F1010359
S32D000127487A6892B24FEA2222D2B21A7061E0FB685A6ABB684FEAD313D318F8681946FFF7E7FC0346FB77FB7F4F
S32D00012770002B51D1BB684FEA83034FEAC3534FEAD35303F13003FA68D31803F104037B617B6903F103031B78A1
S32D000127984FEA03627B6903F102031B784FEA03431A437B6903F101031B784FEA03231A437B691B78134303F03D
S32D000127C070437A6813437B607B68DAB27B691A707B6903F101037A6892B24FEA2222D2B21A707B6903F10203DD
S32D000127E87A684FEA1242D2B21A707B6903F103037A684FEA1262D2B21A700AE04FF00203FB7706E000BF04E0A1
S32D0001281000BF02E000BF00E000BFFB684FF001021A71FB7F184607F12007BD4680BD00BF80B584B000AF786084
S32D0001283839603B68012B04D97B68DA693B689A4203D84FF00203FB7345E04FF00003FB7333E078683968FFF79B
S32D00012860C9FD0346BB60BB68002B35D0BB68012B03D14FF00203FB7331E0BB68B3F1FF3F03D14FF00103FB735C
S32D0001288829E0786839684FF00002FFF799FE0346FB73FB7B002B1DD17B681B69B3F1FF3F09D07B681B6903F106
S32D000128B001027B681A617B684FF001025A71BB683B607B68DA693B689A4294BF00230123DBB2002BC1D102E07F
S32D000128D800BF00E000BFFB7B184607F11007BD4680BD00BF80B586B000AF786039603B68002B0ED17B68DB6833
S32D000129003B613B69002B04D07B68DA693B699A4218D84FF001033B6114E078683968FFF769FD0346BB60BB689C
S32D00012928012B02D84FF001036EE07B68DA69BB689A4201D9BB6867E03B683B613B697B6100E000BF7B6903F14A
S32D0001295001037B617B68DA697B699A4209D84FF002037B617A693B699A4202D94FF000034EE078687969FFF72B
S32D000129783DFD0346BB60BB68002B0FD0BB68B3F1FF3F02D0BB68012B01D1BB683CE07A693B699A42D5D14FF0E6
S32D000129A0000335E000BF786879696FF07042FFF70BFE0346FB73FB7B002B09D13B68002B06D0786839687A6925
S32D000129C8FFF7FEFD0346FB73FB7B002B12D17B687A69DA607B681B69B3F1FF3F13D07B681B6903F1FF327B6819
S32D000129F01A617B684FF001025A7108E0FB7B012B02D14FF0FF3301E04FF001037B617B69184607F11807BD4623
S32D00012A1880BD00BF80B487B000AF786039607B685B6A03F104033B613B684FEA53227B681B689B78B2FBF3F36C
S32D00012A407B613B691B68FB603B6903F104033B61FB68002B02D14FF0000311E07A69FB689A4208D37A69FB68F7
S32D00012A68D31A7B613B6903F104033B61E5E700BF3B691A687B69D318184607F11C07BD4680BC704780B584B0E3
S32D00012A9000AF78600B467B807B687A88DA807B689B68FB60FB68012B05D07B681B68DA69FB689A4202D84FF05F
S32D00012AB8020373E0FB68002B08D17B681B681B78032B03D17B681B689B6AFB60FB68002B16D17B68FA68DA607B
S32D00012AE07B681B681B897A889A4202D34FF0020358E07B681B689A6A7B884FEA13139BB2D2187B681A613FE00E
S32D00012B087B681B689B784FEA03137B811EE07B681B681846F968FFF769FC0346FB60FB68B3F1FF3F02D14FF061
S32D00012B30010337E0FB68012B05D97B681B68DA69FB689A4202D84FF002032BE07A887B89D31A7B807A887B89E9
