S01300002E2E2F4645485F526F626F742E7331391E
S32D0000C0000000002085130100E1160100E1160100E1160100E1160100E116010000000000000000000000000081
S32D0000C02800000000E1160100E116010000000000E1160100E1160100E1160100E1160100E1160100E11601002A
S32D0000C050E1160100E1160100E1160100E1160100E1160100E1160100E1160100E1160100E1160100E116010012
S32D0000C078E1160100E1160100E1160100E1160100E1160100E1160100E1160100E1160100E1160100E1160100EA
S32D0000C0A0E1160100E1160100E1160100E1160100E1160100E1160100E1160100E1160100E1160100E1160100C2
S32D0000C0C8E1160100E1160100E1160100E1160100E1160100E1160100E1160100E1160100E1160100E11601009A
S32D0000C0F0E116010029B40100E1160100E1160100E1160100E1160100E1160100E1160100E1160100E11601008C
S32D0000C118E1160100E1160100E1160100E1160100E1160100E1160100E1160100E1160100E1160100E116010049
S32D0000C140E1160100E1160100E1160100E1160100DD790100E1160100E1160100E1160100E1160100E1160100C2
S32D0000C168E1160100E1160100E1160100E1160100E1160100E1160100E1160100E1160100E1160100E1160100F9
S32D0000C190E1160100E1160100E11601003D74010091720100657301003117010015750100E1160100E116010046
S32D0000C1B8E1160100E1160100E1160100E1160100E1160100E1160100E1160100E1160100E1160100E1160100A9
S32D0000C41081F0004102E000BF83F0004330B54FEA41044FEA430594EA050F08BF90EA020F1FBF54EA000C55EAC6
S32D0000C438020C7FEA645C7FEA655C00F0E2804FEA5454D4EB5555B8BF6D420CDD2C4480EA020281EA030382EA0F
S32D0000C460000083EA010180EA020281EA0303362D88BF30BD11F0004F4FEA01314FF4801C4CEA113102D0404263
S32D0000C48861EB410113F0004F4FEA03334CEA133302D0524263EB430394EA050F00F0A780A4F10104D5F1200E8A
S32D0000C4B00DDB02FA0EFC22FA05F2801841F1000103FA0EF2801843FA05F359410EE0A5F120050EF1200E012A2D
S32D0000C4D803FA0EFC28BF4CF0020C43FA05F3C01851EBE37101F0004507D54FF0000EDCF1000C7EEB00006EEB67
S32D0000C5000101B1F5801F1BD3B1F5001F0CD349085FEA30004FEA3C0C04F101044FEA445212F5800F80F09A8000
S32D0000C528BCF1004F08BF5FEA500C50F1000041EB045141EA050130BD5FEA4C0C404141EB010111F4801FA4F114
S32D0000C5500104E9D191F0000F04BF01460020B1FA81F308BF2033A3F10B03B3F120020CDA0C3208DD02F1140C87
S32D0000C578C2F10C0201FA0CF021FA02F10CE002F11402D8BFC2F1200C01FA02F120FA0CFCDCBF41EA0C019040B1
S32D0000C5A0E41AA2BF01EB0451294330BD6FEA04041F3C1CDA0C340EDC04F11404C4F1200220FA04F001FA02F3B6
S32D0000C5C840EA030021FA04F345EA030130BDC4F10C04C4F1200220FA02F001FA04F340EA0300294630BD21FAA8
S32D0000C5F004F0294630BD94F0000F83F4801306BF81F480110134013D4EE77FEA645C18BF7FEA655C29D094EA1C
S32D0000C618050F08BF90EA020F05D054EA000C04BF1946104630BD91EA030F1EBF0021002030BD5FEA545C05D1A3
S32D0000C6404000494128BF41F0004130BD14F580043CBF01F5801130BD01F0004545F0FE4141F470014FF0000031
S32D0000C66830BD7FEA645C1ABF194610467FEA655C1CBF0B46024650EA013406BF52EA033591EA030F41F40021D7
S32D0000C69030BD00BF90F0000F04BF0021704730B54FF4806404F132044FF000054FF0000150E700BF90F0000F66
S32D0000C6B804BF0021704730B54FF4806404F1320410F0004548BF40424FF000013EE700BF42004FEAE2014FEAF9
S32D0000C6E031014FEA02701FBF12F07F4393F07F4F81F06051704792F0000F14BF93F07F4F704730B54FF460741B
S32D0000C70801F0004521F0004120E700BF50EA010208BF704730B54FF000050AE050EA010208BF704730B511F046
S32D0000C730004502D5404261EB41014FF4806404F132045FEA915C3FF4DCAE4FF003025FEADC0C18BF03325FEAA0
S32D0000C758DC0C18BF033202EBDC02C2F1200300FA03FC20FA02F001FA03FE40EA0E0021FA02F11444C1E600BF19
S32D0000C78070B54FF0FF0C4CF4E06C1CEA11541DBF1CEA135594EA0C0F95EA0C0F00F0DEF82C4481EA030621EAF3
S32D0000C7A84C5123EA4C5350EA013518BF52EA033541F4801143F4801338D0A0FB02CE4FF00005E1FB02E506F05F
S32D0000C7D00042E0FB03E54FF00006E1FB03569CF0000F18BF4EF0010EA4F1FF04B6F5007F64F5407404D25FEA0F
S32D0000C7F84E0E6D4146EB060642EAC62141EA55514FEAC52040EA5E504FEACE2EB4F1FD0C88BFBCF5E06F1ED8D2
S32D0000C820BEF1004F08BF5FEA500E50F1000041EB045170BD06F0004646EA010140EA020081EA0301B4EB5C0487
S32D0000C848C2BFD4EB0C0541EA045170BD41F480114FF0000E013C00F3AB8014F1360FDEBF002001F0004170BDF0
S32D0000C870C4F10004203C35DA0C341BDC04F11404C4F1200500FA05F320FA04F001FA05F240EA020001F0004207
S32D0000C89821F0004110EBD37021FA04F642EB06015EEA430E08BF20EAD37070BDC4F10C04C4F1200500FA04F32F
S32D0000C8C020FA05F001FA04F240EA020001F0004110EBD37041F100015EEA430E08BF20EAD37070BDC4F12005C7
S32D0000C8E800FA05F24EEA020E20FA04F301FA05F243EA020321FA04F001F0004121FA04F220EA020000EBD37028
S32D0000C9105EEA430E08BF20EAD37070BD94F0000F0FD101F00046400041EB010111F4801F08BF013CF7D041EA6D
S32D0000C938060195F0000F18BF704703F00046520043EB030313F4801F08BF013DF7D043EA0603704794EA0C0FF1
S32D0000C9600CEA135518BF95EA0C0F0CD050EA410618BF52EA4306D1D181EA030101F000414FF0000070BD50EA38
S32D0000C988410606BF1046194652EA430619D094EA0C0F02D150EA013613D195EA0C0F05D152EA03361CBF10467B
S32D0000C9B019460AD181EA030101F0004141F0FE4141F470014FF0000070BD41F0FE4141F4780170BD70B54FF04D
S32D0000C9D8FF0C4CF4E06C1CEA11541DBF1CEA135594EA0C0F95EA0C0F00F0A7F8A4EB050481EA030E52EA03359B
S32D0000CA004FEA013100F088804FEA03334FF0805545EA131343EA12634FEA022245EA111545EA10654FEA002676
S32D0000CA280EF000419D4208BF964244F1FD0404F5407402D25B084FEA3202B61A65EB03055B084FEA32024FF461
S32D0000CA5080104FF4002CB6EB020E75EB030E22BFB61A754640EA0C005B084FEA3202B6EB020E75EB030E22BF22
S32D0000CA78B61A754640EA5C005B084FEA3202B6EB020E75EB030E22BFB61A754640EA9C005B084FEA3202B6EBEA
S32D0000CAA0020E75EB030E22BFB61A754640EADC0055EA060E18D04FEA051545EA16754FEA06164FEAC30343EAAC
S32D0000CAC852734FEAC2025FEA1C1CC0D111F4801F0BD141EA00014FF000004FF0004CB6E711F4801F04BF0143AE
S32D0000CAF00020B4F1FD0C88BFBCF5E06F3FF6AFAEB5EB030C04BFB6EB020C5FEA500C50F1000041EB045170BDBC
S32D0000CB180EF0004E4EEA113114EB5C04C2BFD4EB0C0541EA045170BD41F480114FF0000E013C90E645EA060EC3
S32D0000CB408DE60CEA135594EA0C0F08BF95EA0C0F3FF43BAF94EA0C0F0AD150EA01347FF434AF95EA0C0F7FF499
S32D0000CB6825AF104619462CE795EA0C0F06D152EA03353FF4FDAE1046194622E750EA410618BF52EA43067FF432
S32D0000CB90C5AE50EA41047FF40DAF52EA43057FF4EBAE12E74FF0FF3C06E000BF4FF0010C02E000BF4FF0010C75
S32D0000CBB84DF804CD4FEA410C7FEA6C5C4FEA430C18BF7FEA6C5C1BD001B050EA410C0CBF52EA430C91EA030FEC
S32D0000CBE002BF90EA020F0020704710F1000F91EA030F58BF994208BF90422CBFD8176FEAE37040F0010070476E
S32D0000CC084FEA410C7FEA6C5C02D150EA013C07D14FEA430C7FEA6C5CD6D152EA033CD3D05DF8040B704700BFCD
S32D0000CC308446104662468C461946634600E000BF01B5FFF7B7FF002848BF10F1000F01BD4DF808EDFFF7F4FF13
S32D0000CC580CBF012000205DF808FB00BF4DF808EDFFF7EAFF34BF012000205DF808FB00BF4DF808EDFFF7E0FF18
S32D0000CC8094BF012000205DF808FB00BF4DF808EDFFF7CEFF94BF012000205DF808FB00BF4DF808EDFFF7C4FF40
S32D0000CCA834BF012000205DF808FB00BF4FEA410212F5001215D211D56FF47873B3EB625212D94FEAC12343F0D6
S32D0000CCD0004343EA505311F0004F23FA02F018BF404270474FF00000704750EA013005D111F0004008BF6FF016
S32D0000CCF8004070474FF00000704700BF4A0011D212F5001211D20DD56FF47873B3EB62520ED44FEAC12343F085
S32D0000CD20004343EA505323FA02F070474FF00000704750EA013002D14FF0FF3070474FF0000070474FEA410241
S32D0000CD48B2F1E04324BFB3F5001CDCF1FE5C0DD901F0004C4FEAC0024CEA5070B2F1004F40EB830008BF20F09E
S32D0000CD700100704711F0804F21D113F13872BCBF01F00040704741F480114FEA5252C2F11802C2F1200C10FAB1
S32D0000CD980CF320FA02F018BF40F001004FEAC1234FEAD32303FA0CFC40EA0C0023FA02F34FEA4303CCE77FEA26
S32D0000CDC0625307D150EA01331EBF4FF0FE4040F44000704701F0004040F0FE4040F40000704700BF80F00040CC
S32D0000CDE802E000BF81F0004142001FBF5FEA410392EA030F7FEA226C7FEA236C6AD04FEA1262D2EB1363C1BF06
S32D0000CE10D218414048404140B8BF5B42192B88BF704710F0004F40F4000020F07F4018BF404211F0004F41F4FA
S32D0000CE38000121F07F4118BF494292EA030F3FD0A2F1010241FA03FC10EB0C00C3F1200301FA03F100F000432B
S32D0000CE6002D5494260EB4000B0F5000F13D3B0F1807F06D340084FEA310102F10102FE2A51D2B1F1004F40EB94
S32D0000CE88C25008BF20F0010040EA03007047490040EB000010F4000FA2F10102EDD1B0FA80FCACF1080CB2EB5F
S32D0000CEB00C0200FA0CF0AABF00EBC25052421843BCBFD0401843704792F0000F81F4000106BF80F400000132EB
S32D0000CED8013BB5E74FEA41037FEA226C18BF7FEA236C21D092EA030F04D092F0000F08BF0846704790EA010FD7
S32D0000CF001CBF0020704712F07F4F04D1400028BF40F00040704712F100723CBF00F50000704700F0004343F0DC
S32D0000CF28FE4040F4000070477FEA226216BF08467FEA23630146420206BF5FEA412390EA010F40F480007047C1
S32D0000CF504FF0000304E000BF10F0004348BF40425FEA000C08BF704743F0964301464FF000001CE050EA010264
S32D0000CF7808BF70474FF000030AE000BF50EA010208BF704711F0004302D5404261EB41015FEA010C02BF84465B
S32D0000CFA00146002043F0B64308BFA3F18053A3F50003BCFA8CF2083AA3EBC25310DB01FA02FC634400FA02FC6B
S32D0000CFC8C2F12002BCF1004F20FA02F243EB020008BF20F00100704702F1200201FA02FCC2F1200250EA4C0034
S32D0000CFF021FA02F243EB020008BF20EADC7070474FF0FF0C1CEAD0521EBF1CEAD15392EA0C0F93EA0C0F6FD019
S32D0000D0181A4480EA010C400218BF5FEA41211ED04FF0006343EA501043EA5111A0FB01310CF00040B1F5000FE7
S32D0000D0403EBF490041EAD3715B0040EA010062F17F02FD2A1DD8B3F1004F40EBC25008BF20F00100704790F058
S32D0000D068000F0CF0004C08BF49024CEA502040EA51207F3AC2BFD2F1FF0340EAC250704740F400004FF0000388
S32D0000D090013A5DDC12F1190FDCBF00F000407047C2F10002410021FA02F1C2F1200200FA02FC5FEA310040F1D5
S32D0000D0B8000053EA4C0308BF20EADC70704792F0000F00F0004C02BF400010F4000F013AF9D040EA0C0093F04C
S32D0000D0E0000F01F0004C02BF490011F4000F013BF9D041EA0C018FE70CEAD15392EA0C0F18BF93EA0C0F0AD00B
S32D0000D10830F0004C18BF31F0004CD8D180EA010000F00040704790F0000F17BF90F0004F084691F0000F91F0BB
S32D0000D130004F14D092EA0C0F01D142020FD193EA0C0F03D14B0218BF084608D180EA010000F0004040F0FE4051
S32D0000D15840F40000704740F0FE4040F4400070474FF0FF0C1CEAD0521EBF1CEAD15392EA0C0F93EA0C0F69D044
S32D0000D180A2EB030280EA010C49024FEA402037D04FF0805343EA111143EA10130CF000408B4238BF5B0042F14E
S32D0000D1A87D024FF4000C8B4224BF5B1A40EA0C00B3EB510F24BFA3EB510340EA5C00B3EB910F24BFA3EB9103A4
S32D0000D1D040EA9C00B3EBD10F24BFA3EBD10340EADC001B0118BF5FEA1C1CE0D1FD2A3FF650AF8B4240EBC25018
S32D0000D1F808BF20F0010070470CF0004C4CEA50207F32C2BFD2F1FF0340EAC250704740F400004FF00003013AF1
S32D0000D22037E792F0000F00F0004C02BF400010F4000F013AF9D040EA0C0093F0000F01F0004C02BF490011F4C9
S32D0000D248000F013BF9D041EA0C0195E70CEAD15392EA0C0F08D142027FF47DAF93EA0C0F7FF470AF084676E7AE
S32D0000D27093EA0C0F04D14B023FF44CAF08466EE730F0004C18BF31F0004CCAD130F000427FF45CAF31F0004376
S32D0000D2987FF43CAF5FE700BF4FF0FF3C06E000BF4FF0010C02E000BF4FF0010C4DF804CD4FEA40024FEA41039F
S32D0000D2C07FEA226C18BF7FEA236C11D001B052EA530C18BF90EA010F58BFB2EB030088BFC81738BF6FEAE1706E
S32D0000D2E818BF40F0010070477FEA226C02D15FEA402C05D17FEA236CE4D15FEA412CE1D05DF8040B704700BF16
S32D0000D310844608466146FFE70FB5FFF7C9FF002848BF10F1000F0FBD4DF808EDFFF7F4FF0CBF012000205DF839
S32D0000D33808FB00BF4DF808EDFFF7EAFF34BF012000205DF808FB00BF4DF808EDFFF7E0FF94BF012000205DF8A9
S32D0000D36008FB00BF4DF808EDFFF7D2FF94BF012000205DF808FB00BF4DF808EDFFF7C8FF34BF012000205DF8B1
S32D0000D38808FB00BF4FEA4002B2F1FE4F0FD34FF09E03B3EB12620DD94FEA002343F0004310F0004F23FA02F060
S32D0000D3B018BF404270474FF00000704712F1610F01D1420205D110F0004008BF6FF0004070474FF00000704797
S32D0000D3D880B483B000AF78607B6823F00043184607F10C07BD4680BC704700BF00000000B0B586B002AF01F0A5
S32D0000D4003FF909F041FB0346BB6001F0F5B841F28013C1F6FF731B78002B01D003F004FD02F006FD41F2711371
S32D0000D428C1F6FF731B78122B01F2D68001A252F823F000BF89D40000E1D400000BD700009BD7000021DB000073
S32D0000D45099DB000099DC000095D800000FDA0000F1DA0000F1DC00004FDF000007E00000F1E00000DFE1000031
S32D0000D47875E300001FE50000ADE50000BDE5000002F09EFB0346002B06D109F0F9FA0246BB68D31A142B02D9C2
S32D0000D4A04FF0010301E04FF00003002B01F0A38041F26C50C1F6FF704EF25801C0F201010FF018FC41F2E440ED
S32D0000D4C8C1F6FF704FF000010BF0A0FA4FF0010002F052FA01F08BB841F26C50C1F6FF704EF27001C0F201010F
S32D0000D4F00FF000FCCC48CD4903F00AF80AE002F097FC41F28013C1F6FF731B78002B01D003F08AFC02F0E4FEBA
S32D0000D518034683F00103DBB2002BECD1BAA1D1E9000109F081FAC04802F0DAFF41F26C50C1F6FF704EF2840179
S32D0000D540C0F201010FF0D6FB4FF00100B949BA4A03F09AF909F098FA03467B6003E0B748B74902F01DFF4FF08F
S32D0000D568010003F015F8034683F00103DBB2002B09D009F085FA02467B68D31A022B02D84FF0010301E04FF049
S32D0000D5900003002BE3D14FF0010002F0FDFF034683F00103DBB2002B3FD041F25010C1F6FF7009F0BBFB034625
S32D0000D5B883F00103DBB2002B13D09B48984902F0EBFE93A1D1E9000109F02EFA9B4802F087FF4FF000004FF0AB
S32D0000D5E07E5101F5A00109F023FA41F25410C1F6FF7009F09BFB034683F00103DBB2002B13D089488A4902F064
S32D0000D608CBFE83A1D1E9000109F00EFA8B4802F067FF4FF000004FF07E5101F5A00109F003FA814802F05CFF30
S32D0000D6307BA1D1E9000109F0FBF941F26C50C1F6FF704EF29001C0F201010FF053FB41F26C50C1F6FF704EF2CC
S32D0000D658B401C0F201010FF049FB714802F040FF0AE002F0E1FB41F28013C1F6FF731B78002B01D003F0D4FB16
S32D0000D68002F0A2FA0346002B14BF00230123DBB2002BEAD1664802F027FF02F095FA024641F2F013C1F6FF73FF
S32D0000D6A81A6041F2F013C1F6FF731B68002B06D141F2F013C1F6FF734FF0FF021A6041F2F013C1F6FF731B68FB
S32D0000D6D0B3F57F0F04D14EF2D003C0F2010303E04EF2D403C0F2010341F26C50C1F6FF704EF2DC01C0F20101C2
S32D0000D6F81A460FF0FBFA4FF0020002F03DF900F077BF41F26C50C1F6FF704EF2F801C0F201010FF0EBFA4248B1
S32D0000D72002F0E2FE09F0B0F903467B600AE002F07FFB41F28013C1F6FF731B78002B01D003F072FB4FF00000D0
S32D0000D74802F026FF034683F00103DBB2002B09D009F096F902467B68D31A092B02D84FF0010301E04FF0000337
S32D0000D770002BDCD12E4802F0B7FE41F26C50C1F6FF704EF21011C0F201010FF0B3FA4FF0030002F0F5F800F0AF
S32D0000D7982FBF4FF0010002F035F92848284902F0B3FE09F06DF903467B600AE002F03CFB41F28013C1F6FF730C
S32D0000D7C01B78002B01D003F02FFB02F089FD034683F00103DBB2002B09D009F055F902467B68D31A022B02D860
S32D0000D7E84FF0010301E04FF00003002BDED10E4802F076FE4FF0000002F004F90848114902F082FE2BE000BF03
S32D0000D8109A9999999999C93F9A9999999999A93F9A9999999999B93F00000C420000A040000000000000AA4223
S32D0000D8380000C84100008CC10000A8C100000CC20000E0400000404002F0EEFA41F28013C1F6FF731B78002B0E
S32D0000D86001D003F0E1FA02F03BFD034683F00103DBB2002BECD1FA4802F036FEF84802F0F1F8F84803F0A0F84E
S32D0000D8884FF0070002F078F800F0B2BE41F26C50C1F6FF704EF23011C0F201010FF026FAEF4802F01DFE09F0C4
S32D0000D8B0EBF803467B600AE002F0BAFA41F28013C1F6FF731B78002B01D003F0ADFA4FF0010002F061FE0346C1
S32D0000D8D883F00103DBB2002B09D009F0D1F802467B68D31A092B02D84FF0010301E04FF00003002BDCD1D848D4
S32D0000D90002F0F2FDD948DA4902F002FE0AE002F08FFA41F28013C1F6FF731B78002B01D003F082FA02F0DCFCC6
S32D0000D928034683F00103DBB2002BECD1C4A1D1E9000109F079F8C84802F0D2FD4FF00100CA49CB4A02F09CFF4C
S32D0000D95041F26C50C1F6FF704EF24811C0F201010FF0C8F941F29812C1F6FF724EF25C13C0F2010314460FCBE9
S32D0000D97884E80F0002F058FA41F22C10C1F6FF70BC4903F0ADFF4FF000004FF0804109F04BF841F22C10C1F6E8
S32D0000D9A0FF70AF4903F0A0FFAF48B54902F0B0FD09F06AF803467B600AE002F039FA41F28013C1F6FF731B78BC
S32D0000D9C8002B01D003F02CFA02F086FC034683F00103DBB2002B09D009F052F802467B68D31A042B02D84FF0B4
S32D0000D9F0010301E04FF00003002BDED1984802F073FD4FF0080001F0BBFF00F0F5BD4FF000009C49984A02F03A
S32D0000DA1837FF934802F064FD0AE002F005FA41F28013C1F6FF731B78002B01D003F0F8F94FF0010002F0ACFD64
S32D0000DA40034683F00103DBB2002BEAD1844802F04BFD864802F048FD4FF000004FF07E5101F5C00108F0E4FF9B
S32D0000DA687D4802F03DFD4FF001008049804A02F007FF7B4802F034FD41F26C50C1F6FF704EF26C11C0F2010168
S32D0000DA900FF030F90AE002F0CBF941F28013C1F6FF731B78002B01D003F0BEF941F25010C1F6FF7009F03AF993
S32D0000DAB80346002B0BD041F25410C1F6FF7009F031F90346002B02D04FF0010301E04FF00003002BDBD16048E6
S32D0000DAE002F002FD4FF0090001F04AFF00F084BD41F26C50C1F6FF704EF28411C0F201010FF0F8F84FF00000A8
S32D0000DB084FF0804101F5B01108F08EFF4FF0040001F032FF00F06CBD5248594902F0F4FC41F22C10C1F6FF7082
S32D0000DB30524903F0D9FE4FF000004FF07E5101F5C00108F075FF41F22C10C1F6FF70444903F0CAFE0AE002F039
S32D0000DB586BF941F28013C1F6FF731B78002B01D003F05EF902F0B8FB034683F00103DBB2002BECD134A1D1E90A
S32D0000DB80000108F055FF364802F0AEFC4FF0050001F0F6FE00F030BD41F26C50C1F6FF704EF28401C0F201017C
S32D0000DBA80FF0A4F84FF000003649314A02F068FE354801F053FF2B48344902F0A5FC324801F04CFF0AE002F04E
S32D0000DBD02FF941F28013C1F6FF731B78002B01D003F022F902F07CFB034683F00103DBB2002B0CD04FF0000077
S32D0000DBF802F0CEFC034683F00103DBB2002B02D04FF0010301E04FF00003002BDBD110A1D1E9000108F008FF51
S32D0000DC2041F26C50C1F6FF704EF2A811C0F201010FF060F80A4802F057FC4FF0060001F09FFE00F0D9BC00BF0F
S32D0000DC489A9999999999D93F9A9999999999B93F333333333333D33F000000000000344300000CC200000C4299
S32D0000DC700000A0400000AA420000C8410000A042000090410000A642000020410000AE420000C842000030414A
S32D0000DC9841F22C10C1F6FF70DFF8141403F020FE4FF000004FF07E5101F5D00108F0BCFE41F22C10C1F6FF705E
S32D0000DCC0FE4903F011FE4FF000004FF07E5101F5A00108F0ADFE41F22C10C1F6FF70F84903F002FE4FF00A0054
S32D0000DCE801F04AFE00F084BC41F26C50C1F6FF704EF2B811C0F201010EF0F8FF41F29812C1F6FF724EF2CC13BA
S32D0000DD10C0F2010314461D460FCD0FC42B68237002F086F8E74802F0DFFB4FF000004FF07E5101F5C00108F036
S32D0000DD387BFEE14802F0D4FBDF4801F08FFE41F26C50C1F6FF704EF2E011C0F201010EF0CDFFDB4802F034FEAA
S32D0000DD60D94802F031FED748D84902F0D1FB46E041F24C50C1F6FF700EF0A4FD024641F2AC13C1F6FF739B6934
S32D0000DD884FF001010C4610461946FFF7F1FA0346002B02D14FF000031C46E3B2002B15D041F26C50C1F6FF709F
S32D0000DDB04EF2F011C0F201010EF09CFFC44802F093FBB9A1D1E9000108F032FEBC4802F08BFB14E041F26C508F
S32D0000DDD8C1F6FF704EF20021C0F201010EF086FFBA4802F07DFBAEA1D1E9000108F01CFEB14802F075FB41F249
S32D0000DE004C50C1F6FF700EF05DFD024641F2AC13C1F6FF739B6910461946FEF7E7FF03461846FFF7D9FA03462A
S32D0000DE284FF0010214461846A949FFF7A1FA0346002B02D14FF000031C46E3B2002B93D141F26C50C1F6FF702B
S32D0000DE504EF21021C0F201010EF04CFF9F4802F0B3FD9F489F4902F053FB46E041F24C50C1F6FF700EF036FD52
S32D0000DE78024641F2AC13C1F6FF73DB694FF001010C4610461946FFF773FA0346002B02D14FF000031C46E3B2AA
S32D0000DEA0002B15D041F26C50C1F6FF704EF22021C0F201010EF01EFF864802F015FB7AA1D1E9000108F0B4FD90
S32D0000DEC87D4802F00DFB14E041F26C50C1F6FF704EF23021C0F201010EF008FF7A4802F0FFFA6FA1D1E90001A2
S32D0000DEF008F09EFD724802F0F7FA41F24C50C1F6FF700EF0EFFC024641F2AC13C1F6FF73DB6910461946FEF7A5
S32D0000DF1869FF03461846FFF75BFA03464FF00102144618466A49FFF723FA0346002B02D14FF000031C46E3B2F8
S32D0000DF40002B93D14FF00B0001F01AFD54E35C4801F088FD41F24C50C1F6FF700EF0B2FC03461846FEF7B8FB91
S32D0000DF6804460D4641F24C50C1F6FF700EF0B6FC03461846FEF7ACFB02460B46CDE9002341F26C50C1F6FF707F
S32D0000DF904EF24021C0F2010122462B460EF0AAFE514802F011FD41F26C50C1F6FF704EF25821C0F201010EF076
S32D0000DFB89DFE41F29812C1F6FF724EF26823C0F2010314460FCB07C4238004F102044FEA1343237001F028FF43
S32D0000DFE03F4802F081FA4FF000004FF07E5101F5F80108F01DFD324802F076FA4FF00C0001F0BEFCF8E241F2F2
S32D0000E0086C50C1F6FF704EF27821C0F201010EF06DFE41F29812C1F6FF724EF28823C0F2010314460FCB07C46D
S32D0000E030237001F0FDFE2D4802F056FA1CA1D1E9000108F0F5FC1E4802F04EFA41F22C10C1F6FF70194903F0A1
S32D0000E05847FC4FF000004FF07E5101F5E00108F0E3FC41F22C10C1F6FF70134903F038FC124802F035FA4FF08A
S32D0000E08000004FF07E5101F5E80108F0D1FC0C4802F02AFA0A4801F0E5FC4FF00D0001F06FFCA9E2AFF30080DD
S32D0000E0A89A9999999999B93F7B14AE47E17A843F000020C2000020420000000000000CC2000034430000204030
S32D0000E0D00000C8410000C8C10000003F0000B44200000C42000050410000094300008CC141F26C50C1F6FF70CE
S32D0000E0F84EF29821C0F201010EF0F8FD41F29812C1F6FF724EF2AC23C0F2010314461D460FCD0FC42B682380EE
S32D0000E12001F086FEDE4802F04FFCDE48DE4902F0EFF90AE001F07CFE41F28013C1F6FF731B78002B01D002F00D
S32D0000E1486FFE02F0C9F8034683F00103DBB2002BECD1D44802F0C4F9CF4802F031FC41F22C10C1F6FF70D049A5
S32D0000E17003F0BAFB4FF000004FF0804108F058FC41F22C10C1F6FF70C84903F0ADFBC548C84902F0BDF90AE05D
S32D0000E19801F04AFE41F28013C1F6FF731B78002B01D002F03DFE02F097F8034683F00103DBB2002BECD1B2A16C
S32D0000E1C0D1E9000108F034FCB84802F08DF9B74801F048FC4FF0100001F0D2FB0CE241F26C50C1F6FF704EF252
S32D0000E1E8C021C0F201010EF081FD41F29812C1F6FF724EF2D423C0F2010314461D460FCD0FC42B68238001F073
S32D0000E2100FFE4FF00100A849A84A02F035FBA14802F062F908F030FC03467B600AE001F0FFFD41F28013C1F6BC
S32D0000E238FF731B78002B01D002F0F2FD4FF0010002F0A6F9034683F00103DBB2002B09D008F016FC02467B687F
S32D0000E260D31A092B02D84FF0010301E04FF00003002BDCD18D4802F037F941F2F013C1F6FF731B68B3F57F0F48
S32D0000E28806D18D488D4902F03FF98D4BFB6011E089488C4902F038F98B4BFB600AE001F0C3FD41F28013C1F686
S32D0000E2B0FF731B78002B01D002F0B6FD02F010F8034683F00103DBB2002BECD12DE041F24C50C1F6FF700EF06B
S32D0000E2D8F5FA03464FF0010214461846F968FFF747F80346002B02D14FF000031C46E3B2002B0BD06F4802F021
S32D0000E300F3F863A1D1E9000108F092FB674802F0EBF80AE06F4802F0E7F85DA1D1E9000108F086FB614802F0FD
S32D0000E328DFF841F24C50C1F6FF700EF0C7FA03461846F968FEF756FD03461846FFF748F803464FF0010214462A
S32D0000E35018466149FFF710F80346002B02D14FF000031C46E3B2002BB1D14FF00F0001F007FB41E141F26C501A
S32D0000E378C1F6FF704EF2E821C0F201010EF0B6FC01F052FD474801F069FB524802F018FB514801F063FB484869
S32D0000E3A002F0A2F808F070FB03467B600AE001F03FFD41F28013C1F6FF731B78002B01D002F032FD41F24810FB
S32D0000E3C8C1F6FF7008F0AEFC0346002B12D041F24C10C1F6FF7008F0A5FC0346002B09D008F04EFB02467B6802
S32D0000E3F0D31A042B02D84FF0010301E04FF00003002BD4D1294802F06FF8264802F06CF821A1D1E9000108F0D0
S32D0000E4180BFB244802F064F8224801F01FFB1F4802F05EF81AA1D1E9000108F0FDFA1D4802F056F841F22C1079
S32D0000E440C1F6FF701A4903F04FFA4FF000004FF0804108F0EDFA41F22C10C1F6FF70134903F042FA164802F05B
S32D0000E4683FF80BA1D1E9000108F0DEFA0D4802F037F80A48194902F047F83CE0AFF300809A9999999999C93FE0
S32D0000E4909A9999999999B93F333333333333C33F0000B44200000CC200008040000000000000A0420000804174
S32D0000E4B80000AA420000C84100000C4200003041000038410000E040333387410000C8C10000003F0000874329
S32D0000E4E00000C8420000A04001F0A2FC41F28013C1F6FF731B78002B01D002F095FC01F0EFFE034683F00103F6
S32D0000E508DBB2002BECD1564801F0EAFF4FF0100001F032FA6CE0524801F0A0FA4FF000005049514A02F0ACF911
S32D0000E530504801F0D9FF08F0A7FA03467B600AE001F076FC41F28013C1F6FF731B78002B01D002F069FC4FF03E
S32D0000E558010002F01DF8034683F00103DBB2002B09D008F08DFA02467B68D31A092B02D84FF0010301E04FF034
S32D0000E5800003002BDCD1384801F0AEFF3A4801F0ABFF33A1D1E9000108F04AFA374802F013FA4FF0110001F0CD
S32D0000E5A8EBF925E0314801F09BFF4FF0120001F0E3F91DE041F26C50C1F6FF704EF2F821C0F201010EF092FB90
S32D0000E5D041F27013C1F6FF734FF000021A700BE041F26C50C1F6FF704EF20C31C0F201010EF080FB00E000BF2A
S32D0000E5F841F27013C1F6FF731B78002B7EF403AF41F2E440C1F6FF704FF000010AF0FEF941F2E440C1F6FF7009
S32D0000E6204EF22C31C0F201010AF076FD41F26C50C1F6FF704EF23C31C0F201010EF05AFB41F26C50C1F6FF7030
S32D0000E6480EF038FB4FF00003184607F11007BD46B0BD00BFAFF30080333333333333C33F000000000000AA4253
S32D0000E6700000C84100000CC200000C420000884380B592B000AF41F26C50C1F6FF700EF043FA41F26C50C1F670
S32D0000E698FF704EF24C31C0F201010EF027FB41F2E440C1F6FF704FF000010AF09BF941F2E440C1F6FF704FF04D
S32D0000E6C001010AF0F1F941F26C50C1F6FF704EF26031C0F201010EF00DFB41F23C10C1F6FF7040F63D1109F084
S32D0000E6E8FFFB41F23C10C1F6FF704FF4FA7109F0D9FB41F23C10C1F6FF70534909F010FC41F23C10C1F6FF70FF
S32D0000E710504909F009FC41F26C50C1F6FF704EF27431C0F201010EF0E5FA4B4801F09AF941F26C50C1F6FF708D
S32D0000E7384EF29831C0F201010EF0D8FA41F28813C1F6FF73434A1A6041F28813C1F6FF731A6841F28413C1F62E
S32D0000E760FF731A6041F29413C1F6FF734FF000021A6041F28013C1F6FF734FF000021A7041F29813C1F6FF7320
S32D0000E7884EF2C032C0F2010292E80300186003F10403197041F26C50C1F6FF704EF2C831C0F201010EF0A2FA67
S32D0000E7B041F24C50C1F6FF700DF0B4FB41F26C50C1F6FF704EF2DC31C0F201010EF092FA07E041F2E040C1F609
S32D0000E7D8FF704FF0050109F0B5FA01F04DFA034683F00103DBB2002BEFD141F26C50C1F6FF704EF2F431C0F21B
S32D0000E80001010EF077FA41F27013C1F6FF734FF001021A7007F10403184600F021F807F1040241F2AC13C1F6C1
S32D0000E828FF739A420BD041F2AC13C1F6FF7319464FF04103084611461A460EF075FB07F14807BD4680BD00BFE3
S32D0000E85000000243000034420000C84200000000B0B5ADF5EE5D8CB006AF07F11803A3F1140318604FF0010319
S32D0000E87807F5EE5000F117000370DFF8D43707F5EE5101F10C010B60DFF8C43707F5EE5202F10802136007F1C0
S32D0000E8A01803A3F11403186802F04AFC41F2E440C1F6FF704FF000010AF0ACF807F5CC5303F11803A3F10403AC
S32D0000E8C81D464FF0000406E028460CF043F805F1EC0504F1FF34B4F1FF3F0CBF00230123DBB2002BF0D14EF234
S32D0000E8F07C43C0F2010307F5E85101F124011A464FF01403084611461A460EF011FB07F5CC5303F11803A3F1B6
S32D0000E91804034FF0C90200924FF0010201924FF00102029207F5E85202F1240203924FF4004204924FF45742A8
S32D0000E940C0F2FF02059218464FF001014FF001024FF001030CF070FA07F5CC5303F11803A3F1040318460CF0B6
S32D0000E96895F807F5945303F11803A3F11C031D464FF0050406E028460BF0ECFF05F1EC0504F1FF34B4F1FF3F78
S32D0000E9900CBF00230123DBB2002BF0D107F5E25303F118031A464FF0A00310464FF000011A460EF0C6FA07F59C
S32D0000E9B8E25303F118034FF041021A6003F104034FF000021A6003F104034FF000021A6003F104034FF0000249
S32D0000E9E01A6003F104034FF000021A6003F1040307F5E25303F118034FF042025A6103F118034FF000021A6096
S32D0000EA0803F104034FF000021A6003F104034FF000021A6003F104034FF000021A6003F1040307F5E25303F19E
S32D0000EA3018034FF043029A6203F12C034FF000021A6003F104034FF000021A6003F104034FF000021A6003F1DF
S32D0000EA5804034FF000021A6003F1040307F5E25303F118034FF04402DA6303F140034FF000021A6003F10403E4
S32D0000EA804FF000021A6003F104034FF000021A6003F104034FF000021A6003F1040307F5E25303F118034FF0C7
S32D0000EAA845021A6503F154034FF000021A6003F104034FF000021A6003F104034FF000021A6003F104034FF0CE
S32D0000EAD000021A6003F1040307F5E25303F118034FF046025A6603F168034FF000021A6003F104034FF00002C4
S32D0000EAF81A6003F104034FF000021A6003F104034FF000021A6003F1040307F5E25303F118034FF047029A6746
S32D0000EB2003F17C034FF000021A6003F104034FF000021A6003F104034FF000021A6003F104034FF000021A6077
S32D0000EB4803F1040307F5E25303F118034FF04802C3F88C2003F190034FF000021A6003F104034FF000021A607C
S32D0000EB7003F104034FF000021A6003F104034FF000021A6003F1040307F5945303F11803A3F11C034FF03302F7
S32D0000EB9800924FF0010201924FF00102029207F5E25202F1180203926FF07F4204924FF45742C0F2FF02059264
S32D0000EBC018464FF004014FF002024FF028030CF033F907F5D4531D464FF0000406E028460BF0BCFE05F1EC05F7
S32D0000EBE804F1FF34B4F1FF3F0CBF00230123DBB2002BF0D107F5E85303F110034FF000021A6003F104034FF036
S32D0000EC1000021A6003F104034FF000021A6003F104034FF000021A6003F104034FF000021A6003F104034EF2FD
S32D0000EC389042C0F2010207F5E85303F1100392E80300186003F10403198007F5E85303F116034FF000021A8041
S32D0000EC6003F102034FF000021A8003F102034FF000021A8003F102034FF000021A8003F102034FF000021A8036
S32D0000EC8803F102034FF000021A8003F102034FF000021A8003F1020307F5D4524FF0140300934FF001030193DB
S32D0000ECB04FF00103029307F5E85303F1100303934FF4004304934FF45743C0F2FF03059310464FF001014FF06E
S32D0000ECD801024FF0BE030CF0ABF841F2E440C1F6FF704FF45741C0F2FF0109F0EDFE41F2E440C1F6FF704EF2C1
S32D0000ED000841C0F201014FF000024FF0DE0309F0F3FE07F5EE5303F10803186807F5EE5202F10C021168FEF736
S32D0000ED286BF903461C4641F23050C1F6FF700CF0D3F9034620461946FEF756F8034607F5EE5000F108000360DD
S32D0000ED5007F5EE5101F10C010868C049FEF748F8034607F5EE5202F10C02136007F5EE5303F10803186807F5FC
S32D0000ED78EE5202F10C021168FEF7F2F9034607F5EE5000F10800036041F2E440C1F6FF7007F5EE5202F108023E
S32D0000EDA011684FF048024FF0DE0309F0EFFE4FF001031C4607F5EE5303F108031868A849FEF7BCFA0346002BCC
S32D0000EDC802D14FF000031C46E3B2002B07D041F2E040C1F6FF704FF00A0108F0B3FF07F5E85202F13C0207F53F
S32D0000EDF0E85303F1380341F2E440C1F6FF7011461A4609F095FF0346002B00F0A4854FF0000307F5EE5000F1D0
S32D0000EE1810000360E2E007F5945303F11803A3F11C0307F5EE5101F110010A684FF0EC0101FB02F2991807F579
S32D0000EE40E85303F13C031A6807F5E85000F138000368084611461A464FF000030BF0D0FE0346002B0CBF00237A
S32D0000EE680123DBB2002B00F0AD804FF0000307F5E85101F10C010B804FF0200307F5E85202F10D02137007F569
S32D0000EE90E25101F1180107F5EE5303F110031A6813464FEA83039B184FEA8303CB181B7807F5E85000F10C001F
S32D0000EEB8037007F5EE5101F110010B68002B06D14FF0410307F5E85202F10C02137007F5EE5000F11000036823
S32D0000EEE0012B06D14FF0420307F5E85101F10C010B7041F2E440C1F6FF704FF0000109F089FD41F2E440C1F684
S32D0000EF08FF704EF21841C0F201010AF001F907F5E85303F10C0341F2E440C1F6FF7019464FF000024FF007038B
S32D0000EF300AF032F841F26C50C1F6FF704EF22C41C0F201010DF0D6FE07F5E85303F10C0341F26C50C1F6FF70F9
S32D0000EF5819460DF0CBFE41F26C50C1F6FF704EF24041C0F201010DF0C1FE07F5E85202F10C02137807F5EA5226
S32D0000EF801046194602F008F807F5EA5207F11803A3F114031B6893420CD007F11803A3F114031B6819464FF0B3
S32D0000EFA84103084611461A460DF0BEFF4FF0000307F5EE5000F1170003704FF0000000F0DBFC18E007F5EE5108
S32D0000EFD001F110010B6803F1010307F5EE5202F11002136007F5EE5000F110000368072BCCBF00230123DBB2BA
S32D0000EFF8002B7FF410AF07F5E85101F13C010A6807F5E85000F13800036807F5D451084611461A464FF0000388
S32D0000F0200BF0EEFD0346002B0CBF00230123DBB2002B00F0908441F2E440C1F6FF704FF0000109F0E7FC07F505
S32D0000F048DA5303F12C031D464FF000040DE000BF000000000000803F0000204128460BF079FC05F1EC0504F11E
S32D0000F070FF34B4F1FF3F0CBF00230123DBB2002BF0D107F5E65303F138034FF000021A6003F104034FF0000276
S32D0000F0981A6003F104034FF000021A6003F104034FF000021A6003F104034FF000021A6003F104034EF2A4428D
S32D0000F0C0C0F2010207F5E65303F1380307CA03C31A8003F102034FEA12421A7007F5E85303F103034FF0000256
S32D0000F0E81A7003F101034FF000021A7003F101034FF000021A7003F101034FF000021A7003F101034FF00002EE
S32D0000F1101A7003F101034FF000021A7003F101034FF000021A7003F101034FF000021A7003F101034FF00002C5
S32D0000F1381A7003F1010307F5DA5202F12C024FF0C90300934FF0010301934FF00103029307F5E65303F138032D
S32D0000F16003934FF4004304934FF45743C0F2FF03059310464FF001014FF001024FF001030BF05AFE07F5DA530D
S32D0000F18803F12C0318460BF081FC07F5C05303F10803A3F104031A464FF4C87310464FF000011A460DF0C9FE1F
S32D0000F1B007F5C05303F10803A3F1040345F25742C0F253021A6003F104034FF000021A6003F104034FF0000245
S32D0000F1D81A6003F104034FF000021A6003F104034FF000021A6003F1040307F5C05303F10803A3F1040344F645
S32D0000F2005352C0F253025A6103F118034FF000021A6003F104034FF000021A6003F104034FF000021A6003F14F
S32D0000F22804034FF000021A6003F1040307F5C05303F10803A3F1040345F24D42C0F253029A6203F12C034FF027
S32D0000F25000021A6003F104034FF000021A6003F104034FF000021A6003F104034FF000021A6003F1040307F5FB
S32D0000F278C05303F10803A3F1040345F24972C0F25302DA6303F140034FF000021A6003F104034FF000021A60DD
S32D0000F2A003F104034FF000021A6003F104034FF000021A6003F1040307F5C05303F10803A3F1040344F6535251
S32D0000F2C8C0F24C021A6503F154034FF000021A6003F104034FF000021A6003F104034FF000021A6003F104032C
S32D0000F2F04FF000021A6003F1040307F5C05303F10803A3F1040345F24D42C0F24C025A6603F168034FF000026B
S32D0000F3181A6003F104034FF000021A6003F104034FF000021A6003F104034FF000021A6003F1040307F5C05321
S32D0000F34003F10803A3F1040345F24972C0F24C029A6703F17C034FF000021A6003F104034FF000021A6003F13A
S32D0000F36804034FF000021A6003F104034FF000021A6003F1040307F5C05303F10803A3F1040344F65352C0F2CA
S32D0000F3904202C3F88C2003F190034FF000021A6003F104034FF000021A6003F104034FF000021A6003F10403FB
S32D0000F3B84FF000021A6003F1040307F5C05303F10803A3F1040345F24D42C0F24202C3F8A02003F1A4034FF0B7
S32D0000F3E000021A6003F104034FF000021A6003F104034FF000021A6003F104034FF000021A6003F1040307F56A
S32D0000F408C05303F10803A3F1040345F24972C0F24202C3F8B42003F1B8034FF000021A6003F104034FF000020C
S32D0000F4301A6003F104034FF000021A6003F104034FF000021A6003F1040307F5C05303F10803A3F1040344F6EA
S32D0000F4585352C0F24302C3F8C82003F1CC034FF000021A6003F104034FF000021A6003F104034FF000021A605D
S32D0000F48003F104034FF000021A6003F1040307F5C05303F10803A3F1040345F24D42C0F24302C3F8DC2003F19C
S32D0000F4A8E0034FF000021A6003F104034FF000021A6003F104034FF000021A6003F104034FF000021A6003F182
S32D0000F4D0040307F5C05303F10803A3F1040345F24972C0F24302C3F8F02003F1F4034FF000021A6003F1040309
S32D0000F4F84FF000021A6003F104034FF000021A6003F104034FF000021A6003F1040307F5C05303F10803A3F122
S32D0000F520040344F65352C0F24402C3F8042103F584734FF000021A6003F104034FF000021A6003F104034FF065
S32D0000F54800021A6003F104034FF000021A6003F1040307F5C05303F10803A3F1040345F24D42C0F24402C3F846
S32D0000F570182103F58E734FF000021A6003F104034FF000021A6003F104034FF000021A6003F104034FF00002D8
S32D0000F5981A6003F1040307F5C05303F10803A3F1040345F24972C0F24402C3F82C2103F598734FF000021A6077
S32D0000F5C003F104034FF000021A6003F104034FF000021A6003F104034FF000021A6003F1040307F5C05303F1FD
S32D0000F5E80803A3F1040344F65352C0F25202C3F8402103F5A2734FF000021A6003F104034FF000021A6003F1DC
S32D0000F61004034FF000021A6003F104034FF000021A6003F1040307F5C05303F10803A3F1040345F24D42C0F238
S32D0000F6385202C3F8542103F5AC734FF000021A6003F104034FF000021A6003F104034FF000021A6003F10403E7
S32D0000F6604FF000021A6003F1040307F5C05303F10803A3F1040345F25342C0F25002C3F8682103F5B6734FF0A9
S32D0000F68800021A6003F104034FF000021A6003F104034FF000021A6003F104034FF000021A6003F1040307F5BF
S32D0000F6B0C05303F10803A3F1040345F25202C0F25302C3F87C2103F5C0734FF000021A6003F104034FF0000273
S32D0000F6D81A6003F104034FF000021A6003F104034FF000021A6003F1040307F11803A3F10C031D464FF01304B4
S32D0000F70006E028460BF02AF905F1EC0504F1FF34B4F1FF3F0CBF00230123DBB2002BF0D107F11803A3F10C0336
S32D0000F7284FF0010200924FF0010201924FF00102029207F5C05202F10802A2F1040203926FF07F4204924FF402
S32D0000F7505742C0F2FF02059218464FF005014FF004024FF028030BF067FB41F26C50C1F6FF704EF24441C0F26D
S32D0000F77801010DF0BBFA07F5E85202F13C0207F5E85303F1380341F2E440C1F6FF7011461A4609F0C9FA0346A9
S32D0000F7A0002B00F0C6804FF0000307F5EE5101F110010B60B0E007F11803A3F10C0307F5EE5000F11000026804
S32D0000F7C84FF0EC0101FB02F2991807F5E85303F13C031A6807F5E85000F138000368084611461A464FF000034B
S32D0000F7F00BF006FA0346002B0CBF00230123DBB2002B7DD007F5EE5101F110010B68132B39D007F5EE5202F13E
S32D0000F81810021368DBB2184600F0AEF84FF0000307F5EE5000F11700037041F2E440C1F6FF704FF0000109F007
S32D0000F840E9F807F5EC5303F1040318464FF0410101F0A2FB07F5EC5202F1040207F11803A3F114031B689342CD
S32D0000F86849D007F11803A3F114031B6819464FF04103084611461A460DF056FB55E041F26C50C1F6FF704EF259
S32D0000F8905841C0F201010DF02DFA41F2E440C1F6FF704FF0000109F0B5F803E000F0C0FA00F08AF907F5E85240
S32D0000F8B802F13C0207F5E85303F1380341F2E440C1F6FF7011461A4609F02EFA034683F00103DBB2002BE5D108
S32D0000F8E04FF0000307F5EE5101F117010B7041F27013C1F6FF734FF000021A7019E018E007F5EE5202F110021C
S32D0000F908136803F1010307F5EE5000F11000036007F5EE5101F110010B68132BCCBF00230123DBB2002B7FF4D4
S32D0000F93042AF07F5EE5202F117021378002B7FF41EAF41F26C50C1F6FF704EF26841C0F201010DF0CFF907F507
S32D0000F958EE5000F117000378002B7FF4D6A900BF07F11803A3F11403186807F5EC7707F5E057BD46B0BD00BFE5
S32D0000F98080B582B000AF0346FB7141F27113C1F6FF73FA791A7041F29413C1F6FF731B6803F1010241F294135A
S32D0000F9A8C1F6FF731A60FA7913464FEA83039B184FEA83034EF63452C0F201029B1841F26C50C1F6FF704EF20A
S32D0000F9D0B841C0F201011A460DF08CF9FA7913464FEA83039B184FEA83034EF63452C0F201029B1841F2981070
S32D0000F9F8C1F6FF7019460DF0A6FA07F10807BD4680BD00BF80B582B000AF0346FB71FB79002B0DD041F23C10F3
S32D0000FA20C1F6FF700D4908F07FFA41F29013C1F6FF730A4A1A600CE041F23C10C1F6FF70074908F071FA41F287
S32D0000FA489013C1F6FF73044A1A6007F10807BD4680BD00BF000002430000344290B585B000AF78607868FCF767
S32D0000FA7033FE02460B4641F26C50C1F6FF704EF2D441C0F201010DF035F94FF001031C4678684849FDF770FCDF
S32D0000FA980346002B02D14FF000031C46E3B2002B2CD041F25810C1F6FF7007F03BF90346002B06D041F22C10F4
S32D0000FAC0C1F6FF703C4901F00FFF06F0DDFF0346FB6000BF41F25810C1F6FF7007F026F90346002B09D006F01F
S32D0000FAE8CFFF0246FB68D31A092B02D84FF0010301E04FF00003002BE8D142E04FF001031C4678682B49FDF723
S32D0000FB1015FC0346002B02D14FF000031C46E3B2002B32D041F25C10C1F6FF7007F0FEF80346002B06D041F2DA
S32D0000FB382C10C1F6FF701E4901F0D2FE41F22C10C1F6FF701C4901F0CBFE06F099FF0346BB6000BF41F25C1011
S32D0000FB60C1F6FF7007F0E2F80346002B09D006F08BFF0246BB68D31A092B02D84FF0010301E04FF00003002BBC
S32D0000FB88E8D141F26C50C1F6FF704EF2F841C0F201010DF0ABF841F22C10C1F6FF70074901F09EFE07F114072F
S32D0000FBB0BD4690BD0000BE420000A0420000A0400000A0C20000000090B583B000AF41F26010C1F6FF7007F0CC
S32D0000FBD83FFD03464FF00102144618462449FDF7C7FB0346002B02D14FF000031C46E3B2002B03D04FF000039D
S32D0000FC007B6025E041F26010C1F6FF7007F024FD03461846FCF760FD02460B464FF001010C461046194612A388
S32D0000FC28D3E90023FDF738F80346002B02D14FF000031C46E3B2002B03D04FF0FF037B6002E04FF47F037B608F
S32D0000FC5041F2E440C1F6FF70796808F0DBFE7B68184607F10C07BD4690BD00BFAFF30080333333333333F33F76
S32D0000FC7800000040AFF3008080B582B000AF4FF00103FB7141F25010C1F6FF7007F04AF8034683F00103DBB2F8
S32D0000FCA0002B11D041F2E440C1F6FF704EF20C51C0F201014FF000024FF0000309F06CF94FF00003FB710DE0E0
S32D0000FCC841F2E440C1F6FF704EF22451C0F201014FF000024FF0000309F05AF941F25410C1F6FF7007F01EF88F
S32D0000FCF0034683F00103DBB2002B11D041F2E440C1F6FF704EF23C51C0F201014FF001024FF0000309F040F9D9
S32D0000FD184FF00003FB710DE041F2E440C1F6FF704EF22451C0F201014FF001024FF0000309F02EF941F248100D
S32D0000FD40C1F6FF7006F0F2FF034683F00103DBB2002B11D041F2E440C1F6FF704EF20C51C0F201014FF002021E
S32D0000FD684FF0000309F014F94FF00003FB710DE041F2E440C1F6FF704EF22451C0F201014FF002024FF000031F
S32D0000FD9009F002F941F24C10C1F6FF7006F0C6FF034683F00103DBB2002B11D041F2E440C1F6FF704EF20C516E
S32D0000FDB8C0F201014FF003024FF0000309F0E8F84FF00003FB710DE041F2E440C1F6FF704EF22451C0F2010189
S32D0000FDE04FF003024FF0000309F0D6F8FFF7ECFE0346002B0CBF00230123DBB2002B10D041F2E440C1F6FF702D
S32D0000FE084EF25451C0F201014FF004024FF0000309F0BEF84FF00003FB71FB79184607F10807BD4680BD00BF77
S32D0000FE3080B500AF41F25010C1F6FF7006F076FF034683F00103DBB2002B0AD041F2E440C1F6FF704EF6906198
S32D0000FE58C0F2900108F038FE09E041F2E440C1F6FF704AF6A911C0F2A90108F02DFE41F2E440C1F6FF704FF070
S32D0000FE800F014FF0DC024FF00A0309F065FF41F25410C1F6FF7006F049FF034683F00103DBB2002B0AD041F2FE
S32D0000FEA8E440C1F6FF704EF69061C0F2900108F00BFE09E041F2E440C1F6FF704AF6A911C0F2A90108F000FEB7
S32D0000FED041F2E440C1F6FF7040F231114FF0DC024FF00A0309F038FF41F24810C1F6FF7006F01CFF034683F0FC
S32D0000FEF80103DBB2002B0AD041F2E440C1F6FF704EF69061C0F2900108F0DEFD09E041F2E440C1F6FF704AF6D8
S32D0000FF20A911C0F2A90108F0D3FD41F2E440C1F6FF704FF00F014FF00A024FF00A0309F00BFF41F24C10C1F629
S32D0000FF48FF7006F0EFFE034683F00103DBB2002B0AD041F2E440C1F6FF704EF69061C0F2900108F0B1FD09E063
S32D0000FF7041F2E440C1F6FF704AF6A911C0F2A90108F0A6FD41F2E440C1F6FF7040F231114FF00A024FF00A036D
S32D0000FF9809F0DEFE41F2E440C1F6FF706FF07F4108F092FD41F2E440C1F6FF704EF26C51C0F201014FF00302D1
S32D0000FFC04FF0000308F0E8FF41F2E440C1F6FF704EF28851C0F201014FF004024FF0000308F0DAFF41F24C5081
S32D0000FFE8C1F6FF700CF06AFC03461846FDF7CAF9034641F2E440C1F6FF7019464FF003024FF0070308F0E4FF78
S32D0001001041F24C50C1F6FF700CF064FC03461846FDF7B4F9034641F2E440C1F6FF7019464FF003024FF00D0370
S32D0001003808F0CEFF41F24C50C1F6FF700CF05EFC03461846FDF79EF9034641F2E440C1F6FF7019464FF00302EE
S32D000100604FF0150308F0B8FF41F2E440C1F6FF704EF2A451C0F201014FF005024FF0000308F08AFF41F2841332
S32D00010088C1F6FF731B6841F2E440C1F6FF7019464FF005024FF0050308F0BAFF41F23410C1F6FF7007F09AFA5B
S32D000100B0034641F2E440C1F6FF7019464FF005024FF0120308F088FF41F2E440C1F6FF704EF2B851C0F2010169
S32D000100D84FF006024FF0000308F05AFF41F28813C1F6FF731B6841F2E440C1F6FF7019464FF006024FF005033B
S32D0001010008F08AFF41F23810C1F6FF7007F06AFA034641F2E440C1F6FF7019464FF006024FF0120308F058FF44
S32D0001012841F2E440C1F6FF704EF2CC51C0F201014FF007024FF0000308F02AFF41F28C13C1F6FF731B6841F2BE
S32D00010150E440C1F6FF7019464FF007024FF0060308F05AFF41F2E440C1F6FF704EF2E051C0F201014FF008020B
S32D000101784FF0000308F00CFF41F29013C1F6FF731B6841F2E440C1F6FF7019464FF008024FF0060308F03CFFF1
S32D000101A041F2E440C1F6FF704EF2F451C0F201014FF009024FF0000308F0EEFE41F2E440C1F6FF7041F29811B1
S32D000101C8C1F6FF714FF009024FF0050308F0E0FE41F2E440C1F6FF704EF20861C0F201014FF00A024FF0000313
S32D000101F008F0D2FE41F26010C1F6FF7007F02CFA034641F2E440C1F6FF7019464FF00A024FF0060308F000FF83
S32D0001021841F2E440C1F6FF704EF22061C0F201014FF00B024FF0000308F0B2FE41F26C10C1F6FF7007F00CFABD
S32D00010240034641F2E440C1F6FF7019464FF00B024FF0040308F0E0FE41F26810C1F6FF7007F0FAF9034641F2CB
S32D00010268E440C1F6FF7019464FF00B024FF00B0308F0CEFE41F26410C1F6FF7007F0E8F9034641F2E440C1F665
S32D00010290FF7019464FF00B024FF0120308F0BCFE41F2E440C1F6FF704EF23C61C0F201014FF00B024FF00A0379
S32D000102B808F06EFE41F2E440C1F6FF704EF23C61C0F201014FF00B024FF0110308F060FE80BD00BF00000000B4
S32D000102E0F8B500AF41F23410C1F6FF7007F07AF9044600F0F9FD0346E41841F23810C1F6FF7007F06FF90346CE
S32D00010308E41800F095FD0346E2184DF24F13C1F6C21383FB02134FEAA3114FEAE273CB1A1846FCF7C3F9024690
S32D000103300B461046194616A3D3E90023FCF720FA02460B4614461D4641F27413C1F6FF731B681846FCF7C0F92D
S32D0001035802460B46104619460DA3D3E90023FCF70BFA02460B464FF001010E4620462946FCF792FC0346002BA9
S32D0001038002D14FF000031E46F3B21846F8BD00BF5E3855297A6A1F40666666666666EE3F80B586B000AF786084
S32D000103A839603868FCF794F902460B461046194645A3D3E90023FCF7DFF902460B4610461946FCF7BBFC03464C
S32D000103D03B6041F28413C1F6FF731B6878681946FCF704FD034618463D49FCF7BDFE03463B6141F28813C1F675
S32D000103F8FF731B6838681946FCF7F4FC034618463549FCF7ADFE0346FB604FF000037B6142E041F28413C1F6D7
S32D00010420FF731B6818463969FCF7E2FC03461A4641F28413C1F6FF731A6041F28813C1F6FF731B681846F96898
S32D00010448FCF7D2FC03461A4641F28813C1F6FF731A6041F28413C1F6FF731B6883F0004341F22410C1F6FF70F1
S32D00010470194601F039FA41F28813C1F6FF731B6841F21C10C1F6FF70194601F02DFA12A1D1E9000106F0CCFA3A
S32D000104987B6903F101037B617B69092BCCBF00230123DBB2002BB4D141F28413C1F6FF737A681A6041F2881339
S32D000104C0C1F6FF733A681A6007F11807BD4680BD6891ED7C3F35F03F7B14AE47E17A843F00002041AFF3008047
S32D000104E880B582B000AF786078687968FFF754FF41F28013C1F6FF734FF001021A7007F10807BD4680BD00BF2C
S32D00010510B0B584B002AF7860396041F23410C1F6FF7007F073F841F23810C1F6FF7007F06DF838681749FCF712
S32D0001053863FD03461A4641F27413C1F6FF731A607868FFF7CDFF41F28013C1F6FF734FF001021A707868FCF7FE
S32D00010560BBF804460D463868FCF7B6F802460B46CDE9002341F26C50C1F6FF704EF24061C0F2010122462B46E6
S32D000105880CF0B4FB07F10807BD46B0BD0000C03F80B584B000AF0346FB714FF00003FB73FB79002B02D0012B09
S32D000105B07ED0FAE041F24810C1F6FF7006F0B6FB034683F00103DBB2002B0ED041F24C10C1F6FF7006F0AAFBF6
S32D000105D8034683F00103DBB2002B02D04FF0010301E04FF00003FB7341F24810C1F6FF7006F098FB034683F0E0
S32D000106000103DBB2002B0ED041F28813C1F6FF731B6818466F49FCF787FE0346002B02D14FF0010301E04FF07F
S32D000106280003002B0FD041F26C50C1F6FF704EF26861C0F201010CF059FB41F21C10C1F6FF7001F0FDF841F2D6
S32D000106504C10C1F6FF7006F069FB034683F00103DBB2002B0ED041F28413C1F6FF731B6818465849FCF758FE8B
S32D000106780346002B02D14FF0010301E04FF00003002B00F0998041F26C50C1F6FF704EF2B461C0F201010CF058
S32D000106A029FB41F22410C1F6FF7001F0CDF887E041F25010C1F6FF7006F038FB034683F00103DBB2002B0ED025
S32D000106C841F25410C1F6FF7006F02CFB034683F00103DBB2002B02D04FF0010301E04FF00003FB7341F2501078
S32D000106F0C1F6FF7006F01AFB034683F00103DBB2002B0ED041F28813C1F6FF731B6818463049FCF709FE0346C0
S32D00010718002B02D14FF0010301E04FF00003002B0FD041F26C50C1F6FF704EF20071C0F201010CF0DBFA41F2C6
S32D000107401C10C1F6FF7001F07FF841F25410C1F6FF7006F0EBFA034683F00103DBB2002B0ED041F28413C1F661
S32D00010768FF731B6818461949FCF7DAFD0346002B02D14FF0010301E04FF00003002B1DD041F26C50C1F6FF7009
S32D000107904EF24C71C0F201010CF0ACFA41F22410C1F6FF7001F050F80CE041F26C50C1F6FF704EF29C71C0F221
S32D000107B801010CF09BFA02E000BF00E000BFFB7B184607F11007BD4680BD00BF0000000090B587B002AF0346E7
S32D000107E03960FB71FB79002B02D04FF0010301E04FF0FF33FB60FB79002B02D04FF0FF3301E04FF00103BB6063
S32D00010808F868FCF7A5FB034618463968FCF7F4FB03461C46B868FCF79BFB034618463968FCF7EAFB0346204681
S32D000108301946FFF7B5FD41F28013C1F6FF734FF000021A70FB79002B04D04EF2DC74C0F2010403E04EF2E474A3
S32D00010858C0F201043868FBF73BFF02460B46CDE9002341F26C50C1F6FF704EF2EC71C0F2010122460CF03AFA7E
S32D0001088007F11407BD4690BD2DE9F04387B000AF0346B9607A60FB7341F23810C1F6FF7006F0B4FE41F234104D
S32D000108A8C1F6FF7006F0AEFE434B7B61B868FBF70FFF02460B4641F26C50C1F6FF704EF60401C0F201010CF028
S32D000108D011FAFB7B18467968FFF77EFF00BF41F23810C1F6FF7006F07DFE044641F23410C1F6FF7006F076FEA4
S32D000108F80346E41800F09CFA0346E3184FEAD372D3184FEA63031846FBF7D0FE02460B461046194622A3D3E9CD
S32D000109200023FBF72DFF02460B4614461D46B868FBF7D2FE02460B46104619461CA3D3E90023FBF71DFF0246ED
S32D000109480B46104619461AA3D3E90023FCF73EF802460B46904699467869FBF7B9FE02460B4640464946FBF73D
S32D0001097007FF02460B464FF001010E4620462946FCF770F90346002B02D14FF000031E46F3B2002BA3D10B486F
S32D00010998FFF7A6FD07F11C07BD46BDE8F08300BF2005C771724A993F182D4454FB210940000000000080664049
S32D000109C00000904000000000B0B58AB002AF786041F24C50C1F6FF700BF094FF0346FB61F8697968FCF702FAB7
S32D000109E803467B617868F969FCF7FCF903463B611FE041F2E040C1F6FF704FF0050107F0A1F941F24C50C1F6D8
S32D00010A10FF700BF077FF0346FB6141F26C50C1F6FF704EF62001C0F201010CF063F94FF00000B949B94AFFF772
S32D00010A3827FF4FF001031C46F869B749FCF77AFC0346002B02D14FF000031C46E3B2002BCFD1F869FBF73CFE22
S32D00010A6004460D467868FBF737FE02460B46CDE9002341F26C50C1F6FF704EF64C01C0F2010122462B460CF022
S32D00010A8835F94FF001031C467869A349FCF770FC0346002B02D14FF000031C46E3B2002B01D07B6912E078690D
S32D00010AB0FBF712FE02460B461046194694A3D3E90023FBF7ABFC02460B4610461946FCF739F903467B614FF041
S32D00010AD801031C4638699049FCF74AFC0346002B02D14FF000031C46E3B2002B01D03B6912E03869FBF7ECFD48
S32D00010B0002460B461046194681A3D3E90023FBF785FC02460B4610461946FCF713F903463B614FF001031C462B
S32D00010B2838697969FCF706FC0346002B02D14FF000031C46E3B2002B03D04FF00103FB7602E04FF00003FB765F
S32D00010B50FB7E002B01D03B6900E07B69FA7E10461946704AFFF790FE41F26C50C1F6FF704EF67401C0F20101AC
S32D00010B780CF0BCF80EE141F24C50C1F6FF700BF0BDFE03464FF00102144618466249FCF7E5FB0346002B02D1FC
S32D00010BA04FF000031C46E3B2002B12D041F26C50C1F6FF704EF69001C0F201010CF09AF841F24C50C1F6FF70BF
S32D00010BC80BF09CFE0346FB6109E041F26C50C1F6FF704EF6A401C0F201010CF087F8FFF723F9F8697968FCF767
S32D00010BF0FDF803461846FCF7EFFB03461846FBF76BFD04460D46F869FBF766FD02460B46CDE9002341F26C50A8
S32D00010C18C1F6FF704EF6B801C0F2010122462B460CF064F8F8697968FCF7DCF803467B617868F969FCF7D6F874
S32D00010C4003463B614FF001031C4678693449FCF793FB0346002B02D14FF000031C46E3B2002B01D07B6912E0CA
S32D00010C687869FBF735FD02460B461046194626A3D3E90023FBF7CEFB02460B4610461946FCF75CF803467B61ED
S32D00010C904FF001031C4638692149FCF76DFB0346002B02D14FF000031C46E3B2002B01D03B6912E03869FBF785
S32D00010CB80FFD02460B461046194613A3D3E90023FBF7A8FB02460B4610461946FCF736F803463B614FF00103F2
S32D00010CE01C4638697969FCF729FB0346002B02D14FF000031C46E3B2002B17D04FF00103FB76F8690849FCF7FE
S32D00010D0873F80346FB6116E000000000008076400000004000007041000000000000C8410000803F4FF0000385
S32D00010D30FB76F8693749FCF759F80346FB6141F24C50C1F6FF700BF0DDFD034618467968FCF74CF80346184629
S32D00010D58FCF73EFB034618462D49FCF701FA0346FB604FF001031C46F8682949FCF7E2FA0346002B02D14FF0C5
S32D00010D8000031C46E3B2002B01D0234B00E0FB68FA7E10461946214AFFF776FD41F24C50C1F6FF700BF0AEFD01
S32D00010DA8034618467968FCF71DF803461846FCF70FFB03464FF00102144618461649FCF7D7FA0346002B02D13B
S32D00010DD04FF000031C46E3B2002B7FF4D0AE41F24C50C1F6FF700BF08DFD03461846FBF773FC02460B4641F251
S32D00010DF86C50C1F6FF704EF6D001C0F201010BF075FF07F12007BD46B0BD00BF0000803F0000004000007041B4
S32D00010E200000C03FAFF3008080B400AFBD4680BC704700BF00000000B0B582B000AF41F28813C1F6FF731B682A
S32D00010E481846FCF7C5FA03467B607868FBF740FC02460B46104619461DA3D3E90023FBF78BFC02460B461446E0
S32D00010E701D467868FBF730FC02460B4620462946FBF77EFC02460B4614461D467868FBF723FC02460B462046D2
S32D00010E982946FBF7BFFA02460B46104619460EA3D3E90023FBF7B4FA02460B4610461946FBF7FCFE03463B6075
S32D00010EC03B6823EAE3733B603B68184607F10807BD46B0BDAFF30080F5D896016729793F75931804560E06404E
S32D00010EE8B0B582B000AF41F28413C1F6FF731B681846FCF76DFA03467B607868FBF7E8FB02460B461046194640
S32D00010F101DA3D3E90023FBF733FC02460B4614461D467868FBF7D8FB02460B4620462946FBF726FC02460B46DC
S32D00010F3814461D467868FBF7CBFB02460B4620462946FBF767FA02460B46104619460EA3D3E90023FBF75CFA4E
S32D00010F6002460B4610461946FBF7A4FE03463B603B6823EAE3733B603B68184607F10807BD46B0BDAFF3008061
S32D00010F88F5D896016729793F75931804560E064080B592B000AF78600B46FB707B68184600F016F97B6803F1EF
S32D00010FB00803184600F010F97B6803F11003184600F00AF97B6803F11803184600F004F97B6803F120031846E0
S32D00010FD800F0FEF87B6803F12803184600F0F8F87B6803F13003184600F0F2F87B6803F13803184600F0ECF83E
S32D000110007B68FA7883F8402007F1080318464049404A00F0CDF87B6807F1080292E8030083E8030007F110038D
S32D0001102818463B493B4A00F0BFF87B6803F1080307F1100292E8030083E8030007F1180318463549354A00F056
S32D00011050AFF87B6803F1100307F1180292E8030083E8030007F1200318462F492F4A00F09FF87B6803F1180300
S32D0001107807F1200292E8030083E8030007F1280318462349284A00F08FF87B6803F1200307F1280292E80300D5
S32D000110A083E8030007F1300318462249224A00F07FF87B6803F1280307F1300292E8030083E8030007F13803A2
S32D000110C8184612491B4A00F06FF87B6803F1300307F1380292E8030083E8030007F1400318460A490B4A00F02C
S32D000110F05FF87B6803F1380307F1400292E8030083E803007B68184607F14807BD4680BD0000EC410000984175
S32D0001111800004041000034420000C841CDCC58429A9999419A994B42000078410000C0400000D8410000A041F5
S32D0001114080B582B000AF78607B68184600F044F87B6803F10803184600F03EF87B6803F11003184600F038F857
S32D000111687B6803F11803184600F032F87B6803F12003184600F02CF87B6803F12803184600F026F87B6803F13D
S32D000111903003184600F020F87B6803F13803184600F01AF87B68184607F10807BD4680BD80B485B000AFF8602D
S32D000111B8B9607A60FB68BA681A60FB687A685A60FB68184607F11407BD4680BC704700BF80B483B000AF7860A0
S32D000111E07B68184607F10C07BD4680BC704700BF80B582B000AF786039607B68012B40F095803A684FF6FF73AB
S32D000112089A4240F08F8041F21C10C1F6FF704FF00001464A00F0BCFA41F22410C1F6FF704FF00101414A00F058
S32D00011230B3FA41F22C10C1F6FF704FF002013E4A00F0AAFA41F23410C1F6FF704FF0060105F010FE41F238108E
S32D00011258C1F6FF704FF0070105F008FE41F23C10C1F6FF704FF0000106F0FEFD41F24810C1F6FF704FF01F0119
S32D0001128005F030FC41F24C10C1F6FF704FF0000105F028FC41F25010C1F6FF704FF01E0105F020FC41F2541051
S32D000112A8C1F6FF704FF0010105F018FC41F25810C1F6FF704FF0080105F010FC41F25C10C1F6FF704FF009018F
S32D000112D005F008FC41F26010C1F6FF704FF00F0106F0A8F941F26410C1F6FF704FF0130106F0A0F941F26810ED
S32D000112F8C1F6FF704FF0110106F098F941F26C10C1F6FF704FF0100106F090F941F27810C1F6FF70FFF75CFFF3
S32D0001132041F2AC10C1F6FF70FFF70AFF07F10807BD4680BD000040410000A04080B500AF4FF001004FF6FF7109
S32D00011348FFF752FF80BD00BF80B500AF41F6E812C1F6FF7241F21C13C1F6FF73D31A194641F21C13C1F6FF7394
S32D000113701A460B4610464FF000011A460BF0E1FD80BD00BF0CF056FE00F0B0F9FFF7E0FF0CF028FE0CF0C4FD35
S32D000113980CF05CFE00F00CF84FF0000041F2F411C1F6FF71FCF724F8034618460BF0A0FD80B500AF4FF4E043A6
S32D000113C0C4F204034FF4E042C4F2040202F5805202F13802126842F4785203F5805303F138031A6000F02EF925
S32D000113E800F094F841F23043C1F6FF734FF058021A6041F23043C1F6FF731B684FF47A7202FB03F241F22C4363
S32D00011410C1F6FF731A6041F22C43C1F6FF731B681A464FF4E043C4F2040303F5825303F104031B6803F0706328
S32D000114384FEA136303F10103B2FBF3F31A4641F23443C1F6FF731A604FF4E043C4F204034FF4E042C4F204025A
S32D0001146002F5805202F13C02126842F0225203F5805303F13C031A604FF4E043C4F204034FF4E042C4F2040287
S32D0001148802F5805202F13002126842F0006203F5805303F130031A604FF45043C4F203034FF480721A614FF04C
S32D000114B0640005F037F94FF45043C4F203034FF45042C4F20302526922F010025A614FF45043C4F203034FF0F7
S32D000114D800021A604FF45043C4F203034FF010025A6106F0E7F906F08FFA41F22840C1F6FF7005F097F941F2FD
S32D00011500E440C1F6FF7007F0D3F841F2883005F075FA80BD80B400AF4FF48043C4F206034FF000025A704FF42E
S32D000115288043C4F206034FF098021A704FF48043C4F206039B79DBB203F01003002B0CBF00230123DBB2002B4E
S32D00011550F0D14FF48043C4F206039B79DBB203F00C034FEA9303022B0CBF00230123DBB2002BEED14FF48043B8
S32D00011578C4F206034FF018021A714FF48043C4F206034FF000025A714FF4E043C4F2040303F5825303F10403E5
S32D000115A04FF00002C0F213121A604FF48043C4F206034FF054025A7100BF4FF48043C4F206039B79DBB203F04D
S32D000115C82003002B14BF00230123DBB2002BF0D100BF4FF48043C4F206039B79DBB203F04003002B14BF002397
S32D000115F00123DBB2002BF0D14FF48043C4F206034FF48042C4F206021278D2B202F03F02D2B21A704FF4804352
S32D00011618C4F206039B79DBB203F00C034FEA9303032B0CBF00230123DBB2002BEED14FF000031846BD4680BCDC
S32D00011640704700BF80B400AF4FF44043C4F204034FF480725A634FF2C003C4F20F034FF2C002C4F20F0252695C
S32D0001166842F400525A614FF2C003C4F20F034FF2C002C4F20F02126842F400521A604FF44043C4F2040340F249
S32D000116900312C0F20A021A634FF46143CEF200034FF46142CEF20002D2F8882142F08062C3F888214FF46143B7
S32D000116B8CEF200034FF46142CEF20002926842F080629A60BD4680BC704700BF80B483B000AF7860FEE700BF49
S32D000116E080B400AF00BEBD4680BC704780B400AF4FF0E0224CF20003C0F20003C2F8083D4FF40053C4F20503D7
S32D000117084CF22052DA814FF40053C4F205034DF62812DA814FF40053C4F205034FF0D2021A80BD4680BC704784
S32D0001173080B500AF4FF44043C4F20403D3F8A03003F48053002B0CBF00230123DBB2002B1FD04FF44043C4F25E
S32D0001175804034FF44042C4F20402D2F8A02022F48052C3F8A02041F26C50C1F6FF700BF0A1FA4FF2C003C4F288
S32D000117800F034FF2C002C4F20F02126822F400521A6080BD0000000090B585B000AFF8600B467A60FB72FB6849
S32D000117A8FA7A1A71FB684FF000025A714FF001031C4678682049FBF7DBFD0346002B02D14FF000031C46E3B26C
S32D000117D0002B02D01A4B7B6011E04FF001031C4678681849FBF7B4FD0346002B02D14FF000031C46E3B2002B88
S32D000117F801D0124B7B607868FAF76AFF02460B46104619460AA3D3E90023FAF7B5FF02460B4610461946FBF7C0
S32D0001182091FA0246FB681A60FB68184607F11407BD4690BDAFF30080ABAAAAAAAAAA2040000040410000803F06
S32D0001184880B582B000AF78607B685B79002B10D07B684FF000025A717B681B7941F22840C1F6FF7019464FF0FC
S32D0001187000024FF01E0305F023F807F10807BD4680BD00BF80B584B000AF786039603B687F2B03DD4FF07F035A
S32D00011898FB7309E03B6813F1800F03DA4FF08003FB7301E03B68FB737B685B79FA7B9A420FD07B68FA7B5A718B
S32D000118C07B681A79FB7B41F22840C1F6FF7011461A464FF01E0304F0F3FF07F11007BD4680BD00BF0000000041
S32D000118E8B0B584B000AF786039604FF001031C4638684D49FBF71EFD0346002B02D14FF000031C46E3B2002B85
S32D0001191002D0474B3B6011E04FF001031C4638684449FBF729FD0346002B02D14FF000031C46E3B2002B01D052
S32D000119383E4B3B603868FAF7CBFE04460D467B681B681846FAF7C4FE02460B46104619464FF000024FF080435D
S32D0001196003F5B203FBF736F802460B4620462946FAF706FF02460B4610461946FBF7E2F903463B604FF00103E5
S32D000119881C4638682A49FBF7E9FC0346002B02D14FF000031C46E3B2002B14D03868FAF797FE02460B46104640
S32D000119B019461DA3D3E90023FAF7E2FE02460B4610461946FBF776F90346FB6022E03868FAF782FE02460B463A
S32D000119D8104619464FF000024FF0804303F5C003FAF7CAFE02460B46104619464FF000024FF0804303F5B20336
S32D00011A00FAF7E8FF02460B4610461946FBF752F90346FB607868F968FFF734FF07F11007BD46B0BDAFF30080A5
S32D00011A2852B81E85EB51F43F0000C8C20000C84200000000AFF3008080B485B000AF02460B46FA71BB71BB7941
S32D00011A50002B07D141F2F813C1F6FF734FF000021A7006E041F2F813C1F6FF734FF001021A704FF03803FB7331
S32D00011A7841F2F813C1F6FF731A78FB7B1343FB734FF4C043C4F206034FF4C042C4F206029278D2B242F0100232
S32D00011AA0D2B29A704FF4C043C4F206034FF4C042C4F206029278D2B242F02002D2B29A704FF4C043C4F206030C
S32D00011AC8FA7B1A7107F11407BD4680BC704700BF80B483B000AF4FF001037B6004E000BF7B6803F101037B609A
S32D00011AF07B68312BCCBF00230123DBB2002BF2D107F10C07BD4680BC704700BF80B582B000AF02460B46FA7161
S32D00011B18BB7141F2F913C1F6FF731B7818464FF00001FFF789FF4FF4C043C4F20603DB78DBB203F00203002B53
S32D00011B4014BF00230123DBB2002BF0D14FF4C043C4F206034FF4C042C4F20602D278D2B242F00202D2B2DA7009
S32D00011B684FF4C043C4F20603FA791A714FF4C043C4F20603DB78DBB203F00203002B14BF00230123DBB2002B71
S32D00011B90F0D14FF4C043C4F206034FF4C042C4F20602D278D2B242F00202D2B2DA704FF4C043C4F20603BA7953
S32D00011BB81A714FF4C043C4F20603DB78DBB203F00203002B14BF00230123DBB2002BF0D14FF4C043C4F20603D3
S32D00011BE04FF4C042C4F20602D278D2B242F00202D2B2DA704FF4C043C4F206034FF4C042C4F206029278D2B26B
S32D00011C0822F02002D2B29A704FF4C043C4F206034FF4C042C4F206029278D2B222F01002D2B29A70FFF754FF5A
S32D00011C3007F10807BD4680BD80B582B000AF0346FB71FB79184600F06BF807F10807BD4680BD00BF80B582B0E1
S32D00011C5800AF02460B46FA71BB7100F039F8FB794FEA4303DBB21846FFF7E2FFBB791846FFF7DEFF00F03EF81D
S32D00011C8007F10807BD4680BD80B500AF4FF0FF0000F046F80346184680BD00BF80B584B000AF0346FB7100F03E
S32D00011CA817F8FB794FEA4303DBB243F00103DBB2DBB21846FFF7BCFFFFF7E2FF0346FB7300F018F8FB7B1846BC
S32D00011CD007F11007BD4680BD80B400AF4FF24003C4F20F034FF24002C4F20F02926842F480129A60BD4680BC22
S32D00011CF8704700BF80B400AF4FF24003C4F20F034FF24002C4F20F02526842F480125A60BD4680BC704700BFDD
S32D00011D2080B485B000AF0346FB714FF00003BB7303E0FB7B03F10103FB734FF44043C4F20A03DB6A4FF0000388
S32D00011D48002BF2D14FF44043C4F20A034FF44042C4F20A02D26A42F00042DA624FF44043C4F20A03FA795A63C9
S32D00011D7000BF4FF44043C4F20A03DB6A03F40033002B14BF00230123DBB2002BF1D14FF44043C4F20A039B6B3F
S32D00011D98BB73BB7B184607F11407BD4680BC704780B582B000AF4FF4E043C4F204034FF4E042C4F2040202F500
S32D00011DC0805202F13002126842F4805203F5805303F130031A604FF42043C4F204034FF480721A654FF2400374
S32D00011DE8C4F20F034FF24002C4F20F02526942F480125A61FFF77EFF4FF42043C4F204034FF400725A654FF4EF
S32D00011E102043C4F204034FF400729A654FF42043C4F204034FF40072DA654FF44043C4F20A034FF44062C8F250
S32D00011E3800021A604FF44043C4F20A034FF00502C3F60062DA604FF000037B6007E04FF0FF00FFF7EDFE7B68D5
S32D00011E6003F101037B607B68092BCCBF00230123DBB2002BEFD104A1D1E9000104F0D8FD07F10807BD4680BDAF
S32D00011E889A9999999999B93F90B486B000AFF860B9607A60FA684FF42043C4F206039A4214D14FF4E043C4F284
S32D00011EB004034FF4E042C4F2040202F5805202F13402126842F4806203F5805303F134031A6083E0FA684FF4DF
S32D00011ED83043C4F206039A4214D14FF4E043C4F204034FF4E042C4F2040202F5805202F13402126842F40062A0
S32D00011F0003F5805303F134031A6067E0FA684FF44043C4F206039A4214D14FF4E043C4F204034FF4E042C4F215
S32D00011F28040202F5805202F13402126842F4805203F5805303F134031A604BE0FA684FF45043C4F206039A42A2
S32D00011F5014D14FF4E043C4F204034FF4E042C4F2040202F5805202F13402126842F4005203F5805303F134034F
S32D00011F781A602FE0FA684FF42043C4F20E039A4214D14FF4E043C4F204034FF4E042C4F2040202F5805202F121
S32D00011FA02802126842F4806203F5805303F128031A6013E04FF4E043C4F204034FF4E042C4F2040202F58052F2
S32D00011FC802F12802126842F4006203F5805303F128031A60FB68DB78DBB223F00C03DAB2FB68DA70FB684FF017
S32D00011FF000029A70BB684FF47A7202FB03F27B684FEA031392FBF3F39CB2FB681B78DBB223F01F03FB752346EE
S32D0001201803F4F8534FEA2323DBB203F01F03DAB2FB7D1343DAB2FB681A70E2B2FB685A70BB684FF4FA4202FB03
S32D0001204003F27B684FEA031392FBF3F39AB2234619464FEAC121CB1A4FEA43139BB2D3189CB2FB689B7ADBB2A9
S32D0001206823F01F03FB75E3B203F01F03DAB2FB7D1343DAB2FB689A72FB68DB78DBB243F00C03DAB2FB68DA70E7
S32D0001209007F11807BD4690BC704700BF80B483B000AF786000BF7B681B79DBB203F02003002B14BF0023012339
S32D000120B8DBB2002BF3D17B68DB79DBB2184607F10C07BD4680BC704780B483B000AF78600B46FB7000BF7B680E
S32D000120E01B79DBB2DBB26FEA0303DBB24FEAD313DBB2002BF3D17B68FA78DA7107F10C07BD4680BC704700BF3C
S32D0001210880B487B000AFF860B9607A60FB687B61BB683B610BE03B691A787B691A707B6903F101037B613B695A
S32D0001213003F101033B617B68002B0CBF00230123DBB27A6802F1FF327A60002BE7D107F11C07BD4680BC70476B
S32D0001215880B487B000AFF860B9607A60FB687B6107E0BB68DAB27B691A707B6903F101037B617B68002B0CBF1F
S32D0001218000230123DBB27A6802F1FF327A60002BEBD107F11C07BD4680BC704780B489B000AFF860B9607A601D
S32D000121A8FB68FB61BB68BB614FF000037B617B68002B0CBF00230123DBB27A6802F1FF327A60002B19D0FB69E7
S32D000121D01B781A46BB691B78D31A7B617B69002B14BF00230123DBB2FA6902F10102FA61BA6902F10102BA61CF
S32D000121F8002B02D04FF0010301E04FF00003002BD5D17B69184607F12407BD4680BC704780B483B000AF78603B
S32D00012220396003E07B6803F101037B607B681B78002B08D07B681B781A463B689A4202D04FF0010301E04FF05A
S32D000122480003002BEAD17B681B78184607F10C07BD4680BC704700BF80B584B000AF786039607B681B6BFB609D
S32D00012270FA683B689A4264D07B681B79002B43D07B685A787B6803F1340310461946FA684FF0010304F0B4F8B8
S32D000122980346002B0CBF00230123DBB2002B02D04FF001034BE07B684FF000021A717B685A6A7B681B6AD218F1
S32D000122C0FB689A4220D97B68DB78FB7214E07B681B6AFA68D318FB607B685A787B6803F1340310461946FA6836
S32D000122E84FF0010304F088F8FB7A03F1FF33FB72FB7A012B94BF00230123DBB2002BE2D13B68002B19D07B68C8
S32D000123105A787B6803F13403104619463A684FF0010303F05FFF0346002B0CBF00230123DBB2002B02D04FF084
S32D00012338010304E07B683A681A634FF00003184607F11007BD4680BD80B584B000AF786078684FF00001FFF797
S32D000123607FFF0346FB73FB7B002B40F0AE807B681B78032B40F095807B685B79002B00F090807B684FF000022B
S32D000123881A637B6803F1340318464FF000014FF40072FFF7DDFE7B684FF0550283F832227B684FF0AA0283F8E6
S32D000123B033227B684FF0520283F834207B684FF0520283F835207B684FF0610283F836207B684FF0410283F8E8
S32D000123D837207B684FF0720283F818227B684FF0720283F819227B684FF0410283F81A227B684FF0610283F8CC
S32D000124001B227B681B69DAB27B6883F81C227B681B699BB24FEA2323DAB27B6883F81D227B681B694FEA13438F
S32D00012428DAB27B6883F81E227B681B694FEA1363DAB27B6883F81F227B68DB68DAB27B6883F820227B68DB68A2
S32D000124509BB24FEA2323DAB27B6883F821227B68DB684FEA1343DAB27B6883F822227B68DB684FEA1363DAB220
S32D000124787B6883F823227B6859787B6803F134027B685B69084611461A464FF0010303F0B3FF7B684FF0000219
S32D000124A05A717B685B7818464FF000014FF0000204F08CF80346002B0CBF00230123DBB2002B02D04FF00103E2
S32D000124C8FB73FB7B184607F11007BD4680BD00BF80B483B000AF786039603B68A3F102033B607B68DB69A3F17C
S32D000124F002023B689A4202D84FF0000307E07B689B783A6802FB03F27B68DB6AD318184607F10C07BD4680BCF2
S32D00012518704700BF80B586B000AF786039603B68012B04D97B68DA693B689A4202D84FF00103D3E07B681B78FC
S32D00012540022B5FD0032B00F08A80012B40F0C8803B687B617B694FEA53037A69D3187B617B685A6A7B694FEAE4
S32D000125685323D31878681946FFF776FE0346002B0CBF00230123DBB2002B40F0A6807B694FEAC3534FEAD35314
S32D000125907A68D31893F834303B617B6903F101037B617B685A6A7B694FEA5323D31878681946FFF755FE034616
S32D000125B8002B0CBF00230123DBB2002B40F087807B694FEAC3534FEAD3537A68D31893F834304FEA03233A6978
S32D000125E013433B613B6803F00103DBB2002B03D03B694FEA131304E03B694FEA03534FEA13536FE07B685A6A06
S32D000126083B684FEA1323D31878681946FFF724FE0346002B0CBF00230123DBB2002B58D13B684FEA43034FEA8D
S32D00012630C3534FEAD35303F130037A68D31803F10403FB60FB6803F101031B784FEA03239AB2FB681B781343D7
S32D000126589BB29BB242E07B685A6A3B684FEAD313D31878681946FFF7F7FD0346002B0CBF00230123DBB2002BDC
S32D000126802DD13B684FEA83034FEAC3534FEAD35303F130037A68D31803F10403FB60FB6803F103031B784FEAAA
S32D000126A80362FB6803F102031B784FEA03431A43FB6803F101031B784FEA03231A43FB681B78134323F0704317
S32D000126D008E000BF04E000BF02E000BF00E000BF4FF0FF33184607F11807BD4680BD00BF80B588B000AFF860F8
S32D000126F8B9607A60BB68012B04D9FB68DA69BB689A4203D84FF00203FB771AE1FB681B78022B00F08580032B1D
S32D0001272000F0AD80012B40F00181BB68BB61BB694FEA5303BA69D318BB61FB685A6ABB694FEA5323D318F8682E
S32D000127481946FFF789FD0346FB77FB7F002B40F0ED80BB694FEAC3534FEAD35303F13003FA68D31803F1040349
S32D000127707B61BB6803F00103DBB2002B0ED07B691B78DBB203F00F03DAB27B68DBB24FEA0313DBB21343DBB2EA
S32D00012798DBB201E07B68DBB27A691370BB6903F10103BB61FB684FF001021A71FB685A6ABB694FEA5323D31881
S32D000127C0F8681946FFF74CFD0346FB77FB7F002B40F0B280BB694FEAC3534FEAD35303F13003FA68D31803F1F0
S32D000127E804037B61BB6803F00103DBB2002B04D07B684FEA1313DBB20FE07B691B78DBB223F00F03DAB27B68E3
S32D000128104FEA1323DBB203F00F03DBB21343DBB2DBB27A6913708CE0FB685A6ABB684FEA1323D318F868194666
S32D00012838FFF712FD0346FB77FB7F002B7AD1BB684FEA43034FEAC3534FEAD35303F13003FA68D31803F1040302
S32D000128607B617B68DAB27B691A707B6903F101037A6892B24FEA2222D2B21A7061E0FB685A6ABB684FEAD31359
S32D00012888D318F8681946FFF7E7FC0346FB77FB7F002B51D1BB684FEA83034FEAC3534FEAD35303F13003FA6803
S32D000128B0D31803F104037B617B6903F103031B784FEA03627B6903F102031B784FEA03431A437B6903F1010300
S32D000128D81B784FEA03231A437B691B78134303F070437A6813437B607B68DAB27B691A707B6903F101037A6861
S32D0001290092B24FEA2222D2B21A707B6903F102037A684FEA1242D2B21A707B6903F103037A684FEA1262D2B28E
S32D000129281A700AE04FF00203FB7706E000BF04E000BF02E000BF00E000BFFB684FF001021A71FB7F184607F1CE
S32D000129502007BD4680BD00BF80B584B000AF786039603B68012B04D97B68DA693B689A4203D84FF00203FB73CB
S32D0001297845E04FF00003FB7333E078683968FFF7C9FD0346BB60BB68002B35D0BB68012B03D14FF00203FB737F
S32D000129A031E0BB68B3F1FF3F03D14FF00103FB7329E0786839684FF00002FFF799FE0346FB73FB7B002B1DD1CF
S32D000129C87B681B69B3F1FF3F09D07B681B6903F101027B681A617B684FF001025A71BB683B607B68DA693B688B
S32D000129F09A4294BF00230123DBB2002BC1D102E000BF00E000BFFB7B184607F11007BD4680BD00BF80B586B06B
S32D00012A1800AF786039603B68002B0ED17B68DB683B613B69002B04D07B68DA693B699A4218D84FF001033B61E8
S32D00012A4014E078683968FFF769FD0346BB60BB68012B02D84FF001036EE07B68DA69BB689A4201D9BB6867E00F
S32D00012A683B683B613B697B6100E000BF7B6903F101037B617B68DA697B699A4209D84FF002037B617A693B69BB
S32D00012A909A4202D94FF000034EE078687969FFF73DFD0346BB60BB68002B0FD0BB68B3F1FF3F02D0BB68012B47
S32D00012AB801D1BB683CE07A693B699A42D5D14FF0000335E000BF786879696FF07042FFF70BFE0346FB73FB7BC0
S32D00012AE0002B09D13B68002B06D0786839687A69FFF7FEFD0346FB73FB7B002B12D17B687A69DA607B681B6927
S32D00012B08B3F1FF3F13D07B681B6903F1FF327B681A617B684FF001025A7108E0FB7B012B02D14FF0FF3301E050
S32D00012B304FF001037B617B69184607F11807BD4680BD00BF80B487B000AF786039607B685B6A03F104033B6135
