S01300002E2E2F4645485F526F626F742E7331391E
S32D0000C0000000002039FF00009502010095020100950201009502010095020100000000000000000000000000C2
S32D0000C028000000009502010095020100000000009502010095020100950201009502010095020100950201002A
S32D0000C05095020100950201009502010095020100950201009502010095020100950201009502010095020100D2
S32D0000C07895020100950201009502010095020100950201009502010095020100950201009502010095020100AA
S32D0000C0A09502010095020100950201009502010095020100950201009502010095020100950201009502010082
S32D0000C0C8950201009502010095020100950201009502010095020100950201009502010095020100950201005A
S32D0000C0F095020100419D01009502010095020100950201009502010095020100950201009502010095020100EB
S32D0000C1189502010095020100950201009502010095020100950201009502010095020100950201009502010009
S32D0000C140950201009502010095020100950201009D650100950201009502010095020100950201009502010076
S32D0000C16895020100950201009502010095020100950201009502010095020100950201009502010095020100B9
S32D0000C19095020100950201009502010001600100555E0100295F0100E5020100D96001009502010095020100C8
S32D0000C1B89502010095020100950201009502010095020100950201009502010095020100950201009502010069
S32D0000C41081F0004102E000BF83F0004330B54FEA41044FEA430594EA050F08BF90EA020F1FBF54EA000C55EAC6
S32D0000C438020C7FEA645C7FEA655C00F0E2804FEA5454D4EB5555B8BF6D420CDD2C4480EA020281EA030382EA0F
S32D0000C460000083EA010180EA020281EA0303362D88BF30BD11F0004F4FEA01314FF4801C4CEA113102D0404263
S32D0000C48861EB410113F0004F4FEA03334CEA133302D0524263EB430394EA050F00F0A780A4F10104D5F1200E8A
S32D0000C4B00DDB02FA0EFC22FA05F2801841F1000103FA0EF2801843FA05F359410EE0A5F120050EF1200E012A2D
S32D0000C4D803FA0EFC28BF4CF0020C43FA05F3C01851EBE37101F0004507D54FF0000EDCF1000C7EEB00006EEB67
S32D0000C5000101B1F5801F1BD3B1F5001F0CD349085FEA30004FEA3C0C04F101044FEA445212F5800F80F09A8000
S32D0000C528BCF1004F08BF5FEA500C50F1000041EB045141EA050130BD5FEA4C0C404141EB010111F4801FA4F114
S32D0000C5500104E9D191F0000F04BF01460020B1FA81F308BF2033A3F10B03B3F120020CDA0C3208DD02F1140C87
S32D0000C578C2F10C0201FA0CF021FA02F10CE002F11402D8BFC2F1200C01FA02F120FA0CFCDCBF41EA0C019040B1
S32D0000C5A0E41AA2BF01EB0451294330BD6FEA04041F3C1CDA0C340EDC04F11404C4F1200220FA04F001FA02F3B6
S32D0000C5C840EA030021FA04F345EA030130BDC4F10C04C4F1200220FA02F001FA04F340EA0300294630BD21FAA8
S32D0000C5F004F0294630BD94F0000F83F4801306BF81F480110134013D4EE77FEA645C18BF7FEA655C29D094EA1C
S32D0000C618050F08BF90EA020F05D054EA000C04BF1946104630BD91EA030F1EBF0021002030BD5FEA545C05D1A3
S32D0000C6404000494128BF41F0004130BD14F580043CBF01F5801130BD01F0004545F0FE4141F470014FF0000031
S32D0000C66830BD7FEA645C1ABF194610467FEA655C1CBF0B46024650EA013406BF52EA033591EA030F41F40021D7
S32D0000C69030BD00BF90F0000F04BF0021704730B54FF4806404F132044FF000054FF0000150E700BF90F0000F66
S32D0000C6B804BF0021704730B54FF4806404F1320410F0004548BF40424FF000013EE700BF42004FEAE2014FEAF9
S32D0000C6E031014FEA02701FBF12F07F4393F07F4F81F06051704792F0000F14BF93F07F4F704730B54FF460741B
S32D0000C70801F0004521F0004120E700BF50EA010208BF704730B54FF000050AE050EA010208BF704730B511F046
S32D0000C730004502D5404261EB41014FF4806404F132045FEA915C3FF4DCAE4FF003025FEADC0C18BF03325FEAA0
S32D0000C758DC0C18BF033202EBDC02C2F1200300FA03FC20FA02F001FA03FE40EA0E0021FA02F11444C1E600BF19
S32D0000C78070B54FF0FF0C4CF4E06C1CEA11541DBF1CEA135594EA0C0F95EA0C0F00F0DEF82C4481EA030621EAF3
S32D0000C7A84C5123EA4C5350EA013518BF52EA033541F4801143F4801338D0A0FB02CE4FF00005E1FB02E506F05F
S32D0000C7D00042E0FB03E54FF00006E1FB03569CF0000F18BF4EF0010EA4F1FF04B6F5007F64F5407404D25FEA0F
S32D0000C7F84E0E6D4146EB060642EAC62141EA55514FEAC52040EA5E504FEACE2EB4F1FD0C88BFBCF5E06F1ED8D2
S32D0000C820BEF1004F08BF5FEA500E50F1000041EB045170BD06F0004646EA010140EA020081EA0301B4EB5C0487
S32D0000C848C2BFD4EB0C0541EA045170BD41F480114FF0000E013C00F3AB8014F1360FDEBF002001F0004170BDF0
S32D0000C870C4F10004203C35DA0C341BDC04F11404C4F1200500FA05F320FA04F001FA05F240EA020001F0004207
S32D0000C89821F0004110EBD37021FA04F642EB06015EEA430E08BF20EAD37070BDC4F10C04C4F1200500FA04F32F
S32D0000C8C020FA05F001FA04F240EA020001F0004110EBD37041F100015EEA430E08BF20EAD37070BDC4F12005C7
S32D0000C8E800FA05F24EEA020E20FA04F301FA05F243EA020321FA04F001F0004121FA04F220EA020000EBD37028
S32D0000C9105EEA430E08BF20EAD37070BD94F0000F0FD101F00046400041EB010111F4801F08BF013CF7D041EA6D
S32D0000C938060195F0000F18BF704703F00046520043EB030313F4801F08BF013DF7D043EA0603704794EA0C0FF1
S32D0000C9600CEA135518BF95EA0C0F0CD050EA410618BF52EA4306D1D181EA030101F000414FF0000070BD50EA38
S32D0000C988410606BF1046194652EA430619D094EA0C0F02D150EA013613D195EA0C0F05D152EA03361CBF10467B
S32D0000C9B019460AD181EA030101F0004141F0FE4141F470014FF0000070BD41F0FE4141F4780170BD70B54FF04D
S32D0000C9D8FF0C4CF4E06C1CEA11541DBF1CEA135594EA0C0F95EA0C0F00F0A7F8A4EB050481EA030E52EA03359B
S32D0000CA004FEA013100F088804FEA03334FF0805545EA131343EA12634FEA022245EA111545EA10654FEA002676
S32D0000CA280EF000419D4208BF964244F1FD0404F5407402D25B084FEA3202B61A65EB03055B084FEA32024FF461
S32D0000CA5080104FF4002CB6EB020E75EB030E22BFB61A754640EA0C005B084FEA3202B6EB020E75EB030E22BF22
S32D0000CA78B61A754640EA5C005B084FEA3202B6EB020E75EB030E22BFB61A754640EA9C005B084FEA3202B6EBEA
S32D0000CAA0020E75EB030E22BFB61A754640EADC0055EA060E18D04FEA051545EA16754FEA06164FEAC30343EAAC
S32D0000CAC852734FEAC2025FEA1C1CC0D111F4801F0BD141EA00014FF000004FF0004CB6E711F4801F04BF0143AE
S32D0000CAF00020B4F1FD0C88BFBCF5E06F3FF6AFAEB5EB030C04BFB6EB020C5FEA500C50F1000041EB045170BDBC
S32D0000CB180EF0004E4EEA113114EB5C04C2BFD4EB0C0541EA045170BD41F480114FF0000E013C90E645EA060EC3
S32D0000CB408DE60CEA135594EA0C0F08BF95EA0C0F3FF43BAF94EA0C0F0AD150EA01347FF434AF95EA0C0F7FF499
S32D0000CB6825AF104619462CE795EA0C0F06D152EA03353FF4FDAE1046194622E750EA410618BF52EA43067FF432
S32D0000CB90C5AE50EA41047FF40DAF52EA43057FF4EBAE12E74FF0FF3C06E000BF4FF0010C02E000BF4FF0010C75
S32D0000CBB84DF804CD4FEA410C7FEA6C5C4FEA430C18BF7FEA6C5C1BD001B050EA410C0CBF52EA430C91EA030FEC
S32D0000CBE002BF90EA020F0020704710F1000F91EA030F58BF994208BF90422CBFD8176FEAE37040F0010070476E
S32D0000CC084FEA410C7FEA6C5C02D150EA013C07D14FEA430C7FEA6C5CD6D152EA033CD3D05DF8040B704700BFCD
S32D0000CC308446104662468C461946634600E000BF01B5FFF7B7FF002848BF10F1000F01BD4DF808EDFFF7F4FF13
S32D0000CC580CBF012000205DF808FB00BF4DF808EDFFF7EAFF34BF012000205DF808FB00BF4DF808EDFFF7E0FF18
S32D0000CC8094BF012000205DF808FB00BF4DF808EDFFF7CEFF94BF012000205DF808FB00BF4DF808EDFFF7C4FF40
S32D0000CCA834BF012000205DF808FB00BF4FEA410212F5001215D211D56FF47873B3EB625212D94FEAC12343F0D6
S32D0000CCD0004343EA505311F0004F23FA02F018BF404270474FF00000704750EA013005D111F0004008BF6FF016
S32D0000CCF8004070474FF00000704700BF4A0011D212F5001211D20DD56FF47873B3EB62520ED44FEAC12343F085
S32D0000CD20004343EA505323FA02F070474FF00000704750EA013002D14FF0FF3070474FF0000070474FEA410241
S32D0000CD48B2F1E04324BFB3F5001CDCF1FE5C0DD901F0004C4FEAC0024CEA5070B2F1004F40EB830008BF20F09E
S32D0000CD700100704711F0804F21D113F13872BCBF01F00040704741F480114FEA5252C2F11802C2F1200C10FAB1
S32D0000CD980CF320FA02F018BF40F001004FEAC1234FEAD32303FA0CFC40EA0C0023FA02F34FEA4303CCE77FEA26
S32D0000CDC0625307D150EA01331EBF4FF0FE4040F44000704701F0004040F0FE4040F40000704700BF80F00040CC
S32D0000CDE802E000BF81F0004142001FBF5FEA410392EA030F7FEA226C7FEA236C6AD04FEA1262D2EB1363C1BF06
S32D0000CE10D218414048404140B8BF5B42192B88BF704710F0004F40F4000020F07F4018BF404211F0004F41F4FA
S32D0000CE38000121F07F4118BF494292EA030F3FD0A2F1010241FA03FC10EB0C00C3F1200301FA03F100F000432B
S32D0000CE6002D5494260EB4000B0F5000F13D3B0F1807F06D340084FEA310102F10102FE2A51D2B1F1004F40EB94
S32D0000CE88C25008BF20F0010040EA03007047490040EB000010F4000FA2F10102EDD1B0FA80FCACF1080CB2EB5F
S32D0000CEB00C0200FA0CF0AABF00EBC25052421843BCBFD0401843704792F0000F81F4000106BF80F400000132EB
S32D0000CED8013BB5E74FEA41037FEA226C18BF7FEA236C21D092EA030F04D092F0000F08BF0846704790EA010FD7
S32D0000CF001CBF0020704712F07F4F04D1400028BF40F00040704712F100723CBF00F50000704700F0004343F0DC
S32D0000CF28FE4040F4000070477FEA226216BF08467FEA23630146420206BF5FEA412390EA010F40F480007047C1
S32D0000CF504FF0000304E000BF10F0004348BF40425FEA000C08BF704743F0964301464FF000001CE050EA010264
S32D0000CF7808BF70474FF000030AE000BF50EA010208BF704711F0004302D5404261EB41015FEA010C02BF84465B
S32D0000CFA00146002043F0B64308BFA3F18053A3F50003BCFA8CF2083AA3EBC25310DB01FA02FC634400FA02FC6B
S32D0000CFC8C2F12002BCF1004F20FA02F243EB020008BF20F00100704702F1200201FA02FCC2F1200250EA4C0034
S32D0000CFF021FA02F243EB020008BF20EADC7070474FF0FF0C1CEAD0521EBF1CEAD15392EA0C0F93EA0C0F6FD019
S32D0000D0181A4480EA010C400218BF5FEA41211ED04FF0006343EA501043EA5111A0FB01310CF00040B1F5000FE7
S32D0000D0403EBF490041EAD3715B0040EA010062F17F02FD2A1DD8B3F1004F40EBC25008BF20F00100704790F058
S32D0000D068000F0CF0004C08BF49024CEA502040EA51207F3AC2BFD2F1FF0340EAC250704740F400004FF0000388
S32D0000D090013A5DDC12F1190FDCBF00F000407047C2F10002410021FA02F1C2F1200200FA02FC5FEA310040F1D5
S32D0000D0B8000053EA4C0308BF20EADC70704792F0000F00F0004C02BF400010F4000F013AF9D040EA0C0093F04C
S32D0000D0E0000F01F0004C02BF490011F4000F013BF9D041EA0C018FE70CEAD15392EA0C0F18BF93EA0C0F0AD00B
S32D0000D10830F0004C18BF31F0004CD8D180EA010000F00040704790F0000F17BF90F0004F084691F0000F91F0BB
S32D0000D130004F14D092EA0C0F01D142020FD193EA0C0F03D14B0218BF084608D180EA010000F0004040F0FE4051
S32D0000D15840F40000704740F0FE4040F4400070474FF0FF0C1CEAD0521EBF1CEAD15392EA0C0F93EA0C0F69D044
S32D0000D180A2EB030280EA010C49024FEA402037D04FF0805343EA111143EA10130CF000408B4238BF5B0042F14E
S32D0000D1A87D024FF4000C8B4224BF5B1A40EA0C00B3EB510F24BFA3EB510340EA5C00B3EB910F24BFA3EB9103A4
S32D0000D1D040EA9C00B3EBD10F24BFA3EBD10340EADC001B0118BF5FEA1C1CE0D1FD2A3FF650AF8B4240EBC25018
S32D0000D1F808BF20F0010070470CF0004C4CEA50207F32C2BFD2F1FF0340EAC250704740F400004FF00003013AF1
S32D0000D22037E792F0000F00F0004C02BF400010F4000F013AF9D040EA0C0093F0000F01F0004C02BF490011F4C9
S32D0000D248000F013BF9D041EA0C0195E70CEAD15392EA0C0F08D142027FF47DAF93EA0C0F7FF470AF084676E7AE
S32D0000D27093EA0C0F04D14B023FF44CAF08466EE730F0004C18BF31F0004CCAD130F000427FF45CAF31F0004376
S32D0000D2987FF43CAF5FE700BF4FF0FF3C06E000BF4FF0010C02E000BF4FF0010C4DF804CD4FEA40024FEA41039F
S32D0000D2C07FEA226C18BF7FEA236C11D001B052EA530C18BF90EA010F58BFB2EB030088BFC81738BF6FEAE1706E
S32D0000D2E818BF40F0010070477FEA226C02D15FEA402C05D17FEA236CE4D15FEA412CE1D05DF8040B704700BF16
S32D0000D310844608466146FFE70FB5FFF7C9FF002848BF10F1000F0FBD4DF808EDFFF7F4FF0CBF012000205DF839
S32D0000D33808FB00BF4DF808EDFFF7EAFF34BF012000205DF808FB00BF4DF808EDFFF7E0FF94BF012000205DF8A9
S32D0000D36008FB00BF4DF808EDFFF7D2FF94BF012000205DF808FB00BF4DF808EDFFF7C8FF34BF012000205DF8B1
S32D0000D38808FB00BF4FEA4002B2F1FE4F0FD34FF09E03B3EB12620DD94FEA002343F0004310F0004F23FA02F060
S32D0000D3B018BF404270474FF00000704712F1610F01D1420205D110F0004008BF6FF0004070474FF00000704797
S32D0000D3D880B582B000AF786039603868FFF7B8FD0346786819460DF085F80346184607F10807BD4680BD00BFA6
S32D0000D40080B483B000AF78607B6823F00043184607F10C07BD4680BC704700BF80B584B000AF00F065FA2AE246
S32D0000D42841F27C13C1F6FF731B78002B01D002F01FFB01F06FFD41F26D13C1F6FF731B78122B00F2008201A230
S32D0000D45052F823F0A1D40000D7D40000F9D4000015D5000027D5000045D5000061D500006BD5000089D5000090
S32D0000D478ABD5000097D60000B5D60000D1D6000005D7000023D700003FD70000CBD70000E9D700002BD8000016
S32D0000D4A001F0F0FC0346B3F57F0F14BF00230123DBB2002B00F0D68141F25450C1F6FF704CF24831C0F2010181
S32D0000D4C80CF050FF4FF0010001F03EFCC6E141F2A813C1F6FF7393E8030002F055F94FF0020001F031FC4FF066
S32D0000D4F0010001F09BFCC2E101F0DEFE0346002B00F0B281F64801F06FFF4FF0030001F01FFCA9E14FF00400C6
S32D0000D51801F01AFC4FF0010001F084FCABE141F2A813C1F6FF7303F1080393E8030002F02BF94FF0050001F0C2
S32D0000D54007FC9CE101F0B8FE0346002B00F08E81E34801F049FF4FF0060001F0F9FB85E14FF0070001F0F4FB09
S32D0000D56889E141F2A813C1F6FF7303F1100393E8030002F009F94FF0080001F0E5FB7AE101F096FE0346002B2F
S32D0000D59000F06E81D24801F027FFD24801F0C4FF4FF0090001F0D4FB62E14FF0010001F027FF034683F001032D
S32D0000D5B8DBB2002B10D0CA4801F012FF00BF4FF0010001F019FF034683F00103DBB2002BF5D1C14801F004FF56
S32D0000D5E04FF00003FB6039E041F2C840C1F6FF7009F08CF94FF000004FF07E5101F5C00107F0EEFF4FF0010060
S32D0000D60801F0FAFE034683F00103DBB2002B1DD04FF00003FB6041F25450C1F6FF704CF26031C0F201010CF08D
S32D0000D6309DFEAD4801F0D8FE00BF4FF0010001F0DFFE034683F00103DBB2002BF5D1A44801F0CAFEFB6803F16E
S32D0000D6580103FB60FB68092BCCBF00230123DBB2002BBDD141F2CC40C1F6FF704FF47F0109F0E6FF41F2CC4051
S32D0000D680C1F6FF704FF0000109F0DEFF4FF00A0001F05EFBF3E041F2A813C1F6FF7303F1180393E8030002F044
S32D0000D6A873F84FF00B0001F04FFBE4E001F000FE0346002B00F0DA80874801F091FE4FF00C0001F041FBD1E07B
S32D0000D6D0864801F089FE00BF07F1080207F1040341F2CC40C1F6FF7011461A460AF018F9034683F00103DBB2B2
S32D0000D6F8002BEDD1784801F073FEBCE041F2A813C1F6FF7303F1200393E8030002F03CF84FF00E0001F018FB3A
S32D0000D720ADE001F0C9FD0346002B00F0A5806C4801F05AFE4FF0090001F00AFB9CE001F0A1FB0346B3F57F0F4B
S32D0000D74814BF00230123DBB2002B0ED041F25450C1F6FF704CF2A831C0F201010CF002FE4FF0100001F0F0FA15
S32D0000D77085E001F087FB0346FF2B14BF00230123DBB2002B0ED041F25450C1F6FF704CF2D831C0F201010CF09C
S32D0000D798E9FD4FF0100001F0D7FA6CE041F25450C1F6FF704CF20441C0F201010CF0DAFD41F2C840C1F6FF70B8
S32D0000D7C04FF0050109F0B2F859E041F2A813C1F6FF7303F1280393E8030001F0D9FF4FF0110001F0B5FA4AE083
S32D0000D7E801F066FD0346002B44D03B4801F0F8FD3A4801F095FE3A4801F0F2FD00BF4FF0010001F0F9FD034637
S32D0000D81083F00103DBB2002BF5D1314801F0E4FD4FF0120001F094FA28E041F25450C1F6FF704CF22C41C0F278
S32D0000D83801010CF097FD41F26C13C1F6FF734FF000021A7017E041F25450C1F6FF704CF24041C0F201010CF027
S32D0000D86085FD0CE000BF0AE000BF08E000BF06E000BF04E000BF02E000BF00E000BF41F26C13C1F6FF731B7827
S32D0000D888002B7FF4CDAD41F2CC40C1F6FF704FF0000109F0ABFE41F2CC40C1F6FF704CF26041C0F201010AF021
S32D0000D8B035FA41F25450C1F6FF704CF27041C0F201010CF053FD41F25450C1F6FF700CF031FD4FF00003184668
S32D0000D8D807F11007BD4680BD00000000000087430000C8C10000C84180B58EB000AF41F2CC40C1F6FF704FF0B1
S32D0000D900000109F063FE41F2CC40C1F6FF704FF0010109F0ADFE41F23410C1F6FF7040F6813109F0D1F841F2DA
S32D0000D9283410C1F6FF704FF4FA7109F0ABF841F23410C1F6FF703D4909F0E2F841F24010C1F6FF7040F6813196
S32D0000D95009F0BAF841F24010C1F6FF704FF4FA7109F094F841F23410C1F6FF70314909F0CBF841F28413C1F6CE
S32D0000D978FF732E4A1A6041F28413C1F6FF731A6841F28013C1F6FF731A6041F29013C1F6FF734FF000021A6085
S32D0000D9A041F27C13C1F6FF734FF000021A7041F29413C1F6FF734CF28042C0F2010292E80300186003F10403FB
S32D0000D9C8197041F25450C1F6FF700CF0DDFB41F25450C1F6FF704CF28841C0F201010CF0C1FC00BF41F26C13F5
S32D0000D9F0C1F6FF734FF001021A7007F10403184600F01AF807F1040241F2A813C1F6FF739A420BD041F2A813FB
S32D0000DA18C1F6FF7319464FF03103084611461A460DF0FAFB07F13807BD4680BD00000000B0B5ADF5EF5D06AF6F
S32D0000DA4007F10803A3F1040318604FF0010307F5EE5000F107000370DFF8C03707F5EC5101F13C010B60DFF842
S32D0000DA68B43707F5EC5202F13802136007F10803A3F10403186802F059F941F2CC40C1F6FF704FF0000109F0CB
S32D0000DA90B1FD07F5CC5303F11803A3F104031D464FF0000406E028460BF044FD05F1EC0504F1FF34B4F1FF3FCD
S32D0000DAB80CBF00230123DBB2002BF0D14CF24853C0F2010307F5E85101F124011A464FF01403084611461A461F
S32D0000DAE00DF09EFB07F5CC5303F11803A3F104034FF0C90200924FF0010201924FF00102029207F5E85202F14D
S32D0000DB08240203924FF4004204924FF45742C0F2FF02059218464FF001014FF001024FF001030BF043FF07F596
S32D0000DB30CC5303F11803A3F1040318460BF096FD07F5945303F10803A3F10C031D464FF0050406E028460BF093
S32D0000DB58EDFC05F1EC0504F1FF34B4F1FF3F0CBF00230123DBB2002BF0D107F5E25303F118031A464FF0A003B7
S32D0000DB8010464FF000011A460DF053FB07F5E25303F118034FF041021A6003F104034FF000021A6003F1040349
S32D0000DBA84FF000021A6003F104034FF000021A6003F104034FF000021A6003F1040307F5E25303F118034FF0AE
S32D0000DBD042025A6103F118034FF000021A6003F104034FF000021A6003F104034FF000021A6003F104034FF0B8
S32D0000DBF800021A6003F1040307F5E25303F118034FF043029A6203F12C034FF000021A6003F104034FF00002AE
S32D0000DC201A6003F104034FF000021A6003F104034FF000021A6003F1040307F5E25303F118034FF04402DA63F3
S32D0000DC4803F140034FF000021A6003F104034FF000021A6003F104034FF000021A6003F104034FF000021A609A
S32D0000DC7003F1040307F5E25303F118034FF045021A6503F154034FF000021A6003F104034FF000021A6003F196
S32D0000DC9804034FF000021A6003F104034FF000021A6003F1040307F5E25303F118034FF046025A6603F1680305
S32D0000DCC04FF000021A6003F104034FF000021A6003F104034FF000021A6003F104034FF000021A6003F104035E
S32D0000DCE807F5E25303F118034FF047029A6703F17C034FF000021A6003F104034FF000021A6003F104034FF027
S32D0000DD1000021A6003F104034FF000021A6003F1040307F5E25303F118034FF04802C3F88C2003F190034FF0C2
S32D0000DD3800021A6003F104034FF000021A6003F104034FF000021A6003F104034FF000021A6003F1040307F528
S32D0000DD60945303F10803A3F10C034FF0330200924FF0010201924FF00102029207F5E25202F1180203926FF02A
S32D0000DD887F4204924FF45742C0F2FF02059218464FF004014FF002024FF028030BF006FE07F5D4531D464FF0DD
S32D0000DDB0000406E028460BF0BDFB05F1EC0504F1FF34B4F1FF3F0CBF00230123DBB2002BF0D107F5E85303F192
S32D0000DDD810034FF000021A6003F104034FF000021A6003F104034FF000021A6003F104034FF000021A6003F139
S32D0000DE0004034FF000021A6003F104034CF25C52C0F2010207F5E85303F1100392E80300186003F104031980CF
S32D0000DE2807F5E85303F116034FF000021A8003F102034FF000021A8003F102034FF000021A8003F102034FF0CD
S32D0000DE5000021A8003F102034FF000021A8003F102034FF000021A8003F102034FF000021A8003F1020307F597
S32D0000DE78D4524FF0140300934FF0010301934FF00103029307F5E85303F1100303934FF4004304934FF45743F0
S32D0000DEA0C0F2FF03059310464FF001014FF001024FF0BE030BF07EFD41F2CC40C1F6FF704FF45741C0F2FF01C7
S32D0000DEC809F0E6FB41F2CC40C1F6FF704CF29C41C0F201014FF000024FF0DE0309F0ECFB07F5EC5303F1380373
S32D0000DEF0186807F5EC5C0CF13C0CDCF80010FFF77FF803461C4641F21850C1F6FF700BF0A5FE03462046194692
S32D0000DF18FEF76AFF034607F5EC5000F13800036007F5EC5101F13C010868BB49FEF75CFF034607F5EC5202F1CE
S32D0000DF403C02136007F5EC5303F13803186807F5EC5C0CF13C0CDCF80010FFF705F9034607F5EC5000F138000D
S32D0000DF68036041F2CC40C1F6FF7007F5EC5202F1380211684FF048024FF0DE0309F0E6FB4FF001031C4607F5BF
S32D0000DF90EC5303F138031868A249FFF7CFF90346002B02D14FF000031C46E3B2002B07D041F2C840C1F6FF70E9
S32D0000DFB84FF00A0108F0B6FC07F5E85202F13C0207F5E85303F1380341F2CC40C1F6FF7011461A4609F0A0FCC9
S32D0000DFE00346002B00F0A0864FF0000307F5EE5CCCF80030DAE007F5945303F10803A3F10C0307F5EE5002682A
S32D0000E0084FF0EC0101FB02F2991807F5E85303F13C031A6807F5E85C0CF1380CDCF80030084611461A464FF068
S32D0000E03000030BF0D1FB0346002B0CBF00230123DBB2002B00F0A9804FF0000307F5E85000F10C0003804FF06C
S32D0000E058200307F5E85101F10D010B7007F5E25101F1180107F5EE531A6813464FEA83039B184FEA8303CB1861
S32D0000E0801B7807F5E85C0CF10C0C8CF8003007F5EE500368002B06D14FF0410307F5E85101F10C010B7007F501
S32D0000E0A8EE521368012B07D14FF0420307F5E85C0CF10C0C8CF8003041F2CC40C1F6FF704FF0000109F092FAD4
S32D0000E0D041F2CC40C1F6FF704CF2AC41C0F2010109F01CFE07F5E85303F10C0341F2CC40C1F6FF7019464FF08E
S32D0000E0F800024FF0070309F043FD41F25450C1F6FF704CF2C041C0F201010CF02BF907F5E85303F10C0341F2F9
S32D0000E1205450C1F6FF7019460CF020F941F25450C1F6FF704CF2D441C0F201010CF016F907F5E85000F10C0053
S32D0000E148037807F5EA521046194601F049FD07F5EA5207F10803A3F104031B6893420CD007F10803A3F1040362
S32D0000E1701B6819464FF03103084611461A460DF04FF84FF0000307F5EE5101F107010B704FF0000000F0DCFDE9
S32D0000E19813E007F5EE52136803F1010307F5EE5CCCF8003007F5EE500368072BCCBF00230123DBB2002B7FF4A9
S32D0000E1C01AAF07F5E85101F13C010A6807F5E85C0CF1380CDCF8003007F5D451084611461A464FF000030BF0AA
S32D0000E1E8F7FA0346002B0CBF00230123DBB2002B00F0968541F2CC40C1F6FF704FF0000109F0F4F907F5DA531B
S32D0000E21003F12C031D464FF000040CE0000000000000803F0000204128460BF083F905F1EC0504F1FF34B4F172
S32D0000E238FF3F0CBF00230123DBB2002BF0D107F5E65303F138034FF000021A6003F104034FF000021A6003F126
S32D0000E26004034FF000021A6003F104034FF000021A6003F104034FF000021A6003F104034CF27052C0F20102B2
S32D0000E28807F5E65303F1380307CA03C31A8003F102034FEA12421A7007F5E85303F103034FF000021A7003F1D3
S32D0000E2B001034FF000021A7003F101034FF000021A7003F101034FF000021A7003F101034FF000021A7003F134
S32D0000E2D801034FF000021A7003F101034FF000021A7003F101034FF000021A7003F101034FF000021A7003F10C
S32D0000E300010307F5DA5202F12C024FF0C90300934FF0010301934FF00103029307F5E65303F1380303934FF418
S32D0000E328004304934FF45743C0F2FF03059310464FF001014FF001024FF001030BF036FB07F5DA5303F12C0330
S32D0000E35018460BF08BF907F5C05303F10803A3F104031A464FF4C87310464FF000011A460CF05FFF07F5C053DC
S32D0000E37803F10803A3F1040345F25742C0F253021A6003F104034FF000021A6003F104034FF000021A6003F12C
S32D0000E3A004034FF000021A6003F104034FF000021A6003F1040307F5C05303F10803A3F1040344F65352C0F2A2
S32D0000E3C853025A6103F118034FF000021A6003F104034FF000021A6003F104034FF000021A6003F104034FF0A7
S32D0000E3F000021A6003F1040307F5C05303F10803A3F1040345F24D42C0F253029A6203F12C034FF000021A6038
S32D0000E41803F104034FF000021A6003F104034FF000021A6003F104034FF000021A6003F1040307F5C05303F1B6
S32D0000E4400803A3F1040345F24972C0F25302DA6303F140034FF000021A6003F104034FF000021A6003F104032F
S32D0000E4684FF000021A6003F104034FF000021A6003F1040307F5C05303F10803A3F1040344F65352C0F24C0292
S32D0000E4901A6503F154034FF000021A6003F104034FF000021A6003F104034FF000021A6003F104034FF0000231
S32D0000E4B81A6003F1040307F5C05303F10803A3F1040345F24D42C0F24C025A6603F168034FF000021A6003F184
S32D0000E4E004034FF000021A6003F104034FF000021A6003F104034FF000021A6003F1040307F5C05303F10803D7
S32D0000E508A3F1040345F24972C0F24C029A6703F17C034FF000021A6003F104034FF000021A6003F104034FF039
S32D0000E53000021A6003F104034FF000021A6003F1040307F5C05303F10803A3F1040344F65352C0F24202C3F857
S32D0000E5588C2003F190034FF000021A6003F104034FF000021A6003F104034FF000021A6003F104034FF00002FF
S32D0000E5801A6003F1040307F5C05303F10803A3F1040345F24D42C0F24202C3F8A02003F1A4034FF000021A60C2
S32D0000E5A803F104034FF000021A6003F104034FF000021A6003F104034FF000021A6003F1040307F5C05303F125
S32D0000E5D00803A3F1040345F24972C0F24202C3F8B42003F1B8034FF000021A6003F104034FF000021A6003F1EC
S32D0000E5F804034FF000021A6003F104034FF000021A6003F1040307F5C05303F10803A3F1040344F65352C0F248
S32D0000E6204302C3F8C82003F1CC034FF000021A6003F104034FF000021A6003F104034FF000021A6003F10403FF
S32D0000E6484FF000021A6003F1040307F5C05303F10803A3F1040345F24D42C0F24302C3F8DC2003F1E0034FF0BB
S32D0000E67000021A6003F104034FF000021A6003F104034FF000021A6003F104034FF000021A6003F1040307F5E7
S32D0000E698C05303F10803A3F1040345F24972C0F24302C3F8F02003F1F4034FF000021A6003F104034FF0000211
S32D0000E6C01A6003F104034FF000021A6003F104034FF000021A6003F1040307F5C05303F10803A3F1040344F668
S32D0000E6E85352C0F24402C3F8042103F584734FF000021A6003F104034FF000021A6003F104034FF000021A6071
S32D0000E71003F104034FF000021A6003F1040307F5C05303F10803A3F1040345F24D42C0F24402C3F8182103F5D7
S32D0000E7388E734FF000021A6003F104034FF000021A6003F104034FF000021A6003F104034FF000021A6003F1E1
S32D0000E760040307F5C05303F10803A3F1040345F24972C0F24402C3F82C2103F598734FF000021A6003F1040330
S32D0000E7884FF000021A6003F104034FF000021A6003F104034FF000021A6003F1040307F5C05303F10803A3F19F
S32D0000E7B0040344F65352C0F25202C3F8402103F5A2734FF000021A6003F104034FF000021A6003F104034FF07B
S32D0000E7D800021A6003F104034FF000021A6003F1040307F5C05303F10803A3F1040345F24D42C0F25202C3F8B6
S32D0000E800542103F5AC734FF000021A6003F104034FF000021A6003F104034FF000021A6003F104034FF00002FB
S32D0000E8281A6003F1040307F5C05303F10803A3F1040345F25342C0F25002C3F8682103F5B6734FF000021A60B4
S32D0000E85003F104034FF000021A6003F104034FF000021A6003F104034FF000021A6003F1040307F5C05303F17A
S32D0000E8780803A3F1040345F25202C0F25302C3F87C2103F5C0734FF000021A6003F104034FF000021A6003F152
S32D0000E8A004034FF000021A6003F104034FF000021A6003F1040307F14803A3F13C031D464FF0130406E02846B4
S32D0000E8C80AF034FE05F1EC0504F1FF34B4F1FF3F0CBF00230123DBB2002BF0D107F14803A3F13C034FF0010221
S32D0000E8F000924FF0010201924FF00102029207F5C05202F10802A2F1040203926FF07F4204924FF45742C0F240
S32D0000E918FF02059218464FF005014FF004024FF028030BF043F841F25450C1F6FF704CF2D841C0F201010BF0AE
S32D0000E94015FD07F5E85202F13C0207F5E85303F1380341F2CC40C1F6FF7011461A4608F0DFFF0346002B00F074
S32D0000E968CD814FF0000307F5EE500360BAE107F14803A3F13C0307F5EE510A684FF0EC0101FB02F2991807F52D
S32D0000E990E85303F13C031A6807F5E85C0CF1380CDCF80030084611461A464FF000030AF013FF0346002B0CBF52
S32D0000E9B800230123DBB2002B00F08C8107F5EE500368132B38D007F5EE510B68DBB2184600F0BAF94FF00003CC
S32D0000E9E007F5EE5202F10702137041F2CC40C1F6FF704FF0000108F0FDFD07F5EA5303F1340318464FF0410174
S32D0000EA0801F0EEF807F5EA5202F1340207F10803A3F104031B68934200F05B8107F10803A3F104031B68194666
S32D0000EA304FF03103084611461A460CF0F1FB61E141F25450C1F6FF704CF2EC41C0F201010BF08CFC41F2CC4038
S32D0000EA58C1F6FF704FF0000108F0C8FD41F2CC40C1F6FF704CF2FC41C0F201014FF000024FF0000309F084F8E1
S32D0000EA8041F2CC40C1F6FF704CF20051C0F201014FF001024FF0000309F076F841F2CC40C1F6FF704CF20451DD
S32D0000EAA8C0F201014FF002024FF0000309F068F841F2CC40C1F6FF704CF20C51C0F201014FF004024FF0000373
S32D0000EAD009F05AF84FF000004FF07E5101F5C00106F07EFD41F2CC40C1F6FF704CF21851C0F201014FF0060251
S32D0000EAF84FF0000309F044F841F2CC40C1F6FF704CF22051C0F201014FF007024FF0000309F036F841F2CC40C1
S32D0000EB20C1F6FF704CF22851C0F201014FF008024FF0000309F028F8A9E006F07DFD02460B4607F5EC5C0CF1BF
S32D0000EB48300CCCE9002341F23450C1F6FF700BF0F1F9034641F2CC40C1F6FF7019464FF000024FF0040309F03C
S32D0000EB704BF841F23450C1F6FF700BF0EFF9034641F2CC40C1F6FF7019464FF001024FF0040309F039F841F282
S32D0000EB983450C1F6FF700BF0EDF9034641F2CC40C1F6FF7019464FF002024FF0070309F027F806F03DFD02469B
S32D0000EBC00B4607F5EC5000F12800C0E9002307F5EC5202F12802D2E9000107F5EC5C0CF1300CDCE90023FDF74D
S32D0000EBE817FC02460B464FF0040100914FF00C01019141F2CC40C1F6FF7009F021F841F2CC40C1F6FF704CF286
S32D0000EC103051C0F201014FF004024FF0170308F0B3FF41F26810C1F6FF7007F0F5FA034641F2CC40C1F6FF70F4
S32D0000EC3819464FF006024FF0060308F0E1FF41F26410C1F6FF7007F0E3FA034641F2CC40C1F6FF7019464FF0FB
S32D0000EC6007024FF0060308F0CFFF41F26010C1F6FF7007F0D1FA034641F2CC40C1F6FF7019464FF008024FF04F
S32D0000EC88060308F0BDFF07F5E85202F13C0207F5E85303F1380341F2CC40C1F6FF7011461A4608F039FE034640
S32D0000ECB083F00103DBB2002B7FF43FAF4FF0000307F5EE5000F10700037041F26C13C1F6FF734FF000021A7019
S32D0000ECD814E013E007F5EE510B6803F1010307F5EE52136007F5EE5CDCF80030132BCCBF00230123DBB2002BC0
S32D0000ED007FF439AE07F5EE5000F107000378002B7FF417AE41F25450C1F6FF704CF23451C0F201010BF022FBEF
S32D0000ED2807F5EE5101F107010B78002B7FF4D8A800BF07F10803A3F10403186807F5E47707F5E057BD46B0BD10
S32D0000ED5080B582B000AF0346FB7141F26D13C1F6FF73FA791A7041F29013C1F6FF731B6803F1010241F29013A2
S32D0000ED78C1F6FF731A6041F25450C1F6FF704CF28451C0F201010BF0EDFAFA7913464FEA83039B184FEA830327
S32D0000EDA04CF6FC02C0F201029B1841F25450C1F6FF7019460BF0DAFA41F25450C1F6FF704CF2D441C0F201016E
S32D0000EDC80BF0D0FAFA7913464FEA83039B184FEA83034CF6FC02C0F201029B1841F29410C1F6FF7019460CF05B
S32D0000EDF026FA41F29013C1F6FF731B68022B10DD41F26D13C1F6FF734FF012021A7041F25450C1F6FF704CF245
S32D0000EE189451C0F201010BF0A5FA07F10807BD4680BD00BF80B582B000AF0346FB71FB79002B0DD041F23410D5
S32D0000EE40C1F6FF700D4907F05FFE41F28C13C1F6FF730A4A1A600CE041F23410C1F6FF70074907F051FE41F2B9
S32D0000EE688C13C1F6FF73044A1A6007F10807BD4680BD00BF0000B4420000000090B583B000AF41F25C10C1F673
S32D0000EE90FF7007F0C1F903464FF00102144618461D49FEF769FA0346002B02D14FF000031C46E3B2002B03D0B5
S32D0000EEB84FF47F037B601DE041F25C10C1F6FF7007F0A6F903464FF00102144618461049FEF74EFA0346002BE7
S32D0000EEE002D14FF000031C46E3B2002B03D04FF0FF037B6002E04FF000037B6041F2CC40C1F6FF70796808F0A1
S32D0000EF0875FB7B68184607F10C07BD4690BD00BF0000000080B500AF41F25410C1F6FF7006F0E2FC034683F0DF
S32D0000EF300103DBB2002B08D041F2CC40C1F6FF704FF43B0108F0A8FB09E041F2CC40C1F6FF704AF6A911C0F2A6
S32D0000EF58A90108F09DFB41F2CC40C1F6FF704FF00F014FF0DC024FF00A0309F0DDFC41F25810C1F6FF7006F0AB
S32D0000EF80B7FC034683F00103DBB2002B08D041F2CC40C1F6FF704FF43B0108F07DFB09E041F2CC40C1F6FF70BE
S32D0000EFA84AF6A911C0F2A90108F072FB41F2CC40C1F6FF7040F231114FF0DC024FF00A0309F0B2FC41F24C1008
S32D0000EFD0C1F6FF7006F08CFC034683F00103DBB2002B08D041F2CC40C1F6FF704FF43B0108F052FB09E041F2DA
S32D0000EFF8CC40C1F6FF704AF6A911C0F2A90108F047FB41F2CC40C1F6FF704FF00F014FF00A024FF00A0309F0E5
S32D0000F02087FC41F25010C1F6FF7006F061FC034683F00103DBB2002B08D041F2CC40C1F6FF704FF43B0108F007
S32D0000F04827FB09E041F2CC40C1F6FF704AF6A911C0F2A90108F01CFB41F2CC40C1F6FF7040F231114FF00A02A1
S32D0000F0704FF00A0309F05CFC41F2CC40C1F6FF706FF07F4108F008FB41F2CC40C1F6FF704CF20461C0F201019A
S32D0000F0984FF003024FF0000308F072FD41F2CC40C1F6FF704CF22061C0F201014FF004024FF0000308F064FDA5
S32D0000F0C041F23450C1F6FF700AF038FF03461846FEF75CF9034641F2CC40C1F6FF7019464FF003024FF0070389
S32D0000F0E808F06EFD41F23450C1F6FF700AF032FF03461846FEF746F9034641F2CC40C1F6FF7019464FF0030263
S32D0000F1104FF00D0308F058FD41F23450C1F6FF700AF02CFF03461846FEF730F9034641F2CC40C1F6FF70194661
S32D0000F1384FF003024FF0150308F042FD41F2CC40C1F6FF704CF23C61C0F201014FF005024FF0000308F014FD52
S32D0000F16041F28013C1F6FF731B6841F2CC40C1F6FF7019464FF005024FF0050308F044FD41F22C10C1F6FF70F0
S32D0000F18807F00EF8034641F2CC40C1F6FF7019464FF005024FF0120308F012FD41F2CC40C1F6FF704CF250615A
S32D0000F1B0C0F201014FF006024FF0000308F0E4FC41F28413C1F6FF731B6841F2CC40C1F6FF7019464FF006029B
S32D0000F1D84FF0050308F014FD41F23010C1F6FF7006F0DEFF034641F2CC40C1F6FF7019464FF006024FF01203A5
S32D0000F20008F0E2FC41F2CC40C1F6FF704CF26461C0F201014FF007024FF0000308F0B4FC41F28813C1F6FF73C5
S32D0000F2281B6841F2CC40C1F6FF7019464FF007024FF0060308F0E4FC41F2CC40C1F6FF704CF27861C0F20101D9
S32D0000F2504FF008024FF0000308F096FC41F28C13C1F6FF731B6841F2CC40C1F6FF7019464FF008024FF00603A8
S32D0000F27808F0C6FC41F2CC40C1F6FF704CF28C61C0F201014FF009024FF0000308F078FC41F2CC40C1F6FF700D
S32D0000F2A041F29411C1F6FF714FF009024FF0050308F06AFC80BD00BFF8B500AF41F22C10C1F6FF7006F070FF00
S32D0000F2C8044600F035FC0346E41841F23010C1F6FF7006F065FF0346E41800F0D1FB0346E2184DF24F13C1F6D9
S32D0000F2F0C21383FB02134FEAA3114FEAE273CB1A1846FDF7D7F902460B461046194612A3D3E90023FDF734FA02
S32D0000F31802460B4614461D4641F27013C1F6FF731B681846FDF7D4F902460B464FF001010E4620462946FDF7F9
S32D0000F340AFFC0346002B02D14FF000031E46F3B21846F8BDAFF300805E3855297A6A1F4080B582B000AF7860E8
S32D0000F368396078681D49FDF7DBFF0346002B06D041F22410C1F6FF7001F03AF806E041F22410C1F6FF7079687C
S32D0000F39001F082F838681349FDF7C6FF0346002B06D041F21C10C1F6FF7001F025F809E03B6883F0004341F2DD
S32D0000F3B81C10C1F6FF70194601F06AF841F28013C1F6FF737A681A6041F28413C1F6FF733A681A6007F10807C2
S32D0000F3E0BD4680BD0000000080B582B000AF786078687968FFF7B4FF07F10807BD4680BD80B584B000AF0346BF
S32D0000F408FB714FF00003FB73FB79002B02D0012B1FD03DE041F24C10C1F6FF7006F064FA034683F00103DBB2BB
S32D0000F430002B0ED041F25010C1F6FF7006F058FA034683F00103DBB2002B02D04FF0010301E04FF00003FB7386
S32D0000F45829E041F25410C1F6FF7006F045FA034683F00103DBB2002B0ED041F25810C1F6FF7006F039FA034602
S32D0000F48083F00103DBB2002B02D04FF0010301E04FF00003FB730AE041F25450C1F6FF704CF2A061C0F20101AF
S32D0000F4A80AF060FF00BFFB7B184607F11007BD4680BD00BF90B585B000AF03463960FB71FB79002B02D04FF015
S32D0000F4D0010301E04FF0FF33FB60FB79002B02D04FF0FF3301E04FF00103BB60F868FDF733FD03461846396870
S32D0000F4F8FDF782FD03461C46B868FDF729FD034618463968FDF778FD034620461946FFF723FF07F11407BD46A1
S32D0000F52090BD00BF00000000B0B588B002AF786041F23450C1F6FF700AF020FD03467B6178697968FDF752FC6E
S32D0000F5480346FB6078687969FDF74CFC0346BB600FE041F2C840C1F6FF704FF0050107F0E1F941F23450C1F6BB
S32D0000F570FF700AF003FD03467B6141F23450C1F6FF700AF0FBFC03464FF00102144618467B49FDF7D3FE0346FC
S32D0000F598002B02D14FF000031C46E3B2002BD8D17869FDF795F804460D467868FDF790F802460B46CDE900236D
S32D0000F5C041F25450C1F6FF704CF2E061C0F2010122462B460AF0CAFE4FF001031C46F8686749FDF7C9FE034699
S32D0000F5E8002B02D14FF000031C46E3B2002B01D0FB6812E0F868FDF76BF802460B46104619465BA3D3E900238B
S32D0000F610FCF704FF02460B4610461946FDF792FB0346FB604FF001031C46B8685449FDF7A3FE0346002B02D125
S32D0000F6384FF000031C46E3B2002B01D0BB6812E0B868FDF745F802460B461046194648A3D3E90023FCF7DEFE22
S32D0000F66002460B4610461946FDF76CFB0346BB604FF001031C46B868F968FDF75FFE0346002B02D14FF000036F
S32D0000F6881C46E3B2002B03D04FF00103FB7402E04FF00003FB74FB7C18463849FFF70AFF00BF41F23450C1F698
S32D0000F6B0FF700AF063FC034618467968FDF796FB03461846FDF79CFE03464FF00102144618462D49FDF750FE27
S32D0000F6D80346002B02D14FF000031C46E3B2002BDFD12548FFF77CFEFB7C18462449FFF7E1FE00BF41F234503F
S32D0000F700C1F6FF700AF03AFC034618467968FDF76DFB03461846FDF773FE03464FF00102144618461949FDF7FC
S32D0000F72827FE0346002B02D14FF000031C46E3B2002BDFD11048FFF753FE41F23450C1F6FF700AF017FC034661
S32D0000F7501846FCF7C1FF02460B4641F25450C1F6FF704CF20871C0F201010AF0FFFD07F11807BD46B0BD00BF3D
S32D0000F7780000000000807640000000000000C8410000A0400000803F2DE9B04F90B008AF07F1080383E8030008
S32D0000F7A041F23450C1F6FF700AF0C8FB0346FB6141F23450C1F6FF700AF0D0FB0346BB610FE041F2C840C1F614
S32D0000F7C8FF704FF0050107F0ADF841F23450C1F6FF700AF0AFFB0346FB614FF001031C46F8699F49FDF7A6FD18
S32D0000F7F00346002B02D14FF000031C46E3B2002BDFD141F23450C1F6FF700AF097FB0346FB6141F23450C1F614
S32D0000F818FF700AF09FFB0346BB61BB681846F969FDF7E0FA034618464FF00201FDF7D0FD0446FB681846B969D2
S32D0000F840FDF7D4FA034618464FF00201FDF7C4FD034620461946FDF7CBFA034618460AF04FFE024641F2701387
S32D0000F868C1F6FF731A60FB681846B969FDF7BAFA03461C46BB681846F969FDF7B3FA0346204619460AF034FEDB
S32D0000F89003461846FCF720FF02460B46104619466DA3D3E90023FCF76BFF02460B4610461946FDF747FA03462B
S32D0000F8B87B61F869FCF70CFF04460D46B869FCF707FFC7E90001BB681846FCF701FF82468B46FB681846FCF7BE
S32D0000F8E0FBFE804689467869FCF7F6FE02460B46D7E90001CDE90001CDE902ABCDE90489CDE9062341F2545037
S32D0000F908C1F6FF704CF22C71C0F2010122462B460AF028FD4FF001031C4678695049FDF727FD0346002B02D1A6
S32D0000F9304FF000031C46E3B2002B01D07B6912E07869FCF7C9FE02460B461046194644A3D3E90023FCF762FD9D
S32D0000F95802460B4610461946FDF7F0F903467B6178693F49FDF740FA03467B614FF001031C4678693B49FDF777
S32D0000F980FBFC0346002B02D14FF000031C46E3B2002B05D078693549FDF728FA034600E07B697B617869FFF7AD
S32D0000F9A8BFFD41F23450C1F6FF700AF0C3FA0346FB6141F23450C1F6FF700AF0CBFA0346BB61BB681846F96958
S32D0000F9D0FDF70CFA034618464FF00201FDF7FCFC0446FB681846B969FDF700FA034618464FF00201FDF7F0FC56
S32D0000F9F8034620461946FDF7F7F9034618460AF07BFD024641F27013C1F6FF731A6041F22C10C1F6FF7006F0AA
S32D0000FA20D7FB41F23010C1F6FF7006F0D1FB41F27413C1F6FF7307F1080292E8030083E803000B48FFF7D0FCA6
S32D0000FA4807F12007BD46BDE8B08F00BFAFF30080F8C1631ADCA54C400000000000807640000000000000B44339
S32D0000FA700000C841AFF3008080B400AFBD4680BC704700BF00000000B0B582B000AF41F28413C1F6FF731B68E9
S32D0000FA981846FDF7B1FC03467B607868FCF718FE02460B46104619461DA3D3E90023FCF763FE02460B46144600
S32D0000FAC01D467868FCF708FE02460B4620462946FCF756FE02460B4614461D467868FCF7FBFD02460B46204607
S32D0000FAE82946FCF797FC02460B46104619460EA3D3E90023FCF78CFC02460B4610461946FDF7D4F803463B60B0
S32D0000FB103B6823EAE3733B603B68184607F10807BD46B0BDAFF30080F5D896016729793F75931804560E064012
S32D0000FB38B0B582B000AF41F28013C1F6FF731B681846FDF759FC03467B607868FCF7C0FD02460B46104619463E
S32D0000FB601DA3D3E90023FCF70BFE02460B4614461D467868FCF7B0FD02460B4620462946FCF7FEFD02460B4611
S32D0000FB8814461D467868FCF7A3FD02460B4620462946FCF73FFC02460B46104619460EA3D3E90023FCF734FC82
S32D0000FBB002460B4610461946FDF77CF803463B603B6823EAE3733B603B68184607F10807BD46B0BDAFF3008052
S32D0000FBD8F5D896016729793F75931804560E064080B58EB000AF78600B46FB707B68184600F0DCF87B6803F1F3
S32D0000FC000803184600F0D6F87B6803F11003184600F0D0F87B6803F11803184600F0CAF87B6803F12003184655
S32D0000FC2800F0C4F87B6803F12803184600F0BEF87B68FA7883F8302007F1080318463049304A00F09FF87B681E
S32D0000FC5007F1080292E8030083E8030007F1100318462B492B4A00F091F87B6803F1080307F1100292E8030065
S32D0000FC7883E8030007F1180318462549254A00F081F87B6803F1100307F1180292E8030083E8030007F1200337
S32D0000FCA018461F491F4A00F071F87B6803F1180307F1200292E8030083E8030007F1280318461349184A00F088
S32D0000FCC861F87B6803F1200307F1280292E8030083E8030007F1300318461249124A00F051F87B6803F1280333
S32D0000FCF007F1300292E8030083E803007B68184607F13807BD4680BD0000EC4100007041000040410000344244
S32D0000FD180000C841000074420000944100005842000078410000C0400000D84180B582B000AF78607B6818468E
S32D0000FD4000F038F87B6803F10803184600F032F87B6803F11003184600F02CF87B6803F11803184600F026F861
S32D0000FD687B6803F12003184600F020F87B6803F12803184600F01AF87B68184607F10807BD4680BD80B485B0BA
S32D0000FD9000AFF860B9607A60FB68BA681A60FB687A685A60FB68184607F11407BD4680BC704700BF80B483B05D
S32D0000FDB800AF78607B68184607F10C07BD4680BC704700BF80B582B000AF786039607B68012B40F083803A682A
S32D0000FDE04FF6FF739A427DD141F21C10C1F6FF704FF000013D4A00F0A7FA41F22410C1F6FF704FF00101394AE6
S32D0000FE0800F09EFA41F22C10C1F6FF704FF0060105F00EFE41F23010C1F6FF704FF0070105F006FE41F2341018
S32D0000FE30C1F6FF704FF0000106F00AFE41F24010C1F6FF704FF0010106F002FE41F24C10C1F6FF704FF001016A
S32D0000FE5805F026FC41F25010C1F6FF704FF0020105F01EFC41F25410C1F6FF704FF0030105F016FC41F25810B9
S32D0000FE80C1F6FF704FF0040105F00EFC41F25C10C1F6FF704FF0000106F0AEF941F26010C1F6FF704FF0080138
S32D0000FEA806F0A6F941F26410C1F6FF704FF0090106F09EF941F26810C1F6FF704FF00A0106F096F941F274109D
S32D0000FED0C1F6FF70FFF76EFF41F2A810C1F6FF70FFF728FF07F10807BD4680BD0000404180B500AF4FF0010061
S32D0000FEF84FF6FF71FFF766FF80BD00BF80B500AF41F6D412C1F6FF7241F21C13C1F6FF73D31A194641F21C136E
S32D0000FF20C1F6FF731A460B4610464FF000011A460BF07FF980BD00BF0CF0F4F900F0B0F9FFF7E0FF0CF0C6F962
S32D0000FF480CF062F90CF0FAF900F00CF84FF0000041F2DC11C1F6FF71FDF75CFA034618460BF03EF980B500AFC4
S32D0000FF704FF4E043C4F204034FF4E042C4F2040202F5805202F13802126842F4785203F5805303F138031A603B
S32D0000FF9800F02EF900F094F841F21843C1F6FF734FF058021A6041F21843C1F6FF731B684FF47A7202FB03F283
S32D0000FFC041F21443C1F6FF731A6041F21443C1F6FF731B681A464FF4E043C4F2040303F5825303F104031B68E2
S32D0000FFE803F070634FEA136303F10103B2FBF3F31A4641F21C43C1F6FF731A604FF4E043C4F204034FF4E042CE
S32D00010010C4F2040202F5805202F13C02126842F0225203F5805303F13C031A604FF4E043C4F204034FF4E042EB
S32D00010038C4F2040202F5805202F13002126842F0006203F5805303F130031A604FF45043C4F203034FF48072AE
S32D000100601A614FF0640005F035F94FF45043C4F203034FF45042C4F20302526922F010025A614FF45043C4F2E8
S32D0001008803034FF000021A604FF45043C4F203034FF010025A6106F0EDF906F095FA41F21040C1F6FF7005F0EB
S32D000100B095F941F2CC40C1F6FF7007F0E9F841F2883005F073FA80BD80B400AF4FF48043C4F206034FF00002E3
S32D000100D85A704FF48043C4F206034FF098021A704FF48043C4F206039B79DBB203F01003002B0CBF002301235E
S32D00010100DBB2002BF0D14FF48043C4F206039B79DBB203F00C034FEA9303022B0CBF00230123DBB2002BEED16A
S32D000101284FF48043C4F206034FF018021A714FF48043C4F206034FF000025A714FF4E043C4F2040303F582533E
S32D0001015003F104034FF00002C0F213121A604FF48043C4F206034FF054025A7100BF4FF48043C4F206039B7936
S32D00010178DBB203F02003002B14BF00230123DBB2002BF0D100BF4FF48043C4F206039B79DBB203F04003002B71
S32D000101A014BF00230123DBB2002BF0D14FF48043C4F206034FF48042C4F206021278D2B202F03F02D2B21A70C6
S32D000101C84FF48043C4F206039B79DBB203F00C034FEA9303032B0CBF00230123DBB2002BEED14FF0000318467A
S32D000101F0BD4680BC704700BF80B400AF4FF44043C4F204034FF480725A634FF2C003C4F20F034FF2C002C4F24E
S32D000102180F02526942F400525A614FF2C003C4F20F034FF2C002C4F20F02126842F400521A604FF44043C4F21A
S32D00010240040340F20312C0F20A021A634FF46143CEF200034FF46142CEF20002D2F8882142F08062C3F88821C9
S32D000102684FF46143CEF200034FF46142CEF20002926842F080629A60BD4680BC704700BF80B483B000AF78606A
S32D00010290FEE700BF80B400AF00BEBD4680BC704780B400AF4FF0E0224CF20003C0F20003C2F8083D4FF4005355
S32D000102B8C4F205034CF22052DA814FF40053C4F205034DF62812DA814FF40053C4F205034FF0D2021A80BD461E
S32D000102E080BC704780B500AF4FF44043C4F20403D3F8A03003F48053002B0CBF00230123DBB2002B1FD04FF409
S32D000103084043C4F204034FF44042C4F20402D2F8A02022F48052C3F8A02041F25450C1F6FF700AF003F84FF2E5
S32D00010330C003C4F20F034FF2C002C4F20F02126822F400521A6080BD90B585B000AFF8600B467A60FB72FB6834
S32D00010358FA7A1A71FB684FF000025A714FF001031C4678682049FDF703F80346002B02D14FF000031C46E3B2AB
S32D00010380002B02D01A4B7B6011E04FF001031C4678681849FCF7DCFF0346002B02D14FF000031C46E3B2002BC1
S32D000103A801D0124B7B607868FCF792F902460B46104619460AA3D3E90023FCF7DDF902460B4610461946FCF7DB
S32D000103D0B9FC0246FB681A60FB68184607F11407BD4690BDAFF30080ABAAAAAAAAAA2040000040410000803F41
S32D000103F880B582B000AF78607B685B79002B10D07B684FF000025A717B681B7941F21040C1F6FF7019464FF079
S32D0001042000024FF01E0305F023F807F10807BD4680BD00BF80B584B000AF786039603B687F2B03DD4FF07F03BE
S32D00010448FB7309E03B6813F1800F03DA4FF08003FB7301E03B68FB737B685B79FA7B9A420FD07B68FA7B5A71EF
S32D000104707B681A79FB7B41F21040C1F6FF7011461A464FF01E0304F0F3FF07F11007BD4680BD00BF00000000BD
S32D00010498B0B584B000AF786039604FF001031C4638684D49FCF746FF0346002B02D14FF000031C46E3B2002BBE
S32D000104C002D0474B3B6011E04FF001031C4638684449FCF751FF0346002B02D14FF000031C46E3B2002B01D08C
S32D000104E83E4B3B603868FCF7F3F804460D467B681B681846FCF7ECF802460B46104619464FF000024FF080437A
S32D0001051003F5B203FCF75EFA02460B4620462946FCF72EF902460B4610461946FCF70AFC03463B604FF00103CE
S32D000105381C4638682A49FCF711FF0346002B02D14FF000031C46E3B2002B14D03868FCF7BFF802460B46104654
S32D0001056019461DA3D3E90023FCF70AF902460B4610461946FCF79EFB0346FB6022E03868FCF7AAF802460B462A
S32D00010588104619464FF000024FF0804303F5C003FCF7F2F802460B46104619464FF000024FF0804303F5B20376
S32D000105B0FCF710FA02460B4610461946FCF77AFB0346FB607868F968FFF734FF07F11007BD46B0BDAFF30080BA
S32D000105D852B81E85EB51F43F0000C8C20000C84200000000AFF3008080B485B000AF02460B46FA71BB71BB79A6
S32D00010600002B07D141F2E013C1F6FF734FF000021A7006E041F2E013C1F6FF734FF001021A704FF03803FB73C5
S32D0001062841F2E013C1F6FF731A78FB7B1343FB734FF4C043C4F206034FF4C042C4F206029278D2B242F01002AE
S32D00010650D2B29A704FF4C043C4F206034FF4C042C4F206029278D2B242F02002D2B29A704FF4C043C4F2060370
S32D00010678FA7B1A7107F11407BD4680BC704700BF80B483B000AF4FF001037B6004E000BF7B6803F101037B60FE
S32D000106A07B68312BCCBF00230123DBB2002BF2D107F10C07BD4680BC704700BF80B582B000AF02460B46FA71C5
S32D000106C8BB7141F2E113C1F6FF731B7818464FF00001FFF789FF4FF4C043C4F20603DB78DBB203F00203002BD0
S32D000106F014BF00230123DBB2002BF0D14FF4C043C4F206034FF4C042C4F20602D278D2B242F00202D2B2DA706E
S32D000107184FF4C043C4F20603FA791A714FF4C043C4F20603DB78DBB203F00203002B14BF00230123DBB2002BD5
S32D00010740F0D14FF4C043C4F206034FF4C042C4F20602D278D2B242F00202D2B2DA704FF4C043C4F20603BA79B7
S32D000107681A714FF4C043C4F20603DB78DBB203F00203002B14BF00230123DBB2002BF0D14FF4C043C4F2060337
S32D000107904FF4C042C4F20602D278D2B242F00202D2B2DA704FF4C043C4F206034FF4C042C4F206029278D2B2CF
S32D000107B822F02002D2B29A704FF4C043C4F206034FF4C042C4F206029278D2B222F01002D2B29A70FFF754FFBF
S32D000107E007F10807BD4680BD80B582B000AF0346FB71FB79184600F06BF807F10807BD4680BD00BF80B582B046
S32D0001080800AF02460B46FA71BB7100F039F8FB794FEA4303DBB21846FFF7E2FFBB791846FFF7DEFF00F03EF881
S32D0001083007F10807BD4680BD80B500AF4FF0FF0000F046F80346184680BD00BF80B584B000AF0346FB7100F0A2
S32D0001085817F8FB794FEA4303DBB243F00103DBB2DBB21846FFF7BCFFFFF7E2FF0346FB7300F018F8FB7B184620
S32D0001088007F11007BD4680BD80B400AF4FF24003C4F20F034FF24002C4F20F02926842F480129A60BD4680BC86
S32D000108A8704700BF80B400AF4FF24003C4F20F034FF24002C4F20F02526842F480125A60BD4680BC704700BF41
S32D000108D080B485B000AF0346FB714FF00003BB7303E0FB7B03F10103FB734FF44043C4F20A03DB6A4FF00003ED
S32D000108F8002BF2D14FF44043C4F20A034FF44042C4F20A02D26A42F00042DA624FF44043C4F20A03FA795A632E
S32D0001092000BF4FF44043C4F20A03DB6A03F40033002B14BF00230123DBB2002BF1D14FF44043C4F20A039B6BA3
S32D00010948BB73BB7B184607F11407BD4680BC704780B582B000AF4FF4E043C4F204034FF4E042C4F2040202F564
S32D00010970805202F13002126842F4805203F5805303F130031A604FF42043C4F204034FF480721A654FF24003D8
S32D00010998C4F20F034FF24002C4F20F02526942F480125A61FFF77EFF4FF42043C4F204034FF400725A654FF453
S32D000109C02043C4F204034FF400729A654FF42043C4F204034FF40072DA654FF44043C4F20A034FF44062C8F2B5
S32D000109E800021A604FF44043C4F20A034FF00502C3F60062DA604FF000037B6007E04FF0FF00FFF7EDFE7B683A
S32D00010A1003F101037B607B68092BCCBF00230123DBB2002BEFD104A1D1E9000104F0D8FD07F10807BD4680BD13
S32D00010A389A9999999999B93F90B486B000AFF860B9607A60FA684FF42043C4F206039A4214D14FF4E043C4F2E8
S32D00010A6004034FF4E042C4F2040202F5805202F13402126842F4806203F5805303F134031A6083E0FA684FF443
S32D00010A883043C4F206039A4214D14FF4E043C4F204034FF4E042C4F2040202F5805202F13402126842F4006204
S32D00010AB003F5805303F134031A6067E0FA684FF44043C4F206039A4214D14FF4E043C4F204034FF4E042C4F27A
S32D00010AD8040202F5805202F13402126842F4805203F5805303F134031A604BE0FA684FF45043C4F206039A4207
S32D00010B0014D14FF4E043C4F204034FF4E042C4F2040202F5805202F13402126842F4005203F5805303F13403B3
S32D00010B281A602FE0FA684FF42043C4F20E039A4214D14FF4E043C4F204034FF4E042C4F2040202F5805202F185
S32D00010B502802126842F4806203F5805303F128031A6013E04FF4E043C4F204034FF4E042C4F2040202F5805256
S32D00010B7802F12802126842F4006203F5805303F128031A60FB68DB78DBB223F00C03DAB2FB68DA70FB684FF07B
S32D00010BA000029A70BB684FF47A7202FB03F27B684FEA031392FBF3F39CB2FB681B78DBB223F01F03FB75234652
S32D00010BC803F4F8534FEA2323DBB203F01F03DAB2FB7D1343DAB2FB681A70E2B2FB685A70BB684FF4FA4202FB68
S32D00010BF003F27B684FEA031392FBF3F39AB2234619464FEAC121CB1A4FEA43139BB2D3189CB2FB689B7ADBB20E
S32D00010C1823F01F03FB75E3B203F01F03DAB2FB7D1343DAB2FB689A72FB68DB78DBB243F00C03DAB2FB68DA704B
S32D00010C4007F11807BD4690BC704700BF80B483B000AF786000BF7B681B79DBB203F02003002B14BF002301239D
S32D00010C68DBB2002BF3D17B68DB79DBB2184607F10C07BD4680BC704780B483B000AF78600B46FB7000BF7B6872
S32D00010C901B79DBB2DBB26FEA0303DBB24FEAD313DBB2002BF3D17B68FA78DA7107F10C07BD4680BC704700BFA0
S32D00010CB880B487B000AFF860B9607A60FB687B61BB683B610BE03B691A787B691A707B6903F101037B613B69BF
S32D00010CE003F101033B617B68002B0CBF00230123DBB27A6802F1FF327A60002BE7D107F11C07BD4680BC7047D0
S32D00010D0880B487B000AFF860B9607A60FB687B6107E0BB68DAB27B691A707B6903F101037B617B68002B0CBF83
S32D00010D3000230123DBB27A6802F1FF327A60002BEBD107F11C07BD4680BC704780B489B000AFF860B9607A6081
S32D00010D58FB68FB61BB68BB614FF000037B617B68002B0CBF00230123DBB27A6802F1FF327A60002B19D0FB694B
S32D00010D801B781A46BB691B78D31A7B617B69002B14BF00230123DBB2FA6902F10102FA61BA6902F10102BA6133
S32D00010DA8002B02D04FF0010301E04FF00003002BD5D17B69184607F12407BD4680BC704780B483B000AF78609F
S32D00010DD0396003E07B6803F101037B607B681B78002B08D07B681B781A463B689A4202D04FF0010301E04FF0BF
S32D00010DF80003002BEAD17B681B78184607F10C07BD4680BC704700BF80B584B000AF786039607B681B6BFB6002
S32D00010E20FA683B689A4264D07B681B79002B43D07B685A787B6803F1340310461946FA684FF0010304F0B4F81C
S32D00010E480346002B0CBF00230123DBB2002B02D04FF001034BE07B684FF000021A717B685A6A7B681B6AD21855
S32D00010E70FB689A4220D97B68DB78FB7214E07B681B6AFA68D318FB607B685A787B6803F1340310461946FA689A
S32D00010E984FF0010304F088F8FB7A03F1FF33FB72FB7A012B94BF00230123DBB2002BE2D13B68002B19D07B682C
S32D00010EC05A787B6803F13403104619463A684FF0010303F05FFF0346002B0CBF00230123DBB2002B02D04FF0E9
S32D00010EE8010304E07B683A681A634FF00003184607F11007BD4680BD80B584B000AF786078684FF00001FFF7FC
S32D00010F107FFF0346FB73FB7B002B40F0AE807B681B78032B40F095807B685B79002B00F090807B684FF000028F
S32D00010F381A637B6803F1340318464FF000014FF40072FFF7DDFE7B684FF0550283F832227B684FF0AA0283F84A
S32D00010F6033227B684FF0520283F834207B684FF0520283F835207B684FF0610283F836207B684FF0410283F84C
S32D00010F8837207B684FF0720283F818227B684FF0720283F819227B684FF0410283F81A227B684FF0610283F830
S32D00010FB01B227B681B69DAB27B6883F81C227B681B699BB24FEA2323DAB27B6883F81D227B681B694FEA1343F4
S32D00010FD8DAB27B6883F81E227B681B694FEA1363DAB27B6883F81F227B68DB68DAB27B6883F820227B68DB6807
S32D000110009BB24FEA2323DAB27B6883F821227B68DB684FEA1343DAB27B6883F822227B68DB684FEA1363DAB284
S32D000110287B6883F823227B6859787B6803F134027B685B69084611461A464FF0010303F0B3FF7B684FF000027D
S32D000110505A717B685B7818464FF000014FF0000204F08CF80346002B0CBF00230123DBB2002B02D04FF0010346
S32D00011078FB73FB7B184607F11007BD4680BD00BF80B483B000AF786039603B68A3F102033B607B68DB69A3F1E0
S32D000110A002023B689A4202D84FF0000307E07B689B783A6802FB03F27B68DB6AD318184607F10C07BD4680BC56
S32D000110C8704700BF80B586B000AF786039603B68012B04D97B68DA693B689A4202D84FF00103D3E07B681B7861
S32D000110F0022B5FD0032B00F08A80012B40F0C8803B687B617B694FEA53037A69D3187B617B685A6A7B694FEA49
S32D000111185323D31878681946FFF776FE0346002B0CBF00230123DBB2002B40F0A6807B694FEAC3534FEAD35378
S32D000111407A68D31893F834303B617B6903F101037B617B685A6A7B694FEA5323D31878681946FFF755FE03467A
S32D00011168002B0CBF00230123DBB2002B40F087807B694FEAC3534FEAD3537A68D31893F834304FEA03233A69DC
S32D0001119013433B613B6803F00103DBB2002B03D03B694FEA131304E03B694FEA03534FEA13536FE07B685A6A6A
S32D000111B83B684FEA1323D31878681946FFF724FE0346002B0CBF00230123DBB2002B58D13B684FEA43034FEAF2
S32D000111E0C3534FEAD35303F130037A68D31803F10403FB60FB6803F101031B784FEA03239AB2FB681B7813433C
S32D000112089BB29BB242E07B685A6A3B684FEAD313D31878681946FFF7F7FD0346002B0CBF00230123DBB2002B40
S32D000112302DD13B684FEA83034FEAC3534FEAD35303F130037A68D31803F10403FB60FB6803F103031B784FEA0E
S32D000112580362FB6803F102031B784FEA03431A43FB6803F101031B784FEA03231A43FB681B78134323F070437B
S32D0001128008E000BF04E000BF02E000BF00E000BF4FF0FF33184607F11807BD4680BD00BF80B588B000AFF8605C
S32D000112A8B9607A60BB68012B04D9FB68DA69BB689A4203D84FF00203FB771AE1FB681B78022B00F08580032B81
S32D000112D000F0AD80012B40F00181BB68BB61BB694FEA5303BA69D318BB61FB685A6ABB694FEA5323D318F86893
S32D000112F81946FFF789FD0346FB77FB7F002B40F0ED80BB694FEAC3534FEAD35303F13003FA68D31803F10403AE
S32D000113207B61BB6803F00103DBB2002B0ED07B691B78DBB203F00F03DAB27B68DBB24FEA0313DBB21343DBB24E
S32D00011348DBB201E07B68DBB27A691370BB6903F10103BB61FB684FF001021A71FB685A6ABB694FEA5323D318E5
S32D00011370F8681946FFF74CFD0346FB77FB7F002B40F0B280BB694FEAC3534FEAD35303F13003FA68D31803F154
S32D0001139804037B61BB6803F00103DBB2002B04D07B684FEA1313DBB20FE07B691B78DBB223F00F03DAB27B6847
S32D000113C04FEA1323DBB203F00F03DBB21343DBB2DBB27A6913708CE0FB685A6ABB684FEA1323D318F8681946CB
S32D000113E8FFF712FD0346FB77FB7F002B7AD1BB684FEA43034FEAC3534FEAD35303F13003FA68D31803F1040367
S32D000114107B617B68DAB27B691A707B6903F101037A6892B24FEA2222D2B21A7061E0FB685A6ABB684FEAD313BD
S32D00011438D318F8681946FFF7E7FC0346FB77FB7F002B51D1BB684FEA83034FEAC3534FEAD35303F13003FA6867
S32D00011460D31803F104037B617B6903F103031B784FEA03627B6903F102031B784FEA03431A437B6903F1010364
S32D000114881B784FEA03231A437B691B78134303F070437A6813437B607B68DAB27B691A707B6903F101037A68C5
S32D000114B092B24FEA2222D2B21A707B6903F102037A684FEA1242D2B21A707B6903F103037A684FEA1262D2B2F3
S32D000114D81A700AE04FF00203FB7706E000BF04E000BF02E000BF00E000BFFB684FF001021A71FB7F184607F133
S32D000115002007BD4680BD00BF80B584B000AF786039603B68012B04D97B68DA693B689A4203D84FF00203FB732F
S32D0001152845E04FF00003FB7333E078683968FFF7C9FD0346BB60BB68002B35D0BB68012B03D14FF00203FB73E3
S32D0001155031E0BB68B3F1FF3F03D14FF00103FB7329E0786839684FF00002FFF799FE0346FB73FB7B002B1DD133
S32D000115787B681B69B3F1FF3F09D07B681B6903F101027B681A617B684FF001025A71BB683B607B68DA693B68EF
S32D000115A09A4294BF00230123DBB2002BC1D102E000BF00E000BFFB7B184607F11007BD4680BD00BF80B586B0CF
S32D000115C800AF786039603B68002B0ED17B68DB683B613B69002B04D07B68DA693B699A4218D84FF001033B614D
S32D000115F014E078683968FFF769FD0346BB60BB68012B02D84FF001036EE07B68DA69BB689A4201D9BB6867E074
S32D000116183B683B613B697B6100E000BF7B6903F101037B617B68DA697B699A4209D84FF002037B617A693B691F
S32D000116409A4202D94FF000034EE078687969FFF73DFD0346BB60BB68002B0FD0BB68B3F1FF3F02D0BB68012BAB
S32D0001166801D1BB683CE07A693B699A42D5D14FF0000335E000BF786879696FF07042FFF70BFE0346FB73FB7B24
S32D00011690002B09D13B68002B06D0786839687A69FFF7FEFD0346FB73FB7B002B12D17B687A69DA607B681B698B
S32D000116B8B3F1FF3F13D07B681B6903F1FF327B681A617B684FF001025A7108E0FB7B012B02D14FF0FF3301E0B5
S32D000116E04FF001037B617B69184607F11807BD4680BD00BF80B487B000AF786039607B685B6A03F104033B619A
S32D000117083B684FEA53227B681B689B78B2FBF3F37B613B691B68FB603B6903F104033B61FB68002B02D14FF01C
S32D00011730000311E07A69FB689A4208D37A69FB68D31A7B613B6903F104033B61E5E700BF3B691A687B69D318CF
S32D00011758184607F11C07BD4680BC704780B584B000AF78600B467B807B687A88DA807B689B68FB60FB68012BA8
S32D0001178005D07B681B68DA69FB689A4202D84FF0020373E0FB68002B08D17B681B681B78032B03D17B681B6844
S32D000117A89B6AFB60FB68002B16D17B68FA68DA607B681B681B897A889A4202D34FF0020358E07B681B689A6A1B
S32D000117D07B884FEA13139BB2D2187B681A613FE07B681B689B784FEA03137B811EE07B681B681846F968FFF7F7
S32D000117F869FC0346FB60FB68B3F1FF3F02D14FF0010337E0FB68012B05D97B681B68DA69FB689A4202D84FF0D9
S32D0001182002032BE07A887B89D31A7B807A887B899A4234BF00230123DBB2002BD7D17B68FA68DA607B681B683A
S32D000118481846F968FFF71CFC02467B884FEA13139BB2D2187B681A617B681B6803F134027B8803F00F034FEA94
S32D000118704313D2187B685A614FF00003184607F11007BD4680BD00BF90B585B000AF786039607B68DB8803F1E9
S32D0001189801033B813B89002B03D07B681B69002B02D14FF00403E4E03B8903F00F03002B40F0CE807B681B6957
S32D000118C003F101027B681A617B68DB68002B09D17B681B681B893A899A42C0F0BD804FF00403CAE03B894FEAF6
S32D000118E813139BB21A467B681B689B7803F1FF331340002B40F0AC807B681A687B68DB6810461946FFF7DEFB76
S32D000119100346FB60FB68012B02D84FF00203ACE0FB68B3F1FF3F02D14FF00103A5E07B681B68DA69FB689A4203
S32D0001193800F282803B68002B02D14FF0040398E07B681A687B68DB6810461946FFF736FE0346FB60FB68002B91
S32D0001196002D14FF0070388E0FB68012B02D14FF0020382E0FB68B3F1FF3F02D14FF001037BE07B681B68184652
S32D000119884FF00001FFF740FA0346002B0CBF00230123DBB2002B02D04FF0010369E07B681B6803F13403184635
S32D000119B04FF000014FF40072FFF7A6F97B681C687B681B681846F968FFF75EFB034623634FF00003FB7220E025
S32D000119D87B681B684FF001021A717B681B6818464FF00001FFF710FA0346002B0CBF00230123DBB2002B02D099
S32D00011A004FF0010339E07B681B681A6B02F101021A63FB7A03F10103FB727B681B689B78FA7A9A422CBF00234C
S32D00011A280123DBB2002BD3D17B681B687A681268116BFA7A8A1A1A637B68FA68DA607B681B681846F968FFF7A2
S32D00011A501BFB02467B681A617B683A89DA807B681B6803F134023B8903F00F034FEA4313D2187B685A614FF0FC
S32D00011A780003184607F11407BD4690BD80B586B000AF786078684FF00001FFF767FE0346FB75FB7D002B01D0E1
S32D00011AA0FB7D47E07B681A687B681B6910461946FFF7AEF90346FB75FB7D002B36D17B685B693B613B691B787D
S32D00011AC8FB73FB7B002B03D14FF00403FB752CE03B6903F10B031B7803F00803002B0DD17B689B693869194623
S32D00011AF04FF00B02FFF72AF90346002B02D14FF0010301E04FF00003002B11D178684FF00001FFF7B9FE034692
S32D00011B18FB75FB7D002B14BF00230123DBB2002BBCD102E000BF00E000BFFB7D184607F11807BD4680BD00BF00
S32D00011B4080B584B000AF786078684FF00001FFF709FE0346FB73FB7B002B29D17B681A687B681B691046194696
S32D00011B68FFF752F90346FB73FB7B002B19D17B685B691B78BB73BB7BE52B14D0BB7B002B11D078684FF00101D6
S32D00011B90FFF77AFE0346FB73FB7B002B14BF00230123DBB2002BD9D102E000BF00E000BFFB7B002B23D17B682C
S32D00011BB81A687B681B6910461946FFF725F90346FB73FB7B002B16D17B685B69BB60B8684FF000014FF020028A
S32D00011BE0FFF792F87B689B69B86819464FF00B02FFF762F87B681B684FF001021A71FB7B184607F11007BD463B
S32D00011C0880BD00BF80B588B000AF786039603B681B68FB6003E0FB6803F10103FB60FB681B782F2B03D0FB6884
S32D00011C301B785C2B02D14FF0010301E04FF00003002BECD17B689B69BB60B8684FF020014FF00B02FFF758F836
S32D00011C584FF00003FB774FF000033B613B697B614FF00803BB61FA687B69D3181B782E2B39D1FA687B69D3188D
S32D00011C801B78BB777B6903F101037B61BB7F2E2B0CD17B69022B09D8BA683B69D318BA7F1A703B6903F1010346
S32D00011CA83B61E6E700BFBB7F2F2B08D0BB7F5C2B05D0BB7F202B02D94FF00603C5E0FA687B69D2183B681A6049
S32D00011CD0BB6803F10B02BB7F202B02D84FF0240301E04FF0200313704FF00003B1E0FA687B69D3181B78BB776D
S32D00011CF87B6903F101037B61BB7F202B68D9BB7F2F2B65D0BB7F5C2B62D0BB7F2E2B03D03A69BB699A4214D393
S32D00011D20BB69082B02D1BB7F2E2B02D04FF006038FE04FF008033B614FF00B03BB61FB7F4FEA8303FB7700BF95
S32D00011D48D1E7BB7F5BB2002B0CDAFB7F43F00303FB77BB7FA3F180024CF67823C0F201039B5CBB77BB7F4CF2B3
S32D00011D706470C0F201001946FFF726F80346002B0CBF00230123DBB2002B02D04FF006035FE0BB7F402B07D92E
S32D00011D98BB7F5A2B04D8FB7F43F00203FB770DE0BB7F602B0AD9BB7F7A2B07D8FB7F43F00103FB77BB7FA3F119
S32D00011DC02003BB77BA683B69D318BA7F1A703B6903F101033B618AE700BFFA687B69D2183B681A60BB7F202BF1
S32D00011DE802D84FF0040301E04FF00003BB773B69002B02D14FF0060327E0BB681B78E52B03D1BB684FF0050263
S32D00011E101A70BB69082B03D1FB7F4FEA8303FB77FB7F03F00303012B03D1BB7F43F01003BB77FB7F03F00C03A2
S32D00011E38042B03D1BB7F43F00803BB77BB6803F10B03BA7F1A704FF00003184607F12007BD4680BD80B584B07E
S32D00011E6000AF786039603B681B782F2B03D03B681B785C2B08D13B6803F101033B607B684FF000029A6004E002
S32D00011E887B681B689A697B689A603B681B781F2B0BD878684FF00001FFF760FC0346FB737B684FF000025A617A
S32D00011EB075E03B4678681946FFF7A8FE0346FB73FB7B002B64D17868FFF7DCFD0346FB737B689B69DB7ABB73F5
S32D00011ED8FB7B002B21D0FB7B042B57D1BB7B03F02003002B10D07B684FF000029A607B684FF000025A614FF0E9
S32D00011F000003FB73BB7B03F00403002B44D13EE0BB7B03F00403002B3ED14FF00503FB733AE0BB7B03F004034A
S32D00011F28002B37D17B685B69BB60BB6803F10B031B7803F01003002B03D14FF00503FB7329E0BB6803F11503EB
S32D00011F501B784FEA03239AB2BB6803F114031B7813439BB29BB24FEA0342BB6803F11B031B784FEA032399B283
S32D00011F78BB6803F11A031B780B439BB29BB21A437B689A6091E790E700BF04E000BF02E000BF00E000BFFB7B4A
S32D00011FA0184607F11007BD4680BD00BF80B582B000AF786039607B685A787B6803F13403104619463A684FF0C6
S32D00011FC8010302F0E3FE0346002B0CBF00230123DBB2002B02D04FF0030356E07B6893F833324FEA03239AB20A
S32D00011FF07B6893F8323213439BB21AB24AF65523CFF6FF739A4202D04FF0020341E07B6893F86D304FEA0362D6
S32D000120187B6893F86C304FEA03431A437B6893F86B304FEA03231A437B6893F86A30134323F07F4244F246132D
S32D00012040C0F254039A4202D14FF0000321E07B6893F889304FEA03627B6893F888304FEA03431A437B6893F841
S32D0001206887304FEA03231A437B6893F88630134323F07F4244F24613C0F254039A4202D14FF0000301E04FF0DF
S32D000120900103184607F10807BD4680BD80B592B000AFF860B9601346FB71FB681B68FB62FB6A1B78A3F130031A
S32D000120B83B643B6C092B0DD8FB6A03F101031B783A2B07D1FB6A03F10203FB62FB68FA6A1A6005E041F2EA135C
S32D000120E0C1F6FF731B783B643B6C002B02D04FF00B03C9E241F2E413C1F6FF733A6C53F82230BB62BB68BA6AE0
S32D000121081A60BB6A002B02D14FF00C03B8E2BB6A1B78002B20D0BB6A5B78184603F0BEF8034687F8273097F8A3
S32D00012130273003F00103DBB283F00103DBB2002B0ED0FB79002B08D097F8273003F00403002B02D04FF00A03F8
S32D0001215896E24FF0000393E2BB6A4FF000021A703B6CDAB2BB6A5A70BB6A5B78184602F04FFB034687F8273066
S32D0001218097F8273003F00103DBB2002B02D04FF0030379E2FB79002B08D097F8273003F00403002B02D04FF096
S32D000121A80A036DE24FF00003FB63B86AF96BFFF7F9FE034687F8473097F84730012B2AD1BB6A03F5F9733B6207
S32D000121D03B6A03F104031B78002B20D03B6A03F10B031B784FEA03623B6A03F10A031B784FEA03431A433B6A00
S32D000121F803F109031B784FEA03231A433B6A03F108031B781343FB63B86AF96BFFF7CAFE034687F8473097F86C
S32D000122204730032B02D14FF001032DE297F84730002B02D04FF00D0326E2BB6A93F840304FEA03239AB2BB6A7B
S32D0001224893F83F3013439BB21BB2B3F5007F02D04FF00D0314E2BB6A93F84B304FEA03239AB2BB6A93F84A30BF
S32D0001227013439BB29BB2BB63BB6B002B15D1BB6A93F85B304FEA0362BB6A93F85A304FEA03431A43BB6A93F85B
S32D0001229859304FEA03231A43BB6A93F858301343BB63BB6ABA6B1A62BB6A93F84430FB77BB6AFA7FDA70FB7F68
S32D000122C0012B05D0FB7F022B02D04FF00D03DBE1FA7FBB6B02FB03F3BB63BB6A93F84130FB77BB6AFA7F9A707F
S32D000122E8FB7F002B06D0FA7FFB7F03F1FF331340002B02D04FF00D03C2E1BB6A93F846304FEA03239AB2BB6AFB
S32D0001231093F8453013439BB29AB2BB6A1A81BB6A1B8903F00F03002B02D04FF00D03ABE1BB6A93F848304FEAE8
S32D0001233803239AB2BB6A93F8473013439BB29BB27B637B6B002B15D1BB6A93F857304FEA0362BB6A93F856300D
S32D000123604FEA03431A43BB6A93F855304FEA03231A43BB6A93F8543013437B63BB6A93F843304FEA03239AB24B
S32D00012388BB6A93F8423013439BB2BB83BB8B002B02D14FF00D0373E1BA8BBB6BD218BB6A1B894FEA13139BB272
S32D000123B0D318BB617A6BBB699A4202D24FF00D0362E17A6BBB69D21ABB6A9B78B2FBF3F37B617B69002B02D12E
S32D000123D84FF00D0354E14FF0010387F847307A6940F6F5739A4203D94FF0020387F847307A694FF6F5739A423A
S32D0001240003D94FF0030387F847307B6903F10202BB6ADA61FA6BBB69D218BB6ADA62BA8BFB6BD218BB6A5A6210
S32D0001242897F84730032B23D1BB6A1B89002B02D04FF00D0324E1BB6A93F863304FEA0362BB6A93F862304FEAE7
S32D0001245003431A43BB6A93F861304FEA03231A43BB6A93F860301A43BB6A9A62BB6ADB694FEA83033B6323E036
S32D00012478BB6A1B89002B02D14FF00D0300E1BB6A5A6ABB6BD218BB6A9A6297F84730022B04D1BB6ADB694FEA7A
S32D000124A043030CE0BB6ADA6913464FEA43039B184FEA5302BB6ADB6903F00103D3183B63BB6A1A6A3B6B03F52A
S32D000124C8FE7303F103034FEA53239A4202D24FF00D03D5E0BB6A4FF0FF321A61BB6A4FF00002DA6097F8473061
S32D000124F0032B40F0A380BB6A4FF000025A71BB6A93F865304FEA03239AB2BB6A93F8643013439BB29BB21A4687
S32D00012518FB6BD218BB6A5A61BB6A5978BB6A03F13402BB6A5B69084611461A464FF0010302F02CFC0346002B60
S32D000125404AD1BB6A93F833324FEA03239AB2BB6A93F8323213439BB21AB24AF65523CFF6FF739A4238D1BB6A15
S32D0001256893F837304FEA0362BB6A93F836304FEA03431A43BB6A93F835304FEA03231A43BB6A93F834301A4380
S32D0001259045F25223C4F261139A421DD1BB6A93F81B324FEA0362BB6A93F81A324FEA03431A43BB6A93F819320E
S32D000125B84FEA03231A43BB6A93F818321A4347F27223C6F241139A4202D14FF0010301E04FF00003002B2DD0CA
S32D000125E0BB6A93F823324FEA0362BB6A93F822324FEA03431A43BB6A93F821324FEA03231A43BB6A93F8203288
S32D000126081A43BB6ADA60BB6A93F81F324FEA0362BB6A93F81E324FEA03431A43BB6A93F81D324FEA03231A43B1
S32D00012630BB6A93F81C321A43BB6A1A61BB6A97F847201A7041F2E813C1F6FF731B8803F101039AB241F2E8136F
S32D00012658C1F6FF731A8041F2E813C1F6FF731A88BB6ADA80BB6A4FF000021A63BB6A4FF000021A71BB6A4FF0E0
S32D0001268000029A614FF00003184607F14807BD4680BD00BF80B582B000AF78600B467B807B68002B08D07B6845
S32D000126A81B78002B04D07B68DB887A889A4202D04FF009030FE07B685B78184602F0EEFD034603F00103DBB283
S32D000126D0002B02D04FF0030301E04FF00003184607F10807BD4680BD80B485B000AF03463960FB71FB79002BCC
S32D000126F802D04FF00B031FE0FA7941F2E413C1F6FF7353F82230FB60FB68002B03D0FB684FF000021A703B68A5
S32D00012720002B03D03B684FF000021A70FA7941F2E413C1F6FF73396843F822104FF00003184607F11407BD4694
S32D0001274880BC704780B592B000AFF860B9601346FB71FB684FF000021A60FB7903F01F03FB71FB7923F0010375
S32D00012770DBB207F1080107F11C02084611461A46FFF78CFC034687F8473007F110037B6397F84730002B09D1E0
S32D00012798BB6807F11C0210461946FFF75BFB034687F847303B6B3B6497F84730002B06D13B6C002B03D14FF067
S32D000127C0060387F84730FB7903F01C03002B00F0D48097F84730002B12D097F84730042B07D107F11C03184661
S32D000127E8FFF7AAF9034687F84730FB7943F00803FB713B6B3B6415E03B6C03F10B031B7803F01103002B04D050
S32D000128104FF0070387F8473008E0FB7903F00403002B03D04FF0080387F8473097F84730002B40F0C580FB79AC
S32D0001283803F00803002B00F0BF804FF00003FB633B6C03F10E03FA6BD2B21A703B6C03F10F03FA6B92B24FEACB
S32D000128602222D2B21A703B6C03F11003FA6B4FEA1242D2B21A703B6C03F11103FA6B4FEA1262D2B21A703B6CD3
S32D0001288803F10B034FF000021A703B6C03F11C034FF000021A703B6C03F11D034FF000021A703B6C03F11E038D
S32D000128B04FF000021A703B6C03F11F034FF000021A703B6C03F115031B784FEA03239AB23B6C03F114031B7870
S32D000128D813439BB29BB24FEA03423B6C03F11B031B784FEA032399B23B6C03F11A031B780B439BB29BB21343E4
S32D00012900BB633B6C03F11A034FF000021A703B6C03F11B034FF000021A703B6C03F114034FF000021A703B6C5F
S32D0001292803F115034FF000021A70FB694FF001021A71BB6B002B3FD0FB691B6BFB63FB691846B96BFEF7DCFD1C
S32D00012950034687F8473097F84730002B30D1FB69BA6B02F1FF32DA60FB691846F96BFEF74FFA034687F847305D
S32D0001297822E097F84730002B1ED13B6C03F10B031B7803F01003002B04D04FF0040387F8473011E0FB7903F039
S32D000129A00203002B0CD03B6C03F10B031B7803F00103DBB2002B03D04FF0070387F8473097F84730002B0FD1EE
S32D000129C8FB7903F00803002B03D0FB7943F02003FB71FB691A6BFB68DA61FB683A6C1A6297F84730002B51D1DB
S32D000129F0FB68FA799A713B6C03F115031B784FEA03239AB23B6C03F114031B7813439BB29BB24FEA03423B6C8C
S32D00012A1803F11B031B784FEA032399B23B6C03F11A031B780B439BB29BB21A43FB681A613B6C03F11F031B7882
S32D00012A404FEA03623B6C03F11E031B784FEA03431A433B6C03F11D031B784FEA03231A433B6C03F11C031B7847
S32D00012A681A43FB68DA60FB684FF000029A60FB684FF000029A61FB684FF000025A62FA69FB681A60FB69DA88A2
S32D00012A90FB689A8097F84730184607F14807BD4680BD00BF80B58AB000AFF860B9607A603B60BB68BB613B680A
S32D00012AB84FF000021A60FB681A68FB689B8810461946FFF7E3FD0346FB75FB7D002B01D0FB7DACE1FB689B7995
S32D00012AE0DBB25BB2002B02DA4FF00203A3E1FB689B7903F00203002B02D14FF007039AE1FB68DA687B68D218BB
S32D00012B08FB68DB689A4280F074814FF000037B606FE1FB689B684FEAC3534FEAD353002B40F02E81FB689B68C6
S32D00012B304FEA5323DAB2FB681B689B7803F1FF33DBB21340BB75BB7D002B4FD1FB689B68002B12D1FB681B692E
