S01300002E2E2F4645485F526F626F742E7331391E
S32D0000C00000000020FD1101005915010059150100591501005915010059150100000000000000000000000000B8
S32D0000C0280000000059150100591501000000000059150100591501005915010059150100591501005915010072
S32D0000C050591501005915010059150100591501005915010059150100591501005915010059150100591501006C
S32D0000C0785915010059150100591501005915010059150100591501005915010059150100591501005915010044
S32D0000C0A0591501005915010059150100591501005915010059150100591501005915010059150100591501001C
S32D0000C0C859150100591501005915010059150100591501005915010059150100591501005915010059150100F4
S32D0000C0F059150100A9B201005915010059150100591501005915010059150100591501005915010059150100DF
S32D0000C11859150100591501005915010059150100591501005915010059150100591501005915010059150100A3
S32D0000C140591501005915010059150100591501003D780100591501005915010059150100591501005915010034
S32D0000C1685915010059150100591501005915010059150100591501005915010059150100591501005915010053
S32D0000C1905915010059150100591501009D720100F1700100C5710100A915010075730100591501005915010005
S32D0000C1B85915010059150100591501005915010059150100591501005915010059150100591501005915010003
S32D0000C41081F0004102E000BF83F0004330B54FEA41044FEA430594EA050F08BF90EA020F1FBF54EA000C55EAC6
S32D0000C438020C7FEA645C7FEA655C00F0E2804FEA5454D4EB5555B8BF6D420CDD2C4480EA020281EA030382EA0F
S32D0000C460000083EA010180EA020281EA0303362D88BF30BD11F0004F4FEA01314FF4801C4CEA113102D0404263
S32D0000C48861EB410113F0004F4FEA03334CEA133302D0524263EB430394EA050F00F0A780A4F10104D5F1200E8A
S32D0000C4B00DDB02FA0EFC22FA05F2801841F1000103FA0EF2801843FA05F359410EE0A5F120050EF1200E012A2D
S32D0000C4D803FA0EFC28BF4CF0020C43FA05F3C01851EBE37101F0004507D54FF0000EDCF1000C7EEB00006EEB67
S32D0000C5000101B1F5801F1BD3B1F5001F0CD349085FEA30004FEA3C0C04F101044FEA445212F5800F80F09A8000
S32D0000C528BCF1004F08BF5FEA500C50F1000041EB045141EA050130BD5FEA4C0C404141EB010111F4801FA4F114
S32D0000C5500104E9D191F0000F04BF01460020B1FA81F308BF2033A3F10B03B3F120020CDA0C3208DD02F1140C87
S32D0000C578C2F10C0201FA0CF021FA02F10CE002F11402D8BFC2F1200C01FA02F120FA0CFCDCBF41EA0C019040B1
S32D0000C5A0E41AA2BF01EB0451294330BD6FEA04041F3C1CDA0C340EDC04F11404C4F1200220FA04F001FA02F3B6
S32D0000C5C840EA030021FA04F345EA030130BDC4F10C04C4F1200220FA02F001FA04F340EA0300294630BD21FAA8
S32D0000C5F004F0294630BD94F0000F83F4801306BF81F480110134013D4EE77FEA645C18BF7FEA655C29D094EA1C
S32D0000C618050F08BF90EA020F05D054EA000C04BF1946104630BD91EA030F1EBF0021002030BD5FEA545C05D1A3
S32D0000C6404000494128BF41F0004130BD14F580043CBF01F5801130BD01F0004545F0FE4141F470014FF0000031
S32D0000C66830BD7FEA645C1ABF194610467FEA655C1CBF0B46024650EA013406BF52EA033591EA030F41F40021D7
S32D0000C69030BD00BF90F0000F04BF0021704730B54FF4806404F132044FF000054FF0000150E700BF90F0000F66
S32D0000C6B804BF0021704730B54FF4806404F1320410F0004548BF40424FF000013EE700BF42004FEAE2014FEAF9
S32D0000C6E031014FEA02701FBF12F07F4393F07F4F81F06051704792F0000F14BF93F07F4F704730B54FF460741B
S32D0000C70801F0004521F0004120E700BF50EA010208BF704730B54FF000050AE050EA010208BF704730B511F046
S32D0000C730004502D5404261EB41014FF4806404F132045FEA915C3FF4DCAE4FF003025FEADC0C18BF03325FEAA0
S32D0000C758DC0C18BF033202EBDC02C2F1200300FA03FC20FA02F001FA03FE40EA0E0021FA02F11444C1E600BF19
S32D0000C78070B54FF0FF0C4CF4E06C1CEA11541DBF1CEA135594EA0C0F95EA0C0F00F0DEF82C4481EA030621EAF3
S32D0000C7A84C5123EA4C5350EA013518BF52EA033541F4801143F4801338D0A0FB02CE4FF00005E1FB02E506F05F
S32D0000C7D00042E0FB03E54FF00006E1FB03569CF0000F18BF4EF0010EA4F1FF04B6F5007F64F5407404D25FEA0F
S32D0000C7F84E0E6D4146EB060642EAC62141EA55514FEAC52040EA5E504FEACE2EB4F1FD0C88BFBCF5E06F1ED8D2
S32D0000C820BEF1004F08BF5FEA500E50F1000041EB045170BD06F0004646EA010140EA020081EA0301B4EB5C0487
S32D0000C848C2BFD4EB0C0541EA045170BD41F480114FF0000E013C00F3AB8014F1360FDEBF002001F0004170BDF0
S32D0000C870C4F10004203C35DA0C341BDC04F11404C4F1200500FA05F320FA04F001FA05F240EA020001F0004207
S32D0000C89821F0004110EBD37021FA04F642EB06015EEA430E08BF20EAD37070BDC4F10C04C4F1200500FA04F32F
S32D0000C8C020FA05F001FA04F240EA020001F0004110EBD37041F100015EEA430E08BF20EAD37070BDC4F12005C7
S32D0000C8E800FA05F24EEA020E20FA04F301FA05F243EA020321FA04F001F0004121FA04F220EA020000EBD37028
S32D0000C9105EEA430E08BF20EAD37070BD94F0000F0FD101F00046400041EB010111F4801F08BF013CF7D041EA6D
S32D0000C938060195F0000F18BF704703F00046520043EB030313F4801F08BF013DF7D043EA0603704794EA0C0FF1
S32D0000C9600CEA135518BF95EA0C0F0CD050EA410618BF52EA4306D1D181EA030101F000414FF0000070BD50EA38
S32D0000C988410606BF1046194652EA430619D094EA0C0F02D150EA013613D195EA0C0F05D152EA03361CBF10467B
S32D0000C9B019460AD181EA030101F0004141F0FE4141F470014FF0000070BD41F0FE4141F4780170BD70B54FF04D
S32D0000C9D8FF0C4CF4E06C1CEA11541DBF1CEA135594EA0C0F95EA0C0F00F0A7F8A4EB050481EA030E52EA03359B
S32D0000CA004FEA013100F088804FEA03334FF0805545EA131343EA12634FEA022245EA111545EA10654FEA002676
S32D0000CA280EF000419D4208BF964244F1FD0404F5407402D25B084FEA3202B61A65EB03055B084FEA32024FF461
S32D0000CA5080104FF4002CB6EB020E75EB030E22BFB61A754640EA0C005B084FEA3202B6EB020E75EB030E22BF22
S32D0000CA78B61A754640EA5C005B084FEA3202B6EB020E75EB030E22BFB61A754640EA9C005B084FEA3202B6EBEA
S32D0000CAA0020E75EB030E22BFB61A754640EADC0055EA060E18D04FEA051545EA16754FEA06164FEAC30343EAAC
S32D0000CAC852734FEAC2025FEA1C1CC0D111F4801F0BD141EA00014FF000004FF0004CB6E711F4801F04BF0143AE
S32D0000CAF00020B4F1FD0C88BFBCF5E06F3FF6AFAEB5EB030C04BFB6EB020C5FEA500C50F1000041EB045170BDBC
S32D0000CB180EF0004E4EEA113114EB5C04C2BFD4EB0C0541EA045170BD41F480114FF0000E013C90E645EA060EC3
S32D0000CB408DE60CEA135594EA0C0F08BF95EA0C0F3FF43BAF94EA0C0F0AD150EA01347FF434AF95EA0C0F7FF499
S32D0000CB6825AF104619462CE795EA0C0F06D152EA03353FF4FDAE1046194622E750EA410618BF52EA43067FF432
S32D0000CB90C5AE50EA41047FF40DAF52EA43057FF4EBAE12E74FF0FF3C06E000BF4FF0010C02E000BF4FF0010C75
S32D0000CBB84DF804CD4FEA410C7FEA6C5C4FEA430C18BF7FEA6C5C1BD001B050EA410C0CBF52EA430C91EA030FEC
S32D0000CBE002BF90EA020F0020704710F1000F91EA030F58BF994208BF90422CBFD8176FEAE37040F0010070476E
S32D0000CC084FEA410C7FEA6C5C02D150EA013C07D14FEA430C7FEA6C5CD6D152EA033CD3D05DF8040B704700BFCD
S32D0000CC308446104662468C461946634600E000BF01B5FFF7B7FF002848BF10F1000F01BD4DF808EDFFF7F4FF13
S32D0000CC580CBF012000205DF808FB00BF4DF808EDFFF7EAFF34BF012000205DF808FB00BF4DF808EDFFF7E0FF18
S32D0000CC8094BF012000205DF808FB00BF4DF808EDFFF7CEFF94BF012000205DF808FB00BF4DF808EDFFF7C4FF40
S32D0000CCA834BF012000205DF808FB00BF4FEA410212F5001215D211D56FF47873B3EB625212D94FEAC12343F0D6
S32D0000CCD0004343EA505311F0004F23FA02F018BF404270474FF00000704750EA013005D111F0004008BF6FF016
S32D0000CCF8004070474FF00000704700BF4A0011D212F5001211D20DD56FF47873B3EB62520ED44FEAC12343F085
S32D0000CD20004343EA505323FA02F070474FF00000704750EA013002D14FF0FF3070474FF0000070474FEA410241
S32D0000CD48B2F1E04324BFB3F5001CDCF1FE5C0DD901F0004C4FEAC0024CEA5070B2F1004F40EB830008BF20F09E
S32D0000CD700100704711F0804F21D113F13872BCBF01F00040704741F480114FEA5252C2F11802C2F1200C10FAB1
S32D0000CD980CF320FA02F018BF40F001004FEAC1234FEAD32303FA0CFC40EA0C0023FA02F34FEA4303CCE77FEA26
S32D0000CDC0625307D150EA01331EBF4FF0FE4040F44000704701F0004040F0FE4040F40000704700BF80F00040CC
S32D0000CDE802E000BF81F0004142001FBF5FEA410392EA030F7FEA226C7FEA236C6AD04FEA1262D2EB1363C1BF06
S32D0000CE10D218414048404140B8BF5B42192B88BF704710F0004F40F4000020F07F4018BF404211F0004F41F4FA
S32D0000CE38000121F07F4118BF494292EA030F3FD0A2F1010241FA03FC10EB0C00C3F1200301FA03F100F000432B
S32D0000CE6002D5494260EB4000B0F5000F13D3B0F1807F06D340084FEA310102F10102FE2A51D2B1F1004F40EB94
S32D0000CE88C25008BF20F0010040EA03007047490040EB000010F4000FA2F10102EDD1B0FA80FCACF1080CB2EB5F
S32D0000CEB00C0200FA0CF0AABF00EBC25052421843BCBFD0401843704792F0000F81F4000106BF80F400000132EB
S32D0000CED8013BB5E74FEA41037FEA226C18BF7FEA236C21D092EA030F04D092F0000F08BF0846704790EA010FD7
S32D0000CF001CBF0020704712F07F4F04D1400028BF40F00040704712F100723CBF00F50000704700F0004343F0DC
S32D0000CF28FE4040F4000070477FEA226216BF08467FEA23630146420206BF5FEA412390EA010F40F480007047C1
S32D0000CF504FF0000304E000BF10F0004348BF40425FEA000C08BF704743F0964301464FF000001CE050EA010264
S32D0000CF7808BF70474FF000030AE000BF50EA010208BF704711F0004302D5404261EB41015FEA010C02BF84465B
S32D0000CFA00146002043F0B64308BFA3F18053A3F50003BCFA8CF2083AA3EBC25310DB01FA02FC634400FA02FC6B
S32D0000CFC8C2F12002BCF1004F20FA02F243EB020008BF20F00100704702F1200201FA02FCC2F1200250EA4C0034
S32D0000CFF021FA02F243EB020008BF20EADC7070474FF0FF0C1CEAD0521EBF1CEAD15392EA0C0F93EA0C0F6FD019
S32D0000D0181A4480EA010C400218BF5FEA41211ED04FF0006343EA501043EA5111A0FB01310CF00040B1F5000FE7
S32D0000D0403EBF490041EAD3715B0040EA010062F17F02FD2A1DD8B3F1004F40EBC25008BF20F00100704790F058
S32D0000D068000F0CF0004C08BF49024CEA502040EA51207F3AC2BFD2F1FF0340EAC250704740F400004FF0000388
S32D0000D090013A5DDC12F1190FDCBF00F000407047C2F10002410021FA02F1C2F1200200FA02FC5FEA310040F1D5
S32D0000D0B8000053EA4C0308BF20EADC70704792F0000F00F0004C02BF400010F4000F013AF9D040EA0C0093F04C
S32D0000D0E0000F01F0004C02BF490011F4000F013BF9D041EA0C018FE70CEAD15392EA0C0F18BF93EA0C0F0AD00B
S32D0000D10830F0004C18BF31F0004CD8D180EA010000F00040704790F0000F17BF90F0004F084691F0000F91F0BB
S32D0000D130004F14D092EA0C0F01D142020FD193EA0C0F03D14B0218BF084608D180EA010000F0004040F0FE4051
S32D0000D15840F40000704740F0FE4040F4400070474FF0FF0C1CEAD0521EBF1CEAD15392EA0C0F93EA0C0F69D044
S32D0000D180A2EB030280EA010C49024FEA402037D04FF0805343EA111143EA10130CF000408B4238BF5B0042F14E
S32D0000D1A87D024FF4000C8B4224BF5B1A40EA0C00B3EB510F24BFA3EB510340EA5C00B3EB910F24BFA3EB9103A4
S32D0000D1D040EA9C00B3EBD10F24BFA3EBD10340EADC001B0118BF5FEA1C1CE0D1FD2A3FF650AF8B4240EBC25018
S32D0000D1F808BF20F0010070470CF0004C4CEA50207F32C2BFD2F1FF0340EAC250704740F400004FF00003013AF1
S32D0000D22037E792F0000F00F0004C02BF400010F4000F013AF9D040EA0C0093F0000F01F0004C02BF490011F4C9
S32D0000D248000F013BF9D041EA0C0195E70CEAD15392EA0C0F08D142027FF47DAF93EA0C0F7FF470AF084676E7AE
S32D0000D27093EA0C0F04D14B023FF44CAF08466EE730F0004C18BF31F0004CCAD130F000427FF45CAF31F0004376
S32D0000D2987FF43CAF5FE700BF4FF0FF3C06E000BF4FF0010C02E000BF4FF0010C4DF804CD4FEA40024FEA41039F
S32D0000D2C07FEA226C18BF7FEA236C11D001B052EA530C18BF90EA010F58BFB2EB030088BFC81738BF6FEAE1706E
S32D0000D2E818BF40F0010070477FEA226C02D15FEA402C05D17FEA236CE4D15FEA412CE1D05DF8040B704700BF16
S32D0000D310844608466146FFE70FB5FFF7C9FF002848BF10F1000F0FBD4DF808EDFFF7F4FF0CBF012000205DF839
S32D0000D33808FB00BF4DF808EDFFF7EAFF34BF012000205DF808FB00BF4DF808EDFFF7E0FF94BF012000205DF8A9
S32D0000D36008FB00BF4DF808EDFFF7D2FF94BF012000205DF808FB00BF4DF808EDFFF7C8FF34BF012000205DF8B1
S32D0000D38808FB00BF4FEA4002B2F1FE4F0FD34FF09E03B3EB12620DD94FEA002343F0004310F0004F23FA02F060
S32D0000D3B018BF404270474FF00000704712F1610F01D1420205D110F0004008BF6FF0004070474FF00000704797
S32D0000D3D880B582B000AF786039603868FFF7B8FD0346786819460FF089FC0346184607F10807BD4680BD00BF9C
S32D0000D40080B483B000AF78607B6823F00043184607F10C07BD4680BC704700BF00000000B0B582B000AF00F083
S32D0000D42843FF00F0F6BE41F28013C1F6FF731B78002B01D003F098FB02F0E8FA41F27113C1F6FF731B78122B68
S32D0000D45000F2CB8601A252F823F000BFA9D4000025DB000047DB000063DB0000FFDB00001DDC000039DC0000E7
S32D0000D47843DC000061DC00007DDC000011DE00004FDE00006DDE0000DFDE000087DF0000A3DF000067E100007D
S32D0000D4A085E10000C7E1000002F08EF90346B3F57F0F14BF00230123DBB2002B00F0A0864FF05A033B6041F206
S32D0000D4C86C50C1F6FF704EF65031C0F201010FF04DFB41F2E440C1F6FF704FF000010BF0D5F941F26C50C1F668
S32D0000D4F0FF704EF66C31C0F201010FF03BFB8E488E4902F05DFD0AE002F084FA41F28013C1F6FF731B78002BD5
S32D0000D51801D003F029FB02F04FFC034683F00103DBB2002BECD17EA1D1E9000109F0B8F9814802F02DFD41F2EF
S32D0000D5406C50C1F6FF704EF68031C0F201010FF011FB3B68A3F105031846FFF7FDFC03464FF001001946774AF2
S32D0000D56802F0E6FE02E0764802F012FD4FF0010002F066FD034683F00103DBB2002BF2D16D4802F005FD41F272
S32D0000D5906C50C1F6FF704EF68C31C0F201010FF0E9FA41F26C50C1F6FF704EF6B031C0F201010FF0DFFA604886
S32D0000D5B802F0EEFC0AE002F029FA41F28013C1F6FF731B78002B01D003F0CEFA02F0F8F80346002B14BF0023E5
S32D0000D5E00123DBB2002BEAD151A1D1E9000109F05BF9534802F0D0FC02F0E6F8024641F2F013C1F6FF731A6042
S32D0000D60841F26C50C1F6FF704EF6CC31C0F201010FF0ACFA41F26C50C1F6FF704EF6DC31C0F201010FF0A2FA90
S32D0000D630414802F0B1FC0AE002F0ECF941F28013C1F6FF731B78002B01D003F091FA4FF0000002F0F9FC034678
S32D0000D65883F00103DBB2002BEAD1374802F098FC41F26C50C1F6FF704EF6F431C0F201010FF07CFA41F2981231
S32D0000D680C1F6FF724EF61C43C0F2010314461D460FCD0FC40FCD0FC42B6823602A482B4902F08EFC0AE002F08C
S32D0000D6A8B5F941F28013C1F6FF731B78002B01D003F05AFA02F080FB034683F00103DBB2002BECD11C4802F0E9
S32D0000D6D063FC41F26C50C1F6FF704EF64041C0F201010FF047FA41F29812C1F6FF724EF65443C0F2010314460F
S32D0000D6F80FCB84E80F0002F089F93B68A3F105031846FFF725FC03464FF0000019460B4A02F00EFE0A480C49A6
S32D0000D72002F04EFC21E000BF9A9999999999B93F9A9999999999C93F00000C420000A040000000000000C8417A
S32D0000D74800000CC2000000410000B84102F05EF941F28013C1F6FF731B78002B01D003F003FA02F029FB034695
S32D0000D77083F00103DBB2002BECD1DFF85C0602F00BFC41F26C50C1F6FF704EF66441C0F201010FF0EFF941F2A1
S32D0000D7989812C1F6FF724EF67843C0F2010314461D460FCD0FC42B68237002F02FF9DFF8200601F079FFDFF8F3
S32D0000D7C01C0602F059FE41F26C50C1F6FF704EF68C41C0F201010FF0CDF941F29812C1F6FF724EF6A043C0F253
S32D0000D7E8010314461D460FCD0FC42B68238002F00DF941F26C50C1F6FF704EF6B441C0F201010FF0B3F941F295
S32D0000D8109812C1F6FF724EF6C443C0F2010314460FCB07C4238004F102044FEA1343237002F0F0F8DFF8A805FA
S32D0000D83803F0A0F941F26C50C1F6FF704EF6D441C0F201010FF092F941F29812C1F6FF724EF6E443C0F2010364
S32D0000D86014460FCB07C4237002F0D4F841F22C10C1F6FF70DFF86C1503F072FF4FF000004FF07E5101F5C001F5
S32D0000D88809F00EF841F22C10C1F6FF70DFF8401503F062FFDFF8480502F07AFB4FF000004FF07E5101F5E801A7
S32D0000D8B008F0FAFFDFF8200502F06EFBDFF8180501F0F6FE41F26C50C1F6FF704EF6F441C0F201010FF04EF9A1
S32D0000D8D841F29812C1F6FF724EF60853C0F2010314461D460FCD0FC42B68238002F08EF84FF00000DFF8EC1498
S32D0000D900DFF8EC2402F018FDDFF8DC0402F044FB4FF000004FF07E5101F5C00108F0C4FFDFF8B40402F038FBB0
S32D0000D928DFF8C80402F0A4FDDFF8B404DFF8C01402F042FB0AE002F069F841F28013C1F6FF731B78002B01D077
S32D0000D95003F00EF902F034FA034683F00103DBB2002BECD1DFF8700402F016FB41F26C50C1F6FF704EF61C5146
S32D0000D978C0F201010FF0FAF841F29812C1F6FF724EF63053C0F2010314461D460FCD0FC42B68238002F03AF894
S32D0000D9A03B68A3F105031846FFF7D6FA03464FF001001946DFF8382402F0BEFCDFF8280402F0EAFA0AE002F07A
S32D0000D9C825F841F28013C1F6FF731B78002B01D003F0CAF84FF0010002F032FB034683F00103DBB2002BEAD14F
S32D0000D9F0F94802F0D1FA41F2F013C1F6FF731B68B3F57F0F04D1FD48FD4902F0D9FA0FE0FA48FC4902F0D4FA98
S32D0000DA180AE001F0FBFF41F28013C1F6FF731B78002B01D003F0A0F802F0C6F9034683F00103DBB2002BECD11C
S32D0000DA4041F26C50C1F6FF704EF64451C0F201010FF090F841F29812C1F6FF724EF65453C0F2010314460FCBB5
S32D0000DA6807C4238001F0D2FF3B68A3F105031846FFF76EFA03464FF001001946DA4A02F057FCDF4801F010FEEE
S32D0000DA90DA4802F081FA0AE001F0BCFF41F28013C1F6FF731B78002B01D003F061F84FF0000002F0C9FA03463C
S32D0000DAB883F00103DBB2002BEAD1C54802F068FAC74802F065FABEA1D1E9000108F0E8FEBF4802F05DFABE4847
S32D0000DAE001F0E6FDC048C94902F06AFA0AE001F091FF41F28013C1F6FF731B78002B01D003F036F802F05CF983
S32D0000DB08034683F00103DBB2002BECD1B04802F03FFA4FF0120001F055FD6DE341F2AC13C1F6FF7393E803001A
S32D0000DB3002F096FE4FF0020001F048FD4FF0010001F08AFD69E302F03BF90346002B00F05983A14802F020FA6B
S32D0000DB584FF0030001F036FD50E34FF00A0001F031FD4FF0010001F073FD41F2AC13C1F6FF7303F1300393E840
S32D0000DB80030002F06DFE0AE001F044FF41F28013C1F6FF731B78002B01D002F0E9FF02F00FF9034683F00103E7
S32D0000DBA8DBB2002BECD18A4802F0F2F98F4802F05FFC934801F078FD8E48874902F0FCF90AE001F023FF41F209
S32D0000DBD08013C1F6FF731B78002B01D002F0C8FF02F0EEF8034683F00103DBB2002BECD1794802F0D1F97848D9
S32D0000DBF801F05AFD0DE341F2AC13C1F6FF7303F1080393E8030002F027FE4FF0050001F0D9FCFEE202F0D0F874
S32D0000DC200346002B00F0F0826B4802F0B5F94FF0060001F0CBFCE7E24FF0070001F0C6FCEBE241F2AC13C1F678
S32D0000DC48FF7303F1100393E8030002F005FE4FF0080001F0B7FCDCE202F0AEF80346002B00F0D0825A4802F037
S32D0000DC7093F94FF0090001F0A9FCC7E25F4802F08BF90AE001F0C6FE41F28013C1F6FF731B78002B01D002F047
S32D0000DC986BFF4FF0000002F0D3F9034683F00103DBB2002BEAD14A4802F072F94C4802F06FF945A1D1E9000146
S32D0000DCC008F0F2FD444802F067F94FF000004949474A02F031FB444802F05EF941F26C50C1F6FF704EF664510E
S32D0000DCE8C0F201010EF042FF0AE001F08FFE41F28013C1F6FF731B78002B01D002F034FF41F25010C1F6FF7057
S32D0000DD1008F03CFF0346002BEBD12F4802F03CF941F26C50C1F6FF704EF67C51C0F201010EF020FF4FF00003AB
S32D0000DD387B6036E04FF000004FF07E5101F5C00108F0AEFD41F25010C1F6FF7008F01AFF0346002B21D04FF0B7
S32D0000DD6000037B6041F26C50C1F6FF704EF6A051C0F201010EF0FEFE41F2E040C1F6FF7009F014FF184802F0E8
S32D0000DD8807F941F25010C1F6FF7008F0FBFE0346002BF6D10E4802F0FBF87B6803F101037B607B680A2BCCBFF4
S32D0000DDB000230123DBB2002BC0D14FF00A0001F005FC2AE2AFF300809A9999999999B93F9A9999999999A93F3E
S32D0000DDD80000000000000743000070410000204200000CC2000034420000C8410000B4420000B04100000C423E
S32D0000DE0000008041000060410000C8420000A040DFF8740402F0C0F84FF000004FF07E5101F5C00108F040FD76
S32D0000DE28DFF8600402F0B4F841F2AC13C1F6FF7303F1180393E8030002F00EFD4FF00B0001F0C0FBE5E101F0A1
S32D0000DE50B7FF0346002B00F0DB81DFF8300402F09BF84FF00C0001F0B1FBD1E1DFF8200402F002FBDFF814042B
S32D0000DE7801F01AFCDFF8140402F07CFE41F22C10C1F6FF70DFF8081403F066FC4FF000004FF07E5101F5C00139
S32D0000DEA008F002FD41F22C10C1F6FF70F74903F057FCF54802F070F84FF000004FF07E5101F5C00108F0F0FCC3
S32D0000DEC8F04802F065F8EF4801F0EEFB4FF00D0001F078FB9DE141F2AC13C1F6FF7303F1380393E8030002F0AC
S32D0000DEF0B7FC0AE001F08EFD41F28013C1F6FF731B78002B01D002F033FE01F059FF034683F00103DBB2002B89
S32D0000DF18ECD1DC4802F03CF8DE4802F0A9FADE4801F0C2FBDD48D94902F046F80AE001F06DFD41F28013C1F60C
S32D0000DF40FF731B78002B01D002F012FE01F038FF034683F00103DBB2002BECD1CB4802F01BF8CA4801F0A4FB99
S32D0000DF6841F2AC13C1F6FF7303F1200393E8030002F072FC4FF00E0001F024FB49E101F01BFF0346002B00F085
S32D0000DF904181BE4802F000F84FF00F0001F016FB38E101F011FC0346B3F57F0F14BF00230123DBB2002B5CD0CD
S32D0000DFB841F26C50C1F6FF704EF6E851C0F201010EF0D4FDB64802F053FAB448B54901F0F3FF0AE001F01AFD1A
S32D0000DFE041F28013C1F6FF731B78002B01D002F0BFFD01F0E5FE034683F00103DBB2002BECD1A24801F0C8FF3C
S32D0000E008A44802F035FAA44801F04EFBA34801F0BFFF0AE001F0FAFC41F28013C1F6FF731B78002B01D002F0DC
S32D0000E0309FFD4FF0000002F007F8034683F00103DBB2002BEAD1914801F0A6FF8F4801F02FFB8D4801F0A0FFFD
S32D0000E05889A1D1E9000108F023FC8A4801F098FF4FF0100001F0AEFAD3E001F0A9FB0346FF2B14BF0023012387
S32D0000E080DBB2002B5CD041F26C50C1F6FF704EF61861C0F201010EF06DFD7C4802F0ECF98048824901F08CFFF6
S32D0000E0A80AE001F0B3FC41F28013C1F6FF731B78002B01D002F058FD01F07EFE034683F00103DBB2002BECD159
S32D0000E0D06E4801F061FF714802F0CEF9704801F0E7FA704801F058FF0AE001F093FC41F28013C1F6FF731B7833
S32D0000E0F8002B01D002F038FD4FF0000001F0A0FF034683F00103DBB2002BEAD15D4801F03FFF5C4801F0C8FAAA
S32D0000E120594801F039FF56A1D1E9000108F0BCFB564801F031FF4FF0100001F047FA6CE041F26C50C1F6FF7005
S32D0000E1484EF64461C0F201010EF010FD41F2E040C1F6FF704FF0050109F034FD59E041F2AC13C1F6FF7303F1D1
S32D0000E170280393E8030002F073FB4FF0110001F025FA4AE001F01CFE0346002B44D03F4801F002FF414802F067
S32D0000E1986FF93B4801F0FCFE00BF4FF0010001F04FFF034683F00103DBB2002BF5D1354801F0EEFE4FF012005C
S32D0000E1C001F004FA28E041F26C50C1F6FF704EF66C61C0F201010EF0CDFC41F27013C1F6FF734FF000021A70EF
S32D0000E1E817E041F26C50C1F6FF704EF68061C0F201010EF0BBFC0CE000BF0AE000BF08E000BF06E000BF04E0EB
S32D0000E21000BF02E000BF00E000BF41F27013C1F6FF731B78002B7FF402A941F2E440C1F6FF704FF000010AF06F
S32D0000E2382DFB41F2E440C1F6FF704EF6A061C0F201010AF0A5FE41F26C50C1F6FF704EF6B061C0F201010EF061
S32D0000E26089FC41F26C50C1F6FF700EF067FC4FF00003184607F10807BD46B0BDAFF300809A9999999999B93FCD
S32D0000E28800000CC200000000000007430000A04100002042000087430000C84200000C42000034430000803FB5
S32D0000E2B080B592B000AF41F26C50C1F6FF700EF06BFB41F26C50C1F6FF704EF6C061C0F201010EF04FFC41F2F7
S32D0000E2D8E440C1F6FF704FF000010AF0C3FA41F2E440C1F6FF704FF001010AF019FB41F26C50C1F6FF704EF6B2
S32D0000E300D461C0F201010EF035FC41F23C10C1F6FF7040F6A70109F027FD41F23C10C1F6FF7040F2C62109F080
S32D0000E32801FD41F23C10C1F6FF705B4909F038FD41F26C50C1F6FF704EF6E861C0F201010EF014FC554801F060
S32D0000E350AFF941F22C10C1F6FF70534903F000FA4DA1D1E9000108F09FFA41F22C10C1F6FF704B4903F0F4F996
S32D0000E37841F26C50C1F6FF704EF60C71C0F201010EF0F4FB41F28813C1F6FF73424A1A6041F28813C1F6FF730C
S32D0000E3A01A6841F28413C1F6FF731A6041F29413C1F6FF734FF000021A6041F28013C1F6FF734FF000021A70E8
S32D0000E3C841F29813C1F6FF734EF63472C0F2010292E80300186003F10403197041F26C50C1F6FF704EF63C7102
S32D0000E3F0C0F201010EF0BEFB41F24C50C1F6FF700DF0D0FC41F26C50C1F6FF704EF65071C0F201010EF0AEFB61
S32D0000E41807E041F2E040C1F6FF704FF0050109F0D1FB01F01BFA034683F00103DBB2002BEFD141F26C50C1F688
S32D0000E440FF704EF66871C0F201010EF093FB41F27013C1F6FF734FF001021A7007F10403184600F025F807F1D5
S32D0000E468040241F2AC13C1F6FF739A420BD041F2AC13C1F6FF7319464FF04103084611461A460FF0CDFA07F1EE
S32D0000E4904807BD4680BD00BF9A9999999999C93F000000000000C842000020C2AFF30080B0B5ADF5EE5D8CB0D5
S32D0000E4B806AF07F11803A3F1140318604FF0010307F5EE5000F117000370DFF8D43707F5EE5101F10C010B60CC
S32D0000E4E0DFF8C43707F5EE5202F10802136007F11803A3F11403186802F05EFD41F2E440C1F6FF704FF0000148
S32D0000E5080AF0C4F907F5CC5303F11803A3F104031D464FF0000406E028460CF05BF905F1EC0504F1FF34B4F16B
S32D0000E530FF3F0CBF00230123DBB2002BF0D14EF6F073C0F2010307F5E85101F124011A464FF0140308461146F0
S32D0000E5581A460FF065FA07F5CC5303F11803A3F104034FF0C90200924FF0010201924FF00102029207F5E85295
S32D0000E58002F1240203924FF4004204924FF45742C0F2FF02059218464FF001014FF001024FF001030CF088FBDB
S32D0000E5A807F5CC5303F11803A3F1040318460CF0ADF907F5945303F11803A3F11C031D464FF0050406E02846DC
S32D0000E5D00CF004F905F1EC0504F1FF34B4F1FF3F0CBF00230123DBB2002BF0D107F5E25303F118031A464FF0C8
S32D0000E5F8A00310464FF000011A460FF01AFA07F5E25303F118034FF041021A6003F104034FF000021A6003F163
S32D0000E62004034FF000021A6003F104034FF000021A6003F104034FF000021A6003F1040307F5E25303F1180363
S32D0000E6484FF042025A6103F118034FF000021A6003F104034FF000021A6003F104034FF000021A6003F1040335
S32D0000E6704FF000021A6003F1040307F5E25303F118034FF043029A6203F12C034FF000021A6003F104034FF0EE
S32D0000E69800021A6003F104034FF000021A6003F104034FF000021A6003F1040307F5E25303F118034FF04402AC
S32D0000E6C0DA6303F140034FF000021A6003F104034FF000021A6003F104034FF000021A6003F104034FF0000255
S32D0000E6E81A6003F1040307F5E25303F118034FF045021A6503F154034FF000021A6003F104034FF000021A608E
S32D0000E71003F104034FF000021A6003F104034FF000021A6003F1040307F5E25303F118034FF046025A6603F1F9
S32D0000E73868034FF000021A6003F104034FF000021A6003F104034FF000021A6003F104034FF000021A6003F177
S32D0000E760040307F5E25303F118034FF047029A6703F17C034FF000021A6003F104034FF000021A6003F10403DC
S32D0000E7884FF000021A6003F104034FF000021A6003F1040307F5E25303F118034FF04802C3F88C2003F1900340
S32D0000E7B04FF000021A6003F104034FF000021A6003F104034FF000021A6003F104034FF000021A6003F1040363
S32D0000E7D807F5945303F11803A3F11C034FF0330200924FF0010201924FF00102029207F5E25202F118020392EB
S32D0000E8006FF07F4204924FF45742C0F2FF02059218464FF004014FF002024FF028030CF04BFA07F5D4531D46F8
S32D0000E8284FF0000406E028460BF0D4FF05F1EC0504F1FF34B4F1FF3F0CBF00230123DBB2002BF0D107F5E853A9
S32D0000E85003F110034FF000021A6003F104034FF000021A6003F104034FF000021A6003F104034FF000021A60B6
S32D0000E87803F104034FF000021A6003F104034FF20402C0F2010207F5E85303F1100392E80300186003F1040397
S32D0000E8A0198007F5E85303F116034FF000021A8003F102034FF000021A8003F102034FF000021A8003F10203F1
S32D0000E8C84FF000021A8003F102034FF000021A8003F102034FF000021A8003F102034FF000021A8003F10203D2
S32D0000E8F007F5D4524FF0140300934FF0010301934FF00103029307F5E85303F1100303934FF4004304934FF40C
S32D0000E9185743C0F2FF03059310464FF001014FF001024FF0BE030CF0C3F941F2E440C1F6FF704FF45741C0F250
S32D0000E940FF010AF005F841F2E440C1F6FF704EF67C71C0F201014FF000024FF0DE030AF00BF807F5EE5303F1C1
S32D0000E9680803186807F5EE5202F10C021168FEF743FB03461C4641F23050C1F6FF700CF0EBFA0346204619469A
S32D0000E990FEF72EFA034607F5EE5000F10800036007F5EE5101F10C010868C049FEF720FA034607F5EE5202F123
S32D0000E9B80C02136007F5EE5303F10803186807F5EE5202F10C021168FEF7CAFB034607F5EE5000F108000360A5
S32D0000E9E041F2E440C1F6FF7007F5EE5202F1080211684FF048024FF0DE030AF007F84FF001031C4607F5EE5356
S32D0000EA0803F108031868A849FEF794FC0346002B02D14FF000031C46E3B2002B07D041F2E040C1F6FF704FF0B1
S32D0000EA300A0109F0CBF807F5E85202F13C0207F5E85303F1380341F2E440C1F6FF7011461A460AF0ADF8034608
S32D0000EA58002B00F0A2854FF0000307F5EE5000F110000360E2E007F5945303F11803A3F11C0307F5EE5101F1DA
S32D0000EA8010010A684FF0EC0101FB02F2991807F5E85303F13C031A6807F5E85000F138000368084611461A465F
S32D0000EAA84FF000030BF0E8FF0346002B0CBF00230123DBB2002B00F0AD804FF0000307F5E85101F10C010B80C0
S32D0000EAD04FF0200307F5E85202F10D02137007F5E25101F1180107F5EE5303F110031A6813464FEA83039B1830
S32D0000EAF84FEA8303CB181B7807F5E85000F10C00037007F5EE5101F110010B68002B06D14FF0410307F5E852AB
S32D0000EB2002F10C02137007F5EE5000F110000368012B06D14FF0420307F5E85101F10C010B7041F2E440C1F659
S32D0000EB48FF704FF0000109F0A1FE41F2E440C1F6FF704EF68C71C0F201010AF019FA07F5E85303F10C0341F26C
S32D0000EB70E440C1F6FF7019464FF000024FF007030AF04AF941F26C50C1F6FF704EF6A071C0F201010DF0EEFFFF
S32D0000EB9807F5E85303F10C0341F26C50C1F6FF7019460DF0E3FF41F26C50C1F6FF704EF6B471C0F201010DF093
S32D0000EBC0D9FF07F5E85202F10C02137807F5EA521046194602F01CF907F5EA5207F11803A3F114031B6893424B
S32D0000EBE80CD007F11803A3F114031B6819464FF04103084611461A460EF012FF4FF0000307F5EE5000F1170068
S32D0000EC1003704FF0000000F0D9FC18E007F5EE5101F110010B6803F1010307F5EE5202F11002136007F5EE50D0
S32D0000EC3800F110000368072BCCBF00230123DBB2002B7FF410AF07F5E85101F13C010A6807F5E85000F1380021
S32D0000EC60036807F5D451084611461A464FF000030BF006FF0346002B0CBF00230123DBB2002B00F08E8441F240
S32D0000EC88E440C1F6FF704FF0000109F0FFFD07F5DA5303F12C031D464FF000040DE000BF000000000000803F82
S32D0000ECB00000204128460BF091FD05F1EC0504F1FF34B4F1FF3F0CBF00230123DBB2002BF0D107F5E65303F138
S32D0000ECD838034FF000021A6003F104034FF000021A6003F104034FF000021A6003F104034FF000021A6003F102
S32D0000ED0004034FF000021A6003F104034FF21802C0F2010207F5E65303F1380307CA03C31A8003F102034FEA51
S32D0000ED2812421A7007F5E85303F103034FF000021A7003F101034FF000021A7003F101034FF000021A7003F169
S32D0000ED5001034FF000021A7003F101034FF000021A7003F101034FF000021A7003F101034FF000021A7003F189
S32D0000ED7801034FF000021A7003F101034FF000021A7003F1010307F5DA5202F12C024FF0C90300934FF00103B9
S32D0000EDA001934FF00103029307F5E65303F1380303934FF4004304934FF45743C0F2FF03059310464FF0010102
S32D0000EDC84FF001024FF001030BF072FF07F5DA5303F12C0318460BF099FD07F5C05303F10803A3F104031A46E8
S32D0000EDF04FF4C87310464FF000011A460EF01DFE07F5C05303F10803A3F1040345F25742C0F253021A6003F17A
S32D0000EE1804034FF000021A6003F104034FF000021A6003F104034FF000021A6003F104034FF000021A6003F1F4
S32D0000EE40040307F5C05303F10803A3F1040344F65352C0F253025A6103F118034FF000021A6003F104034FF04F
S32D0000EE6800021A6003F104034FF000021A6003F104034FF000021A6003F1040307F5C05303F10803A3F10403F0
S32D0000EE9045F24D42C0F253029A6203F12C034FF000021A6003F104034FF000021A6003F104034FF000021A6041
S32D0000EEB803F104034FF000021A6003F1040307F5C05303F10803A3F1040345F24972C0F25302DA6303F1400365
S32D0000EEE04FF000021A6003F104034FF000021A6003F104034FF000021A6003F104034FF000021A6003F104032C
S32D0000EF0807F5C05303F10803A3F1040344F65352C0F24C021A6503F154034FF000021A6003F104034FF0000292
S32D0000EF301A6003F104034FF000021A6003F104034FF000021A6003F1040307F5C05303F10803A3F1040345F2F2
S32D0000EF584D42C0F24C025A6603F168034FF000021A6003F104034FF000021A6003F104034FF000021A6003F1C2
S32D0000EF8004034FF000021A6003F1040307F5C05303F10803A3F1040345F24972C0F24C029A6703F17C034FF058
S32D0000EFA800021A6003F104034FF000021A6003F104034FF000021A6003F104034FF000021A6003F1040307F5A6
S32D0000EFD0C05303F10803A3F1040344F65352C0F24202C3F88C2003F190034FF000021A6003F104034FF00002AC
S32D0000EFF81A6003F104034FF000021A6003F104034FF000021A6003F1040307F5C05303F10803A3F1040345F22A
S32D0000F0204D42C0F24202C3F8A02003F1A4034FF000021A6003F104034FF000021A6003F104034FF000021A6000
S32D0000F04803F104034FF000021A6003F1040307F5C05303F10803A3F1040345F24972C0F24202C3F8B42003F1D5
S32D0000F070B8034FF000021A6003F104034FF000021A6003F104034FF000021A6003F104034FF000021A6003F1E6
S32D0000F098040307F5C05303F10803A3F1040344F65352C0F24302C3F8C82003F1CC034FF000021A6003F10403A8
S32D0000F0C04FF000021A6003F104034FF000021A6003F104034FF000021A6003F1040307F5C05303F10803A3F15E
S32D0000F0E8040345F24D42C0F24302C3F8DC2003F1E0034FF000021A6003F104034FF000021A6003F104034FF0FD
S32D0000F11000021A6003F104034FF000021A6003F1040307F5C05303F10803A3F1040345F24972C0F24302C3F857
S32D0000F138F02003F1F4034FF000021A6003F104034FF000021A6003F104034FF000021A6003F104034FF000024B
S32D0000F1601A6003F1040307F5C05303F10803A3F1040344F65352C0F24402C3F8042103F584734FF000021A6002
S32D0000F18803F104034FF000021A6003F104034FF000021A6003F104034FF000021A6003F1040307F5C05303F139
S32D0000F1B00803A3F1040345F24D42C0F24402C3F8182103F58E734FF000021A6003F104034FF000021A6003F17B
S32D0000F1D804034FF000021A6003F104034FF000021A6003F1040307F5C05303F10803A3F1040345F24972C0F249
S32D0000F2004402C3F82C2103F598734FF000021A6003F104034FF000021A6003F104034FF000021A6003F104036D
S32D0000F2284FF000021A6003F1040307F5C05303F10803A3F1040344F65352C0F25202C3F8402103F5A2734FF00C
S32D0000F25000021A6003F104034FF000021A6003F104034FF000021A6003F104034FF000021A6003F1040307F5FB
S32D0000F278C05303F10803A3F1040345F24D42C0F25202C3F8542103F5AC734FF000021A6003F104034FF00002B1
S32D0000F2A01A6003F104034FF000021A6003F104034FF000021A6003F1040307F5C05303F10803A3F1040345F27F
S32D0000F2C85342C0F25002C3F8682103F5B6734FF000021A6003F104034FF000021A6003F104034FF000021A60F3
S32D0000F2F003F104034FF000021A6003F1040307F5C05303F10803A3F1040345F25202C0F25302C3F87C2103F5B4
S32D0000F318C0734FF000021A6003F104034FF000021A6003F104034FF000021A6003F104034FF000021A6003F1C3
S32D0000F340040307F11803A3F10C031D464FF0130406E028460BF042FA05F1EC0504F1FF34B4F1FF3F0CBF0023BE
S32D0000F3680123DBB2002BF0D107F11803A3F10C034FF0010200924FF0010201924FF00102029207F5C05202F1A4
S32D0000F3900802A2F1040203926FF07F4204924FF45742C0F2FF02059218464FF005014FF004024FF028030BF0EE
S32D0000F3B87FFC41F26C50C1F6FF704EF6B871C0F201010DF0D3FB07F5E85202F13C0207F5E85303F1380341F2AB
S32D0000F3E0E440C1F6FF7011461A4609F0E1FB0346002B00F0C4804FF0000307F5EE5101F110010B60AEE007F110
S32D0000F4081803A3F10C0307F5EE5000F1100002684FF0EC0101FB02F2991807F5E85303F13C031A6807F5E85086
S32D0000F43000F138000368084611461A464FF000030BF01EFB0346002B0CBF00230123DBB2002B7BD007F5EE51FB
S32D0000F45801F110010B68132B39D007F5EE5202F110021368DBB2184600F0ACF84FF0000307F5EE5000F117000A
S32D0000F480037041F2E440C1F6FF704FF0000109F001FA07F5EC5303F1040318464FF0410101F0B6FC07F5EC5248
S32D0000F4A802F1040207F11803A3F114031B68934247D007F11803A3F114031B6819464FF04103084611461A46E8
S32D0000F4D00EF0AAFA53E041F26C50C1F6FF704EF6CC71C0F201010DF045FB41F2E440C1F6FF704FF0000109F0FC
S32D0000F4F8CDF901E000F08AFA07F5E85202F13C0207F5E85303F1380341F2E440C1F6FF7011461A4609F048FB8E
S32D0000F520034683F00103DBB2002BE7D14FF0000307F5EE5101F117010B7041F27013C1F6FF734FF000021A70E1
S32D0000F54819E018E007F5EE5202F11002136803F1010307F5EE5000F11000036007F5EE5101F110010B68132B63
S32D0000F570CCBF00230123DBB2002B7FF444AF07F5EE5202F117021378002B7FF420AF41F26C50C1F6FF704EF6E4
S32D0000F598DC71C0F201010DF0E9FA07F5EE5000F117000378002B7FF4D8A900BF07F11803A3F11403186807F58F
S32D0000F5C0EC7707F5E057BD46B0BD00BF80B582B000AF0346FB7141F27113C1F6FF73FA791A7041F29413C1F61F
S32D0000F5E8FF731B6803F1010241F29413C1F6FF731A60FA7913464FEA83039B184FEA83034FF2E072C0F2010247
S32D0000F6109B1841F26C50C1F6FF704FF22C01C0F201011A460DF0A6FAFA7913464FEA83039B184FEA83034FF2A7
S32D0000F638E072C0F201029B1841F29810C1F6FF7019460EF0FCF907F10807BD4680BD00BF80B582B000AF034632
S32D0000F660FB71FB79002B0DD041F23C10C1F6FF700D4908F099FB41F29013C1F6FF730A4A1A600CE041F23C10D5
S32D0000F688C1F6FF70074908F08BFB41F29013C1F6FF73044A1A6007F10807BD4680BD00BF0000B442000000009D
S32D0000F6B090B583B000AF78607868FDF70DF802460B4641F26C50C1F6FF704FF24001C0F201010DF04FFA4FF0EB
S32D0000F6D801031C4678683549FDF74AFE0346002B02D14FF000031C46E3B2002B19D041F25810C1F6FF7007F0B8
S32D0000F70045FA0346002B06D041F22C10C1F6FF70294902F025F841F25810C1F6FF7007F035FA0346002BF6D11A
S32D0000F7282FE04FF001031C4678682249FDF702FE0346002B02D14FF000031C46E3B2002B1FD041F25C10C1F6D0
S32D0000F750FF7007F01BFA0346002B06D041F22C10C1F6FF70144901F0FBFF41F22C10C1F6FF70134901F0F4FF14
S32D0000F77841F25C10C1F6FF7007F004FA0346002BF6D141F26C50C1F6FF704FF26401C0F201010DF0EBF941F2EB
S32D0000F7A02C10C1F6FF70074901F0DAFF07F10C07BD4690BD0000BE42000020420000A040000020C20000000040
S32D0000F7C890B583B000AF41F26010C1F6FF7007F06FFE03464FF00102144618461D49FDF7C7FD0346002B02D117
S32D0000F7F04FF000031C46E3B2002B03D04FF000037B601DE041F26010C1F6FF7007F054FE03464FF001021446A3
S32D0000F81818461149FDF7ACFD0346002B02D14FF000031C46E3B2002B03D04FF0FF037B6002E04FF47F037B6051
S32D0000F84041F2E440C1F6FF70796809F023F87B68184607F10C07BD4690BD00BF000000400000803F80B582B067
S32D0000F86800AF4FF00103FB7141F25010C1F6FF7007F088F9034683F00103DBB2002B11D041F2E440C1F6FF700D
S32D0000F8904FF27801C0F201014FF000024FF0000309F0BAFA4FF00003FB710DE041F2E440C1F6FF704FF29001C2
S32D0000F8B8C0F201014FF000024FF0000309F0A8FA41F25410C1F6FF7007F05CF9034683F00103DBB2002B11D0EE
S32D0000F8E041F2E440C1F6FF704FF2A801C0F201014FF001024FF0000309F08EFA4FF00003FB710DE041F2E440E8
S32D0000F908C1F6FF704FF29001C0F201014FF001024FF0000309F07CFA41F24810C1F6FF7007F030F9034683F0A5
S32D0000F9300103DBB2002B11D041F2E440C1F6FF704FF27801C0F201014FF002024FF0000309F062FA4FF0000305
S32D0000F958FB710DE041F2E440C1F6FF704FF29001C0F201014FF002024FF0000309F050FA41F24C10C1F6FF70A8
S32D0000F98007F004F9034683F00103DBB2002B11D041F2E440C1F6FF704FF27801C0F201014FF003024FF000039B
S32D0000F9A809F036FA4FF00003FB710DE041F2E440C1F6FF704FF29001C0F201014FF003024FF0000309F024FACD
S32D0000F9D0FFF7FAFE0346002B0CBF00230123DBB2002B10D041F2E440C1F6FF704FF2C001C0F201014FF0040285
S32D0000F9F84FF0000309F00CFA4FF00003FB71FB79184607F10807BD4680BD00BF80B500AF41F25010C1F6FF707D
S32D0000FA2007F0B4F8034683F00103DBB2002B0AD041F2E440C1F6FF704EF69061C0F2900108F086FF09E041F235
S32D0000FA48E440C1F6FF704AF6A911C0F2A90108F07BFF41F2E440C1F6FF704FF00F014FF0DC024FF00A030AF04F
S32D0000FA70B3F841F25410C1F6FF7007F087F8034683F00103DBB2002B0AD041F2E440C1F6FF704EF69061C0F2D4
S32D0000FA98900108F059FF09E041F2E440C1F6FF704AF6A911C0F2A90108F04EFF41F2E440C1F6FF7040F231116D
S32D0000FAC04FF0DC024FF00A030AF086F841F24810C1F6FF7007F05AF8034683F00103DBB2002B0AD041F2E44094
S32D0000FAE8C1F6FF704EF69061C0F2900108F02CFF09E041F2E440C1F6FF704AF6A911C0F2A90108F021FF41F228
S32D0000FB10E440C1F6FF704FF00F014FF00A024FF00A030AF059F841F24C10C1F6FF7007F02DF8034683F00103BB
S32D0000FB38DBB2002B0AD041F2E440C1F6FF704EF69061C0F2900108F0FFFE09E041F2E440C1F6FF704AF6A911C3
S32D0000FB60C0F2A90108F0F4FE41F2E440C1F6FF7040F231114FF00A024FF00A030AF02CF841F2E440C1F6FF700E
S32D0000FB886FF07F4108F0E0FE41F2E440C1F6FF704FF2D801C0F201014FF003024FF0000309F036F941F2E4400A
S32D0000FBB0C1F6FF704FF2F401C0F201014FF004024FF0000309F028F941F24C50C1F6FF700CF0B8FD0346184629
S32D0000FBD8FDF7D8FB034641F2E440C1F6FF7019464FF003024FF0070309F032F941F24C50C1F6FF700CF0B2FDC2
S32D0000FC0003461846FDF7C2FB034641F2E440C1F6FF7019464FF003024FF00D0309F01CF941F24C50C1F6FF70C3
S32D0000FC280CF0ACFD03461846FDF7ACFB034641F2E440C1F6FF7019464FF003024FF0150309F006F941F2E440B8
S32D0000FC50C1F6FF704FF21011C0F201014FF005024FF0000309F0D8F841F28413C1F6FF731B6841F2E440C1F675
S32D0000FC78FF7019464FF005024FF0050309F008F941F23410C1F6FF7007F0D8FB034641F2E440C1F6FF7019467D
S32D0000FCA04FF005024FF0120309F0D6F841F2E440C1F6FF704FF22411C0F201014FF006024FF0000309F0A8F80C
S32D0000FCC841F28813C1F6FF731B6841F2E440C1F6FF7019464FF006024FF0050309F0D8F841F23810C1F6FF70C0
S32D0000FCF007F0A8FB034641F2E440C1F6FF7019464FF006024FF0120309F0A6F841F2E440C1F6FF704FF23811EE
S32D0000FD18C0F201014FF007024FF0000309F078F841F28C13C1F6FF731B6841F2E440C1F6FF7019464FF0070274
S32D0000FD404FF0060309F0A8F841F2E440C1F6FF704FF24C11C0F201014FF008024FF0000309F05AF841F2901339
S32D0000FD68C1F6FF731B6841F2E440C1F6FF7019464FF008024FF0060309F08AF841F2E440C1F6FF704FF26011AA
S32D0000FD90C0F201014FF009024FF0000309F03CF841F2E440C1F6FF7041F29811C1F6FF714FF009024FF00503C7
S32D0000FDB809F02EF880BD00BFF8B500AF41F23410C1F6FF7007F03AFB044600F0C5FF0346E41841F23810C1F668
S32D0000FDE0FF7007F02FFB0346E41800F061FF0346E2184DF24F13C1F6C21383FB02134FEAA3114FEAE273CB1A6D
S32D0000FE081846FCF753FC02460B461046194616A3D3E90023FCF7B0FC02460B4614461D4641F27413C1F6FF736E
S32D0000FE301B681846FCF750FC02460B46104619460DA3D3E90023FCF79BFC02460B464FF001010E46204629461A
S32D0000FE58FCF722FF0346002B02D14FF000031E46F3B21846F8BD00BF5E3855297A6A1F40666666666666EE3F1C
S32D0000FE8080B586B000AF7860396041F28413C1F6FF731B6878681946FCF7A8FF034618463B49FDF761F90346B8
S32D0000FEA83B6141F28813C1F6FF731B6838681946FCF798FF034618463349FDF751F90346FB604FF000037B616A
S32D0000FED042E041F28413C1F6FF731B6818463969FCF786FF03461A4641F28413C1F6FF731A6041F28813C1F659
S32D0000FEF8FF731B681846F968FCF776FF03461A4641F28813C1F6FF731A6041F28413C1F6FF731B6883F000437A
S32D0000FF2041F22410C1F6FF70194601F019FC41F28813C1F6FF731B6841F21C10C1F6FF70194601F00DFC10A1B8
S32D0000FF48D1E9000106F0ACFC7B6903F101037B617B69092BCCBF00230123DBB2002BB4D141F28413C1F6FF7360
S32D0000FF707A681A6041F28813C1F6FF733A681A6007F11807BD4680BD7B14AE47E17A843F00002041AFF3008078
S32D0000FF9880B582B000AF786078687968FFF76CFF41F28013C1F6FF734FF001021A7007F10807BD4680BD00BF6A
S32D0000FFC0B0B584B002AF7860396041F23410C1F6FF7007F04BFA41F23810C1F6FF7007F045FA38681749FDF7B4
S32D0000FFE80BF803461A4641F27413C1F6FF731A607868FFF7CDFF41F28013C1F6FF734FF001021A707868FCF7B2
S32D0001001063FB04460D463868FCF75EFB02460B46CDE9002341F26C50C1F6FF704FF27411C0F2010122462B4600
S32D000100380CF09CFD07F10807BD46B0BD0000C03F80B584B000AF0346FB714FF00003FB73FB79002B02D0012B74
S32D000100607ED0FAE041F24810C1F6FF7006F08EFD034683F00103DBB2002B0ED041F24C10C1F6FF7006F082FD97
S32D00010088034683F00103DBB2002B02D04FF0010301E04FF00003FB7341F24810C1F6FF7006F070FD034683F05B
S32D000100B00103DBB2002B0ED041F28813C1F6FF731B6818466F49FDF72FF90346002B02D14FF0010301E04FF031
S32D000100D80003002B0FD041F26C50C1F6FF704FF29C11C0F201010CF041FD41F21C10C1F6FF7001F0E1FA41F277
S32D000101004C10C1F6FF7006F041FD034683F00103DBB2002B0ED041F28413C1F6FF731B6818465849FDF700F962
S32D000101280346002B02D14FF0010301E04FF00003002B00F0998041F26C50C1F6FF704FF2E811C0F201010CF0C8
S32D0001015011FD41F22410C1F6FF7001F0B1FA87E041F25010C1F6FF7006F010FD034683F00103DBB2002B0ED0D0
S32D0001017841F25410C1F6FF7006F004FD034683F00103DBB2002B02D04FF0010301E04FF00003FB7341F25010F3
S32D000101A0C1F6FF7006F0F2FC034683F00103DBB2002B0ED041F28813C1F6FF731B6818463049FDF7B1F8034699
S32D000101C8002B02D14FF0010301E04FF00003002B0FD041F26C50C1F6FF704FF23421C0F201010CF0C3FC41F24D
S32D000101F01C10C1F6FF7001F063FA41F25410C1F6FF7006F0C3FC034683F00103DBB2002B0ED041F28413C1F6F7
S32D00010218FF731B6818461949FDF782F80346002B02D14FF0010301E04FF00003002B1DD041F26C50C1F6FF70BA
S32D000102404FF28021C0F201010CF094FC41F22410C1F6FF7001F034FA0CE041F26C50C1F6FF704FF2D021C0F2DC
S32D0001026801010CF083FC02E000BF00E000BFFB7B184607F11007BD4680BD00BF0000000090B587B002AF034652
S32D000102903960FB71FB79002B02D04FF0010301E04FF0FF33FB60FB79002B02D04FF0FF3301E04FF00103BB60B8
S32D000102B8F868FCF74DFE034618463968FCF79CFE03461C46B868FCF743FE034618463968FCF792FE034620462B
S32D000102E01946FFF7CDFD41F28013C1F6FF734FF000021A70FB79002B04D04FF21034C0F2010403E04FF21834F7
S32D00010308C0F201043868FCF7E3F902460B46CDE9002341F26C50C1F6FF704FF22031C0F2010122460CF022FC51
S32D0001033007F11407BD4690BD2DE9F04387B000AF0346B9607A60FB7341F23810C1F6FF7007F08CF841F23410CF
S32D00010358C1F6FF7007F086F8434B7B61B868FCF7B7F902460B4641F26C50C1F6FF704FF23831C0F201010CF0A6
S32D00010380F9FBFB7B18467968FFF77EFF00BF41F23810C1F6FF7007F055F8044641F23410C1F6FF7007F04EF86A
S32D000103A80346E41800F080FC0346E3184FEAD372D3184FEA63031846FCF778F902460B461046194622A3D3E998
S32D000103D00023FCF7D5F902460B4614461D46B868FCF77AF902460B46104619461CA3D3E90023FCF7C5F9024659
S32D000103F80B46104619461AA3D3E90023FCF7E6FA02460B46904699467869FCF761F902460B4640464946FCF744
S32D00010420AFF902460B464FF001010E4620462946FCF718FC0346002B02D14FF000031E46F3B2002BA3D10B4877
S32D00010448FFF7A6FD07F11C07BD46BDE8F08300BF2005C771724A993F182D4454FB21094000000000008066409E
S32D000104700000904000000000B0B588B002AF786041F24C50C1F6FF700CF07CF903467B6178697968FCF7AAFC81
S32D000104980346FB6078687969FCF7A4FC0346BB600FE041F2E040C1F6FF704FF0050107F089FB41F24C50C1F62A
S32D000104C0FF700CF05FF903467B6141F24C50C1F6FF700CF057F903464FF0010214461846B949FCF72BFF034639
S32D000104E8002B02D14FF000031C46E3B2002BD8D17869FCF7EDF804460D467868FCF7E8F802460B46CDE900235F
S32D0001051041F26C50C1F6FF704FF25431C0F2010122462B460CF026FB4FF001031C46F868A549FCF721FF0346E8
S32D00010538002B02D14FF000031C46E3B2002B01D0FB6812E0F868FCF7C3F802460B461046194699A3D3E9002395
S32D00010560FBF75CFF02460B4610461946FCF7EAFB0346FB604FF001031C46B8689249FCF7FBFE0346002B02D182
S32D000105884FF000031C46E3B2002B01D0BB6812E0B868FCF79DF802460B461046194686A3D3E90023FBF736FFD5
S32D000105B002460B4610461946FCF7C4FB0346BB604FF001031C46B868F968FCF7B7FE0346002B02D14FF0000361
S32D000105D81C46E3B2002B03D04FF00103FB7402E04FF00003FB7441F24C50C1F6FF700CF0C5F803461846796884
S32D00010600FCF7F4FB03461846FCF7FAFE0346FA7C104619466D4AFFF78FFE41F26C50C1F6FF704FF27C31C0F2F4
S32D0001062801010CF0A3FAD8E041F2E040C1F6FF704FF0050107F0C6FA00E000BF41F24C50C1F6FF700CF09AF8B9
S32D0001065003464FF00102144618465B49FCF76EFE0346002B02D14FF000031C46E3B2002BDED1FFF7CFF941F2EA
S32D000106784C50C1F6FF700CF081F803467B6141F24C50C1F6FF700CF079F8034618467968FCF7A8FB03461846D0
S32D000106A0FCF7AEFE03461846FCF716F804460D4641F24C50C1F6FF700CF064F803461846FCF70AF802460B46C5
S32D000106C8CDE9002341F26C50C1F6FF704FF29831C0F2010122462B460CF048FA78697968FCF780FB0346FB606C
S32D000106F078687969FCF77AFB0346BB604FF001031C46F8683049FCF737FE0346002B02D14FF000031C46E3B227
S32D00010718002B01D0FB6812E0F868FBF7D9FF02460B461046194624A3D3E90023FBF772FE02460B461046194693
S32D00010740FCF700FB0346FB604FF001031C46B8681D49FCF711FE0346002B02D14FF000031C46E3B2002B01D04F
S32D00010768BB6812E0B868FBF7B3FF02460B461046194611A3D3E90023FBF74CFE02460B4610461946FCF7DAFA57
S32D000107900346BB604FF001031C46B868F968FCF7CDFD0346002B02D14FF000031C46E3B2002B0DD04FF0010328
S32D000107B8FB740CE0AFF300800000000000807640000000000000C8414FF00003FB74FB7C18461F491F4AFFF709
S32D000107E0ABFD41F24C50C1F6FF700BF0CBFF034618467968FCF7FAFA03461846FCF700FE03464FF0010214469C
S32D0001080818461349FCF7B4FD0346002B02D14FF000031C46E3B2002B7FF40FAF41F24C50C1F6FF700BF0AAFFEE
S32D0001083003461846FBF750FF02460B4641F26C50C1F6FF704FF2B031C0F201010CF092F907F11807BD46B0BD1F
S32D0001085800000040000020412DE9B04F90B008AF07F1080383E8030041F24C50C1F6FF700BF064FF0346FB615B
S32D0001088041F24C50C1F6FF700BF06CFF0346BB610FE041F2E040C1F6FF704FF0050107F095F941F24C50C1F6D1
S32D000108A8FF700BF04BFF0346FB614FF001031C46F869A949FCF73EFD0346002B02D14FF000031C46E3B2002BF7
S32D000108D0DFD141F24C50C1F6FF700BF033FF0346FB6141F24C50C1F6FF700BF03BFF0346BB61BB681846F96910
S32D000108F8FCF778FA034618464FF00201FCF768FD0446FB681846B969FCF76CFA034618464FF00201FCF75CFD70
S32D00010920034620461946FCF763FA034618460CF0EBF9024641F27413C1F6FF731A60FB681846B969FCF752FAFC
S32D0001094803461C46BB681846F969FCF74BFA0346204619460CF0D0F903461846FBF7B8FE02460B46104619464A
S32D0001097077A3D3E90023FBF703FF02460B4610461946FCF7DFF903467B61F869FBF7A4FE04460D46B869FBF788
S32D000109989FFEC7E90001BB681846FBF799FE82468B46FB681846FBF793FE804689467869FBF78EFE02460B466E
S32D000109C0D7E90001CDE90001CDE902ABCDE90489CDE9062341F26C50C1F6FF704FF2D431C0F2010122462B4623
S32D000109E80CF0C4F84FF001031C4678695A49FCF7BFFC0346002B02D14FF000031C46E3B2002B01D07B6912E0FF
S32D00010A107869FBF761FE02460B46104619464EA3D3E90023FBF7FAFC02460B4610461946FCF788F903467B6198
S32D00010A3878694949FCF7D8F903467B614FF001031C4678694549FCF793FC0346002B02D14FF000031C46E3B21D
S32D00010A60002B05D078693F49FCF7C0F9034600E07B697B617869FFF7FFFC41F24C50C1F6FF700BF05FFE034601
S32D00010A88FB6141F24C50C1F6FF700BF067FE0346BB61BB681846F969FCF7A4F9034618464FF00201FCF794FC4A
S32D00010AB00446FB681846B969FCF798F9034618464FF00201FCF788FC034620461946FCF78FF9034618460CF0DA
S32D00010AD817F9024641F27413C1F6FF731A6041F27413C1F6FF731B681846FBF7F1FD02460B4641F26C50C1F657
S32D00010B00FF704FF20C41C0F201010CF033F841F23410C1F6FF7006F0A9FC41F23810C1F6FF7006F0A3FC41F24D
S32D00010B287813C1F6FF7307F1080292E8030083E803000B48FFF72CFA07F12007BD46BDE8B08F00BFAFF30080A7
S32D00010B50F8C1631ADCA54C400000000000807640000000000000B44300000C42AFF3008080B400AFBD4680BC74
S32D00010B78704700BF90B589B000AF7860454BBB6141F23410C1F6FF7006F06CFC41F23810C1F6FF7006F066FC33
S32D00010BA041F27413C1F6FF737A681A6066E041F26410C1F6FF7006F07FFC03467B6141F26810C1F6FF7006F077
S32D00010BC877FC03463B6141F26C10C1F6FF7006F06FFC0346FB604FF001031C4638692D49FCF7C6FB0346002BE8
S32D00010BF002D14FF000031C46E3B2002B02D04FF00003FB774FF001031C4678692349FCF7B3FB0346002B02D13F
S32D00010C184FF000031C46E3B2002B02D04FF00203FB774FF001031C46F8681A49FCF7A0FB0346002B02D14FF045
S32D00010C4000031C46E3B2002B02D04FF00103FB77FB7F012B0CD0022B05D0002B0DD11048FFF79AF90AE00F482A
S32D00010C680F49FFF709F905E00D480C49FFF704F900E000BFFFF7A0F8034683F00103DBB2002B90D10748FFF740
S32D00010C9083F907F12407BD4690BD00BF0000C03F0000A041000020400000204100000000B0B582B000AF41F26D
S32D00010CB88813C1F6FF731B681846FCF79DFB03467B607868FBF704FD02460B46104619461DA3D3E90023FBF707
S32D00010CE04FFD02460B4614461D467868FBF7F4FC02460B4620462946FBF742FD02460B4614461D467868FBF7BA
S32D00010D08E7FC02460B4620462946FBF783FB02460B46104619460EA3D3E90023FBF778FB02460B46104619466A
S32D00010D30FBF7C0FF03463B603B6823EAE3733B603B68184607F10807BD46B0BDAFF30080F5D896016729793F18
S32D00010D5875931804560E0640B0B582B000AF41F28413C1F6FF731B681846FCF745FB03467B607868FBF7ACFCB3
S32D00010D8002460B46104619461DA3D3E90023FBF7F7FC02460B4614461D467868FBF79CFC02460B462046294644
S32D00010DA8FBF7EAFC02460B4614461D467868FBF78FFC02460B4620462946FBF72BFB02460B46104619460EA30C
S32D00010DD0D3E90023FBF720FB02460B4610461946FBF768FF03463B603B6823EAE3733B603B68184607F10807D4
S32D00010DF8BD46B0BDAFF30080F5D896016729793F75931804560E064080B592B000AF78600B46FB707B681846C5
S32D00010E2000F016F97B6803F10803184600F010F97B6803F11003184600F00AF97B6803F11803184600F004F9F3
S32D00010E487B6803F12003184600F0FEF87B6803F12803184600F0F8F87B6803F13003184600F0F2F87B6803F1E4
S32D00010E703803184600F0ECF87B68FA7883F8402007F1080318464049404A00F0CDF87B6807F1080292E803002B
S32D00010E9883E8030007F1100318463B493B4A00F0BFF87B6803F1080307F1100292E8030083E8030007F11803BA
S32D00010EC018463549354A00F0AFF87B6803F1100307F1180292E8030083E8030007F1200318462F492F4A00F0D0
S32D00010EE89FF87B6803F1180307F1200292E8030083E8030007F1280318462349284A00F08FF87B6803F120037D
S32D00010F1007F1280292E8030083E8030007F1300318462249224A00F07FF87B6803F1280307F1300292E8030035
S32D00010F3883E8030007F13803184612491B4A00F06FF87B6803F1300307F1380292E8030083E8030007F1400312
S32D00010F6018460A490B4A00F05FF87B6803F1380307F1400292E8030083E803007B68184607F14807BD4680BD16
S32D00010F880000EC410000984100004041000034420000C841000058420000A84100005042000078410000C04066
S32D00010FB00000D8410000A04180B582B000AF78607B68184600F044F87B6803F10803184600F03EF87B6803F180
S32D00010FD81003184600F038F87B6803F11803184600F032F87B6803F12003184600F02CF87B6803F12803184623
S32D0001100000F026F87B6803F13003184600F020F87B6803F13803184600F01AF87B68184607F10807BD4680BD49
S32D0001102880B485B000AFF860B9607A60FB68BA681A60FB687A685A60FB68184607F11407BD4680BC704700BFAF
S32D0001105080B483B000AF78607B68184607F10C07BD4680BC704700BF80B582B000AF786039607B68012B40F0BC
S32D0001107895803A684FF6FF739A4240F08F8041F21C10C1F6FF704FF00001464A00F0BCFA41F22410C1F6FF7038
S32D000110A04FF00101414A00F0B3FA41F22C10C1F6FF704FF002013E4A00F0AAFA41F23410C1F6FF704FF00601E2
S32D000110C805F004FE41F23810C1F6FF704FF0070105F0FCFD41F23C10C1F6FF704FF0000106F002FE41F24810C6
S32D000110F0C1F6FF704FF01F0105F024FC41F24C10C1F6FF704FF0000105F01CFC41F25010C1F6FF704FF01E011E
S32D0001111805F014FC41F25410C1F6FF704FF0010105F00CFC41F25810C1F6FF704FF0080105F004FC41F25C100B
S32D00011140C1F6FF704FF0090105F0FCFB41F26010C1F6FF704FF00F0106F09CF941F26410C1F6FF704FF0130162
S32D0001116806F094F941F26810C1F6FF704FF0110106F08CF941F26C10C1F6FF704FF0100106F084F941F27810E5
S32D00011190C1F6FF70FFF75CFF41F2AC10C1F6FF70FFF70AFF07F10807BD4680BD000040410000A04080B500AF19
S32D000111B84FF001004FF6FF71FFF752FF80BD00BF80B500AF41F6EC12C1F6FF7241F21C13C1F6FF73D31A1946B8
S32D000111E041F21C13C1F6FF731A460B4610464FF000011A460CF021FC80BD00BF0DF096FC00F0B0F9FFF7E0FF9C
S32D000112080DF068FC0DF004FC0DF09CFC00F00CF84FF0000041F2F411C1F6FF71FCF7FCF8034618460CF0E0FBCD
S32D0001123080B500AF4FF4E043C4F204034FF4E042C4F2040202F5805202F13802126842F4785203F5805303F138
S32D0001125838031A6000F02EF900F094F841F23043C1F6FF734FF058021A6041F23043C1F6FF731B684FF47A72BC
S32D0001128002FB03F241F22C43C1F6FF731A6041F22C43C1F6FF731B681A464FF4E043C4F2040303F5825303F176
S32D000112A804031B6803F070634FEA136303F10103B2FBF3F31A4641F23443C1F6FF731A604FF4E043C4F20403BD
S32D000112D04FF4E042C4F2040202F5805202F13C02126842F0225203F5805303F13C031A604FF4E043C4F2040319
S32D000112F84FF4E042C4F2040202F5805202F13002126842F0006203F5805303F130031A604FF45043C4F20303AC
S32D000113204FF480721A614FF0640005F037F94FF45043C4F203034FF45042C4F20302526922F010025A614FF427
S32D000113485043C4F203034FF000021A604FF45043C4F203034FF010025A6106F0DBF906F083FA41F22840C1F63F
S32D00011370FF7005F097F941F2E440C1F6FF7007F0D7F841F2883005F075FA80BD80B400AF4FF48043C4F20603E3
S32D000113984FF000025A704FF48043C4F206034FF098021A704FF48043C4F206039B79DBB203F01003002B0CBF91
S32D000113C000230123DBB2002BF0D14FF48043C4F206039B79DBB203F00C034FEA9303022B0CBF00230123DBB23B
S32D000113E8002BEED14FF48043C4F206034FF018021A714FF48043C4F206034FF000025A714FF4E043C4F204034F
S32D0001141003F5825303F104034FF00002C0F213121A604FF48043C4F206034FF054025A7100BF4FF48043C4F2B3
S32D0001143806039B79DBB203F02003002B14BF00230123DBB2002BF0D100BF4FF48043C4F206039B79DBB203F0EF
S32D000114604003002B14BF00230123DBB2002BF0D14FF48043C4F206034FF48042C4F206021278D2B202F03F0293
S32D00011488D2B21A704FF48043C4F206039B79DBB203F00C034FEA9303032B0CBF00230123DBB2002BEED14FF0FA
S32D000114B000031846BD4680BC704700BF80B400AF4FF44043C4F204034FF480725A634FF2C003C4F20F034FF292
S32D000114D8C002C4F20F02526942F400525A614FF2C003C4F20F034FF2C002C4F20F02126842F400521A604FF409
S32D000115004043C4F2040340F20312C0F20A021A634FF46143CEF200034FF46142CEF20002D2F8882142F0806221
S32D00011528C3F888214FF46143CEF200034FF46142CEF20002926842F080629A60BD4680BC704700BF80B483B0BA
S32D0001155000AF7860FEE700BF80B400AF00BEBD4680BC704780B400AF4FF0E0224CF20003C0F20003C2F8083D91
S32D000115784FF40053C4F205034CF22052DA814FF40053C4F205034DF62812DA814FF40053C4F205034FF0D20252
S32D000115A01A80BD4680BC704780B500AF4FF44043C4F20403D3F8A03003F48053002B0CBF00230123DBB2002BCB
S32D000115C81FD04FF44043C4F204034FF44042C4F20402D2F8A02022F48052C3F8A02041F26C50C1F6FF700BF004
S32D000115F0A5FA4FF2C003C4F20F034FF2C002C4F20F02126822F400521A6080BD0000000090B585B000AFF8607D
S32D000116180B467A60FB72FB68FA7A1A71FB684FF000025A714FF001031C4678682049FBF79FFE0346002B02D176
S32D000116404FF000031C46E3B2002B02D01A4B7B6011E04FF001031C4678681849FBF778FE0346002B02D14FF040
S32D0001166800031C46E3B2002B01D0124B7B607868FBF72EF802460B46104619460AA3D3E90023FBF779F80246A8
S32D000116900B4610461946FBF755FB0246FB681A60FB68184607F11407BD4690BDAFF30080ABAAAAAAAAAA20401B
S32D000116B8000040410000803F80B582B000AF78607B685B79002B10D07B684FF000025A717B681B7941F2284012
S32D000116E0C1F6FF7019464FF000024FF01E0305F023F807F10807BD4680BD00BF80B584B000AF786039603B6873
S32D000117087F2B03DD4FF07F03FB7309E03B6813F1800F03DA4FF08003FB7301E03B68FB737B685B79FA7B9A42D3
S32D000117300FD07B68FA7B5A717B681A79FB7B41F22840C1F6FF7011461A464FF01E0304F0F3FF07F11007BD46CC
S32D0001175880BD00BF00000000B0B584B000AF786039604FF001031C4638684D49FBF7E2FD0346002B02D14FF07B
S32D0001178000031C46E3B2002B02D0474B3B6011E04FF001031C4638684449FBF7EDFD0346002B02D14FF00003EE
S32D000117A81C46E3B2002B01D03E4B3B603868FAF78FFF04460D467B681B681846FAF788FF02460B4610461946B5
S32D000117D04FF000024FF0804303F5B203FBF7FAF802460B4620462946FAF7CAFF02460B4610461946FBF7A6FA0E
S32D000117F803463B604FF001031C4638682A49FBF7ADFD0346002B02D14FF000031C46E3B2002B14D03868FAF76A
S32D000118205BFF02460B46104619461DA3D3E90023FAF7A6FF02460B4610461946FBF73AFA0346FB6022E0386802
S32D00011848FAF746FF02460B46104619464FF000024FF0804303F5C003FAF78EFF02460B46104619464FF00002E2
S32D000118704FF0804303F5B203FBF7ACF802460B4610461946FBF716FA0346FB607868F968FFF734FF07F1100797
S32D00011898BD46B0BDAFF3008052B81E85EB51F43F0000C8C20000C84200000000AFF3008080B485B000AF02465D
S32D000118C00B46FA71BB71BB79002B07D141F2F813C1F6FF734FF000021A7006E041F2F813C1F6FF734FF0010219
S32D000118E81A704FF03803FB7341F2F813C1F6FF731A78FB7B1343FB734FF4C043C4F206034FF4C042C4F2060224
S32D000119109278D2B242F01002D2B29A704FF4C043C4F206034FF4C042C4F206029278D2B242F02002D2B29A70D0
S32D000119384FF4C043C4F20603FA7B1A7107F11407BD4680BC704700BF80B483B000AF4FF001037B6004E000BFDC
S32D000119607B6803F101037B607B68312BCCBF00230123DBB2002BF2D107F10C07BD4680BC704700BF80B582B0EF
S32D0001198800AF02460B46FA71BB7141F2F913C1F6FF731B7818464FF00001FFF789FF4FF4C043C4F20603DB78E2
S32D000119B0DBB203F00203002B14BF00230123DBB2002BF0D14FF4C043C4F206034FF4C042C4F20602D278D2B2EF
S32D000119D842F00202D2B2DA704FF4C043C4F20603FA791A714FF4C043C4F20603DB78DBB203F00203002B14BFFE
S32D00011A0000230123DBB2002BF0D14FF4C043C4F206034FF4C042C4F20602D278D2B242F00202D2B2DA704FF4DA
S32D00011A28C043C4F20603BA791A714FF4C043C4F20603DB78DBB203F00203002B14BF00230123DBB2002BF0D174
S32D00011A504FF4C043C4F206034FF4C042C4F20602D278D2B242F00202D2B2DA704FF4C043C4F206034FF4C04243
S32D00011A78C4F206029278D2B222F02002D2B29A704FF4C043C4F206034FF4C042C4F206029278D2B222F0100277
S32D00011AA0D2B29A70FFF754FF07F10807BD4680BD80B582B000AF0346FB71FB79184600F06BF807F10807BD46FF
S32D00011AC880BD00BF80B582B000AF02460B46FA71BB7100F039F8FB794FEA4303DBB21846FFF7E2FFBB79184645
S32D00011AF0FFF7DEFF00F03EF807F10807BD4680BD80B500AF4FF0FF0000F046F80346184680BD00BF80B584B02B
S32D00011B1800AF0346FB7100F017F8FB794FEA4303DBB243F00103DBB2DBB21846FFF7BCFFFFF7E2FF0346FB73CD
S32D00011B4000F018F8FB7B184607F11007BD4680BD80B400AF4FF24003C4F20F034FF24002C4F20F02926842F4AA
S32D00011B6880129A60BD4680BC704700BF80B400AF4FF24003C4F20F034FF24002C4F20F02526842F480125A6058
S32D00011B90BD4680BC704700BF80B485B000AF0346FB714FF00003BB7303E0FB7B03F10103FB734FF44043C4F2F9
S32D00011BB80A03DB6A4FF00003002BF2D14FF44043C4F20A034FF44042C4F20A02D26A42F00042DA624FF44043BA
S32D00011BE0C4F20A03FA795A6300BF4FF44043C4F20A03DB6A03F40033002B14BF00230123DBB2002BF1D14FF42A
S32D00011C084043C4F20A039B6BBB73BB7B184607F11407BD4680BC704780B582B000AF4FF4E043C4F204034FF41A
S32D00011C30E042C4F2040202F5805202F13002126842F4805203F5805303F130031A604FF42043C4F204034FF425
S32D00011C5880721A654FF24003C4F20F034FF24002C4F20F02526942F480125A61FFF77EFF4FF42043C4F2040342
S32D00011C804FF400725A654FF42043C4F204034FF400729A654FF42043C4F204034FF40072DA654FF44043C4F2D7
S32D00011CA80A034FF44062C8F200021A604FF44043C4F20A034FF00502C3F60062DA604FF000037B6007E04FF07E
S32D00011CD0FF00FFF7EDFE7B6803F101037B607B68092BCCBF00230123DBB2002BEFD104A1D1E9000104F0D8FDC5
S32D00011CF807F10807BD4680BD9A9999999999B93F90B486B000AFF860B9607A60FA684FF42043C4F206039A42D0
S32D00011D2014D14FF4E043C4F204034FF4E042C4F2040202F5805202F13402126842F4806203F5805303F13403F1
S32D00011D481A6083E0FA684FF43043C4F206039A4214D14FF4E043C4F204034FF4E042C4F2040202F5805202F1F7
S32D00011D703402126842F4006203F5805303F134031A6067E0FA684FF44043C4F206039A4214D14FF4E043C4F281
S32D00011D9804034FF4E042C4F2040202F5805202F13402126842F4805203F5805303F134031A604BE0FA684FF440
S32D00011DC05043C4F206039A4214D14FF4E043C4F204034FF4E042C4F2040202F5805202F13402126842F40052A9
S32D00011DE803F5805303F134031A602FE0FA684FF42043C4F20E039A4214D14FF4E043C4F204034FF4E042C4F27F
S32D00011E10040202F5805202F12802126842F4806203F5805303F128031A6013E04FF4E043C4F204034FF4E04246
S32D00011E38C4F2040202F5805202F12802126842F4006203F5805303F128031A60FB68DB78DBB223F00C03DAB272
S32D00011E60FB68DA70FB684FF000029A70BB684FF47A7202FB03F27B684FEA031392FBF3F39CB2FB681B78DBB23E
S32D00011E8823F01F03FB75234603F4F8534FEA2323DBB203F01F03DAB2FB7D1343DAB2FB681A70E2B2FB685A7026
S32D00011EB0BB684FF4FA4202FB03F27B684FEA031392FBF3F39AB2234619464FEAC121CB1A4FEA43139BB2D318EF
S32D00011ED89CB2FB689B7ADBB223F01F03FB75E3B203F01F03DAB2FB7D1343DAB2FB689A72FB68DB78DBB243F06E
S32D00011F000C03DAB2FB68DA7007F11807BD4690BC704700BF80B483B000AF786000BF7B681B79DBB203F02003C7
S32D00011F28002B14BF00230123DBB2002BF3D17B68DB79DBB2184607F10C07BD4680BC704780B483B000AF7860B8
S32D00011F500B46FB7000BF7B681B79DBB2DBB26FEA0303DBB24FEAD313DBB2002BF3D17B68FA78DA7107F10C0724
S32D00011F78BD4680BC704700BF80B487B000AFF860B9607A60FB687B61BB683B610BE03B691A787B691A707B69AF
S32D00011FA003F101037B613B6903F101033B617B68002B0CBF00230123DBB27A6802F1FF327A60002BE7D107F19E
S32D00011FC81C07BD4680BC704780B487B000AFF860B9607A60FB687B6107E0BB68DAB27B691A707B6903F101034D
S32D00011FF07B617B68002B0CBF00230123DBB27A6802F1FF327A60002BEBD107F11C07BD4680BC704780B489B0F4
S32D0001201800AFF860B9607A60FB68FB61BB68BB614FF000037B617B68002B0CBF00230123DBB27A6802F1FF32D0
S32D000120407A60002B19D0FB691B781A46BB691B78D31A7B617B69002B14BF00230123DBB2FA6902F10102FA6142
S32D00012068BA6902F10102BA61002B02D04FF0010301E04FF00003002BD5D17B69184607F12407BD4680BC704786
S32D0001209080B483B000AF7860396003E07B6803F101037B607B681B78002B08D07B681B781A463B689A4202D061
S32D000120B84FF0010301E04FF00003002BEAD17B681B78184607F10C07BD4680BC704700BF80B584B000AF786029
S32D000120E039607B681B6BFB60FA683B689A4264D07B681B79002B43D07B685A787B6803F1340310461946FA68D0
S32D000121084FF0010304F0B4F80346002B0CBF00230123DBB2002B02D04FF001034BE07B684FF000021A717B68B5
S32D000121305A6A7B681B6AD218FB689A4220D97B68DB78FB7214E07B681B6AFA68D318FB607B685A787B6803F1FF
S32D00012158340310461946FA684FF0010304F088F8FB7A03F1FF33FB72FB7A012B94BF00230123DBB2002BE2D1A5
S32D000121803B68002B19D07B685A787B6803F13403104619463A684FF0010303F05FFF0346002B0CBF0023012345
S32D000121A8DBB2002B02D04FF0010304E07B683A681A634FF00003184607F11007BD4680BD80B584B000AF786076
S32D000121D078684FF00001FFF77FFF0346FB73FB7B002B40F0AE807B681B78032B40F095807B685B79002B00F0DB
S32D000121F890807B684FF000021A637B6803F1340318464FF000014FF40072FFF7DDFE7B684FF0550283F832228D
S32D000122207B684FF0AA0283F833227B684FF0520283F834207B684FF0520283F835207B684FF0610283F8362010
S32D000122487B684FF0410283F837207B684FF0720283F818227B684FF0720283F819227B684FF0410283F81A227D
S32D000122707B684FF0610283F81B227B681B69DAB27B6883F81C227B681B699BB24FEA2323DAB27B6883F81D2217
S32D000122987B681B694FEA1343DAB27B6883F81E227B681B694FEA1363DAB27B6883F81F227B68DB68DAB27B6821
S32D000122C083F820227B68DB689BB24FEA2323DAB27B6883F821227B68DB684FEA1343DAB27B6883F822227B684D
S32D000122E8DB684FEA1363DAB27B6883F823227B6859787B6803F134027B685B69084611461A464FF0010303F003
S32D00012310B3FF7B684FF000025A717B685B7818464FF000014FF0000204F08CF80346002B0CBF00230123DBB2DD
S32D00012338002B02D04FF00103FB73FB7B184607F11007BD4680BD00BF80B483B000AF786039603B68A3F1020323
S32D000123603B607B68DB69A3F102023B689A4202D84FF0000307E07B689B783A6802FB03F27B68DB6AD318184677
S32D0001238807F10C07BD4680BC704700BF80B586B000AF786039603B68012B04D97B68DA693B689A4202D84FF071
S32D000123B00103D3E07B681B78022B5FD0032B00F08A80012B40F0C8803B687B617B694FEA53037A69D3187B610D
S32D000123D87B685A6A7B694FEA5323D31878681946FFF776FE0346002B0CBF00230123DBB2002B40F0A6807B6990
S32D000124004FEAC3534FEAD3537A68D31893F834303B617B6903F101037B617B685A6A7B694FEA5323D3187868EA
S32D000124281946FFF755FE0346002B0CBF00230123DBB2002B40F087807B694FEAC3534FEAD3537A68D31893F87E
S32D0001245034304FEA03233A6913433B613B6803F00103DBB2002B03D03B694FEA131304E03B694FEA03534FEA8D
S32D0001247813536FE07B685A6A3B684FEA1323D31878681946FFF724FE0346002B0CBF00230123DBB2002B58D11E
S32D000124A03B684FEA43034FEAC3534FEAD35303F130037A68D31803F10403FB60FB6803F101031B784FEA0323A6
S32D000124C89AB2FB681B7813439BB29BB242E07B685A6A3B684FEAD313D31878681946FFF7F7FD0346002B0CBFD5
S32D000124F000230123DBB2002B2DD13B684FEA83034FEAC3534FEAD35303F130037A68D31803F10403FB60FB6803
S32D0001251803F103031B784FEA0362FB6803F102031B784FEA03431A43FB6803F101031B784FEA03231A43FB6891
S32D000125401B78134323F0704308E000BF04E000BF02E000BF00E000BF4FF0FF33184607F11807BD4680BD00BF4E
S32D0001256880B588B000AFF860B9607A60BB68012B04D9FB68DA69BB689A4203D84FF00203FB771AE1FB681B788A
S32D00012590022B00F08580032B00F0AD80012B40F00181BB68BB61BB694FEA5303BA69D318BB61FB685A6ABB696A
S32D000125B84FEA5323D318F8681946FFF789FD0346FB77FB7F002B40F0ED80BB694FEAC3534FEAD35303F1300329
S32D000125E0FA68D31803F104037B61BB6803F00103DBB2002B0ED07B691B78DBB203F00F03DAB27B68DBB24FEABA
S32D000126080313DBB21343DBB2DBB201E07B68DBB27A691370BB6903F10103BB61FB684FF001021A71FB685A6A4A
S32D00012630BB694FEA5323D318F8681946FFF74CFD0346FB77FB7F002B40F0B280BB694FEAC3534FEAD35303F137
S32D000126583003FA68D31803F104037B61BB6803F00103DBB2002B04D07B684FEA1313DBB20FE07B691B78DBB294
S32D0001268023F00F03DAB27B684FEA1323DBB203F00F03DBB21343DBB2DBB27A6913708CE0FB685A6ABB684FEA44
S32D000126A81323D318F8681946FFF712FD0346FB77FB7F002B7AD1BB684FEA43034FEAC3534FEAD35303F13003FC
S32D000126D0FA68D31803F104037B617B68DAB27B691A707B6903F101037A6892B24FEA2222D2B21A7061E0FB68A9
S32D000126F85A6ABB684FEAD313D318F8681946FFF7E7FC0346FB77FB7F002B51D1BB684FEA83034FEAC3534FEA3E
S32D00012720D35303F13003FA68D31803F104037B617B6903F103031B784FEA03627B6903F102031B784FEA03431B
S32D000127481A437B6903F101031B784FEA03231A437B691B78134303F070437A6813437B607B68DAB27B691A7077
S32D000127707B6903F101037A6892B24FEA2222D2B21A707B6903F102037A684FEA1242D2B21A707B6903F1030375
S32D000127987A684FEA1262D2B21A700AE04FF00203FB7706E000BF04E000BF02E000BF00E000BFFB684FF00102A8
S32D000127C01A71FB7F184607F12007BD4680BD00BF80B584B000AF786039603B68012B04D97B68DA693B689A428F
S32D000127E803D84FF00203FB7345E04FF00003FB7333E078683968FFF7C9FD0346BB60BB68002B35D0BB68012B0A
S32D0001281003D14FF00203FB7331E0BB68B3F1FF3F03D14FF00103FB7329E0786839684FF00002FFF799FE0346D7
S32D00012838FB73FB7B002B1DD17B681B69B3F1FF3F09D07B681B6903F101027B681A617B684FF001025A71BB6883
S32D000128603B607B68DA693B689A4294BF00230123DBB2002BC1D102E000BF00E000BFFB7B184607F11007BD46FF
S32D0001288880BD00BF80B586B000AF786039603B68002B0ED17B68DB683B613B69002B04D07B68DA693B699A42E2
S32D000128B018D84FF001033B6114E078683968FFF769FD0346BB60BB68012B02D84FF001036EE07B68DA69BB68F2
S32D000128D89A4201D9BB6867E03B683B613B697B6100E000BF7B6903F101037B617B68DA697B699A4209D84FF095
S32D0001290002037B617A693B699A4202D94FF000034EE078687969FFF73DFD0346BB60BB68002B0FD0BB68B3F1CF
S32D00012928FF3F02D0BB68012B01D1BB683CE07A693B699A42D5D14FF0000335E000BF786879696FF07042FFF728
S32D000129500BFE0346FB73FB7B002B09D13B68002B06D0786839687A69FFF7FEFD0346FB73FB7B002B12D17B6806
S32D000129787A69DA607B681B69B3F1FF3F13D07B681B6903F1FF327B681A617B684FF001025A7108E0FB7B012B83
S32D000129A002D14FF0FF3301E04FF001037B617B69184607F11807BD4680BD00BF80B487B000AF786039607B68FE
S32D000129C85B6A03F104033B613B684FEA53227B681B689B78B2FBF3F37B613B691B68FB603B6903F104033B618E
S32D000129F0FB68002B02D14FF0000311E07A69FB689A4208D37A69FB68D31A7B613B6903F104033B61E5E700BF52
S32D00012A183B691A687B69D318184607F11C07BD4680BC704780B584B000AF78600B467B807B687A88DA807B68CD
S32D00012A409B68FB60FB68012B05D07B681B68DA69FB689A4202D84FF0020373E0FB68002B08D17B681B681B78EC
S32D00012A68032B03D17B681B689B6AFB60FB68002B16D17B68FA68DA607B681B681B897A889A4202D34FF0020382
S32D00012A9058E07B681B689A6A7B884FEA13139BB2D2187B681A613FE07B681B689B784FEA03137B811EE07B68BA
S32D00012AB81B681846F968FFF769FC0346FB60FB68B3F1FF3F02D14FF0010337E0FB68012B05D97B681B68DA6926
S32D00012AE0FB689A4202D84FF002032BE07A887B89D31A7B807A887B899A4234BF00230123DBB2002BD7D17B6812
S32D00012B08FA68DA607B681B681846F968FFF71CFC02467B884FEA13139BB2D2187B681A617B681B6803F1340200
S32D00012B307B8803F00F034FEA4313D2187B685A614FF00003184607F11007BD4680BD00BF90B585B000AF7860A8
