S01300002E2E2F4645485F526F626F742E7331391E
S32D0000C000000000209DFC0000F9FF0000F9FF0000F9FF0000F9FF0000F9FF000000000000000000000000000081
S32D0000C02800000000F9FF0000F9FF000000000000F9FF0000F9FF0000F9FF0000F9FF0000F9FF0000F9FF00002A
S32D0000C050F9FF0000F9FF0000F9FF0000F9FF0000F9FF0000F9FF0000F9FF0000F9FF0000F9FF0000F9FF000012
S32D0000C078F9FF0000F9FF0000F9FF0000F9FF0000F9FF0000F9FF0000F9FF0000F9FF0000F9FF0000F9FF0000EA
S32D0000C0A0F9FF0000F9FF0000F9FF0000F9FF0000F9FF0000F9FF0000F9FF0000F9FF0000F9FF0000F9FF0000C2
S32D0000C0C8F9FF0000F9FF0000F9FF0000F9FF0000F9FF0000F9FF0000F9FF0000F9FF0000F9FF0000F9FF00009A
S32D0000C0F0F9FF0000259E0100F9FF0000F9FF0000F9FF0000F9FF0000F9FF0000F9FF0000F9FF0000F9FF0000A6
S32D0000C118F9FF0000F9FF0000F9FF0000F9FF0000F9FF0000F9FF0000F9FF0000F9FF0000F9FF0000F9FF000049
S32D0000C140F9FF0000F9FF0000F9FF0000F9FF00004D630100F9FF0000F9FF0000F9FF0000F9FF0000F9FF000068
S32D0000C168F9FF0000F9FF0000F9FF0000F9FF0000F9FF0000F9FF0000F9FF0000F9FF0000F9FF0000F9FF0000F9
S32D0000C190F9FF0000F9FF0000F9FF0000AD5D0100015C0100D55C010049000100855E0100F9FF0000F9FF0000E0
S32D0000C1B8F9FF0000F9FF0000F9FF0000F9FF0000F9FF0000F9FF0000F9FF0000F9FF0000F9FF0000F9FF0000A9
S32D0000C41081F0004102E000BF83F0004330B54FEA41044FEA430594EA050F08BF90EA020F1FBF54EA000C55EAC6
S32D0000C438020C7FEA645C7FEA655C00F0E2804FEA5454D4EB5555B8BF6D420CDD2C4480EA020281EA030382EA0F
S32D0000C460000083EA010180EA020281EA0303362D88BF30BD11F0004F4FEA01314FF4801C4CEA113102D0404263
S32D0000C48861EB410113F0004F4FEA03334CEA133302D0524263EB430394EA050F00F0A780A4F10104D5F1200E8A
S32D0000C4B00DDB02FA0EFC22FA05F2801841F1000103FA0EF2801843FA05F359410EE0A5F120050EF1200E012A2D
S32D0000C4D803FA0EFC28BF4CF0020C43FA05F3C01851EBE37101F0004507D54FF0000EDCF1000C7EEB00006EEB67
S32D0000C5000101B1F5801F1BD3B1F5001F0CD349085FEA30004FEA3C0C04F101044FEA445212F5800F80F09A8000
S32D0000C528BCF1004F08BF5FEA500C50F1000041EB045141EA050130BD5FEA4C0C404141EB010111F4801FA4F114
S32D0000C5500104E9D191F0000F04BF01460020B1FA81F308BF2033A3F10B03B3F120020CDA0C3208DD02F1140C87
S32D0000C578C2F10C0201FA0CF021FA02F10CE002F11402D8BFC2F1200C01FA02F120FA0CFCDCBF41EA0C019040B1
S32D0000C5A0E41AA2BF01EB0451294330BD6FEA04041F3C1CDA0C340EDC04F11404C4F1200220FA04F001FA02F3B6
S32D0000C5C840EA030021FA04F345EA030130BDC4F10C04C4F1200220FA02F001FA04F340EA0300294630BD21FAA8
S32D0000C5F004F0294630BD94F0000F83F4801306BF81F480110134013D4EE77FEA645C18BF7FEA655C29D094EA1C
S32D0000C618050F08BF90EA020F05D054EA000C04BF1946104630BD91EA030F1EBF0021002030BD5FEA545C05D1A3
S32D0000C6404000494128BF41F0004130BD14F580043CBF01F5801130BD01F0004545F0FE4141F470014FF0000031
S32D0000C66830BD7FEA645C1ABF194610467FEA655C1CBF0B46024650EA013406BF52EA033591EA030F41F40021D7
S32D0000C69030BD00BF90F0000F04BF0021704730B54FF4806404F132044FF000054FF0000150E700BF90F0000F66
S32D0000C6B804BF0021704730B54FF4806404F1320410F0004548BF40424FF000013EE700BF42004FEAE2014FEAF9
S32D0000C6E031014FEA02701FBF12F07F4393F07F4F81F06051704792F0000F14BF93F07F4F704730B54FF460741B
S32D0000C70801F0004521F0004120E700BF50EA010208BF704730B54FF000050AE050EA010208BF704730B511F046
S32D0000C730004502D5404261EB41014FF4806404F132045FEA915C3FF4DCAE4FF003025FEADC0C18BF03325FEAA0
S32D0000C758DC0C18BF033202EBDC02C2F1200300FA03FC20FA02F001FA03FE40EA0E0021FA02F11444C1E600BF19
S32D0000C78070B54FF0FF0C4CF4E06C1CEA11541DBF1CEA135594EA0C0F95EA0C0F00F0DEF82C4481EA030621EAF3
S32D0000C7A84C5123EA4C5350EA013518BF52EA033541F4801143F4801338D0A0FB02CE4FF00005E1FB02E506F05F
S32D0000C7D00042E0FB03E54FF00006E1FB03569CF0000F18BF4EF0010EA4F1FF04B6F5007F64F5407404D25FEA0F
S32D0000C7F84E0E6D4146EB060642EAC62141EA55514FEAC52040EA5E504FEACE2EB4F1FD0C88BFBCF5E06F1ED8D2
S32D0000C820BEF1004F08BF5FEA500E50F1000041EB045170BD06F0004646EA010140EA020081EA0301B4EB5C0487
S32D0000C848C2BFD4EB0C0541EA045170BD41F480114FF0000E013C00F3AB8014F1360FDEBF002001F0004170BDF0
S32D0000C870C4F10004203C35DA0C341BDC04F11404C4F1200500FA05F320FA04F001FA05F240EA020001F0004207
S32D0000C89821F0004110EBD37021FA04F642EB06015EEA430E08BF20EAD37070BDC4F10C04C4F1200500FA04F32F
S32D0000C8C020FA05F001FA04F240EA020001F0004110EBD37041F100015EEA430E08BF20EAD37070BDC4F12005C7
S32D0000C8E800FA05F24EEA020E20FA04F301FA05F243EA020321FA04F001F0004121FA04F220EA020000EBD37028
S32D0000C9105EEA430E08BF20EAD37070BD94F0000F0FD101F00046400041EB010111F4801F08BF013CF7D041EA6D
S32D0000C938060195F0000F18BF704703F00046520043EB030313F4801F08BF013DF7D043EA0603704794EA0C0FF1
S32D0000C9600CEA135518BF95EA0C0F0CD050EA410618BF52EA4306D1D181EA030101F000414FF0000070BD50EA38
S32D0000C988410606BF1046194652EA430619D094EA0C0F02D150EA013613D195EA0C0F05D152EA03361CBF10467B
S32D0000C9B019460AD181EA030101F0004141F0FE4141F470014FF0000070BD41F0FE4141F4780170BD70B54FF04D
S32D0000C9D8FF0C4CF4E06C1CEA11541DBF1CEA135594EA0C0F95EA0C0F00F0A7F8A4EB050481EA030E52EA03359B
S32D0000CA004FEA013100F088804FEA03334FF0805545EA131343EA12634FEA022245EA111545EA10654FEA002676
S32D0000CA280EF000419D4208BF964244F1FD0404F5407402D25B084FEA3202B61A65EB03055B084FEA32024FF461
S32D0000CA5080104FF4002CB6EB020E75EB030E22BFB61A754640EA0C005B084FEA3202B6EB020E75EB030E22BF22
S32D0000CA78B61A754640EA5C005B084FEA3202B6EB020E75EB030E22BFB61A754640EA9C005B084FEA3202B6EBEA
S32D0000CAA0020E75EB030E22BFB61A754640EADC0055EA060E18D04FEA051545EA16754FEA06164FEAC30343EAAC
S32D0000CAC852734FEAC2025FEA1C1CC0D111F4801F0BD141EA00014FF000004FF0004CB6E711F4801F04BF0143AE
S32D0000CAF00020B4F1FD0C88BFBCF5E06F3FF6AFAEB5EB030C04BFB6EB020C5FEA500C50F1000041EB045170BDBC
S32D0000CB180EF0004E4EEA113114EB5C04C2BFD4EB0C0541EA045170BD41F480114FF0000E013C90E645EA060EC3
S32D0000CB408DE60CEA135594EA0C0F08BF95EA0C0F3FF43BAF94EA0C0F0AD150EA01347FF434AF95EA0C0F7FF499
S32D0000CB6825AF104619462CE795EA0C0F06D152EA03353FF4FDAE1046194622E750EA410618BF52EA43067FF432
S32D0000CB90C5AE50EA41047FF40DAF52EA43057FF4EBAE12E74FF0FF3C06E000BF4FF0010C02E000BF4FF0010C75
S32D0000CBB84DF804CD4FEA410C7FEA6C5C4FEA430C18BF7FEA6C5C1BD001B050EA410C0CBF52EA430C91EA030FEC
S32D0000CBE002BF90EA020F0020704710F1000F91EA030F58BF994208BF90422CBFD8176FEAE37040F0010070476E
S32D0000CC084FEA410C7FEA6C5C02D150EA013C07D14FEA430C7FEA6C5CD6D152EA033CD3D05DF8040B704700BFCD
S32D0000CC308446104662468C461946634600E000BF01B5FFF7B7FF002848BF10F1000F01BD4DF808EDFFF7F4FF13
S32D0000CC580CBF012000205DF808FB00BF4DF808EDFFF7EAFF34BF012000205DF808FB00BF4DF808EDFFF7E0FF18
S32D0000CC8094BF012000205DF808FB00BF4DF808EDFFF7CEFF94BF012000205DF808FB00BF4DF808EDFFF7C4FF40
S32D0000CCA834BF012000205DF808FB00BF4FEA410212F5001215D211D56FF47873B3EB625212D94FEAC12343F0D6
S32D0000CCD0004343EA505311F0004F23FA02F018BF404270474FF00000704750EA013005D111F0004008BF6FF016
S32D0000CCF8004070474FF00000704700BF4A0011D212F5001211D20DD56FF47873B3EB62520ED44FEAC12343F085
S32D0000CD20004343EA505323FA02F070474FF00000704750EA013002D14FF0FF3070474FF0000070474FEA410241
S32D0000CD48B2F1E04324BFB3F5001CDCF1FE5C0DD901F0004C4FEAC0024CEA5070B2F1004F40EB830008BF20F09E
S32D0000CD700100704711F0804F21D113F13872BCBF01F00040704741F480114FEA5252C2F11802C2F1200C10FAB1
S32D0000CD980CF320FA02F018BF40F001004FEAC1234FEAD32303FA0CFC40EA0C0023FA02F34FEA4303CCE77FEA26
S32D0000CDC0625307D150EA01331EBF4FF0FE4040F44000704701F0004040F0FE4040F40000704700BF80F00040CC
S32D0000CDE802E000BF81F0004142001FBF5FEA410392EA030F7FEA226C7FEA236C6AD04FEA1262D2EB1363C1BF06
S32D0000CE10D218414048404140B8BF5B42192B88BF704710F0004F40F4000020F07F4018BF404211F0004F41F4FA
S32D0000CE38000121F07F4118BF494292EA030F3FD0A2F1010241FA03FC10EB0C00C3F1200301FA03F100F000432B
S32D0000CE6002D5494260EB4000B0F5000F13D3B0F1807F06D340084FEA310102F10102FE2A51D2B1F1004F40EB94
S32D0000CE88C25008BF20F0010040EA03007047490040EB000010F4000FA2F10102EDD1B0FA80FCACF1080CB2EB5F
S32D0000CEB00C0200FA0CF0AABF00EBC25052421843BCBFD0401843704792F0000F81F4000106BF80F400000132EB
S32D0000CED8013BB5E74FEA41037FEA226C18BF7FEA236C21D092EA030F04D092F0000F08BF0846704790EA010FD7
S32D0000CF001CBF0020704712F07F4F04D1400028BF40F00040704712F100723CBF00F50000704700F0004343F0DC
S32D0000CF28FE4040F4000070477FEA226216BF08467FEA23630146420206BF5FEA412390EA010F40F480007047C1
S32D0000CF504FF0000304E000BF10F0004348BF40425FEA000C08BF704743F0964301464FF000001CE050EA010264
S32D0000CF7808BF70474FF000030AE000BF50EA010208BF704711F0004302D5404261EB41015FEA010C02BF84465B
S32D0000CFA00146002043F0B64308BFA3F18053A3F50003BCFA8CF2083AA3EBC25310DB01FA02FC634400FA02FC6B
S32D0000CFC8C2F12002BCF1004F20FA02F243EB020008BF20F00100704702F1200201FA02FCC2F1200250EA4C0034
S32D0000CFF021FA02F243EB020008BF20EADC7070474FF0FF0C1CEAD0521EBF1CEAD15392EA0C0F93EA0C0F6FD019
S32D0000D0181A4480EA010C400218BF5FEA41211ED04FF0006343EA501043EA5111A0FB01310CF00040B1F5000FE7
S32D0000D0403EBF490041EAD3715B0040EA010062F17F02FD2A1DD8B3F1004F40EBC25008BF20F00100704790F058
S32D0000D068000F0CF0004C08BF49024CEA502040EA51207F3AC2BFD2F1FF0340EAC250704740F400004FF0000388
S32D0000D090013A5DDC12F1190FDCBF00F000407047C2F10002410021FA02F1C2F1200200FA02FC5FEA310040F1D5
S32D0000D0B8000053EA4C0308BF20EADC70704792F0000F00F0004C02BF400010F4000F013AF9D040EA0C0093F04C
S32D0000D0E0000F01F0004C02BF490011F4000F013BF9D041EA0C018FE70CEAD15392EA0C0F18BF93EA0C0F0AD00B
S32D0000D10830F0004C18BF31F0004CD8D180EA010000F00040704790F0000F17BF90F0004F084691F0000F91F0BB
S32D0000D130004F14D092EA0C0F01D142020FD193EA0C0F03D14B0218BF084608D180EA010000F0004040F0FE4051
S32D0000D15840F40000704740F0FE4040F4400070474FF0FF0C1CEAD0521EBF1CEAD15392EA0C0F93EA0C0F69D044
S32D0000D180A2EB030280EA010C49024FEA402037D04FF0805343EA111143EA10130CF000408B4238BF5B0042F14E
S32D0000D1A87D024FF4000C8B4224BF5B1A40EA0C00B3EB510F24BFA3EB510340EA5C00B3EB910F24BFA3EB9103A4
S32D0000D1D040EA9C00B3EBD10F24BFA3EBD10340EADC001B0118BF5FEA1C1CE0D1FD2A3FF650AF8B4240EBC25018
S32D0000D1F808BF20F0010070470CF0004C4CEA50207F32C2BFD2F1FF0340EAC250704740F400004FF00003013AF1
S32D0000D22037E792F0000F00F0004C02BF400010F4000F013AF9D040EA0C0093F0000F01F0004C02BF490011F4C9
S32D0000D248000F013BF9D041EA0C0195E70CEAD15392EA0C0F08D142027FF47DAF93EA0C0F7FF470AF084676E7AE
S32D0000D27093EA0C0F04D14B023FF44CAF08466EE730F0004C18BF31F0004CCAD130F000427FF45CAF31F0004376
S32D0000D2987FF43CAF5FE700BF4FF0FF3C06E000BF4FF0010C02E000BF4FF0010C4DF804CD4FEA40024FEA41039F
S32D0000D2C07FEA226C18BF7FEA236C11D001B052EA530C18BF90EA010F58BFB2EB030088BFC81738BF6FEAE1706E
S32D0000D2E818BF40F0010070477FEA226C02D15FEA402C05D17FEA236CE4D15FEA412CE1D05DF8040B704700BF16
S32D0000D310844608466146FFE70FB5FFF7C9FF002848BF10F1000F0FBD4DF808EDFFF7F4FF0CBF012000205DF839
S32D0000D33808FB00BF4DF808EDFFF7EAFF34BF012000205DF808FB00BF4DF808EDFFF7E0FF94BF012000205DF8A9
S32D0000D36008FB00BF4DF808EDFFF7D2FF94BF012000205DF808FB00BF4DF808EDFFF7C8FF34BF012000205DF8B1
S32D0000D38808FB00BF4FEA4002B2F1FE4F0FD34FF09E03B3EB12620DD94FEA002343F0004310F0004F23FA02F060
S32D0000D3B018BF404270474FF00000704712F1610F01D1420205D110F0004008BF6FF0004070474FF00000704797
S32D0000D3D880B582B000AF786039603868FFF7B8FD0346786819460EF047FA0346184607F10807BD4680BD00BFE1
S32D0000D40080B483B000AF78607B6823F00043184607F10C07BD4680BC704700BF80B582B000AF00F04FFA15E273
S32D0000D42841F27013C1F6FF731B78002B01D002F09BFA01F0FFFC41F26113C1F6FF731B78122B00F2EB8101A254
S32D0000D45052F823F0A1D40000D7D40000F9D4000015D5000027D5000045D5000061D500006BD5000089D5000090
S32D0000D478ABD5000097D60000B5D60000D1D60000DBD60000F9D6000015D70000A1D70000BFD7000001D8000014
S32D0000D4A001F080FC0346B3F57F0F14BF00230123DBB2002B00F0C18141F24850C1F6FF704DF2CC61C0F201015D
S32D0000D4C80EF012F94FF0010001F0CEFBB1E141F29C13C1F6FF7393E8030002F0D1F84FF0020001F0C1FB4FF030
S32D0000D4F0010001F02BFCADE101F06EFE0346002B00F09D81EC4801F0EDFE4FF0030001F0AFFB94E14FF00400E3
S32D0000D51801F0AAFB4FF0010001F014FC96E141F29C13C1F6FF7303F1080393E8030002F0A7F84FF0050001F049
S32D0000D54097FB87E101F048FE0346002B00F07981D94801F0C7FE4FF0060001F089FB70E14FF0070001F084FB96
S32D0000D56874E141F29C13C1F6FF7303F1100393E8030002F085F84FF0080001F075FB65E101F026FE0346002BCA
S32D0000D59000F05981C84801F0A5FEC84801F040FF4FF0090001F064FB4DE14FF0010001F0A5FE034683F0010365
S32D0000D5B8DBB2002B10D0C04801F090FE00BF4FF0010001F097FE034683F00103DBB2002BF5D1B74801F082FEF3
S32D0000D5E04FF000037B6039E041F2BC40C1F6FF7009F064F84FF000004FF07E5101F5C00107F0A2FE4FF0010062
S32D0000D60801F078FE034683F00103DBB2002B1DD04FF000037B6041F24850C1F6FF704DF2E461C0F201010EF0E4
S32D0000D6305FF8A34801F056FE00BF4FF0010001F05DFE034683F00103DBB2002BF5D19A4801F048FE7B6803F1CC
S32D0000D65801037B607B68092BCCBF00230123DBB2002BBDD141F2C040C1F6FF704FF47F0109F0CAFE41F2C04086
S32D0000D680C1F6FF704FF0000109F0C2FE4FF00A0001F0EEFADEE041F29C13C1F6FF7303F1180393E8030001F0F4
S32D0000D6A8EFFF4FF00B0001F0DFFACFE001F090FD0346002B00F0C5807D4801F00FFE4FF00C0001F0D1FABCE016
S32D0000D6D04FF00D0001F0CCFABCE041F29C13C1F6FF7303F1200393E8030001F0CDFF4FF00E0001F0BDFAADE0AE
S32D0000D6F801F06EFD0346002B00F0A5806C4801F0EDFD4FF0090001F0AFFA9CE001F046FB0346B3F57F0F14BFAE
S32D0000D72000230123DBB2002B0ED041F24850C1F6FF704DF22C71C0F201010DF0D9FF4FF0100001F095FA85E074
S32D0000D74801F02CFB0346FF2B14BF00230123DBB2002B0ED041F24850C1F6FF704DF25C71C0F201010DF0C0FF0B
S32D0000D7704FF0100001F07CFA6CE041F24850C1F6FF704DF28871C0F201010DF0B1FF41F2BC40C1F6FF704FF06B
S32D0000D798050108F09FFF59E041F29C13C1F6FF7303F1280393E8030001F06AFF4FF0110001F05AFA4AE001F0DC
S32D0000D7C00BFD0346002B44D03B4801F08BFD3B4801F026FE3A4801F085FD00BF4FF0010001F08CFD034683F0ED
S32D0000D7E80103DBB2002BF5D1314801F077FD4FF0120001F039FA28E041F24850C1F6FF704DF2B071C0F2010131
S32D0000D8100DF06EFF41F26013C1F6FF734FF000021A7017E041F24850C1F6FF704DF2C471C0F201010DF05CFF7E
S32D0000D8380CE000BF0AE000BF08E000BF06E000BF04E000BF02E000BF00E000BF41F26013C1F6FF731B78002BB2
S32D0000D8607FF4E2AD41F2C040C1F6FF704FF0000109F098FD41F2C040C1F6FF704DF2E471C0F201010AF046F997
S32D0000D88841F24850C1F6FF704DF2F471C0F201010DF02AFF41F24850C1F6FF700DF008FF4FF00003184607F176
S32D0000D8B00807BD4680BD00BF00000000000087430000C8C180B58EB000AF41F2C040C1F6FF704FF0000109F035
S32D0000D8D851FD41F2C040C1F6FF704FF0010109F0A7FD41F23410C1F6FF7040F6813108F0BFFF41F23410C1F634
S32D0000D900FF704FF4FA7108F099FF41F23410C1F6FF70404908F0D0FF41F24010C1F6FF7040F6813108F0A8FF2F
S32D0000D92841F24010C1F6FF704FF4FA7108F082FF41F23410C1F6FF70344908F0B9FF41F27813C1F6FF73314AD5
S32D0000D9501A6041F27813C1F6FF731A6841F27413C1F6FF731A6041F28413C1F6FF734FF000021A6041F2701305
S32D0000D978C1F6FF734FF000021A7041F28813C1F6FF734DF60402C0F2010292E80300186003F10403197041F2EC
S32D0000D9A04850C1F6FF700DF0B5FD41F24850C1F6FF704DF60C01C0F201010DF099FE41F22850C1F6FF700CF096
S32D0000D9C8ABFF00BF41F26013C1F6FF734FF001021A7007F10403184600F01AF807F1040241F29C13C1F6FF73C5
S32D0000D9F09A420BD041F29C13C1F6FF7319464FF03103084611461A460EF0CCFD07F13807BD4680BD0000000032
S32D0000DA18B0B5ADF5EF5D06AF07F10803A3F1040318604FF0010307F5EE5000F107000370DFF8C03707F5EC51D3
S32D0000DA4001F13C010B60DFF8B43707F5EC5202F13802136007F10803A3F10403186802F033F841F2C040C1F65D
S32D0000DA68FF704FF0000109F099FC07F5CC5303F11803A3F104031D464FF0000406E028460BF066FC05F1EC0550
S32D0000DA9004F1FF34B4F1FF3F0CBF00230123DBB2002BF0D14DF6B403C0F2010307F5E85101F124011A464FF037
S32D0000DAB81403084611461A460EF070FD07F5CC5303F11803A3F104034FF0C90200924FF0010201924FF0010241
S32D0000DAE0029207F5E85202F1240203924FF4004204924FF45742C0F2FF02059218464FF001014FF001024FF03F
S32D0000DB0801030BF093FE07F5CC5303F11803A3F1040318460BF0B8FC07F5945303F10803A3F10C031D464FF066
S32D0000DB30050406E028460BF00FFC05F1EC0504F1FF34B4F1FF3F0CBF00230123DBB2002BF0D107F5E25303F1C2
S32D0000DB5818031A464FF0A00310464FF000011A460EF025FD07F5E25303F118034FF041021A6003F104034FF0B6
S32D0000DB8000021A6003F104034FF000021A6003F104034FF000021A6003F104034FF000021A6003F1040307F5E2
S32D0000DBA8E25303F118034FF042025A6103F118034FF000021A6003F104034FF000021A6003F104034FF0000211
S32D0000DBD01A6003F104034FF000021A6003F1040307F5E25303F118034FF043029A6203F12C034FF000021A605E
S32D0000DBF803F104034FF000021A6003F104034FF000021A6003F104034FF000021A6003F1040307F5E25303F1BD
S32D0000DC2018034FF04402DA6303F140034FF000021A6003F104034FF000021A6003F104034FF000021A6003F1A7
S32D0000DC4804034FF000021A6003F1040307F5E25303F118034FF045021A6503F154034FF000021A6003F10403AB
S32D0000DC704FF000021A6003F104034FF000021A6003F104034FF000021A6003F1040307F5E25303F118034FF0E5
S32D0000DC9846025A6603F168034FF000021A6003F104034FF000021A6003F104034FF000021A6003F104034FF096
S32D0000DCC000021A6003F1040307F5E25303F118034FF047029A6703F17C034FF000021A6003F104034FF000028C
S32D0000DCE81A6003F104034FF000021A6003F104034FF000021A6003F1040307F5E25303F118034FF04802C3F8A9
S32D0000DD108C2003F190034FF000021A6003F104034FF000021A6003F104034FF000021A6003F104034FF000024F
S32D0000DD381A6003F1040307F5945303F10803A3F10C034FF0330200924FF0010201924FF00102029207F5E252E2
S32D0000DD6002F1180203926FF07F4204924FF45742C0F2FF02059218464FF004014FF002024FF028030BF056FD7A
S32D0000DD8807F5D4531D464FF0000406E028460BF0DFFA05F1EC0504F1FF34B4F1FF3F0CBF00230123DBB2002BC0
S32D0000DDB0F0D107F5E85303F110034FF000021A6003F104034FF000021A6003F104034FF000021A6003F1040324
S32D0000DDD84FF000021A6003F104034FF000021A6003F104034DF6C802C0F2010207F5E85303F1100392E8030034
S32D0000DE00186003F10403198007F5E85303F116034FF000021A8003F102034FF000021A8003F102034FF00002BB
S32D0000DE281A8003F102034FF000021A8003F102034FF000021A8003F102034FF000021A8003F102034FF000027C
S32D0000DE501A8003F1020307F5D4524FF0140300934FF0010301934FF00103029307F5E85303F1100303934FF440
S32D0000DE78004304934FF45743C0F2FF03059310464FF001014FF001024FF0BE030BF0CEFC41F2C040C1F6FF7082
S32D0000DEA04FF45741C0F2FF0109F0DAFA41F2C040C1F6FF704DF62001C0F201014FF000024FF0DE0309F0E0FA55
S32D0000DEC807F5EC5303F13803186807F5EC5C0CF13C0CDCF80010FFF78FF803461C4641F20C50C1F6FF700BF0FD
S32D0000DEF0F5FD034620461946FEF77AFF034607F5EC5000F13800036007F5EC5101F13C010868BB49FEF76CFF4D
S32D0000DF18034607F5EC5202F13C02136007F5EC5303F13803186807F5EC5C0CF13C0CDCF80010FFF715F9034610
S32D0000DF4007F5EC5000F13800036041F2C040C1F6FF7007F5EC5202F1380211684FF048024FF0DE0309F0DAFA40
S32D0000DF684FF001031C4607F5EC5303F138031868A249FFF7DFF90346002B02D14FF000031C46E3B2002B07D0C1
S32D0000DF9041F2BC40C1F6FF704FF00A0108F09EFB07F5E85202F13C0207F5E85303F1380341F2C040C1F6FF700D
S32D0000DFB811461A4609F094FB0346002B00F040864FF0000307F5EE5CCCF80030DAE007F5945303F10803A3F126
S32D0000DFE00C0307F5EE5002684FF0EC0101FB02F2991807F5E85303F13C031A6807F5E85C0CF1380CDCF8003022
S32D0000E008084611461A464FF000030BF0F3FA0346002B0CBF00230123DBB2002B00F0A9804FF0000307F5E850EE
S32D0000E03000F10C0003804FF0200307F5E85101F10D010B7007F5E25101F1180107F5EE531A6813464FEA83031F
S32D0000E0589B184FEA8303CB181B7807F5E85C0CF10C0C8CF8003007F5EE500368002B06D14FF0410307F5E8514A
S32D0000E08001F10C010B7007F5EE521368012B07D14FF0420307F5E85C0CF10C0C8CF8003041F2C040C1F6FF7057
S32D0000E0A84FF0000109F07AF941F2C040C1F6FF704DF63001C0F2010109F028FD07F5E85303F10C0341F2C04092
S32D0000E0D0C1F6FF7019464FF000024FF0070309F037FC41F24850C1F6FF704DF64401C0F201010DF0FDFA07F5CA
S32D0000E0F8E85303F10C0341F24850C1F6FF7019460DF0F2FA41F24850C1F6FF704DF65801C0F201010DF0E8FA63
S32D0000E12007F5E85000F10C00037807F5EA521046194601F023FC07F5EA5207F10803A3F104031B6893420CD01E
S32D0000E14807F10803A3F104031B6819464FF03103084611461A460EF021FA4FF0000307F5EE5101F107010B70A6
S32D0000E1704FF0000000F07CFD13E007F5EE52136803F1010307F5EE5CCCF8003007F5EE500368072BCCBF002378
S32D0000E1980123DBB2002B7FF41AAF07F5E85101F13C010A6807F5E85C0CF1380CDCF8003007F5D4510846114620
S32D0000E1C01A464FF000030BF019FA0346002B0CBF00230123DBB2002B00F0368541F2C040C1F6FF704FF00001FF
S32D0000E1E809F0DCF807F5DA5303F12C031D464FF000040CE0000000000000803F0000204128460BF0A5F805F142
S32D0000E210EC0504F1FF34B4F1FF3F0CBF00230123DBB2002BF0D107F5E65303F138034FF000021A6003F104033F
S32D0000E2384FF000021A6003F104034FF000021A6003F104034FF000021A6003F104034FF000021A6003F10403E0
S32D0000E2604DF6DC02C0F2010207F5E65303F1380307CA03C31A8003F102034FEA12421A7007F5E85303F10303E4
S32D0000E2884FF000021A7003F101034FF000021A7003F101034FF000021A7003F101034FF000021A7003F101035C
S32D0000E2B04FF000021A7003F101034FF000021A7003F101034FF000021A7003F101034FF000021A7003F1010334
S32D0000E2D84FF000021A7003F1010307F5DA5202F12C024FF0C90300934FF0010301934FF00103029307F5E6538A
S32D0000E30003F1380303934FF4004304934FF45743C0F2FF03059310464FF001014FF001024FF001030BF086FA4D
S32D0000E32807F5DA5303F12C0318460BF0ADF807F5C05303F10803A3F104031A464FF4C87310464FF000011A4600
S32D0000E3500EF031F907F5C05303F10803A3F1040345F25742C0F253021A6003F104034FF000021A6003F10403CC
S32D0000E3784FF000021A6003F104034FF000021A6003F104034FF000021A6003F1040307F5C05303F10803A3F1B3
S32D0000E3A0040344F65352C0F253025A6103F118034FF000021A6003F104034FF000021A6003F104034FF00002EB
S32D0000E3C81A6003F104034FF000021A6003F1040307F5C05303F10803A3F1040345F24D42C0F253029A6203F196
S32D0000E3F02C034FF000021A6003F104034FF000021A6003F104034FF000021A6003F104034FF000021A6003F1FF
S32D0000E418040307F5C05303F10803A3F1040345F24972C0F25302DA6303F140034FF000021A6003F104034FF0C4
S32D0000E44000021A6003F104034FF000021A6003F104034FF000021A6003F1040307F5C05303F10803A3F1040322
S32D0000E46844F65352C0F24C021A6503F154034FF000021A6003F104034FF000021A6003F104034FF000021A60B6
S32D0000E49003F104034FF000021A6003F1040307F5C05303F10803A3F1040345F24D42C0F24C025A6603F168031F
S32D0000E4B84FF000021A6003F104034FF000021A6003F104034FF000021A6003F104034FF000021A6003F104035E
S32D0000E4E007F5C05303F10803A3F1040345F24972C0F24C029A6703F17C034FF000021A6003F104034FF0000208
S32D0000E5081A6003F104034FF000021A6003F104034FF000021A6003F1040307F5C05303F10803A3F1040344F621
S32D0000E5305352C0F24202C3F88C2003F190034FF000021A6003F104034FF000021A6003F104034FF000021A600D
S32D0000E55803F104034FF000021A6003F1040307F5C05303F10803A3F1040345F24D42C0F24202C3F8A02003F110
S32D0000E580A4034FF000021A6003F104034FF000021A6003F104034FF000021A6003F104034FF000021A6003F1F5
S32D0000E5A8040307F5C05303F10803A3F1040345F24972C0F24202C3F8B42003F1B8034FF000021A6003F10403B9
S32D0000E5D04FF000021A6003F104034FF000021A6003F104034FF000021A6003F1040307F5C05303F10803A3F159
S32D0000E5F8040344F65352C0F24302C3F8C82003F1CC034FF000021A6003F104034FF000021A6003F104034FF007
S32D0000E62000021A6003F104034FF000021A6003F1040307F5C05303F10803A3F1040345F24D42C0F24302C3F87E
S32D0000E648DC2003F1E0034FF000021A6003F104034FF000021A6003F104034FF000021A6003F104034FF000026E
S32D0000E6701A6003F1040307F5C05303F10803A3F1040345F24972C0F24302C3F8F02003F1F4034FF000021A6004
S32D0000E69803F104034FF000021A6003F104034FF000021A6003F104034FF000021A6003F1040307F5C05303F134
S32D0000E6C00803A3F1040344F65352C0F24402C3F8042103F584734FF000021A6003F104034FF000021A6003F17B
S32D0000E6E804034FF000021A6003F104034FF000021A6003F1040307F5C05303F10803A3F1040345F24D42C0F270
S32D0000E7104402C3F8182103F58E734FF000021A6003F104034FF000021A6003F104034FF000021A6003F1040386
S32D0000E7384FF000021A6003F1040307F5C05303F10803A3F1040345F24972C0F24402C3F82C2103F598734FF020
S32D0000E76000021A6003F104034FF000021A6003F104034FF000021A6003F104034FF000021A6003F1040307F5F6
S32D0000E788C05303F10803A3F1040344F65352C0F25202C3F8402103F5A2734FF000021A6003F104034FF00002B1
S32D0000E7B01A6003F104034FF000021A6003F104034FF000021A6003F1040307F5C05303F10803A3F1040345F27A
S32D0000E7D84D42C0F25202C3F8542103F5AC734FF000021A6003F104034FF000021A6003F104034FF000021A6010
S32D0000E80003F104034FF000021A6003F1040307F5C05303F10803A3F1040345F25342C0F25002C3F8682103F584
S32D0000E828B6734FF000021A6003F104034FF000021A6003F104034FF000021A6003F104034FF000021A6003F1C8
S32D0000E850040307F5C05303F10803A3F1040345F25202C0F25302C3F87C2103F5C0734FF000021A6003F104031F
S32D0000E8784FF000021A6003F104034FF000021A6003F104034FF000021A6003F1040307F14803A3F13C031D46D7
S32D0000E8A04FF0130406E028460AF056FD05F1EC0504F1FF34B4F1FF3F0CBF00230123DBB2002BF0D107F1480393
S32D0000E8C8A3F13C034FF0010200924FF0010201924FF00102029207F5C05202F10802A2F1040203926FF07F4277
S32D0000E8F004924FF45742C0F2FF02059218464FF005014FF004024FF028030AF093FF41F24850C1F6FF704DF62C
S32D0000E9185C01C0F201010CF0E7FE07F5E85202F13C0207F5E85303F1380341F2C040C1F6FF7011461A4608F00A
S32D0000E940D3FE0346002B00F06D814FF0000307F5EE5003605AE107F14803A3F13C0307F5EE510A684FF0EC017D
S32D0000E96801FB02F2991807F5E85303F13C031A6807F5E85C0CF1380CDCF80030084611461A464FF000030AF02E
S32D0000E99035FE0346002B0CBF00230123DBB2002B00F02C8107F5EE500368132B38D007F5EE510B68DBB21846C7
S32D0000E9B800F05AF94FF0000307F5EE5202F10702137041F2C040C1F6FF704FF0000108F0E5FC07F5EA5303F152
S32D0000E9E0340318464FF0410100F0C8FF07F5EA5202F1340207F10803A3F104031B68934200F0FB8007F1080377
S32D0000EA08A3F104031B6819464FF03103084611461A460DF0C3FD01E141F24850C1F6FF704DF67001C0F20101F3
S32D0000EA300CF05EFE41F2C040C1F6FF704FF0000108F0B0FC41F2C040C1F6FF704DF68001C0F201014FF0000211
S32D0000EA584FF0000308F078FF41F2C040C1F6FF704DF68401C0F201014FF001024FF0000308F06AFF41F2C040F2
S32D0000EA80C1F6FF704DF68801C0F201014FF002024FF0000308F05CFF41F2C040C1F6FF704DF69001C0F2010109
S32D0000EAA84FF004024FF0000308F04EFF4FF000004FF07E5101F5C00106F042FC73E006F06BFC02460B4607F5F7
S32D0000EAD0EC5C0CF1300CCCE9002341F22850C1F6FF700CF0EDFB034641F2C040C1F6FF7019464FF000024FF089
S32D0000EAF8040308F069FF41F22850C1F6FF700CF0EBFB034641F2C040C1F6FF7019464FF001024FF0040308F055
S32D0000EB2057FF41F22850C1F6FF700CF0E9FB034641F2C040C1F6FF7019464FF002024FF0070308F045FF06F001
S32D0000EB482BFC02460B4607F5EC5000F12800C0E9002307F5EC5202F12802D2E9000107F5EC5C0CF1300CDCE96D
S32D0000EB700023FDF751FC02460B464FF0040100914FF00C01019141F2C040C1F6FF7008F03FFF41F2C040C1F64E
S32D0000EB98FF704DF69C01C0F201014FF004024FF0170308F0D1FE07F5E85202F13C0207F5E85303F1380341F2E7
S32D0000EBC0C040C1F6FF7011461A4608F08DFD034683F00103DBB2002B7FF475AF4FF0000307F5EE5000F1070045
S32D0000EBE8037041F26013C1F6FF734FF000021A7014E013E007F5EE510B6803F1010307F5EE52136007F5EE5C70
S32D0000EC10DCF80030132BCCBF00230123DBB2002B7FF499AE07F5EE5000F107000378002B7FF477AE41F2485015
S32D0000EC38C1F6FF704DF6A001C0F201010CF054FD07F5EE5101F107010B78002B7FF438A900BF07F10803A3F116
S32D0000EC600403186807F5E47707F5E057BD46B0BD80B582B000AF0346FB7141F26113C1F6FF73FA791A7041F23A
S32D0000EC888413C1F6FF731B6803F1010241F28413C1F6FF731A6041F24850C1F6FF704DF6F001C0F201010CF0E2
S32D0000ECB01FFDFA7913464FEA83039B184FEA83034DF68862C0F201029B1841F24850C1F6FF7019460CF00CFD33
S32D0000ECD841F24850C1F6FF704DF65801C0F201010CF002FDFA7913464FEA83039B184FEA83034DF68862C0F2F6
S32D0000ED0001029B1841F28810C1F6FF7019460DF058FC41F28413C1F6FF731B68022B10DD41F26113C1F6FF732E
S32D0000ED284FF012021A7041F24850C1F6FF704DF60011C0F201010CF0D7FC07F10807BD4680BD00BF80B582B0AB
S32D0000ED5000AF0346FB71FB79002B0DD041F23410C1F6FF700D4907F0A7FD41F28013C1F6FF730A4A1A600CE07E
S32D0000ED7841F23410C1F6FF70074907F099FD41F28013C1F6FF73044A1A6007F10807BD4680BD00BF0000B44240
S32D0000EDA00000000090B583B000AF41F25C10C1F6FF7007F009F903464FF00102144618461D49FEF7D9FA0346A6
S32D0000EDC8002B02D14FF000031C46E3B2002B03D04FF47F037B601DE041F25C10C1F6FF7007F0EEF803464FF021
S32D0000EDF00102144618461049FEF7BEFA0346002B02D14FF000031C46E3B2002B03D04FF0FF037B6002E04FF079
S32D0000EE1800037B6041F2C040C1F6FF70796808F0BDFA7B68184607F10C07BD4690BD00BF0000000080B500AFC6
S32D0000EE4041F25410C1F6FF7006F028FC034683F00103DBB2002B08D041F2C040C1F6FF704FF43B0108F0FCFAB7
S32D0000EE6809E041F2C040C1F6FF704AF6A911C0F2A90108F0F1FA41F2C040C1F6FF704FF00F014FF0DC024FF0FD
S32D0000EE900A0309F05FFC41F25810C1F6FF7006F0FDFB034683F00103DBB2002B08D041F2C040C1F6FF704FF458
S32D0000EEB83B0108F0D1FA09E041F2C040C1F6FF704AF6A911C0F2A90108F0C6FA41F2C040C1F6FF7040F2311110
S32D0000EEE04FF0DC024FF00A0309F034FC41F24C10C1F6FF7006F0D2FB034683F00103DBB2002B08D041F2C04077
S32D0000EF08C1F6FF704FF43B0108F0A6FA09E041F2C040C1F6FF704AF6A911C0F2A90108F09BFA41F2C040C1F68F
S32D0000EF30FF704FF00F014FF00A024FF00A0309F009FC41F25010C1F6FF7006F0A7FB034683F00103DBB2002B97
S32D0000EF5808D041F2C040C1F6FF704FF43B0108F07BFA09E041F2C040C1F6FF704AF6A911C0F2A90108F070FA74
S32D0000EF8041F2C040C1F6FF7040F231114FF00A024FF00A0309F0DEFB41F2C040C1F6FF706FF07F4108F05CFA67
S32D0000EFA841F2C040C1F6FF704DF67011C0F201014FF003024FF0000308F0C6FC41F2C040C1F6FF704DF68C11F1
S32D0000EFD0C0F201014FF004024FF0000308F0B8FC41F22850C1F6FF700CF06AF903461846FEF7CCF9034641F21F
S32D0000EFF8C040C1F6FF7019464FF003024FF0070308F0C2FC41F22850C1F6FF700CF064F903461846FEF7B6F9AE
S32D0000F020034641F2C040C1F6FF7019464FF003024FF00D0308F0ACFC41F22850C1F6FF700CF05EF903461846C3
S32D0000F048FEF7A0F9034641F2C040C1F6FF7019464FF003024FF0150308F096FC41F2C040C1F6FF704DF6A81191
S32D0000F070C0F201014FF005024FF0000308F068FC41F27413C1F6FF731B6841F2C040C1F6FF7019464FF0050276
S32D0000F0984FF0050308F098FC41F22C10C1F6FF7006F054FF034641F2C040C1F6FF7019464FF005024FF01203FE
S32D0000F0C008F066FC41F2C040C1F6FF704DF6BC11C0F201014FF006024FF0000308F038FC41F27813C1F6FF730F
S32D0000F0E81B6841F2C040C1F6FF7019464FF006024FF0050308F068FC41F23010C1F6FF7006F024FF034641F2A7
S32D0000F110C040C1F6FF7019464FF006024FF0120308F036FC41F2C040C1F6FF704DF6D011C0F201014FF007020E
S32D0000F1384FF0000308F008FC41F27C13C1F6FF731B6841F2C040C1F6FF7019464FF007024FF0060308F038FC89
S32D0000F16041F2C040C1F6FF704DF6E411C0F201014FF008024FF0000308F0EAFB41F28013C1F6FF731B6841F22F
S32D0000F188C040C1F6FF7019464FF008024FF0060308F01AFC41F2C040C1F6FF704DF6F811C0F201014FF0090292
S32D0000F1B04FF0000308F0CCFB41F2C040C1F6FF7041F28811C1F6FF714FF009024FF0050308F0BEFB80BD00BFA6
S32D0000F1D8F8B500AF41F22C10C1F6FF7006F0B6FE02464DF24F13C1F6C21383FB02134FEA63114FEAE273CB1A46
S32D0000F2001846FDF757FA02460B461046194612A3D3E90023FDF7B4FA02460B4614461D4641F26413C1F6FF7390
S32D0000F2281B681846FDF754FA02460B464FF001010E4620462946FDF72FFD0346002B02D14FF000031E46F3B2E0
S32D0000F2501846F8BDAFF300805E3855297A6A1F4080B582B000AF7860396078681C49FEF75BF80346002B06D0A6
S32D0000F27841F22410C1F6FF7000F06EFF06E041F22410C1F6FF70796800F0B6FF38681249FEF746F80346002BE3
S32D0000F2A006D041F21C10C1F6FF7000F059FF06E041F21C10C1F6FF70396800F0A1FF41F27413C1F6FF737A683C
S32D0000F2C81A6041F27813C1F6FF733A681A6007F10807BD4680BD00BF0000000080B582B000AF786078687968E6
S32D0000F2F0FFF7B6FF07F10807BD4680BD80B584B000AF0346FB714FF00003FB73FB79002B02D0012B1FD03DE0D8
S32D0000F31841F24C10C1F6FF7006F0BCF9034683F00103DBB2002B0ED041F25010C1F6FF7006F0B0F9034683F0FD
S32D0000F3400103DBB2002B02D04FF0010301E04FF00003FB7329E041F25410C1F6FF7006F09DF9034683F001032B
S32D0000F368DBB2002B0ED041F25810C1F6FF7006F091F9034683F00103DBB2002B02D04FF0010301E04FF00003F0
S32D0000F390FB730AE041F24850C1F6FF704DF60C21C0F201010CF0A4F900BFFB7B184607F11007BD4680BD00BFA8
S32D0000F3B890B585B000AF03463960FB71FB79002B02D04FF0010301E04FF0FF33FB60FB79002B02D04FF0FF336D
S32D0000F3E001E04FF00103BB60F868FDF7B5FD034618463968FDF704FE03461C46B868FDF7ABFD034618463968CD
S32D0000F408FDF7FAFD034620461946FFF725FF07F11407BD4690BD00BFB0B588B002AF786041F22850C1F6FF70AA
S32D0000F4300BF066FF03467B6178697968FDF7D6FC0346FB6078687969FDF7D0FC0346BB600FE041F2BC40C1F642
S32D0000F458FF704FF0050107F03DF941F22850C1F6FF700BF049FF03467B6141F22850C1F6FF700BF041FF034617
S32D0000F4804FF00102144618467B49FDF757FF0346002B02D14FF000031C46E3B2002BD8D17869FDF719F90446D1
S32D0000F4A80D467868FDF714F902460B46CDE9002341F24850C1F6FF704DF64C21C0F2010122462B460CF010F95D
S32D0000F4D04FF001031C46F8686749FDF74DFF0346002B02D14FF000031C46E3B2002B01D0FB6812E0F868FDF7F4
S32D0000F4F8EFF802460B46104619465BA3D3E90023FCF788FF02460B4610461946FDF716FC0346FB604FF001031F
S32D0000F5201C46B8685449FDF727FF0346002B02D14FF000031C46E3B2002B01D0BB6812E0B868FDF7C9F80246D6
S32D0000F5480B461046194648A3D3E90023FCF762FF02460B4610461946FDF7F0FB0346BB604FF001031C46B8681B
S32D0000F570F968FDF7E3FE0346002B02D14FF000031C46E3B2002B03D04FF00103FB7402E04FF00003FB74FB7CFD
S32D0000F59818463849FFF70CFF00BF41F22850C1F6FF700BF0A9FE034618467968FDF71AFC03461846FDF720FFE7
S32D0000F5C003464FF00102144618462D49FDF7D4FE0346002B02D14FF000031C46E3B2002BDFD12548FFF77EFE64
S32D0000F5E8FB7C18462449FFF7E3FE00BF41F22850C1F6FF700BF080FE034618467968FDF7F1FB03461846FDF7D0
S32D0000F610F7FE03464FF00102144618461949FDF7ABFE0346002B02D14FF000031C46E3B2002BDFD11048FFF7EC
S32D0000F63855FE41F22850C1F6FF700BF05DFE03461846FDF745F802460B4641F24850C1F6FF704DF67421C0F23E
S32D0000F66001010CF045F807F11807BD46B0BD00BF0000000000807640000000000000C8410000A0400000803F1D
S32D0000F6882DE9B04F90B008AF07F1080383E8030041F22850C1F6FF700BF00EFE0346FB6141F22850C1F6FF7089
S32D0000F6B00BF016FE0346BB610FE041F2BC40C1F6FF704FF0050107F009F841F22850C1F6FF700BF0F5FD034630
S32D0000F6D8FB614FF001031C46F8699F49FDF72AFE0346002B02D14FF000031C46E3B2002BDFD141F22850C1F6E1
S32D0000F700FF700BF0DDFD0346FB6141F22850C1F6FF700BF0E5FD0346BB61BB681846F969FDF764FB0346184602
S32D0000F7284FF00201FDF754FE0446FB681846B969FDF758FB034618464FF00201FDF748FE034620461946FDF792
S32D0000F7504FFB034618460CF095F8024641F26413C1F6FF731A60FB681846B969FDF73EFB03461C46BB68184640
S32D0000F778F969FDF737FB0346204619460CF07AF803461846FCF7A4FF02460B46104619466DA3D3E90023FCF7F2
S32D0000F7A0EFFF02460B4610461946FDF7CBFA03467B61F869FCF790FF04460D46B869FCF78BFFC7E90001BB682F
S32D0000F7C81846FCF785FF82468B46FB681846FCF77FFF804689467869FCF77AFF02460B46D7E90001CDE9000180
S32D0000F7F0CDE902ABCDE90489CDE9062341F24850C1F6FF704DF69821C0F2010122462B460BF06EFF4FF0010341
S32D0000F8181C4678695049FDF7ABFD0346002B02D14FF000031C46E3B2002B01D07B6912E07869FCF74DFF024690
S32D0000F8400B461046194644A3D3E90023FCF7E6FD02460B4610461946FDF774FA03467B6178693F49FDF7C4FA08
S32D0000F86803467B614FF001031C4678693B49FDF77FFD0346002B02D14FF000031C46E3B2002B05D078693549F4
S32D0000F890FDF7ACFA034600E07B697B617869FFF7BFFD41F22850C1F6FF700BF009FD0346FB6141F22850C1F65B
S32D0000F8B8FF700BF011FD0346BB61BB681846F969FDF790FA034618464FF00201FDF780FD0446FB681846B9695D
S32D0000F8E0FDF784FA034618464FF00201FDF774FD034620461946FDF77BFA034618460BF0C1FF024641F264136F
S32D0000F908C1F6FF731A6041F22C10C1F6FF7006F031FB41F23010C1F6FF7006F02BFB41F26813C1F6FF7307F1F3
S32D0000F930080292E8030083E803000B48FFF7D2FC07F12007BD46BDE8B08F00BFAFF30080F8C1631ADCA54C4073
S32D0000F9580000000000807640000000000000B4430000C841AFF3008080B400AFBD4680BC704700BF80B58EB01E
S32D0000F98000AF78600B46FB707B68184600F0DCF87B6803F10803184600F0D6F87B6803F11003184600F0D0F813
S32D0000F9A87B6803F11803184600F0CAF87B6803F12003184600F0C4F87B6803F12803184600F0BEF87B68FA78D0
S32D0000F9D083F8302007F1080318463049304A00F09FF87B6807F1080292E8030083E8030007F1100318462B49B6
S32D0000F9F82B4A00F091F87B6803F1080307F1100292E8030083E8030007F1180318462549254A00F081F87B6882
S32D0000FA2003F1100307F1180292E8030083E8030007F1200318461F491F4A00F071F87B6803F1180307F1200205
S32D0000FA4892E8030083E8030007F1280318461349184A00F061F87B6803F1200307F1280292E8030083E8030016
S32D0000FA7007F1300318461249124A00F051F87B6803F1280307F1300292E8030083E803007B68184607F1380760
S32D0000FA98BD4680BD0000EC410000704100004041000034420000C8410000744200009441000058420000784144
S32D0000FAC00000C0400000D84180B582B000AF78607B68184600F038F87B6803F10803184600F032F87B6803F17F
S32D0000FAE81003184600F02CF87B6803F11803184600F026F87B6803F12003184600F020F87B6803F1280318464D
S32D0000FB1000F01AF87B68184607F10807BD4680BD80B485B000AFF860B9607A60FB68BA681A60FB687A685A60DC
S32D0000FB38FB68184607F11407BD4680BC704700BF80B483B000AF78607B68184607F10C07BD4680BC704700BF27
S32D0000FB6080B582B000AF786039607B68012B6AD13A684FF6FF739A4265D141F21C10C1F6FF704FF00001324AFA
S32D0000FB8800F092FA41F22410C1F6FF704FF001012D4A00F089FA41F22C10C1F6FF704FF0090105F01BFE41F2FC
S32D0000FBB03010C1F6FF704FF00A0105F013FE41F23410C1F6FF704FF0000106F019FE41F24010C1F6FF704FF09F
S32D0000FBD8010106F011FE41F24C10C1F6FF704FF0010105F033FC41F25010C1F6FF704FF0020105F02BFC41F294
S32D0000FC005410C1F6FF704FF0030105F023FC41F25810C1F6FF704FF0040105F01BFC41F25C10C1F6FF704FF0E0
S32D0000FC28000106F0BBF941F26810C1F6FF70FFF787FF41F29C10C1F6FF70FFF741FF07F10807BD4680BD00BF75
S32D0000FC500000404180B500AF4FF001004FF6FF71FFF77EFF80BD00BF80B500AF41F6C812C1F6FF7241F21C133E
S32D0000FC78C1F6FF73D31A194641F21C13C1F6FF731A460B4610464FF000011A460CF08FFC80BD00BF0DF004FD36
S32D0000FCA000F0B0F9FFF7E0FF0DF0D6FC0DF072FC0DF00AFD00F00CF84FF0000041F2D011C1F6FF71FDF7AAFB83
S32D0000FCC8034618460CF04EFC80B500AF4FF4E043C4F204034FF4E042C4F2040202F5805202F13802126842F453
S32D0000FCF0785203F5805303F138031A6000F02EF900F094F841F20C43C1F6FF734FF058021A6041F20C43C1F61E
S32D0000FD18FF731B684FF47A7202FB03F241F20843C1F6FF731A6041F20843C1F6FF731B681A464FF4E043C4F2E0
S32D0000FD40040303F5825303F104031B6803F070634FEA136303F10103B2FBF3F31A4641F21043C1F6FF731A60BA
S32D0000FD684FF4E043C4F204034FF4E042C4F2040202F5805202F13C02126842F0225203F5805303F13C031A6097
S32D0000FD904FF4E043C4F204034FF4E042C4F2040202F5805202F13002126842F0006203F5805303F130031A6099
S32D0000FDB84FF45043C4F203034FF480721A614FF0640005F037F94FF45043C4F203034FF45042C4F20302526936
S32D0000FDE022F010025A614FF45043C4F203034FF000021A604FF45043C4F203034FF010025A6106F013FA06F032
S32D0000FE08BBFA41F20440C1F6FF7005F097F941F2C040C1F6FF7007F00FF941F2883005F075FA80BD80B400AF2E
S32D0000FE304FF48043C4F206034FF000025A704FF48043C4F206034FF098021A704FF48043C4F206039B79DBB246
S32D0000FE5803F01003002B0CBF00230123DBB2002BF0D14FF48043C4F206039B79DBB203F00C034FEA9303022B5C
S32D0000FE800CBF00230123DBB2002BEED14FF48043C4F206034FF018021A714FF48043C4F206034FF000025A7151
S32D0000FEA84FF4E043C4F2040303F5825303F104034FF00002C0F213121A604FF48043C4F206034FF054025A718A
S32D0000FED000BF4FF48043C4F206039B79DBB203F02003002B14BF00230123DBB2002BF0D100BF4FF48043C4F290
S32D0000FEF806039B79DBB203F04003002B14BF00230123DBB2002BF0D14FF48043C4F206034FF48042C4F20602B6
S32D0000FF201278D2B202F03F02D2B21A704FF48043C4F206039B79DBB203F00C034FEA9303032B0CBF00230123ED
S32D0000FF48DBB2002BEED14FF000031846BD4680BC704700BF80B400AF4FF44043C4F204034FF480725A634FF226
S32D0000FF70C003C4F20F034FF2C002C4F20F02526942F400525A614FF2C003C4F20F034FF2C002C4F20F02126800
S32D0000FF9842F400521A604FF44043C4F2040340F20312C0F20A021A634FF46143CEF200034FF46142CEF20002E2
S32D0000FFC0D2F8882142F08062C3F888214FF46143CEF200034FF46142CEF20002926842F080629A60BD4680BC8F
S32D0000FFE8704700BF80B483B000AF7860FEE700BF80B400AF00BEBD4680BC704780B400AF4FF0E0224CF20003E7
S32D00010010C0F20003C2F8083D4FF40053C4F205034CF22052DA814FF40053C4F205034DF62812DA814FF40053EC
S32D00010038C4F205034FF0D2021A80BD4680BC704780B500AF4FF44043C4F20403D3F8A03003F48053002B0CBF76
S32D0001006000230123DBB2002B1FD04FF44043C4F204034FF44042C4F20402D2F8A02022F48052C3F8A02041F25F
S32D000100884850C1F6FF700BF013FB4FF2C003C4F20F034FF2C002C4F20F02126822F400521A6080BD0000000053
S32D000100B090B585B000AFF8600B467A60FB72FB68FA7A1A71FB684FF000025A714FF001031C4678682049FDF755
S32D000100D84FF90346002B02D14FF000031C46E3B2002B02D01A4B7B6011E04FF001031C4678681849FDF728F908
S32D000101000346002B02D14FF000031C46E3B2002B01D0124B7B607868FCF7DEFA02460B46104619460AA3D3E9BA
S32D000101280023FCF729FB02460B4610461946FCF705FE0246FB681A60FB68184607F11407BD4690BDAFF30080BF
S32D00010150ABAAAAAAAAAA2040000040410000803F80B582B000AF78607B685B79002B10D07B684FF000025A7144
S32D000101787B681B7941F20440C1F6FF7019464FF000024FF01E0305F023F807F10807BD4680BD00BF80B584B0C5
S32D000101A000AF786039603B687F2B03DD4FF07F03FB7309E03B6813F1800F03DA4FF08003FB7301E03B68FB7396
S32D000101C87B685B79FA7B9A420FD07B68FA7B5A717B681A79FB7B41F20440C1F6FF7011461A464FF01E0304F06A
S32D000101F0F3FF07F11007BD4680BD00BF00000000B0B584B000AF786039604FF001031C4638684D49FDF792F8CE
S32D000102180346002B02D14FF000031C46E3B2002B02D0474B3B6011E04FF001031C4638684449FDF79DF8034678
S32D00010240002B02D14FF000031C46E3B2002B01D03E4B3B603868FCF73FFA04460D467B681B681846FCF738FAE6
S32D0001026802460B46104619464FF000024FF0804303F5B203FCF7AAFB02460B4620462946FCF77AFA02460B4623
S32D0001029010461946FCF756FD03463B604FF001031C4638682A49FDF75DF80346002B02D14FF000031C46E3B2DF
S32D000102B8002B14D03868FCF70BFA02460B46104619461DA3D3E90023FCF756FA02460B4610461946FCF7EAFC19
S32D000102E00346FB6022E03868FCF7F6F902460B46104619464FF000024FF0804303F5C003FCF73EFA02460B46B7
S32D00010308104619464FF000024FF0804303F5B203FCF75CFB02460B4610461946FCF7C6FC0346FB607868F968EF
S32D00010330FFF734FF07F11007BD46B0BDAFF3008052B81E85EB51F43F0000C8C20000C84200000000AFF3008002
S32D0001035880B485B000AF02460B46FA71BB71BB79002B07D141F2D413C1F6FF734FF000021A7006E041F2D413E9
S32D00010380C1F6FF734FF001021A704FF03803FB7341F2D413C1F6FF731A78FB7B1343FB734FF4C043C4F206035D
S32D000103A84FF4C042C4F206029278D2B242F01002D2B29A704FF4C043C4F206034FF4C042C4F206029278D2B22D
S32D000103D042F02002D2B29A704FF4C043C4F20603FA7B1A7107F11407BD4680BC704700BF80B483B000AF4FF0FA
S32D000103F801037B6004E000BF7B6803F101037B607B68312BCCBF00230123DBB2002BF2D107F10C07BD4680BCC8
S32D00010420704700BF80B582B000AF02460B46FA71BB7141F2D513C1F6FF731B7818464FF00001FFF789FF4FF4BB
S32D00010448C043C4F20603DB78DBB203F00203002B14BF00230123DBB2002BF0D14FF4C043C4F206034FF4C042E3
S32D00010470C4F20602D278D2B242F00202D2B2DA704FF4C043C4F20603FA791A714FF4C043C4F20603DB78DBB2E5
S32D0001049803F00203002B14BF00230123DBB2002BF0D14FF4C043C4F206034FF4C042C4F20602D278D2B242F077
S32D000104C00202D2B2DA704FF4C043C4F20603BA791A714FF4C043C4F20603DB78DBB203F00203002B14BF00237A
S32D000104E80123DBB2002BF0D14FF4C043C4F206034FF4C042C4F20602D278D2B242F00202D2B2DA704FF4C04328
S32D00010510C4F206034FF4C042C4F206029278D2B222F02002D2B29A704FF4C043C4F206034FF4C042C4F20602A2
S32D000105389278D2B222F01002D2B29A70FFF754FF07F10807BD4680BD80B582B000AF0346FB71FB79184600F037
S32D000105606BF807F10807BD4680BD00BF80B582B000AF02460B46FA71BB7100F039F8FB794FEA4303DBB21846BE
S32D00010588FFF7E2FFBB791846FFF7DEFF00F03EF807F10807BD4680BD80B500AF4FF0FF0000F046F803461846A4
S32D000105B080BD00BF80B584B000AF0346FB7100F017F8FB794FEA4303DBB243F00103DBB2DBB21846FFF7BCFF74
S32D000105D8FFF7E2FF0346FB7300F018F8FB7B184607F11007BD4680BD80B400AF4FF24003C4F20F034FF2400291
S32D00010600C4F20F02926842F480129A60BD4680BC704700BF80B400AF4FF24003C4F20F034FF24002C4F20F021A
S32D00010628526842F480125A60BD4680BC704700BF80B485B000AF0346FB714FF00003BB7303E0FB7B03F1010324
S32D00010650FB734FF44043C4F20A03DB6A4FF00003002BF2D14FF44043C4F20A034FF44042C4F20A02D26A42F091
S32D000106780042DA624FF44043C4F20A03FA795A6300BF4FF44043C4F20A03DB6A03F40033002B14BF0023012320
S32D000106A0DBB2002BF1D14FF44043C4F20A039B6BBB73BB7B184607F11407BD4680BC704780B582B000AF4FF4FE
S32D000106C8E043C4F204034FF4E042C4F2040202F5805202F13002126842F4805203F5805303F130031A604FF4E3
S32D000106F02043C4F204034FF480721A654FF24003C4F20F034FF24002C4F20F02526942F480125A61FFF77EFFC0
S32D000107184FF42043C4F204034FF400725A654FF42043C4F204034FF400729A654FF42043C4F204034FF40072AC
S32D00010740DA654FF44043C4F20A034FF44062C8F200021A604FF44043C4F20A034FF00502C3F60062DA604FF044
S32D0001076800037B6007E04FF0FF00FFF7EDFE7B6803F101037B607B68092BCCBF00230123DBB2002BEFD104A1C2
S32D00010790D1E9000104F0D8FD07F10807BD4680BD9A9999999999B93F90B486B000AFF860B9607A60FA684FF4C7
S32D000107B82043C4F206039A4214D14FF4E043C4F204034FF4E042C4F2040202F5805202F13402126842F4806267
S32D000107E003F5805303F134031A6083E0FA684FF43043C4F206039A4214D14FF4E043C4F204034FF4E042C4F241
S32D00010808040202F5805202F13402126842F4006203F5805303F134031A6067E0FA684FF44043C4F206039A423D
S32D0001083014D14FF4E043C4F204034FF4E042C4F2040202F5805202F13402126842F4805203F5805303F1340306
S32D000108581A604BE0FA684FF45043C4F206039A4214D14FF4E043C4F204034FF4E042C4F2040202F5805202F114
S32D000108803402126842F4005203F5805303F134031A602FE0FA684FF42043C4F20E039A4214D14FF4E043C4F2E6
S32D000108A804034FF4E042C4F2040202F5805202F12802126842F4806203F5805303F128031A6013E04FF4E043C4
S32D000108D0C4F204034FF4E042C4F2040202F5805202F12802126842F4006203F5805303F128031A60FB68DB7809
S32D000108F8DBB223F00C03DAB2FB68DA70FB684FF000029A70BB684FF47A7202FB03F27B684FEA031392FBF3F352
S32D000109209CB2FB681B78DBB223F01F03FB75234603F4F8534FEA2323DBB203F01F03DAB2FB7D1343DAB2FB681D
S32D000109481A70E2B2FB685A70BB684FF4FA4202FB03F27B684FEA031392FBF3F39AB2234619464FEAC121CB1AE8
S32D000109704FEA43139BB2D3189CB2FB689B7ADBB223F01F03FB75E3B203F01F03DAB2FB7D1343DAB2FB689A729A
S32D00010998FB68DB78DBB243F00C03DAB2FB68DA7007F11807BD4690BC704700BF80B483B000AF786000BF7B6806
S32D000109C01B79DBB203F02003002B14BF00230123DBB2002BF3D17B68DB79DBB2184607F10C07BD4680BC7047ED
S32D000109E880B483B000AF78600B46FB7000BF7B681B79DBB2DBB26FEA0303DBB24FEAD313DBB2002BF3D17B687C
S32D00010A10FA78DA7107F10C07BD4680BC704700BF80B487B000AFF860B9607A60FB687B61BB683B610BE03B6948
S32D00010A381A787B691A707B6903F101037B613B6903F101033B617B68002B0CBF00230123DBB27A6802F1FF32EC
S32D00010A607A60002BE7D107F11C07BD4680BC704780B487B000AFF860B9607A60FB687B6107E0BB68DAB27B697B
S32D00010A881A707B6903F101037B617B68002B0CBF00230123DBB27A6802F1FF327A60002BEBD107F11C07BD466B
S32D00010AB080BC704780B489B000AFF860B9607A60FB68FB61BB68BB614FF000037B617B68002B0CBF0023012381
S32D00010AD8DBB27A6802F1FF327A60002B19D0FB691B781A46BB691B78D31A7B617B69002B14BF00230123DBB2E1
S32D00010B00FA6902F10102FA61BA6902F10102BA61002B02D04FF0010301E04FF00003002BD5D17B69184607F170
S32D00010B282407BD4680BC704780B483B000AF7860396003E07B6803F101037B607B681B78002B08D07B681B786E
S32D00010B501A463B689A4202D04FF0010301E04FF00003002BEAD17B681B78184607F10C07BD4680BC704700BFE5
S32D00010B7880B584B000AF786039607B681B6BFB60FA683B689A4264D07B681B79002B43D07B685A787B6803F1AB
S32D00010BA0340310461946FA684FF0010304F0B4F80346002B0CBF00230123DBB2002B02D04FF001034BE07B6894
S32D00010BC84FF000021A717B685A6A7B681B6AD218FB689A4220D97B68DB78FB7214E07B681B6AFA68D318FB605A
S32D00010BF07B685A787B6803F1340310461946FA684FF0010304F088F8FB7A03F1FF33FB72FB7A012B94BF002326
S32D00010C180123DBB2002BE2D13B68002B19D07B685A787B6803F13403104619463A684FF0010303F05FFF034670
S32D00010C40002B0CBF00230123DBB2002B02D04FF0010304E07B683A681A634FF00003184607F11007BD4680BDA6
S32D00010C6880B584B000AF786078684FF00001FFF77FFF0346FB73FB7B002B40F0AE807B681B78032B40F095803A
S32D00010C907B685B79002B00F090807B684FF000021A637B6803F1340318464FF000014FF40072FFF7DDFE7B689D
S32D00010CB84FF0550283F832227B684FF0AA0283F833227B684FF0520283F834207B684FF0520283F835207B689C
S32D00010CE04FF0610283F836207B684FF0410283F837207B684FF0720283F818227B684FF0720283F819227B68C1
S32D00010D084FF0410283F81A227B684FF0610283F81B227B681B69DAB27B6883F81C227B681B699BB24FEA232384
S32D00010D30DAB27B6883F81D227B681B694FEA1343DAB27B6883F81E227B681B694FEA1363DAB27B6883F81F220A
S32D00010D587B68DB68DAB27B6883F820227B68DB689BB24FEA2323DAB27B6883F821227B68DB684FEA1343DAB2BA
S32D00010D807B6883F822227B68DB684FEA1363DAB27B6883F823227B6859787B6803F134027B685B690846114691
S32D00010DA81A464FF0010303F0B3FF7B684FF000025A717B685B7818464FF000014FF0000204F08CF80346002B64
S32D00010DD00CBF00230123DBB2002B02D04FF00103FB73FB7B184607F11007BD4680BD00BF80B483B000AF7860D7
S32D00010DF839603B68A3F102033B607B68DB69A3F102023B689A4202D84FF0000307E07B689B783A6802FB03F291
S32D00010E207B68DB6AD318184607F10C07BD4680BC704700BF80B586B000AF786039603B68012B04D97B68DA6915
S32D00010E483B689A4202D84FF00103D3E07B681B78022B5FD0032B00F08A80012B40F0C8803B687B617B694FEAF2
S32D00010E7053037A69D3187B617B685A6A7B694FEA5323D31878681946FFF776FE0346002B0CBF00230123DBB272
S32D00010E98002B40F0A6807B694FEAC3534FEAD3537A68D31893F834303B617B6903F101037B617B685A6A7B697D
S32D00010EC04FEA5323D31878681946FFF755FE0346002B0CBF00230123DBB2002B40F087807B694FEAC3534FEA00
S32D00010EE8D3537A68D31893F834304FEA03233A6913433B613B6803F00103DBB2002B03D03B694FEA131304E0F9
S32D00010F103B694FEA03534FEA13536FE07B685A6A3B684FEA1323D31878681946FFF724FE0346002B0CBF002334
S32D00010F380123DBB2002B58D13B684FEA43034FEAC3534FEAD35303F130037A68D31803F10403FB60FB6803F114
S32D00010F6001031B784FEA03239AB2FB681B7813439BB29BB242E07B685A6A3B684FEAD313D31878681946FFF78F
S32D00010F88F7FD0346002B0CBF00230123DBB2002B2DD13B684FEA83034FEAC3534FEAD35303F130037A68D31806
S32D00010FB003F10403FB60FB6803F103031B784FEA0362FB6803F102031B784FEA03431A43FB6803F101031B7875
S32D00010FD84FEA03231A43FB681B78134323F0704308E000BF04E000BF02E000BF00E000BF4FF0FF33184607F1CB
S32D000110001807BD4680BD00BF80B588B000AFF860B9607A60BB68012B04D9FB68DA69BB689A4203D84FF002034C
S32D00011028FB771AE1FB681B78022B00F08580032B00F0AD80012B40F00181BB68BB61BB694FEA5303BA69D318EB
S32D00011050BB61FB685A6ABB694FEA5323D318F8681946FFF789FD0346FB77FB7F002B40F0ED80BB694FEAC353C5
S32D000110784FEAD35303F13003FA68D31803F104037B61BB6803F00103DBB2002B0ED07B691B78DBB203F00F03E6
S32D000110A0DAB27B68DBB24FEA0313DBB21343DBB2DBB201E07B68DBB27A691370BB6903F10103BB61FB684FF048
S32D000110C801021A71FB685A6ABB694FEA5323D318F8681946FFF74CFD0346FB77FB7F002B40F0B280BB694FEA69
S32D000110F0C3534FEAD35303F13003FA68D31803F104037B61BB6803F00103DBB2002B04D07B684FEA1313DBB29C
S32D000111180FE07B691B78DBB223F00F03DAB27B684FEA1323DBB203F00F03DBB21343DBB2DBB27A6913708CE051
S32D00011140FB685A6ABB684FEA1323D318F8681946FFF712FD0346FB77FB7F002B7AD1BB684FEA43034FEAC3537C
S32D000111684FEAD35303F13003FA68D31803F104037B617B68DAB27B691A707B6903F101037A6892B24FEA222252
S32D00011190D2B21A7061E0FB685A6ABB684FEAD313D318F8681946FFF7E7FC0346FB77FB7F002B51D1BB684FEA17
S32D000111B883034FEAC3534FEAD35303F13003FA68D31803F104037B617B6903F103031B784FEA03627B6903F1A2
S32D000111E002031B784FEA03431A437B6903F101031B784FEA03231A437B691B78134303F070437A6813437B60BB
S32D000112087B68DAB27B691A707B6903F101037A6892B24FEA2222D2B21A707B6903F102037A684FEA1242D2B27D
S32D000112301A707B6903F103037A684FEA1262D2B21A700AE04FF00203FB7706E000BF04E000BF02E000BF00E021
S32D0001125800BFFB684FF001021A71FB7F184607F12007BD4680BD00BF80B584B000AF786039603B68012B04D94D
S32D000112807B68DA693B689A4203D84FF00203FB7345E04FF00003FB7333E078683968FFF7C9FD0346BB60BB6861
S32D000112A8002B35D0BB68012B03D14FF00203FB7331E0BB68B3F1FF3F03D14FF00103FB7329E0786839684FF0AE
S32D000112D00002FFF799FE0346FB73FB7B002B1DD17B681B69B3F1FF3F09D07B681B6903F101027B681A617B6859
S32D000112F84FF001025A71BB683B607B68DA693B689A4294BF00230123DBB2002BC1D102E000BF00E000BFFB7BBD
S32D00011320184607F11007BD4680BD00BF80B586B000AF786039603B68002B0ED17B68DB683B613B69002B04D095
S32D000113487B68DA693B699A4218D84FF001033B6114E078683968FFF769FD0346BB60BB68012B02D84FF0010360
S32D000113706EE07B68DA69BB689A4201D9BB6867E03B683B613B697B6100E000BF7B6903F101037B617B68DA695B
S32D000113987B699A4209D84FF002037B617A693B699A4202D94FF000034EE078687969FFF73DFD0346BB60BB683E
S32D000113C0002B0FD0BB68B3F1FF3F02D0BB68012B01D1BB683CE07A693B699A42D5D14FF0000335E000BF7868BE
S32D000113E879696FF07042FFF70BFE0346FB73FB7B002B09D13B68002B06D0786839687A69FFF7FEFD0346FB7302
S32D00011410FB7B002B12D17B687A69DA607B681B69B3F1FF3F13D07B681B6903F1FF327B681A617B684FF00102EE
S32D000114385A7108E0FB7B012B02D14FF0FF3301E04FF001037B617B69184607F11807BD4680BD00BF80B487B029
S32D0001146000AF786039607B685B6A03F104033B613B684FEA53227B681B689B78B2FBF3F37B613B691B68FB6043
S32D000114883B6903F104033B61FB68002B02D14FF0000311E07A69FB689A4208D37A69FB68D31A7B613B6903F1C2
S32D000114B004033B61E5E700BF3B691A687B69D318184607F11C07BD4680BC704780B584B000AF78600B467B803F
S32D000114D87B687A88DA807B689B68FB60FB68012B05D07B681B68DA69FB689A4202D84FF0020373E0FB68002B1A
S32D0001150008D17B681B681B78032B03D17B681B689B6AFB60FB68002B16D17B68FA68DA607B681B681B897A8822
S32D000115289A4202D34FF0020358E07B681B689A6A7B884FEA13139BB2D2187B681A613FE07B681B689B784FEA35
S32D0001155003137B811EE07B681B681846F968FFF769FC0346FB60FB68B3F1FF3F02D14FF0010337E0FB68012B37
S32D0001157805D97B681B68DA69FB689A4202D84FF002032BE07A887B89D31A7B807A887B899A4234BF002301234B
S32D000115A0DBB2002BD7D17B68FA68DA607B681B681846F968FFF71CFC02467B884FEA13139BB2D2187B681A61CB
S32D000115C87B681B6803F134027B8803F00F034FEA4313D2187B685A614FF00003184607F11007BD4680BD00BF97
S32D000115F090B585B000AF786039607B68DB8803F101033B813B89002B03D07B681B69002B02D14FF00403E4E007
S32D000116183B8903F00F03002B40F0CE807B681B6903F101027B681A617B68DB68002B09D17B681B681B893A897D
S32D000116409A42C0F0BD804FF00403CAE03B894FEA13139BB21A467B681B689B7803F1FF331340002B40F0AC8079
S32D000116687B681A687B68DB6810461946FFF7DEFB0346FB60FB68012B02D84FF00203ACE0FB68B3F1FF3F02D14F
S32D000116904FF00103A5E07B681B68DA69FB689A4200F282803B68002B02D14FF0040398E07B681A687B68DB689D
S32D000116B810461946FFF736FE0346FB60FB68002B02D14FF0070388E0FB68012B02D14FF0020382E0FB68B3F15F
S32D000116E0FF3F02D14FF001037BE07B681B6818464FF00001FFF740FA0346002B0CBF00230123DBB2002B02D0E8
S32D000117084FF0010369E07B681B6803F1340318464FF000014FF40072FFF7A6F97B681C687B681B681846F96821
S32D00011730FFF75EFB034623634FF00003FB7220E07B681B684FF001021A717B681B6818464FF00001FFF710FA86
S32D000117580346002B0CBF00230123DBB2002B02D04FF0010339E07B681B681A6B02F101021A63FB7A03F101032B
S32D00011780FB727B681B689B78FA7A9A422CBF00230123DBB2002BD3D17B681B687A681268116BFA7A8A1A1A63A3
S32D000117A87B68FA68DA607B681B681846F968FFF71BFB02467B681A617B683A89DA807B681B6803F134023B8968
S32D000117D003F00F034FEA4313D2187B685A614FF00003184607F11407BD4690BD80B586B000AF786078684FF0BA
S32D000117F80001FFF767FE0346FB75FB7D002B01D0FB7D47E07B681A687B681B6910461946FFF7AEF90346FB75C3
S32D00011820FB7D002B36D17B685B693B613B691B78FB73FB7B002B03D14FF00403FB752CE03B6903F10B031B7897
S32D0001184803F00803002B0DD17B689B69386919464FF00B02FFF72AF90346002B02D14FF0010301E04FF0000371
S32D00011870002B11D178684FF00001FFF7B9FE0346FB75FB7D002B14BF00230123DBB2002BBCD102E000BF00E033
S32D0001189800BFFB7D184607F11807BD4680BD00BF80B584B000AF786078684FF00001FFF709FE0346FB73FB7B3C
S32D000118C0002B29D17B681A687B681B6910461946FFF752F90346FB73FB7B002B19D17B685B691B78BB73BB7B32
S32D000118E8E52B14D0BB7B002B11D078684FF00101FFF77AFE0346FB73FB7B002B14BF00230123DBB2002BD9D138
S32D0001191002E000BF00E000BFFB7B002B23D17B681A687B681B6910461946FFF725F90346FB73FB7B002B16D1FF
S32D000119387B685B69BB60B8684FF000014FF02002FFF792F87B689B69B86819464FF00B02FFF762F87B681B6815
S32D000119604FF001021A71FB7B184607F11007BD4680BD00BF80B588B000AF786039603B681B68FB6003E0FB6855
S32D0001198803F10103FB60FB681B782F2B03D0FB681B785C2B02D14FF0010301E04FF00003002BECD17B689B6935
S32D000119B0BB60B8684FF020014FF00B02FFF758F84FF00003FB774FF000033B613B697B614FF00803BB61FA6801
S32D000119D87B69D3181B782E2B39D1FA687B69D3181B78BB777B6903F101037B61BB7F2E2B0CD17B69022B09D80B
S32D00011A00BA683B69D318BA7F1A703B6903F101033B61E6E700BFBB7F2F2B08D0BB7F5C2B05D0BB7F202B02D91D
S32D00011A284FF00603C5E0FA687B69D2183B681A60BB6803F10B02BB7F202B02D84FF0240301E04FF020031370A6
S32D00011A504FF00003B1E0FA687B69D3181B78BB777B6903F101037B61BB7F202B68D9BB7F2F2B65D0BB7F5C2B96
S32D00011A7862D0BB7F2E2B03D03A69BB699A4214D3BB69082B02D1BB7F2E2B02D04FF006038FE04FF008033B61F1
S32D00011AA04FF00B03BB61FB7F4FEA8303FB7700BFD1E7BB7F5BB2002B0CDAFB7F43F00303FB77BB7FA3F18002BF
S32D00011AC84EF20403C0F201039B5CBB77BB7F4DF6D020C0F201001946FFF726F80346002B0CBF00230123DBB223
S32D00011AF0002B02D04FF006035FE0BB7F402B07D9BB7F5A2B04D8FB7F43F00203FB770DE0BB7F602B0AD9BB7F30
S32D00011B187A2B07D8FB7F43F00103FB77BB7FA3F12003BB77BA683B69D318BA7F1A703B6903F101033B618AE7B7
S32D00011B4000BFFA687B69D2183B681A60BB7F202B02D84FF0040301E04FF00003BB773B69002B02D14FF0060386
S32D00011B6827E0BB681B78E52B03D1BB684FF005021A70BB69082B03D1FB7F4FEA8303FB77FB7F03F00303012B45
S32D00011B9003D1BB7F43F01003BB77FB7F03F00C03042B03D1BB7F43F00803BB77BB6803F10B03BA7F1A704FF050
S32D00011BB80003184607F12007BD4680BD80B584B000AF786039603B681B782F2B03D03B681B785C2B08D13B6819
S32D00011BE003F101033B607B684FF000029A6004E07B681B689A697B689A603B681B781F2B0BD878684FF0000178
S32D00011C08FFF760FC0346FB737B684FF000025A6175E03B4678681946FFF7A8FE0346FB73FB7B002B64D17868A7
S32D00011C30FFF7DCFD0346FB737B689B69DB7ABB73FB7B002B21D0FB7B042B57D1BB7B03F02003002B10D07B68FC
S32D00011C584FF000029A607B684FF000025A614FF00003FB73BB7B03F00403002B44D13EE0BB7B03F00403002BAA
S32D00011C803ED14FF00503FB733AE0BB7B03F00403002B37D17B685B69BB60BB6803F10B031B7803F01003002B49
S32D00011CA803D14FF00503FB7329E0BB6803F115031B784FEA03239AB2BB6803F114031B7813439BB29BB24FEA24
S32D00011CD00342BB6803F11B031B784FEA032399B2BB6803F11A031B780B439BB29BB21A437B689A6091E790E756
S32D00011CF800BF04E000BF02E000BF00E000BFFB7B184607F11007BD4680BD00BF80B582B000AF786039607B68CF
S32D00011D205A787B6803F13403104619463A684FF0010302F0E3FE0346002B0CBF00230123DBB2002B02D04FF0F8
S32D00011D48030356E07B6893F833324FEA03239AB27B6893F8323213439BB21AB24AF65523CFF6FF739A4202D0D4
S32D00011D704FF0020341E07B6893F86D304FEA03627B6893F86C304FEA03431A437B6893F86B304FEA03231A438B
S32D00011D987B6893F86A30134323F07F4244F24613C0F254039A4202D14FF0000321E07B6893F889304FEA03629B
S32D00011DC07B6893F888304FEA03431A437B6893F887304FEA03231A437B6893F88630134323F07F4244F2461334
S32D00011DE8C0F254039A4202D14FF0000301E04FF00103184607F10807BD4680BD80B592B000AFF860B960134619
S32D00011E10FB71FB681B68FB62FB6A1B78A3F130033B643B6C092B0DD8FB6A03F101031B783A2B07D1FB6A03F150
S32D00011E380203FB62FB68FA6A1A6005E041F2DE13C1F6FF731B783B643B6C002B02D04FF00B03C9E241F2D813BA
S32D00011E60C1F6FF733A6C53F82230BB62BB68BA6A1A60BB6A002B02D14FF00C03B8E2BB6A1B78002B20D0BB6A06
S32D00011E885B78184603F0BEF8034687F8273097F8273003F00103DBB283F00103DBB2002B0ED0FB79002B08D044
S32D00011EB097F8273003F00403002B02D04FF00A0396E24FF0000393E2BB6A4FF000021A703B6CDAB2BB6A5A7099
S32D00011ED8BB6A5B78184602F04FFB034687F8273097F8273003F00103DBB2002B02D04FF0030379E2FB79002B84
S32D00011F0008D097F8273003F00403002B02D04FF00A036DE24FF00003FB63B86AF96BFFF7F9FE034687F8473010
S32D00011F2897F84730012B2AD1BB6A03F5F9733B623B6A03F104031B78002B20D03B6A03F10B031B784FEA036211
S32D00011F503B6A03F10A031B784FEA03431A433B6A03F109031B784FEA03231A433B6A03F108031B781343FB636E
S32D00011F78B86AF96BFFF7CAFE034687F8473097F84730032B02D14FF001032DE297F84730002B02D04FF00D030C
S32D00011FA026E2BB6A93F840304FEA03239AB2BB6A93F83F3013439BB21BB2B3F5007F02D04FF00D0314E2BB6A4D
S32D00011FC893F84B304FEA03239AB2BB6A93F84A3013439BB29BB2BB63BB6B002B15D1BB6A93F85B304FEA0362F1
S32D00011FF0BB6A93F85A304FEA03431A43BB6A93F859304FEA03231A43BB6A93F858301343BB63BB6ABA6B1A6245
S32D00012018BB6A93F84430FB77BB6AFA7FDA70FB7F012B05D0FB7F022B02D04FF00D03DBE1FA7FBB6B02FB03F38A
S32D00012040BB63BB6A93F84130FB77BB6AFA7F9A70FB7F002B06D0FA7FFB7F03F1FF331340002B02D04FF00D03E5
S32D00012068C2E1BB6A93F846304FEA03239AB2BB6A93F8453013439BB29AB2BB6A1A81BB6A1B8903F00F03002B08
S32D0001209002D04FF00D03ABE1BB6A93F848304FEA03239AB2BB6A93F8473013439BB29BB27B637B6B002B15D1B5
S32D000120B8BB6A93F857304FEA0362BB6A93F856304FEA03431A43BB6A93F855304FEA03231A43BB6A93F85430ED
S32D000120E013437B63BB6A93F843304FEA03239AB2BB6A93F8423013439BB2BB83BB8B002B02D14FF00D0373E1E5
S32D00012108BA8BBB6BD218BB6A1B894FEA13139BB2D318BB617A6BBB699A4202D24FF00D0362E17A6BBB69D21A97
S32D00012130BB6A9B78B2FBF3F37B617B69002B02D14FF00D0354E14FF0010387F847307A6940F6F5739A4203D901
S32D000121584FF0020387F847307A694FF6F5739A4203D94FF0030387F847307B6903F10202BB6ADA61FA6BBB69D6
S32D00012180D218BB6ADA62BA8BFB6BD218BB6A5A6297F84730032B23D1BB6A1B89002B02D04FF00D0324E1BB6A08
S32D000121A893F863304FEA0362BB6A93F862304FEA03431A43BB6A93F861304FEA03231A43BB6A93F860301A4394
S32D000121D0BB6A9A62BB6ADB694FEA83033B6323E0BB6A1B89002B02D14FF00D0300E1BB6A5A6ABB6BD218BB6AE1
S32D000121F89A6297F84730022B04D1BB6ADB694FEA43030CE0BB6ADA6913464FEA43039B184FEA5302BB6ADB69F6
S32D0001222003F00103D3183B63BB6A1A6A3B6B03F5FE7303F103034FEA53239A4202D24FF00D03D5E0BB6A4FF096
S32D00012248FF321A61BB6A4FF00002DA6097F84730032B40F0A380BB6A4FF000025A71BB6A93F865304FEA0323BF
S32D000122709AB2BB6A93F8643013439BB29BB21A46FB6BD218BB6A5A61BB6A5978BB6A03F13402BB6A5B690846B3
S32D0001229811461A464FF0010302F02CFC0346002B4AD1BB6A93F833324FEA03239AB2BB6A93F8323213439BB2FD
S32D000122C01AB24AF65523CFF6FF739A4238D1BB6A93F837304FEA0362BB6A93F836304FEA03431A43BB6A93F8F8
S32D000122E835304FEA03231A43BB6A93F834301A4345F25223C4F261139A421DD1BB6A93F81B324FEA0362BB6AD5
S32D0001231093F81A324FEA03431A43BB6A93F819324FEA03231A43BB6A93F818321A4347F27223C6F241139A4227
S32D0001233802D14FF0010301E04FF00003002B2DD0BB6A93F823324FEA0362BB6A93F822324FEA03431A43BB6A6D
S32D0001236093F821324FEA03231A43BB6A93F820321A43BB6ADA60BB6A93F81F324FEA0362BB6A93F81E324FEA1E
S32D0001238803431A43BB6A93F81D324FEA03231A43BB6A93F81C321A43BB6A1A61BB6A97F847201A7041F2DC1306
S32D000123B0C1F6FF731B8803F101039AB241F2DC13C1F6FF731A8041F2DC13C1F6FF731A88BB6ADA80BB6A4FF039
S32D000123D800021A63BB6A4FF000021A71BB6A4FF000029A614FF00003184607F14807BD4680BD00BF80B582B0B8
S32D0001240000AF78600B467B807B68002B08D07B681B78002B04D07B68DB887A889A4202D04FF009030FE07B686C
S32D000124285B78184602F0EEFD034603F00103DBB2002B02D04FF0030301E04FF00003184607F10807BD4680BDA0
S32D0001245080B485B000AF03463960FB71FB79002B02D04FF00B031FE0FA7941F2D813C1F6FF7353F82230FB6088
S32D00012478FB68002B03D0FB684FF000021A703B68002B03D03B684FF000021A70FA7941F2D813C1F6FF7339683C
S32D000124A043F822104FF00003184607F11407BD4680BC704780B592B000AFF860B9601346FB71FB684FF00002F7
S32D000124C81A60FB7903F01F03FB71FB7923F00103DBB207F1080107F11C02084611461A46FFF78CFC034687F8FC
S32D000124F0473007F110037B6397F84730002B09D1BB6807F11C0210461946FFF75BFB034687F847303B6B3B6494
S32D0001251897F84730002B06D13B6C002B03D14FF0060387F84730FB7903F01C03002B00F0D48097F84730002B82
S32D0001254012D097F84730042B07D107F11C031846FFF7AAF9034687F84730FB7943F00803FB713B6B3B6415E0D8
S32D000125683B6C03F10B031B7803F01103002B04D04FF0070387F8473008E0FB7903F00403002B03D04FF0080325
S32D0001259087F8473097F84730002B40F0C580FB7903F00803002B00F0BF804FF00003FB633B6C03F10E03FA6B03
S32D000125B8D2B21A703B6C03F10F03FA6B92B24FEA2222D2B21A703B6C03F11003FA6B4FEA1242D2B21A703B6CB0
S32D000125E003F11103FA6B4FEA1262D2B21A703B6C03F10B034FF000021A703B6C03F11C034FF000021A703B6C04
S32D0001260803F11D034FF000021A703B6C03F11E034FF000021A703B6C03F11F034FF000021A703B6C03F1150302
S32D000126301B784FEA03239AB23B6C03F114031B7813439BB29BB24FEA03423B6C03F11B031B784FEA032399B294
S32D000126583B6C03F11A031B780B439BB29BB21343BB633B6C03F11A034FF000021A703B6C03F11B034FF000022F
S32D000126801A703B6C03F114034FF000021A703B6C03F115034FF000021A70FB694FF001021A71BB6B002B3FD015
S32D000126A8FB691B6BFB63FB691846B96BFEF7DCFD034687F8473097F84730002B30D1FB69BA6B02F1FF32DA60AF
S32D000126D0FB691846F96BFEF74FFA034687F8473022E097F84730002B1ED13B6C03F10B031B7803F01003002BA9
S32D000126F804D04FF0040387F8473011E0FB7903F00203002B0CD03B6C03F10B031B7803F00103DBB2002B03D081
S32D000127204FF0070387F8473097F84730002B0FD1FB7903F00803002B03D0FB7943F02003FB71FB691A6BFB6848
S32D00012748DA61FB683A6C1A6297F84730002B51D1FB68FA799A713B6C03F115031B784FEA03239AB23B6C03F1E2
S32D0001277014031B7813439BB29BB24FEA03423B6C03F11B031B784FEA032399B23B6C03F11A031B780B439BB246
S32D000127989BB21A43FB681A613B6C03F11F031B784FEA03623B6C03F11E031B784FEA03431A433B6C03F11D03B6
S32D000127C01B784FEA03231A433B6C03F11C031B781A43FB68DA60FB684FF000029A60FB684FF000029A61FB68B4
S32D000127E84FF000025A62FA69FB681A60FB69DA88FB689A8097F84730184607F14807BD4680BD00BF80B58AB029
S32D0001281000AFF860B9607A603B60BB68BB613B684FF000021A60FB681A68FB689B8810461946FFF7E3FD034628
S32D00012838FB75FB7D002B01D0FB7DACE1FB689B79DBB25BB2002B02DA4FF00203A3E1FB689B7903F00203002B0E
S32D0001286002D14FF007039AE1FB68DA687B68D218FB68DB689A4280F074814FF000037B606FE1FB689B684FEA4D
S32D00012888C3534FEAD353002B40F02E81FB689B684FEA5323DAB2FB681B689B7803F1FF33DBB21340BB75BB7D9A
S32D000128B0002B4FD1FB689B68002B12D1FB681B697B627B6A002B23D1FB681B6818464FF00001FEF72BFD034688
S32D000128D87B62FB687A6A1A6116E0FB685B6A002B08D0FB689B68F8681946FEF7B3FD03467B6209E0FB681A6853
S32D00012900FB685B6910461946FEF710FD03467B627B6A002B00F02F817B6A012B09D1FB689B7963F07F03DAB231
S32D00012928FB689A714FF0020335E17B6AB3F1FF3F09D1FB689B7963F07F03DAB2FB689A714FF0010327E1FB6823
S32D000129507A6A5A61FB689B7903F04003002B27D0FB681B685978FB6803F12802FB689B69084611461A464FF007
S32D00012978010302F0CDF90346002B0CBF00230123DBB2002B09D0FB689B7963F07F03DAB2FB689A714FF00103D4
S32D000129A0FDE0FB689B7923F04003DAB2FB689A71FB681A68FB685B6910461946FEF718FA03463B613B69002BE8
S32D000129C809D1FB689B7963F07F03DAB2FB689A714FF00203DFE0BB7D3A69D3183B617B684FEA5323FB61FB6909
S32D000129F0002B4ED0BA7DFB69D218FB681B689B789A4206D9FB681B689B781A46BB7DD31AFB61FB681B685A78A4
S32D00012A18FB69DBB21046B9693A6902F079F90346002B0CBF00230123DBB2002B09D0FB689B7963F07F03DAB230
S32D00012A40FB689A714FF00103A9E0FB689A693B69D21AFB699A4217D2FB6803F12802FB6899693B69CB1A4FEA66
S32D00012A684323B969CB18104619464FF40072FDF7D3FFFB689B7923F04003DAB2FB689A71FB694FEA43233B623D
S32D00012A9053E0FB689A693B699A4226D0FB689A68FB68DB689A4212D2FB681B685A78FB6803F12803104619464E
S32D00012AB83A694FF0010302F01DF80346002B02D04FF0010301E04FF00003002B09D0FB689B7963F07F03DAB27A
S32D00012AE0FB689A714FF0010359E0FB683A699A61FB689B684FEAC3534FEAD353C3F500733B623A6A7B689A429D
S32D00012B0801D97B683B62FB689B684FEAC3534FEAD35303F12803FA68D3181846B9693A6AFDF77AFFFB689B79BC
S32D00012B3043F04003DAB2FB689A71BA693B6AD318BB61FB689A683B6AD218FB689A603B681A683B6AD2183B688F
