S01300002E2E2F4645485F526F626F742E7331391E
S32D0000C00000000020FD1401005918010059180100591801005918010059180100000000000000000000000000A6
S32D0000C028000000005918010059180100000000005918010059180100591801005918010059180100591801005A
S32D0000C050591801005918010059180100591801005918010059180100591801005918010059180100591801004E
S32D0000C0785918010059180100591801005918010059180100591801005918010059180100591801005918010026
S32D0000C0A059180100591801005918010059180100591801005918010059180100591801005918010059180100FE
S32D0000C0C859180100591801005918010059180100591801005918010059180100591801005918010059180100D6
S32D0000C0F059180100C1B501005918010059180100591801005918010059180100591801005918010059180100A9
S32D0000C1185918010059180100591801005918010059180100591801005918010059180100591801005918010085
S32D0000C14059180100591801005918010059180100557B01005918010059180100591801005918010059180100FE
S32D0000C1685918010059180100591801005918010059180100591801005918010059180100591801005918010035
S32D0000C190591801005918010059180100B575010009740100DD740100A91801008D760100591801005918010086
S32D0000C1B859180100591801005918010059180100591801005918010059180100591801005918010059180100E5
S32D0000C41081F0004102E000BF83F0004330B54FEA41044FEA430594EA050F08BF90EA020F1FBF54EA000C55EAC6
S32D0000C438020C7FEA645C7FEA655C00F0E2804FEA5454D4EB5555B8BF6D420CDD2C4480EA020281EA030382EA0F
S32D0000C460000083EA010180EA020281EA0303362D88BF30BD11F0004F4FEA01314FF4801C4CEA113102D0404263
S32D0000C48861EB410113F0004F4FEA03334CEA133302D0524263EB430394EA050F00F0A780A4F10104D5F1200E8A
S32D0000C4B00DDB02FA0EFC22FA05F2801841F1000103FA0EF2801843FA05F359410EE0A5F120050EF1200E012A2D
S32D0000C4D803FA0EFC28BF4CF0020C43FA05F3C01851EBE37101F0004507D54FF0000EDCF1000C7EEB00006EEB67
S32D0000C5000101B1F5801F1BD3B1F5001F0CD349085FEA30004FEA3C0C04F101044FEA445212F5800F80F09A8000
S32D0000C528BCF1004F08BF5FEA500C50F1000041EB045141EA050130BD5FEA4C0C404141EB010111F4801FA4F114
S32D0000C5500104E9D191F0000F04BF01460020B1FA81F308BF2033A3F10B03B3F120020CDA0C3208DD02F1140C87
S32D0000C578C2F10C0201FA0CF021FA02F10CE002F11402D8BFC2F1200C01FA02F120FA0CFCDCBF41EA0C019040B1
S32D0000C5A0E41AA2BF01EB0451294330BD6FEA04041F3C1CDA0C340EDC04F11404C4F1200220FA04F001FA02F3B6
S32D0000C5C840EA030021FA04F345EA030130BDC4F10C04C4F1200220FA02F001FA04F340EA0300294630BD21FAA8
S32D0000C5F004F0294630BD94F0000F83F4801306BF81F480110134013D4EE77FEA645C18BF7FEA655C29D094EA1C
S32D0000C618050F08BF90EA020F05D054EA000C04BF1946104630BD91EA030F1EBF0021002030BD5FEA545C05D1A3
S32D0000C6404000494128BF41F0004130BD14F580043CBF01F5801130BD01F0004545F0FE4141F470014FF0000031
S32D0000C66830BD7FEA645C1ABF194610467FEA655C1CBF0B46024650EA013406BF52EA033591EA030F41F40021D7
S32D0000C69030BD00BF90F0000F04BF0021704730B54FF4806404F132044FF000054FF0000150E700BF90F0000F66
S32D0000C6B804BF0021704730B54FF4806404F1320410F0004548BF40424FF000013EE700BF42004FEAE2014FEAF9
S32D0000C6E031014FEA02701FBF12F07F4393F07F4F81F06051704792F0000F14BF93F07F4F704730B54FF460741B
S32D0000C70801F0004521F0004120E700BF50EA010208BF704730B54FF000050AE050EA010208BF704730B511F046
S32D0000C730004502D5404261EB41014FF4806404F132045FEA915C3FF4DCAE4FF003025FEADC0C18BF03325FEAA0
S32D0000C758DC0C18BF033202EBDC02C2F1200300FA03FC20FA02F001FA03FE40EA0E0021FA02F11444C1E600BF19
S32D0000C78070B54FF0FF0C4CF4E06C1CEA11541DBF1CEA135594EA0C0F95EA0C0F00F0DEF82C4481EA030621EAF3
S32D0000C7A84C5123EA4C5350EA013518BF52EA033541F4801143F4801338D0A0FB02CE4FF00005E1FB02E506F05F
S32D0000C7D00042E0FB03E54FF00006E1FB03569CF0000F18BF4EF0010EA4F1FF04B6F5007F64F5407404D25FEA0F
S32D0000C7F84E0E6D4146EB060642EAC62141EA55514FEAC52040EA5E504FEACE2EB4F1FD0C88BFBCF5E06F1ED8D2
S32D0000C820BEF1004F08BF5FEA500E50F1000041EB045170BD06F0004646EA010140EA020081EA0301B4EB5C0487
S32D0000C848C2BFD4EB0C0541EA045170BD41F480114FF0000E013C00F3AB8014F1360FDEBF002001F0004170BDF0
S32D0000C870C4F10004203C35DA0C341BDC04F11404C4F1200500FA05F320FA04F001FA05F240EA020001F0004207
S32D0000C89821F0004110EBD37021FA04F642EB06015EEA430E08BF20EAD37070BDC4F10C04C4F1200500FA04F32F
S32D0000C8C020FA05F001FA04F240EA020001F0004110EBD37041F100015EEA430E08BF20EAD37070BDC4F12005C7
S32D0000C8E800FA05F24EEA020E20FA04F301FA05F243EA020321FA04F001F0004121FA04F220EA020000EBD37028
S32D0000C9105EEA430E08BF20EAD37070BD94F0000F0FD101F00046400041EB010111F4801F08BF013CF7D041EA6D
S32D0000C938060195F0000F18BF704703F00046520043EB030313F4801F08BF013DF7D043EA0603704794EA0C0FF1
S32D0000C9600CEA135518BF95EA0C0F0CD050EA410618BF52EA4306D1D181EA030101F000414FF0000070BD50EA38
S32D0000C988410606BF1046194652EA430619D094EA0C0F02D150EA013613D195EA0C0F05D152EA03361CBF10467B
S32D0000C9B019460AD181EA030101F0004141F0FE4141F470014FF0000070BD41F0FE4141F4780170BD70B54FF04D
S32D0000C9D8FF0C4CF4E06C1CEA11541DBF1CEA135594EA0C0F95EA0C0F00F0A7F8A4EB050481EA030E52EA03359B
S32D0000CA004FEA013100F088804FEA03334FF0805545EA131343EA12634FEA022245EA111545EA10654FEA002676
S32D0000CA280EF000419D4208BF964244F1FD0404F5407402D25B084FEA3202B61A65EB03055B084FEA32024FF461
S32D0000CA5080104FF4002CB6EB020E75EB030E22BFB61A754640EA0C005B084FEA3202B6EB020E75EB030E22BF22
S32D0000CA78B61A754640EA5C005B084FEA3202B6EB020E75EB030E22BFB61A754640EA9C005B084FEA3202B6EBEA
S32D0000CAA0020E75EB030E22BFB61A754640EADC0055EA060E18D04FEA051545EA16754FEA06164FEAC30343EAAC
S32D0000CAC852734FEAC2025FEA1C1CC0D111F4801F0BD141EA00014FF000004FF0004CB6E711F4801F04BF0143AE
S32D0000CAF00020B4F1FD0C88BFBCF5E06F3FF6AFAEB5EB030C04BFB6EB020C5FEA500C50F1000041EB045170BDBC
S32D0000CB180EF0004E4EEA113114EB5C04C2BFD4EB0C0541EA045170BD41F480114FF0000E013C90E645EA060EC3
S32D0000CB408DE60CEA135594EA0C0F08BF95EA0C0F3FF43BAF94EA0C0F0AD150EA01347FF434AF95EA0C0F7FF499
S32D0000CB6825AF104619462CE795EA0C0F06D152EA03353FF4FDAE1046194622E750EA410618BF52EA43067FF432
S32D0000CB90C5AE50EA41047FF40DAF52EA43057FF4EBAE12E74FF0FF3C06E000BF4FF0010C02E000BF4FF0010C75
S32D0000CBB84DF804CD4FEA410C7FEA6C5C4FEA430C18BF7FEA6C5C1BD001B050EA410C0CBF52EA430C91EA030FEC
S32D0000CBE002BF90EA020F0020704710F1000F91EA030F58BF994208BF90422CBFD8176FEAE37040F0010070476E
S32D0000CC084FEA410C7FEA6C5C02D150EA013C07D14FEA430C7FEA6C5CD6D152EA033CD3D05DF8040B704700BFCD
S32D0000CC308446104662468C461946634600E000BF01B5FFF7B7FF002848BF10F1000F01BD4DF808EDFFF7F4FF13
S32D0000CC580CBF012000205DF808FB00BF4DF808EDFFF7EAFF34BF012000205DF808FB00BF4DF808EDFFF7E0FF18
S32D0000CC8094BF012000205DF808FB00BF4DF808EDFFF7CEFF94BF012000205DF808FB00BF4DF808EDFFF7C4FF40
S32D0000CCA834BF012000205DF808FB00BF4FEA410212F5001215D211D56FF47873B3EB625212D94FEAC12343F0D6
S32D0000CCD0004343EA505311F0004F23FA02F018BF404270474FF00000704750EA013005D111F0004008BF6FF016
S32D0000CCF8004070474FF00000704700BF4A0011D212F5001211D20DD56FF47873B3EB62520ED44FEAC12343F085
S32D0000CD20004343EA505323FA02F070474FF00000704750EA013002D14FF0FF3070474FF0000070474FEA410241
S32D0000CD48B2F1E04324BFB3F5001CDCF1FE5C0DD901F0004C4FEAC0024CEA5070B2F1004F40EB830008BF20F09E
S32D0000CD700100704711F0804F21D113F13872BCBF01F00040704741F480114FEA5252C2F11802C2F1200C10FAB1
S32D0000CD980CF320FA02F018BF40F001004FEAC1234FEAD32303FA0CFC40EA0C0023FA02F34FEA4303CCE77FEA26
S32D0000CDC0625307D150EA01331EBF4FF0FE4040F44000704701F0004040F0FE4040F40000704700BF80F00040CC
S32D0000CDE802E000BF81F0004142001FBF5FEA410392EA030F7FEA226C7FEA236C6AD04FEA1262D2EB1363C1BF06
S32D0000CE10D218414048404140B8BF5B42192B88BF704710F0004F40F4000020F07F4018BF404211F0004F41F4FA
S32D0000CE38000121F07F4118BF494292EA030F3FD0A2F1010241FA03FC10EB0C00C3F1200301FA03F100F000432B
S32D0000CE6002D5494260EB4000B0F5000F13D3B0F1807F06D340084FEA310102F10102FE2A51D2B1F1004F40EB94
S32D0000CE88C25008BF20F0010040EA03007047490040EB000010F4000FA2F10102EDD1B0FA80FCACF1080CB2EB5F
S32D0000CEB00C0200FA0CF0AABF00EBC25052421843BCBFD0401843704792F0000F81F4000106BF80F400000132EB
S32D0000CED8013BB5E74FEA41037FEA226C18BF7FEA236C21D092EA030F04D092F0000F08BF0846704790EA010FD7
S32D0000CF001CBF0020704712F07F4F04D1400028BF40F00040704712F100723CBF00F50000704700F0004343F0DC
S32D0000CF28FE4040F4000070477FEA226216BF08467FEA23630146420206BF5FEA412390EA010F40F480007047C1
S32D0000CF504FF0000304E000BF10F0004348BF40425FEA000C08BF704743F0964301464FF000001CE050EA010264
S32D0000CF7808BF70474FF000030AE000BF50EA010208BF704711F0004302D5404261EB41015FEA010C02BF84465B
S32D0000CFA00146002043F0B64308BFA3F18053A3F50003BCFA8CF2083AA3EBC25310DB01FA02FC634400FA02FC6B
S32D0000CFC8C2F12002BCF1004F20FA02F243EB020008BF20F00100704702F1200201FA02FCC2F1200250EA4C0034
S32D0000CFF021FA02F243EB020008BF20EADC7070474FF0FF0C1CEAD0521EBF1CEAD15392EA0C0F93EA0C0F6FD019
S32D0000D0181A4480EA010C400218BF5FEA41211ED04FF0006343EA501043EA5111A0FB01310CF00040B1F5000FE7
S32D0000D0403EBF490041EAD3715B0040EA010062F17F02FD2A1DD8B3F1004F40EBC25008BF20F00100704790F058
S32D0000D068000F0CF0004C08BF49024CEA502040EA51207F3AC2BFD2F1FF0340EAC250704740F400004FF0000388
S32D0000D090013A5DDC12F1190FDCBF00F000407047C2F10002410021FA02F1C2F1200200FA02FC5FEA310040F1D5
S32D0000D0B8000053EA4C0308BF20EADC70704792F0000F00F0004C02BF400010F4000F013AF9D040EA0C0093F04C
S32D0000D0E0000F01F0004C02BF490011F4000F013BF9D041EA0C018FE70CEAD15392EA0C0F18BF93EA0C0F0AD00B
S32D0000D10830F0004C18BF31F0004CD8D180EA010000F00040704790F0000F17BF90F0004F084691F0000F91F0BB
S32D0000D130004F14D092EA0C0F01D142020FD193EA0C0F03D14B0218BF084608D180EA010000F0004040F0FE4051
S32D0000D15840F40000704740F0FE4040F4400070474FF0FF0C1CEAD0521EBF1CEAD15392EA0C0F93EA0C0F69D044
S32D0000D180A2EB030280EA010C49024FEA402037D04FF0805343EA111143EA10130CF000408B4238BF5B0042F14E
S32D0000D1A87D024FF4000C8B4224BF5B1A40EA0C00B3EB510F24BFA3EB510340EA5C00B3EB910F24BFA3EB9103A4
S32D0000D1D040EA9C00B3EBD10F24BFA3EBD10340EADC001B0118BF5FEA1C1CE0D1FD2A3FF650AF8B4240EBC25018
S32D0000D1F808BF20F0010070470CF0004C4CEA50207F32C2BFD2F1FF0340EAC250704740F400004FF00003013AF1
S32D0000D22037E792F0000F00F0004C02BF400010F4000F013AF9D040EA0C0093F0000F01F0004C02BF490011F4C9
S32D0000D248000F013BF9D041EA0C0195E70CEAD15392EA0C0F08D142027FF47DAF93EA0C0F7FF470AF084676E7AE
S32D0000D27093EA0C0F04D14B023FF44CAF08466EE730F0004C18BF31F0004CCAD130F000427FF45CAF31F0004376
S32D0000D2987FF43CAF5FE700BF4FF0FF3C06E000BF4FF0010C02E000BF4FF0010C4DF804CD4FEA40024FEA41039F
S32D0000D2C07FEA226C18BF7FEA236C11D001B052EA530C18BF90EA010F58BFB2EB030088BFC81738BF6FEAE1706E
S32D0000D2E818BF40F0010070477FEA226C02D15FEA402C05D17FEA236CE4D15FEA412CE1D05DF8040B704700BF16
S32D0000D310844608466146FFE70FB5FFF7C9FF002848BF10F1000F0FBD4DF808EDFFF7F4FF0CBF012000205DF839
S32D0000D33808FB00BF4DF808EDFFF7EAFF34BF012000205DF808FB00BF4DF808EDFFF7E0FF94BF012000205DF8A9
S32D0000D36008FB00BF4DF808EDFFF7D2FF94BF012000205DF808FB00BF4DF808EDFFF7C8FF34BF012000205DF8B1
S32D0000D38808FB00BF4FEA4002B2F1FE4F0FD34FF09E03B3EB12620DD94FEA002343F0004310F0004F23FA02F060
S32D0000D3B018BF404270474FF00000704712F1610F01D1420205D110F0004008BF6FF0004070474FF00000704797
S32D0000D3D880B582B000AF786039603868FFF7B8FD0346786819460FF015FE0346184607F10807BD4680BD00BF0E
S32D0000D40080B483B000AF78607B6823F00043184607F10C07BD4680BC704700BF00000000B0B584B000AF01F080
S32D0000D42867F809F0E9FB03467B6001F030B841F28013C1F6FF731B78002B01D003F000FD02F03EFC41F271134C
S32D0000D450C1F6FF731B78122B00F2E58701A252F823F000BFB1D4000009D5000081D6000011D70000A9DA000073
S32D0000D478F1DA0000BDDB0000A5D7000053D9000003DA00000DDC0000E1DD000037DE000031DF000037E00000BB
S32D0000D4A0CFE1000005E300008DE3000003E4000002F0D6FA0346002B06D109F0A1FB02467B68D31A142B02D99B
S32D0000D4C84FF0010301E04FF00003002B00F0DE8741F26C50C1F6FF704EF66861C0F201010FF0D0FC41F2E44058
S32D0000D4F0C1F6FF704FF000010BF058FB4FF0010002F088F900F0C6BF41F26C50C1F6FF704EF68061C0F2010144
S32D0000D5180FF0B8FCC448C54902F0AAFE0AE002F0CFFB41F28013C1F6FF731B78002B01D003F086FC02F09CFD5A
S32D0000D540034683F00103DBB2002BECD1B4A1D1E9000109F029FBB84802F07AFE41F26C50C1F6FF704EF69461A3
S32D0000D568C0F201010FF08EFC4FF00100B149B24A03F03AF809F040FB03463B6002E0AF4802F062FE4FF001007A
S32D0000D59002F0B6FE034683F00103DBB2002B09D009F02EFB02463B68D31A042B02D84FF0010301E04FF000030D
S32D0000D5B8002BE4D19E4802F047FE99A1D1E9000109F0EEFA41F26C50C1F6FF704EF6A061C0F201010FF056FC13
S32D0000D5E041F26C50C1F6FF704EF6C461C0F201010FF04CFC8E4802F02BFE0AE002F064FB41F28013C1F6FF7389
S32D0000D6081B78002B01D003F01BFC02F025FA0346002B14BF00230123DBB2002BEAD1844802F012FE02F018FA77
S32D0000D630024641F2F013C1F6FF731A6041F2F013C1F6FF731B68B3F57F0F04D14EF6E063C0F2010303E04EF65A
S32D0000D658E463C0F2010341F26C50C1F6FF704EF6EC61C0F201011A460FF00CFC4FF0020002F0CCF800F00BBF35
S32D0000D68041F26C50C1F6FF704EF60871C0F201010FF0FCFB664802F0DBFD09F0B1FA03463B600AE002F010FB19
S32D0000D6A841F28013C1F6FF731B78002B01D003F0C7FB4FF0000002F01FFE034683F00103DBB2002B09D009F089
S32D0000D6D097FA02463B68D31A092B02D84FF0010301E04FF00003002BDCD1534802F0B0FD41F26C50C1F6FF7028
S32D0000D6F84EF62071C0F201010FF0C4FB4FF0030002F084F800F0C3BE4FF0010002F0C4F84B484C4902F0ACFDEB
S32D0000D7200AE002F0D1FA41F28013C1F6FF731B78002B01D003F088FB02F09EFC034683F00103DBB2002BECD17F
S32D0000D7483B4802F081FD4FF0000002F0A5F836483D4902F08DFD0AE002F0B2FA41F28013C1F6FF731B78002B3D
S32D0000D77001D003F069FB02F07FFC034683F00103DBB2002BECD12C4802F062FD2A4802F0B3F8304802F0CCFFB8
S32D0000D7984FF0070002F03AF800F079BE41F26C50C1F6FF704EF64071C0F201010FF06AFB234802F049FD09F014
S32D0000D7C01FFA03463B600AE002F07EFA41F28013C1F6FF731B78002B01D003F035FB4FF0010002F08DFD034644
S32D0000D7E883F00103DBB2002B09D009F005FA02463B68D31A092B02D84FF0010301E04FF00003002BDCD10A489D
S32D0000D81002F01EFD0648074902F02EFD27E000BF333333333333C33F9A9999999999B93F00000C420000A0406B
S32D0000D838000000000000AA420000C84100008CC100000CC20000E040000040400000344302F036FA41F28013B3
S32D0000D860C1F6FF731B78002B01D003F0EDFA02F003FC034683F00103DBB2002BECD1C2A1D1E9000109F090F942
S32D0000D888C34802F0E1FCC34802F04EFF41F26C50C1F6FF704EF65871C0F201010FF0F2FA41F29812C1F6FF7288
S32D0000D8B04EF66C73C0F2010314460FCB84E80F0002F002FA41F22C10C1F6FF70B44904F0C7F84FF000004FF011
S32D0000D8D8804109F065F941F22C10C1F6FF70AC4904F0BAF8AD48AE4902F0C2FC09F084F903463B600AE002F008
S32D0000D900E3F941F28013C1F6FF731B78002B01D003F09AFA02F0B0FB034683F00103DBB2002B09D009F06CF9CC
S32D0000D92802463B68D31A042B02D84FF0010301E04FF00003002BDED1954802F085FC4FF0080001F063FF00F0D6
S32D0000D950A2BD964802F0ECFE924802F079FC0AE002F0B2F941F28013C1F6FF731B78002B01D003F069FA4FF0B5
S32D0000D978010002F0C1FC034683F00103DBB2002BEAD1834802F060FC874802F05DFC7EA1D1E9000109F004F99B
S32D0000D9A07D4802F055FC7D4802F0C2FE7D4802F04FFC41F26C50C1F6FF704EF67C71C0F201010FF063FA0AE098
S32D0000D9C802F07EF941F28013C1F6FF731B78002B01D003F035FA41F25010C1F6FF7009F05DFA0346002BEBD1EF
S32D0000D9F0694802F02DFC4FF0090001F00BFF00F04ABD41F26C50C1F6FF704EF69471C0F201010FF03BFA4FF07E
S32D0000DA180003FB6036E04FF000004FF07E5101F5C00109F0BDF841F25010C1F6FF7009F035FA0346002B21D074
S32D0000DA404FF00003FB6041F26C50C1F6FF704EF6B871C0F201010FF019FA41F2E040C1F6FF700AF02FFA4F48A0
S32D0000DA6802F0F2FB41F25010C1F6FF7009F016FA0346002BF6D1464802F0E6FBFB6803F10103FB60FB680A2B05
S32D0000DA90CCBF00230123DBB2002BC0D14FF0040001F0B8FE00F0F7BC41483F4902F0E4FB0AE002F009F941F2CD
S32D0000DAB88013C1F6FF731B78002B01D003F0C0F902F0D6FA034683F00103DBB2002BECD12F4802F0B9FB3548B8
S32D0000DAE001F00AFF4FF0050001F094FE00F0D3BC41F26C50C1F6FF704EF69461C0F201010FF0C4F9294802F0B7
S32D0000DB0813FE29482A4902F0B3FB0AE002F0D8F841F28013C1F6FF731B78002B01D003F08FF902F0A5FA0346DB
S32D0000DB3083F00103DBB2002B0CD04FF0000002F0DFFB034683F00103DBB2002B02D04FF0010301E04FF0000301
S32D0000DB58002BDBD141F26C50C1F6FF704FF20001C0F201010FF08EF9094802F06DFB4FF0060001F04BFE00F01D
S32D0000DB808ABC00BFAFF300809A9999999999D93F9A9999999999A93F00000000000087430000204200000CC228
S32D0000DBA8000090410000344300000C420000C8420000804141F22C10C1F6FF70CC4903F04BFF4FF000004FF089
S32D0000DBD07E5101F5E00108F0E7FF41F22C10C1F6FF70C64903F03CFFBBA1D1E9000108F0DBFF41F22C10C1F6C2
S32D0000DBF8FF70C14903F030FF4FF0070001F006FE00F045BC41F26C50C1F6FF704FF21001C0F201010FF036F9EF
S32D0000DC2041F29812C1F6FF724FF22403C0F2010314461D460FCD0FC42B68237002F044F8AF4801F059FEAF48BD
S32D0000DC4802F072FDAE48AF4902F012FB32E041F24C50C1F6FF700EF0FDFE024641F2AC13C1F6FF739B694FF0BA
S32D0000DC7001010C4610461946FFF77EFB0346002B02D14FF000031C46E3B2002B0BD0A04802F0DEFA92A1D1E9E9
S32D0000DC98000108F085FF984802F0D6FA0AE09B4802F0D2FA8CA1D1E9000108F079FF924802F0CAFA41F24C50FD
S32D0000DCC0C1F6FF700EF0CAFE024641F2AC13C1F6FF739B6910461946FFF788F803461846FFF78EFB03464FF00A
S32D0000DCE80102144618468A49FFF742FB0346002B02D14FF000031C46E3B2002BA7D1854802F012FD84487F49C8
S32D0000DD1002F0B2FA32E041F24C50C1F6FF700EF0ADFE024641F2AC13C1F6FF73DB694FF001010C4610461946A8
S32D0000DD38FFF71EFB0346002B02D14FF000031C46E3B2002B0BD0714802F07EFA62A1D1E9000108F025FF68487B
S32D0000DD6002F076FA0AE06A4802F072FA5CA1D1E9000108F019FF624802F06AFA41F24C50C1F6FF700EF07AFE06
S32D0000DD88024641F2AC13C1F6FF73DB6910461946FFF728F803461846FFF72EFB03461846FEF796FC02460B466E
S32D0000DDB04FF001010C46104619464BA3D3E90023FEF76EFF0346002B02D14FF000031C46E3B2002B9FD14FF074
S32D0000DDD80B0001F01BFD5AE3474801F089FD4F4802F0A2FC41F26C50C1F6FF704FF23801C0F201010FF046F81F
S32D0000DE0041F29812C1F6FF724FF24803C0F2010314460FCB07C4238004F102044FEA1343237001F051FF404825
S32D0000DE2803F014F84FF00C0001F0F0FC2FE341F26C50C1F6FF704FF25801C0F201010FF021F841F29812C1F684
S32D0000DE50FF724FF26803C0F2010314460FCB07C4237001F031FF314802F0F2F920A1D1E9000108F099FE224853
S32D0000DE7802F0EAF941F22C10C1F6FF701D4903F0EBFD4FF000004FF07E5101F5E00108F087FE41F22C10C1F60A
S32D0000DEA0FF70174903F0DCFD174802F0D1F94FF000004FF07E5101F5E80108F075FE104802F0C6F90E4801F0B7
S32D0000DEC817FD4FF00D0001F0A1FCE0E2AFF300809A9999999999C93F9A9999999999B93F9A9999999999E93F6D
S32D0000DEF07B14AE47E17A843F000020C200002042000000000000344300000CC2000020410000C8410000C8C1E6
S32D0000DF180000803F0000B44200000C42000008430000404100008CC141F26C50C1F6FF704FF27801C0F201013C
S32D0000DF400EF0A4FF41F29812C1F6FF724FF28C03C0F2010314461D460FCD0FC42B68238001F0B2FE4FF0000005
S32D0000DF68DFF8E414DFF8E42402F03EFBDFF8E00402F06AF94FF000004FF07E5101F5C00108F00EFEDFF8CC04F3
S32D0000DF9002F05EF941F2AC13C1F6FF7303F1380393E8030002F0C8FD0AE001F08DFE41F28013C1F6FF731B78B3
S32D0000DFB8002B01D002F044FF02F05AF8034683F00103DBB2002BECD1DFF8880402F03CF9DFF8840402F0A8FB13
S32D0000DFE0DFF8800401F088FCDFF87C04DFF87C1402F042F90AE001F067FE41F28013C1F6FF731B78002B01D09A
S32D0000E00802F01EFF02F034F8034683F00103DBB2002BECD1DFF83C0402F016F9DFF8340401F066FC4FF00E00C1
S32D0000E03001F0F0FB2FE241F26C50C1F6FF704FF2A001C0F201010EF021FF41F29812C1F6FF724FF2B403C0F25D
S32D0000E058010314461D460FCD0FC42B68238001F02FFE4FF00100DFF80014F84A02F0BCFAFE4802F0E9F808F0B0
S32D0000E080BFFD03463B600AE001F01EFE41F28013C1F6FF731B78002B01D002F0D5FE4FF0010002F02DF90346F7
S32D0000E0A883F00103DBB2002B09D008F0A5FD02463B68D31A092B02D84FF0010301E04FF00003002BDCD1E34859
S32D0000E0D002F0BEF841F2F013C1F6FF731B68B3F57F0F06D1E048E44902F0C6F8E34BBB6011E0DD48E14902F00B
S32D0000E0F8BFF8E14BBB600AE001F0E2FD41F28013C1F6FF731B78002B01D002F099FE01F0AFFF034683F00103DC
S32D0000E120DBB2002BECD12DE041F24C50C1F6FF700EF094FC03464FF0010214461846B968FFF71AF90346002BEB
S32D0000E14802D14FF000031C46E3B2002B0BD0BF4802F07AF8B8A1D1E9000108F021FDBD4802F072F80AE0C548AA
S32D0000E17002F06EF8B2A1D1E9000108F015FDB74802F066F841F24C50C1F6FF700EF066FC03461846B968FEF7B0
S32D0000E19829FE03461846FFF72FF903464FF0010214461846B649FFF7E3F80346002B02D14FF000031C46E3B2DA
S32D0000E1C0002BB1D14FF00F0001F024FB63E141F26C50C1F6FF704FF2C801C0F201010EF055FE01F071FD9D487A
S32D0000E1E801F086FB9C4802F09FFA9C4801F080FB9B4802F029F808F0FFFC03463B600AE001F05EFD41F280130F
S32D0000E210C1F6FF731B78002B01D002F015FE4FF0000002F06DF8034683F00103DBB2002B09D008F0E5FC02461B
S32D0000E2383B68D31A042B02D84FF0010301E04FF00003002BDCD1834801F0FEFF804801F0FBFF79A1D1E90001A0
S32D0000E26008F0A2FC7D4801F0F3FF7C4801F044FB794801F0EDFF74A1D1E9000108F094FC764801F0E5FF41F2A2
S32D0000E2882C10C1F6FF707F4903F0E6FB4FF000004FF0804108F084FC41F22C10C1F6FF706C4903F0D9FB6E48EC
S32D0000E2B001F0CEFF64A1D1E9000108F075FC674801F0C6FF6448724901F0D6FF0AE001F0FBFC41F28013C1F678
S32D0000E2D8FF731B78002B01D002F0B2FD01F0C8FE034683F00103DBB2002BECD1594801F0ABFF4FF0100001F00E
S32D0000E30089FAC8E0554801F0F7FA544802F010FA514801F09DFF08F073FC03463B600AE001F0D2FC41F28013CD
S32D0000E328C1F6FF731B78002B01D002F089FD4FF0010001F0E1FF034683F00103DBB2002B09D008F059FC0246A0
S32D0000E3503B68D31A092B02D84FF0010301E04FF00003002BDCD13D4801F072FF3E4801F06FFF35A1D1E9000166
S32D0000E37808F016FC384802F0D7F94FF0110001F045FA84E0324801F05FFF08F035FC03463B600AE001F094FC06
S32D0000E3A041F28013C1F6FF731B78002B01D002F04BFD41F25010C1F6FF7008F073FD0346002B12D041F2541089
S32D0000E3C8C1F6FF7008F06AFD0346002B09D008F013FC02463B68D31A022B02D84FF0010301E04FF00003002BDE
S32D0000E3F0D4D11A4801F02CFF4FF0120001F00AFA49E041F26C50C1F6FF704FF2D801C0F201010EF03BFD41F221
S32D0000E4187013C1F6FF734FF000021A7037E041F26C50C1F6FF704FF2EC01C0F201010EF029FD2CE0AFF30080FF
S32D0000E4409A9999999999B93F333333333333C33F000034420000C84100000CC200000000000087430000C842CA
S32D0000E46800000C420000A0410000AA4200008CC10000404100000041000080410000C8C10000803F00002042F1
S32D0000E4900000A04000BF41F27013C1F6FF731B78002B7EF4C8AF41F2E440C1F6FF704FF000010AF07BFB41F2D9
S32D0000E4B8E440C1F6FF704FF20C11C0F201010AF0F3FE41F26C50C1F6FF704FF21C11C0F201010EF0D7FC41F2B4
S32D0000E4E06C50C1F6FF700EF0B5FC4FF00003184607F11007BD46B0BD80B592B000AF41F26C50C1F6FF700EF025
S32D0000E508D3FB41F26C50C1F6FF704FF22C11C0F201010EF0B7FC41F2E440C1F6FF704FF000010AF02BFB41F20F
S32D0000E530E440C1F6FF704FF001010AF081FB41F26C50C1F6FF704FF24011C0F201010EF09DFC41F23C10C1F694
S32D0000E558FF7040F63D1109F08FFD41F23C10C1F6FF704FF4FA7109F069FD41F23C10C1F6FF705B4909F0A0FD8C
S32D0000E58041F26C50C1F6FF704FF25411C0F201010EF07CFC554801F0AFF941F22C10C1F6FF70534903F05CFAD8
S32D0000E5A84DA1D1E9000108F0FBFA41F22C10C1F6FF704E4903F050FA41F26C50C1F6FF704FF27811C0F20101B3
S32D0000E5D00EF05CFC41F28813C1F6FF73454A1A6041F28813C1F6FF731A6841F28413C1F6FF731A6041F2941307
S32D0000E5F8C1F6FF734FF000021A6041F28013C1F6FF734FF000021A7041F29813C1F6FF734FF2A012C0F20102A8
S32D0000E62092E80300186003F10403197041F26C50C1F6FF704FF2A811C0F201010EF026FC41F24C50C1F6FF707B
S32D0000E6480DF038FD41F26C50C1F6FF704FF2BC11C0F201010EF016FC07E041F2E040C1F6FF704FF0050109F0ED
S32D0000E67039FC01F051FA034683F00103DBB2002BEFD141F26C50C1F6FF704FF2D411C0F201010EF0FBFB41F2BD
S32D0000E6987013C1F6FF734FF001021A7007F10403184600F025F807F1040241F2AC13C1F6FF739A420BD041F26F
S32D0000E6C0AC13C1F6FF7319464FF04103084611461A460FF035FB07F14807BD4680BD00BF9A9999999999C93F49
S32D0000E6E8000034420000C842000020C200000000B0B5ADF5EE5D8CB006AF07F11803A3F1140318604FF00103E6
S32D0000E71007F5EE5000F117000370DFF8D43707F5EE5101F10C010B60DFF8C43707F5EE5202F10802136007F129
S32D0000E7381803A3F11403186802F0BAFD41F2E440C1F6FF704FF000010AF02CFA07F5CC5303F11803A3F1040322
S32D0000E7601D464FF0000406E028460CF0C3F905F1EC0504F1FF34B4F1FF3F0CBF00230123DBB2002BF0D14FF21B
S32D0000E7885C23C0F2010307F5E85101F124011A464FF01403084611461A460FF0CDFA07F5CC5303F11803A3F1A3
S32D0000E7B004034FF0C90200924FF0010201924FF00102029207F5E85202F1240203924FF4004204924FF4574212
S32D0000E7D8C0F2FF02059218464FF001014FF001024FF001030CF0F0FB07F5CC5303F11803A3F1040318460CF09F
S32D0000E80015FA07F5945303F11803A3F11C031D464FF0050406E028460CF06CF905F1EC0504F1FF34B4F1FF3FE4
S32D0000E8280CBF00230123DBB2002BF0D107F5E25303F118031A464FF0A00310464FF000011A460FF082FA07F548
S32D0000E850E25303F118034FF041021A6003F104034FF000021A6003F104034FF000021A6003F104034FF00002B2
S32D0000E8781A6003F104034FF000021A6003F1040307F5E25303F118034FF042025A6103F118034FF000021A60FF
S32D0000E8A003F104034FF000021A6003F104034FF000021A6003F104034FF000021A6003F1040307F5E25303F108
S32D0000E8C818034FF043029A6203F12C034FF000021A6003F104034FF000021A6003F104034FF000021A6003F149
S32D0000E8F004034FF000021A6003F1040307F5E25303F118034FF04402DA6303F140034FF000021A6003F104034E
S32D0000E9184FF000021A6003F104034FF000021A6003F104034FF000021A6003F1040307F5E25303F118034FF030
S32D0000E94045021A6503F154034FF000021A6003F104034FF000021A6003F104034FF000021A6003F104034FF037
S32D0000E96800021A6003F1040307F5E25303F118034FF046025A6603F168034FF000021A6003F104034FF000022D
S32D0000E9901A6003F104034FF000021A6003F104034FF000021A6003F1040307F5E25303F118034FF047029A67AF
S32D0000E9B803F17C034FF000021A6003F104034FF000021A6003F104034FF000021A6003F104034FF000021A60E1
S32D0000E9E003F1040307F5E25303F118034FF04802C3F88C2003F190034FF000021A6003F104034FF000021A60E6
S32D0000EA0803F104034FF000021A6003F104034FF000021A6003F1040307F5945303F11803A3F11C034FF0330260
S32D0000EA3000924FF0010201924FF00102029207F5E25202F1180203926FF07F4204924FF45742C0F2FF020592CD
S32D0000EA5818464FF004014FF002024FF028030CF0B3FA07F5D4531D464FF0000406E028460CF03CF805F1EC0564
S32D0000EA8004F1FF34B4F1FF3F0CBF00230123DBB2002BF0D107F5E85303F110034FF000021A6003F104034FF09F
S32D0000EAA800021A6003F104034FF000021A6003F104034FF000021A6003F104034FF000021A6003F104034FF266
S32D0000EAD07022C0F2010207F5E85303F1100392E80300186003F10403198007F5E85303F116034FF000021A80EB
S32D0000EAF803F102034FF000021A8003F102034FF000021A8003F102034FF000021A8003F102034FF000021A80A0
S32D0000EB2003F102034FF000021A8003F102034FF000021A8003F1020307F5D4524FF0140300934FF00103019344
S32D0000EB484FF00103029307F5E85303F1100303934FF4004304934FF45743C0F2FF03059310464FF001014FF0D7
S32D0000EB7001024FF0BE030CF02BFA41F2E440C1F6FF704FF45741C0F2FF010AF06DF841F2E440C1F6FF704FF22C
S32D0000EB98E811C0F201014FF000024FF0DE030AF073F807F5EE5303F10803186807F5EE5202F10C021168FEF775
S32D0000EBC01FFA03461C4641F23050C1F6FF700CF053FB034620461946FEF70AF9034607F5EE5000F1080003605B
S32D0000EBE807F5EE5101F10C010868C049FEF7FCF8034607F5EE5202F10C02136007F5EE5303F10803186807F5B2
S32D0000EC10EE5202F10C021168FEF7A6FA034607F5EE5000F10800036041F2E440C1F6FF7007F5EE5202F10802F2
S32D0000EC3811684FF048024FF0DE030AF06FF84FF001031C4607F5EE5303F108031868A849FEF770FB0346002B05
S32D0000EC6002D14FF000031C46E3B2002B07D041F2E040C1F6FF704FF00A0109F033F907F5E85202F13C0207F52D
S32D0000EC88E85303F1380341F2E440C1F6FF7011461A460AF015F90346002B00F0A2854FF0000307F5EE5000F1C0
S32D0000ECB010000360E2E007F5945303F11803A3F11C0307F5EE5101F110010A684FF0EC0101FB02F2991807F5E3
S32D0000ECD8E85303F13C031A6807F5E85000F138000368084611461A464FF000030CF050F80346002B0CBF002369
S32D0000ED000123DBB2002B00F0AD804FF0000307F5E85101F10C010B804FF0200307F5E85202F10D02137007F5D2
S32D0000ED28E25101F1180107F5EE5303F110031A6813464FEA83039B184FEA8303CB181B7807F5E85000F10C0088
S32D0000ED50037007F5EE5101F110010B68002B06D14FF0410307F5E85202F10C02137007F5EE5000F1100003688C
S32D0000ED78012B06D14FF0420307F5E85101F10C010B7041F2E440C1F6FF704FF0000109F009FF41F2E440C1F66B
S32D0000EDA0FF704FF2F811C0F201010AF081FA07F5E85303F10C0341F2E440C1F6FF7019464FF000024FF00703C3
S32D0000EDC80AF0B2F941F26C50C1F6FF704FF20C21C0F201010EF056F807F5E85303F10C0341F26C50C1F6FF70A6
S32D0000EDF019460EF04BF841F26C50C1F6FF704FF22021C0F201010EF041F807F5E85202F10C02137807F5EA52D9
S32D0000EE181046194602F078F907F5EA5207F11803A3F114031B6893420CD007F11803A3F114031B6819464FF0AB
S32D0000EE404103084611461A460EF07AFF4FF0000307F5EE5000F1170003704FF0000000F0D9FC18E007F5EE51B6
S32D0000EE6801F110010B6803F1010307F5EE5202F11002136007F5EE5000F110000368072BCCBF00230123DBB223
S32D0000EE90002B7FF410AF07F5E85101F13C010A6807F5E85000F13800036807F5D451084611461A464FF00003F1
S32D0000EEB80BF06EFF0346002B0CBF00230123DBB2002B00F08E8441F2E440C1F6FF704FF0000109F067FE07F56D
S32D0000EEE0DA5303F12C031D464FF000040DE000BF000000000000803F0000204128460BF0F9FD05F1EC0504F107
S32D0000EF08FF34B4F1FF3F0CBF00230123DBB2002BF0D107F5E65303F138034FF000021A6003F104034FF00002DF
S32D0000EF301A6003F104034FF000021A6003F104034FF000021A6003F104034FF000021A6003F104034FF2842235
S32D0000EF58C0F2010207F5E65303F1380307CA03C31A8003F102034FEA12421A7007F5E85303F103034FF00002BF
S32D0000EF801A7003F101034FF000021A7003F101034FF000021A7003F101034FF000021A7003F101034FF0000257
S32D0000EFA81A7003F101034FF000021A7003F101034FF000021A7003F101034FF000021A7003F101034FF000022F
S32D0000EFD01A7003F1010307F5DA5202F12C024FF0C90300934FF0010301934FF00103029307F5E65303F1380397
S32D0000EFF803934FF4004304934FF45743C0F2FF03059310464FF001014FF001024FF001030BF0DAFF07F5DA53F6
S32D0000F02003F12C0318460BF001FE07F5C05303F10803A3F104031A464FF4C87310464FF000011A460EF085FE49
S32D0000F04807F5C05303F10803A3F1040345F25742C0F253021A6003F104034FF000021A6003F104034FF00002AE
S32D0000F0701A6003F104034FF000021A6003F104034FF000021A6003F1040307F5C05303F10803A3F1040344F6AE
S32D0000F0985352C0F253025A6103F118034FF000021A6003F104034FF000021A6003F104034FF000021A6003F1B9
S32D0000F0C004034FF000021A6003F1040307F5C05303F10803A3F1040345F24D42C0F253029A6203F12C034FF091
S32D0000F0E800021A6003F104034FF000021A6003F104034FF000021A6003F104034FF000021A6003F1040307F565
S32D0000F110C05303F10803A3F1040345F24972C0F25302DA6303F140034FF000021A6003F104034FF000021A6046
S32D0000F13803F104034FF000021A6003F104034FF000021A6003F1040307F5C05303F10803A3F1040344F65352BA
S32D0000F160C0F24C021A6503F154034FF000021A6003F104034FF000021A6003F104034FF000021A6003F1040395
S32D0000F1884FF000021A6003F1040307F5C05303F10803A3F1040345F24D42C0F24C025A6603F168034FF00002D4
S32D0000F1B01A6003F104034FF000021A6003F104034FF000021A6003F104034FF000021A6003F1040307F5C0538B
S32D0000F1D803F10803A3F1040345F24972C0F24C029A6703F17C034FF000021A6003F104034FF000021A6003F1A4
S32D0000F20004034FF000021A6003F104034FF000021A6003F1040307F5C05303F10803A3F1040344F65352C0F233
S32D0000F2284202C3F88C2003F190034FF000021A6003F104034FF000021A6003F104034FF000021A6003F1040364
S32D0000F2504FF000021A6003F1040307F5C05303F10803A3F1040345F24D42C0F24202C3F8A02003F1A4034FF020
S32D0000F27800021A6003F104034FF000021A6003F104034FF000021A6003F104034FF000021A6003F1040307F5D3
S32D0000F2A0C05303F10803A3F1040345F24972C0F24202C3F8B42003F1B8034FF000021A6003F104034FF0000276
S32D0000F2C81A6003F104034FF000021A6003F104034FF000021A6003F1040307F5C05303F10803A3F1040344F654
S32D0000F2F05352C0F24302C3F8C82003F1CC034FF000021A6003F104034FF000021A6003F104034FF000021A60C7
S32D0000F31803F104034FF000021A6003F1040307F5C05303F10803A3F1040345F24D42C0F24302C3F8DC2003F105
S32D0000F340E0034FF000021A6003F104034FF000021A6003F104034FF000021A6003F104034FF000021A6003F1EB
S32D0000F368040307F5C05303F10803A3F1040345F24972C0F24302C3F8F02003F1F4034FF000021A6003F1040372
S32D0000F3904FF000021A6003F104034FF000021A6003F104034FF000021A6003F1040307F5C05303F10803A3F18B
S32D0000F3B8040344F65352C0F24402C3F8042103F584734FF000021A6003F104034FF000021A6003F104034FF0CF
S32D0000F3E000021A6003F104034FF000021A6003F1040307F5C05303F10803A3F1040345F24D42C0F24402C3F8B0
S32D0000F408182103F58E734FF000021A6003F104034FF000021A6003F104034FF000021A6003F104034FF0000241
S32D0000F4301A6003F1040307F5C05303F10803A3F1040345F24972C0F24402C3F82C2103F598734FF000021A60E0
S32D0000F45803F104034FF000021A6003F104034FF000021A6003F104034FF000021A6003F1040307F5C05303F166
S32D0000F4800803A3F1040344F65352C0F25202C3F8402103F5A2734FF000021A6003F104034FF000021A6003F145
S32D0000F4A804034FF000021A6003F104034FF000021A6003F1040307F5C05303F10803A3F1040345F24D42C0F2A2
S32D0000F4D05202C3F8542103F5AC734FF000021A6003F104034FF000021A6003F104034FF000021A6003F1040351
S32D0000F4F84FF000021A6003F1040307F5C05303F10803A3F1040345F25342C0F25002C3F8682103F5B6734FF013
S32D0000F52000021A6003F104034FF000021A6003F104034FF000021A6003F104034FF000021A6003F1040307F528
S32D0000F548C05303F10803A3F1040345F25202C0F25302C3F87C2103F5C0734FF000021A6003F104034FF00002DC
S32D0000F5701A6003F104034FF000021A6003F104034FF000021A6003F1040307F11803A3F10C031D464FF013041D
S32D0000F59806E028460BF0AAFA05F1EC0504F1FF34B4F1FF3F0CBF00230123DBB2002BF0D107F11803A3F10C031F
S32D0000F5C04FF0010200924FF0010201924FF00102029207F5C05202F10802A2F1040203926FF07F4204924FF46C
S32D0000F5E85742C0F2FF02059218464FF005014FF004024FF028030BF0E7FC41F26C50C1F6FF704FF22421C0F295
S32D0000F61001010DF03BFC07F5E85202F13C0207F5E85303F1380341F2E440C1F6FF7011461A4609F049FC03460E
S32D0000F638002B00F0C4804FF0000307F5EE5101F110010B60AEE007F11803A3F10C0307F5EE5000F11000026871
S32D0000F6604FF0EC0101FB02F2991807F5E85303F13C031A6807F5E85000F138000368084611461A464FF00003B4
S32D0000F6880BF086FB0346002B0CBF00230123DBB2002B7BD007F5EE5101F110010B68132B39D007F5EE5202F128
S32D0000F6B010021368DBB2184600F0ACF84FF0000307F5EE5000F11700037041F2E440C1F6FF704FF0000109F073
S32D0000F6D869FA07F5EC5303F1040318464FF0410101F012FD07F5EC5202F1040207F11803A3F114031B68934243
S32D0000F70047D007F11803A3F114031B6819464FF04103084611461A460EF012FB53E041F26C50C1F6FF704FF208
S32D0000F7283821C0F201010DF0ADFB41F2E440C1F6FF704FF0000109F035FA01E000F0C0FA07F5E85202F13C022A
S32D0000F75007F5E85303F1380341F2E440C1F6FF7011461A4609F0B0FB034683F00103DBB2002BE7D14FF00003DB
S32D0000F77807F5EE5101F117010B7041F27013C1F6FF734FF000021A7019E018E007F5EE5202F11002136803F158
S32D0000F7A0010307F5EE5000F11000036007F5EE5101F110010B68132BCCBF00230123DBB2002B7FF444AF07F5BE
S32D0000F7C8EE5202F117021378002B7FF420AF41F26C50C1F6FF704FF24821C0F201010DF051FB07F5EE5000F1E8
S32D0000F7F017000378002B7FF4D8A900BF07F11803A3F11403186807F5EC7707F5E057BD46B0BD00BF80B582B015
S32D0000F81800AF0346FB7141F27113C1F6FF73FA791A7041F29413C1F6FF731B6803F1010241F29413C1F6FF7301
S32D0000F8401A60FA7913464FEA83039B184FEA83034FF6A022C0F201029B1841F26C50C1F6FF704FF29821C0F2F3
S32D0000F86801011A460DF00EFBFA7913464FEA83039B184FEA83034FF6A022C0F201029B1841F29810C1F6FF709D
S32D0000F89019460EF064FA07F10807BD4680BD00BF80B582B000AF0346FB71FB79002B0DD041F23C10C1F6FF709D
S32D0000F8B80D4908F001FC41F29013C1F6FF730A4A1A600CE041F23C10C1F6FF70074908F0F3FB41F29013C1F6B6
S32D0000F8E0FF73044A1A6007F10807BD4680BD00BF000002430000344290B585B000AF78607868FCF7E9FE0246FC
S32D0000F9080B4641F26C50C1F6FF704FF2AC21C0F201010DF0B7FA4FF001031C4678684849FDF726FD0346002B5A
S32D0000F93002D14FF000031C46E3B2002B2CD041F25810C1F6FF7007F0ADFA0346002B06D041F22C10C1F6FF7038
S32D0000F9583C4902F081F807F04FF90346FB6000BF41F25810C1F6FF7007F098FA0346002B09D007F041F90246DF
S32D0000F980FB68D31A092B02D84FF0010301E04FF00003002BE8D142E04FF001031C4678682B49FDF7CBFC034692
S32D0000F9A8002B02D14FF000031C46E3B2002B32D041F25C10C1F6FF7007F070FA0346002B06D041F22C10C1F637
S32D0000F9D0FF701E4902F044F841F22C10C1F6FF701C4902F03DF807F00BF90346BB6000BF41F25C10C1F6FF7001
S32D0000F9F807F054FA0346002B09D007F0FDF80246BB68D31A092B02D84FF0010301E04FF00003002BE8D141F280
S32D0000FA206C50C1F6FF704FF2D021C0F201010DF02DFA41F22C10C1F6FF70074902F010F807F11407BD4690BD8A
S32D0000FA480000BE42000020420000A040000020C2000000000000000090B583B000AF41F26010C1F6FF7007F085
S32D0000FA70AFFE03464FF00102144618462449FDF77BFC0346002B02D14FF000031C46E3B2002B03D04FF00003E0
S32D0000FA987B6025E041F26010C1F6FF7007F094FE03461846FCF714FE02460B464FF001010C461046194612A3CC
S32D0000FAC0D3E90023FDF7ECF80346002B02D14FF000031C46E3B2002B03D04FF0FF037B6002E04FF47F037B6045
S32D0000FAE841F2E440C1F6FF70796809F05BF87B68184607F10C07BD4690BD00BFAFF30080333333333333F33F65
S32D0000FB1000000040AFF3008080B582B000AF4FF00103FB7141F25010C1F6FF7007F0BAF9034683F00103DBB2F0
S32D0000FB38002B11D041F2E440C1F6FF704FF2E421C0F201014FF000024FF0000309F0ECFA4FF00003FB710DE01F
S32D0000FB6041F2E440C1F6FF704FF2FC21C0F201014FF000024FF0000309F0DAFA41F25410C1F6FF7007F08EF95D
S32D0000FB88034683F00103DBB2002B11D041F2E440C1F6FF704FF21431C0F201014FF001024FF0000309F0C0FA08
S32D0000FBB04FF00003FB710DE041F2E440C1F6FF704FF2FC21C0F201014FF001024FF0000309F0AEFA41F248104D
S32D0000FBD8C1F6FF7007F062F9034683F00103DBB2002B11D041F2E440C1F6FF704FF2E421C0F201014FF0020274
S32D0000FC004FF0000309F094FA4FF00003FB710DE041F2E440C1F6FF704FF2FC21C0F201014FF002024FF000035E
S32D0000FC2809F082FA41F24C10C1F6FF7007F036F9034683F00103DBB2002B11D041F2E440C1F6FF704FF2E42142
S32D0000FC50C0F201014FF003024FF0000309F068FA4FF00003FB710DE041F2E440C1F6FF704FF2FC21C0F20101C7
S32D0000FC784FF003024FF0000309F056FAFFF7ECFE0346002B0CBF00230123DBB2002B10D041F2E440C1F6FF7014
S32D0000FCA04FF22C31C0F201014FF004024FF0000309F03EFA4FF00003FB71FB79184607F10807BD4680BD00BFA6
S32D0000FCC880B500AF41F25010C1F6FF7007F0E6F8034683F00103DBB2002B0AD041F2E440C1F6FF704EF6906198
S32D0000FCF0C0F2900108F0B8FF09E041F2E440C1F6FF704AF6A911C0F2A90108F0ADFF41F2E440C1F6FF704FF0D8
S32D0000FD180F014FF0DC024FF00A030AF0E5F841F25410C1F6FF7007F0B9F8034683F00103DBB2002B0AD041F283
S32D0000FD40E440C1F6FF704EF69061C0F2900108F08BFF09E041F2E440C1F6FF704AF6A911C0F2A90108F080FF1E
S32D0000FD6841F2E440C1F6FF7040F231114FF0DC024FF00A030AF0B8F841F24810C1F6FF7007F08CF8034683F081
S32D0000FD900103DBB2002B0AD041F2E440C1F6FF704EF69061C0F2900108F05EFF09E041F2E440C1F6FF704AF6BF
S32D0000FDB8A911C0F2A90108F053FF41F2E440C1F6FF704FF00F014FF00A024FF00A030AF08BF841F24C10C1F697
S32D0000FDE0FF7007F05FF8034683F00103DBB2002B0AD041F2E440C1F6FF704EF69061C0F2900108F031FF09E0E0
S32D0000FE0841F2E440C1F6FF704AF6A911C0F2A90108F026FF41F2E440C1F6FF7040F231114FF00A024FF00A0354
S32D0000FE300AF05EF841F2E440C1F6FF706FF07F4108F012FF41F2E440C1F6FF704FF24431C0F201014FF0030284
S32D0000FE584FF0000309F068F941F2E440C1F6FF704FF26031C0F201014FF004024FF0000309F05AF941F24C503B
S32D0000FE80C1F6FF700CF0EAFD03461846FDF77EFA034641F2E440C1F6FF7019464FF003024FF0070309F064F930
S32D0000FEA841F24C50C1F6FF700CF0E4FD03461846FDF768FA034641F2E440C1F6FF7019464FF003024FF00D03A5
S32D0000FED009F04EF941F24C50C1F6FF700CF0DEFD03461846FDF752FA034641F2E440C1F6FF7019464FF00302A8
S32D0000FEF84FF0150309F038F941F2E440C1F6FF704FF27C31C0F201014FF005024FF0000309F00AF941F28413EE
S32D0000FF20C1F6FF731B6841F2E440C1F6FF7019464FF005024FF0050309F03AF941F23410C1F6FF7007F00AFCD8
S32D0000FF48034641F2E440C1F6FF7019464FF005024FF0120309F008F941F2E440C1F6FF704FF29031C0F201019F
S32D0000FF704FF006024FF0000309F0DAF841F28813C1F6FF731B6841F2E440C1F6FF7019464FF006024FF005032B
S32D0000FF9809F00AF941F23810C1F6FF7007F0DAFB034641F2E440C1F6FF7019464FF006024FF0120309F0D8F849
S32D0000FFC041F2E440C1F6FF704FF2A431C0F201014FF007024FF0000309F0AAF841F28C13C1F6FF731B6841F2F6
S32D0000FFE8E440C1F6FF7019464FF007024FF0060309F0DAF841F2E440C1F6FF704FF2B831C0F201014FF0080243
S32D000100104FF0000309F08CF841F29013C1F6FF731B6841F2E440C1F6FF7019464FF008024FF0060309F0BCF866
S32D0001003841F2E440C1F6FF704FF2CC31C0F201014FF009024FF0000309F06EF841F2E440C1F6FF7041F29811E6
S32D00010060C1F6FF714FF009024FF0050309F060F880BD00BF00000000F8B500AF41F23410C1F6FF7007F06AFB17
S32D00010088044600F0E9FF0346E41841F23810C1F6FF7007F05FFB0346E41800F085FF0346E2184DF24F13C1F69C
S32D000100B0C21383FB02134FEAA3114FEAE273CB1A1846FCF7F7FA02460B461046194616A3D3E90023FCF754FBEF
S32D000100D802460B4614461D4641F27413C1F6FF731B681846FCF7F4FA02460B46104619460DA3D3E90023FCF72E
S32D000101003FFB02460B464FF001010E4620462946FCF7C6FD0346002B02D14FF000031E46F3B21846F8BD00BF79
S32D000101285E3855297A6A1F40666666666666EE3F80B586B000AF7860396041F28413C1F6FF731B687868194680
S32D00010150FCF74CFE034618463B49FDF705F803463B6141F28813C1F6FF731B6838681946FCF73CFE03461846F5
S32D000101783349FCF7F5FF0346FB604FF000037B6142E041F28413C1F6FF731B6818463969FCF72AFE03461A46D7
S32D000101A041F28413C1F6FF731A6041F28813C1F6FF731B681846F968FCF71AFE03461A4641F28813C1F6FF73DF
S32D000101C81A6041F28413C1F6FF731B6883F0004341F22410C1F6FF70194601F03DFC41F28813C1F6FF731B68D2
S32D000101F041F21C10C1F6FF70194601F031FC10A1D1E9000106F0D0FC7B6903F101037B617B69092BCCBF002332
S32D000102180123DBB2002BB4D141F28413C1F6FF737A681A6041F28813C1F6FF733A681A6007F11807BD4680BD9D
S32D000102407B14AE47E17A843F00002041AFF3008080B582B000AF786078687968FFF76CFF41F28013C1F6FF736B
S32D000102684FF001021A7007F10807BD4680BD00BFB0B584B002AF7860396041F23410C1F6FF7007F07BFA41F29E
S32D000102903810C1F6FF7007F075FA38681749FCF7AFFE03461A4641F27413C1F6FF731A607868FFF7CDFF41F2F0
S32D000102B88013C1F6FF734FF001021A707868FCF707FA04460D463868FCF702FA02460B46CDE9002341F26C502E
S32D000102E0C1F6FF704FF2E031C0F2010122462B460CF0CCFD07F10807BD46B0BD0000C03F80B584B000AF03464E
S32D00010308FB714FF00003FB73FB79002B02D0012B7ED0FAE041F24810C1F6FF7006F0BEFD034683F00103DBB236
S32D00010330002B0ED041F24C10C1F6FF7006F0B2FD034683F00103DBB2002B02D04FF0010301E04FF00003FB731D
S32D0001035841F24810C1F6FF7006F0A0FD034683F00103DBB2002B0ED041F28813C1F6FF731B6818466F49FCF759
S32D00010380D3FF0346002B02D14FF0010301E04FF00003002B0FD041F26C50C1F6FF704FF20841C0F201010CF076
S32D000103A871FD41F21C10C1F6FF7001F005FB41F24C10C1F6FF7006F071FD034683F00103DBB2002B0ED041F2A0
S32D000103D08413C1F6FF731B6818465849FCF7A4FF0346002B02D14FF0010301E04FF00003002B00F0998041F212
S32D000103F86C50C1F6FF704FF25441C0F201010CF041FD41F22410C1F6FF7001F0D5FA87E041F25010C1F6FF70C3
S32D0001042006F040FD034683F00103DBB2002B0ED041F25410C1F6FF7006F034FD034683F00103DBB2002B02D0F6
S32D000104484FF0010301E04FF00003FB7341F25010C1F6FF7006F022FD034683F00103DBB2002B0ED041F28813BF
S32D00010470C1F6FF731B6818463049FCF755FF0346002B02D14FF0010301E04FF00003002B0FD041F26C50C1F636
S32D00010498FF704FF2A041C0F201010CF0F3FC41F21C10C1F6FF7001F087FA41F25410C1F6FF7006F0F3FC034623
S32D000104C083F00103DBB2002B0ED041F28413C1F6FF731B6818461949FCF726FF0346002B02D14FF0010301E047
S32D000104E84FF00003002B1DD041F26C50C1F6FF704FF2EC41C0F201010CF0C4FC41F22410C1F6FF7001F058FAC8
S32D000105100CE041F26C50C1F6FF704FF23C51C0F201010CF0B3FC02E000BF00E000BFFB7B184607F11007BD4668
S32D0001053880BD00BF0000000090B587B002AF03463960FB71FB79002B02D04FF0010301E04FF0FF33FB60FB7948
S32D00010560002B02D04FF0FF3301E04FF00103BB60F868FCF7F1FC034618463968FCF740FD03461C46B868FCF749
S32D00010588E7FC034618463968FCF736FD034620461946FFF7CDFD41F28013C1F6FF734FF000021A70FB79002BCC
S32D000105B004D04FF27C54C0F2010403E04FF28454C0F201043868FCF787F802460B46CDE9002341F26C50C1F6A3
S32D000105D8FF704FF28C51C0F2010122460CF052FC07F11407BD4690BD2DE9F04387B000AF0346B9607A60FB73C5
S32D0001060041F23810C1F6FF7007F0BCF841F23410C1F6FF7007F0B6F8434B7B61B868FCF75BF802460B4641F2A1
S32D000106286C50C1F6FF704FF2A451C0F201010CF029FCFB7B18467968FFF77EFF00BF41F23810C1F6FF7007F037
S32D0001065085F8044641F23410C1F6FF7007F07EF80346E41800F0A4FC0346E3184FEAD372D3184FEA630318462B
S32D00010678FCF71CF802460B461046194622A3D3E90023FCF779F802460B4614461D46B868FCF71EF802460B46DE
S32D000106A0104619461CA3D3E90023FCF769F802460B46104619461AA3D3E90023FCF78AF902460B4690469946D6
S32D000106C87869FCF705F802460B4640464946FCF753F802460B464FF001010E4620462946FCF7BCFA0346002B26
S32D000106F002D14FF000031E46F3B2002BA3D10B48FFF7A6FD07F11C07BD46BDE8F08300BF2005C771724A993F4C
S32D00010718182D4454FB21094000000000008066400000904000000000B0B588B002AF786041F24C50C1F6FF705F
S32D000107400CF0ACF903467B6178697968FCF74EFB0346FB6078687969FCF748FB0346BB601FE041F2E040C1F6BD
S32D00010768FF704FF0050107F0B9FB41F24C50C1F6FF700CF08FF903467B6141F26C50C1F6FF704FF2C051C0F24C
S32D0001079001010CF07BFB4FF00000B949B94AFFF727FF4FF001031C467869B749FCF7C6FD0346002B02D14FF0A4
S32D000107B800031C46E3B2002BCFD17869FBF788FF04460D467868FBF783FF02460B46CDE9002341F26C50C1F6EA
S32D000107E0FF704FF2EC51C0F2010122462B460CF04DFB4FF001031C46F868A349FCF7BCFD0346002B02D14FF009
S32D0001080800031C46E3B2002B01D0FB6812E0F868FBF75EFF02460B461046194694A3D3E90023FBF7F7FD024635
S32D000108300B4610461946FCF785FA0346FB604FF001031C46B8689049FCF796FD0346002B02D14FF000031C466E
S32D00010858E3B2002B01D0BB6812E0B868FBF738FF02460B461046194681A3D3E90023FBF7D1FD02460B46104682
S32D000108801946FCF75FFA0346BB604FF001031C46B868F968FCF752FD0346002B02D14FF000031C46E3B2002B27
S32D000108A803D04FF00103FB7402E04FF00003FB74FB7C002B01D0BB6800E0FB68FA7C10461946704AFFF790FEC7
S32D000108D041F26C50C1F6FF704FF21461C0F201010CF0D4FAE5E041F24C50C1F6FF700CF0D5F803464FF00102A2
S32D000108F8144618466249FCF731FD0346002B02D14FF000031C46E3B2002B12D041F26C50C1F6FF704FF23061D9
S32D00010920C0F201010CF0B2FA41F24C50C1F6FF700CF0B4F803467B6109E041F26C50C1F6FF704FF24461C0F2F4
S32D0001094801010CF09FFAFFF7BBF978697968FCF749FA03461846FCF74FFD03461846FBF7B7FE04460D46786995
S32D00010970FBF7B2FE02460B46CDE9002341F26C50C1F6FF704FF25861C0F2010122462B460CF07CFA7869796874
S32D00010998FCF728FA0346FB6078687969FCF722FA0346BB604FF001031C46F8683449FCF7DFFC0346002B02D1AB
S32D000109C04FF000031C46E3B2002B01D0FB6812E0F868FBF781FE02460B461046194626A3D3E90023FBF71AFDAE
S32D000109E802460B4610461946FCF7A8F90346FB604FF001031C46B8682149FCF7B9FC0346002B02D14FF00003FA
S32D00010A101C46E3B2002B01D0BB6812E0B868FBF75BFE02460B461046194613A3D3E90023FBF7F4FC02460B46E6
S32D00010A3810461946FCF782F90346BB604FF001031C46B868F968FCF775FC0346002B02D14FF000031C46E3B2FE
S32D00010A60002B17D04FF00103FB7478690849FCF7BFF903467B6116E00000000000807640000000400000704184
S32D00010A88000000000000C8410000803F4FF00003FB7478692249FCF7A5F903467B61FB7C18462049204AFFF726
S32D00010AB09FFD41F24C50C1F6FF700BF0EFFF034618467968FCF792F903461846FCF798FC03464FF00102144684
S32D00010AD818461649FCF74CFC0346002B02D14FF000031C46E3B2002B7FF4F9AE41F24C50C1F6FF700BF0CEFF75
S32D00010B0003461846FBF7E8FD02460B4641F26C50C1F6FF704FF27061C0F201010CF0B6F907F11807BD46B0BDA2
S32D00010B280000803F00000040000070410000C03F2DE9B04F90B008AF07F1080383E8030041F24C50C1F6FF707D
S32D00010B500BF084FF0346FB6141F24C50C1F6FF700BF08CFF0346BB610FE041F2E040C1F6FF704FF0050107F0CF
S32D00010B78B5F941F24C50C1F6FF700BF06BFF0346FB614FF001031C46F869A949FCF7D2FB0346002B02D14FF063
S32D00010BA000031C46E3B2002BDFD141F24C50C1F6FF700BF053FF0346FB6141F24C50C1F6FF700BF05BFF0346D7
S32D00010BC8BB61BB681846F969FCF70CF9034618464FF00201FCF7FCFB0446FB681846B969FCF700F90346184674
S32D00010BF04FF00201FCF7F0FB034620461946FCF7F7F8034618460CF00BFA024641F27413C1F6FF731A60FB6816
S32D00010C181846B969FCF7E6F803461C46BB681846F969FCF7DFF80346204619460CF0F0F903461846FBF74CFD2F
S32D00010C4002460B461046194677A3D3E90023FBF797FD02460B4610461946FCF773F803467B61F869FBF738FD5F
S32D00010C6804460D46B869FBF733FDC7E90001BB681846FBF72DFD82468B46FB681846FBF727FD80468946786949
S32D00010C90FBF722FD02460B46D7E90001CDE90001CDE902ABCDE90489CDE9062341F26C50C1F6FF704FF2946143
S32D00010CB8C0F2010122462B460CF0E4F84FF001031C4678695A49FCF753FB0346002B02D14FF000031C46E3B2BE
S32D00010CE0002B01D07B6912E07869FBF7F5FC02460B46104619464EA3D3E90023FBF78EFB02460B461046194668
S32D00010D08FCF71CF803467B6178694949FCF76CF803467B614FF001031C4678694549FCF727FB0346002B02D131
S32D00010D304FF000031C46E3B2002B05D078693F49FCF754F8034600E07B697B617869FFF7EFFC41F24C50C1F682
S32D00010D58FF700BF07FFE0346FB6141F24C50C1F6FF700BF087FE0346BB61BB681846F969FCF738F80346184659
S32D00010D804FF00201FCF728FB0446FB681846B969FCF72CF8034618464FF00201FCF71CFB034620461946FCF7B4
S32D00010DA823F8034618460CF037F9024641F27413C1F6FF731A6041F27413C1F6FF731B681846FBF785FC02460A
S32D00010DD00B4641F26C50C1F6FF704FF2CC61C0F201010CF053F841F23410C1F6FF7006F0C9FC41F23810C1F69B
S32D00010DF8FF7006F0C3FC41F27813C1F6FF7307F1080292E8030083E803000B48FFF71CFA07F12007BD46BDE8AE
S32D00010E20B08F00BFAFF30080F8C1631ADCA54C400000000000807640000000000000B44300000C42AFF30080A3
S32D00010E4880B400AFBD4680BC704700BF90B589B000AF78604E4BBB6141F23410C1F6FF7006F08CFC41F2381093
S32D00010E70C1F6FF7006F086FC41F27413C1F6FF737A681A6005F0BCFE03467B6166E041F26410C1F6FF7006F099
S32D00010E989BFC03463B6141F26810C1F6FF7006F093FC0346FB6041F26C10C1F6FF7006F08BFC0346BB604FF0C0
S32D00010EC001031C46F8683449FCF756FA0346002B02D14FF000031C46E3B2002B02D04FF00003FB774FF0010309
S32D00010EE81C4638692A49FCF743FA0346002B02D14FF000031C46E3B2002B02D04FF00203FB774FF001031C465D
S32D00010F10B8682149FCF730FA0346002B02D14FF000031C46E3B2002B02D04FF00103FB77FB7F012B0CD0022B2A
S32D00010F3805D0002B0DD11748FFF786F90AE016481649FFF7F5F805E014481349FFF7F0F800E000BFFFF78CF8BA
S32D00010F60034683F00103DBB2002B09D005F048FE02467B69D31A042B02D84FF0010301E04FF00003002B82D1D0
S32D00010F880748FFF761F907F12407BD4690BD00BF0000C03F0000A04100002040000020410000000000000000C8
S32D00010FB0B0B582B000AF41F28813C1F6FF731B681846FCF71DFA03467B607868FBF784FB02460B461046194627
S32D00010FD81DA3D3E90023FBF7CFFB02460B4614461D467868FBF774FB02460B4620462946FBF7C2FB02460B4642
S32D0001100014461D467868FBF767FB02460B4620462946FBF703FA02460B46104619460EA3D3E90023FBF7F8F9B2
S32D0001102802460B4610461946FBF740FE03463B603B6823EAE3733B603B68184607F10807BD46B0BDAFF30080FC
S32D00011050F5D896016729793F75931804560E0640B0B582B000AF41F28413C1F6FF731B681846FCF7C5F90346E3
S32D000110787B607868FBF72CFB02460B46104619461DA3D3E90023FBF777FB02460B4614461D467868FBF71CFBE5
S32D000110A002460B4620462946FBF76AFB02460B4614461D467868FBF70FFB02460B4620462946FBF7ABF90246DE
S32D000110C80B46104619460EA3D3E90023FBF7A0F902460B4610461946FBF7E8FD03463B603B6823EAE3733B602E
S32D000110F03B68184607F10807BD46B0BDAFF30080F5D896016729793F75931804560E064080B592B000AF7860BF
S32D000111180B46FB707B68184600F016F97B6803F10803184600F010F97B6803F11003184600F00AF97B6803F161
S32D000111401803184600F004F97B6803F12003184600F0FEF87B6803F12803184600F0F8F87B6803F13003184634
S32D0001116800F0F2F87B6803F13803184600F0ECF87B68FA7883F8402007F1080318464049404A00F0CDF87B68FE
S32D0001119007F1080292E8030083E8030007F1100318463B493B4A00F0BFF87B6803F1080307F1100292E80300C1
S32D000111B883E8030007F1180318463549354A00F0AFF87B6803F1100307F1180292E8030083E8030007F1200393
S32D000111E018462F492F4A00F09FF87B6803F1180307F1200292E8030083E8030007F1280318462349284A00F0C4
S32D000112088FF87B6803F1200307F1280292E8030083E8030007F1300318462249224A00F07FF87B6803F1280360
S32D0001123007F1300292E8030083E8030007F13803184612491B4A00F06FF87B6803F1300307F1380292E8030019
S32D0001125883E8030007F1400318460A490B4A00F05FF87B6803F1380307F1400292E8030083E803007B681846F9
S32D0001128007F14807BD4680BD0000EC410000984100004041000034420000C8410000584200009C41CDCC56420A
S32D000112A8000078410000C0400000D8410000A04180B582B000AF78607B68184600F044F87B6803F108031846C9
S32D000112D000F03EF87B6803F11003184600F038F87B6803F11803184600F032F87B6803F12003184600F02CF88B
S32D000112F87B6803F12803184600F026F87B6803F13003184600F020F87B6803F13803184600F01AF87B68184636
S32D0001132007F10807BD4680BD80B485B000AFF860B9607A60FB68BA681A60FB687A685A60FB68184607F1140722
S32D00011348BD4680BC704700BF80B483B000AF78607B68184607F10C07BD4680BC704700BF80B582B000AF7860E4
S32D0001137039607B68012B40F095803A684FF6FF739A4240F08F8041F21C10C1F6FF704FF00001464A00F0BCFAF2
S32D0001139841F22410C1F6FF704FF00101414A00F0B3FA41F22C10C1F6FF704FF002013E4A00F0AAFA41F23410C6
S32D000113C0C1F6FF704FF0060105F010FE41F23810C1F6FF704FF0070105F008FE41F23C10C1F6FF704FF00001C7
S32D000113E806F00EFE41F24810C1F6FF704FF01F0105F030FC41F24C10C1F6FF704FF0000105F028FC41F2501002
S32D00011410C1F6FF704FF01E0105F020FC41F25410C1F6FF704FF0010105F018FC41F25810C1F6FF704FF0080108
S32D0001143805F010FC41F25C10C1F6FF704FF0090105F008FC41F26010C1F6FF704FF00F0106F0A8F941F2641027
S32D00011460C1F6FF704FF0130106F0A0F941F26810C1F6FF704FF0110106F098F941F26C10C1F6FF704FF0100187
S32D0001148806F090F941F27810C1F6FF70FFF75CFF41F2AC10C1F6FF70FFF70AFF07F10807BD4680BD00004041A8
S32D000114B00000A04080B500AF4FF001004FF6FF71FFF752FF80BD00BF80B500AF41F6EC12C1F6FF7241F21C136E
S32D000114D8C1F6FF73D31A194641F21C13C1F6FF731A460B4610464FF000011A460CF02DFC80BD00BF0DF0A2FC82
S32D0001150000F0B0F9FFF7E0FF0DF074FC0DF010FC0DF0A8FC00F00CF84FF0000041F2F411C1F6FF71FBF77CFF38
S32D00011528034618460CF0ECFB80B500AF4FF4E043C4F204034FF4E042C4F2040202F5805202F13802126842F43C
S32D00011550785203F5805303F138031A6000F02EF900F094F841F23043C1F6FF734FF058021A6041F23043C1F65C
S32D00011578FF731B684FF47A7202FB03F241F22C43C1F6FF731A6041F22C43C1F6FF731B681A464FF4E043C4F21F
S32D000115A0040303F5825303F104031B6803F070634FEA136303F10103B2FBF3F31A4641F23443C1F6FF731A601D
S32D000115C84FF4E043C4F204034FF4E042C4F2040202F5805202F13C02126842F0225203F5805303F13C031A601E
S32D000115F04FF4E043C4F204034FF4E042C4F2040202F5805202F13002126842F0006203F5805303F130031A6020
S32D000116184FF45043C4F203034FF480721A614FF0640005F037F94FF45043C4F203034FF45042C4F203025269BC
S32D0001164022F010025A614FF45043C4F203034FF000021A604FF45043C4F203034FF010025A6106F0E7F906F0E5
S32D000116688FFA41F22840C1F6FF7005F097F941F2E440C1F6FF7007F0E3F841F2883005F075FA80BD80B400AFC6
S32D000116904FF48043C4F206034FF000025A704FF48043C4F206034FF098021A704FF48043C4F206039B79DBB2CD
S32D000116B803F01003002B0CBF00230123DBB2002BF0D14FF48043C4F206039B79DBB203F00C034FEA9303022BE3
S32D000116E00CBF00230123DBB2002BEED14FF48043C4F206034FF018021A714FF48043C4F206034FF000025A71D8
S32D000117084FF4E043C4F2040303F5825303F104034FF00002C0F213121A604FF48043C4F206034FF054025A7110
S32D0001173000BF4FF48043C4F206039B79DBB203F02003002B14BF00230123DBB2002BF0D100BF4FF48043C4F216
S32D0001175806039B79DBB203F04003002B14BF00230123DBB2002BF0D14FF48043C4F206034FF48042C4F206023C
S32D000117801278D2B202F03F02D2B21A704FF48043C4F206039B79DBB203F00C034FEA9303032B0CBF0023012374
S32D000117A8DBB2002BEED14FF000031846BD4680BC704700BF80B400AF4FF44043C4F204034FF480725A634FF2AD
S32D000117D0C003C4F20F034FF2C002C4F20F02526942F400525A614FF2C003C4F20F034FF2C002C4F20F02126887
S32D000117F842F400521A604FF44043C4F2040340F20312C0F20A021A634FF46143CEF200034FF46142CEF2000269
S32D00011820D2F8882142F08062C3F888214FF46143CEF200034FF46142CEF20002926842F080629A60BD4680BC15
S32D00011848704700BF80B483B000AF7860FEE700BF80B400AF00BEBD4680BC704780B400AF4FF0E0224CF200036D
S32D00011870C0F20003C2F8083D4FF40053C4F205034CF22052DA814FF40053C4F205034DF62812DA814FF4005374
S32D00011898C4F205034FF0D2021A80BD4680BC704780B500AF4FF44043C4F20403D3F8A03003F48053002B0CBFFE
S32D000118C000230123DBB2002B1FD04FF44043C4F204034FF44042C4F20402D2F8A02022F48052C3F8A02041F2E7
S32D000118E86C50C1F6FF700BF0B1FA4FF2C003C4F20F034FF2C002C4F20F02126822F400521A6080BD000000001A
S32D0001191090B585B000AFF8600B467A60FB72FB68FA7A1A71FB684FF000025A714FF001031C4678682049FBF7DE
S32D000119381FFD0346002B02D14FF000031C46E3B2002B02D01A4B7B6011E04FF001031C4678681849FBF7F8FCEA
S32D000119600346002B02D14FF000031C46E3B2002B01D0124B7B607868FAF7AEFE02460B46104619460AA3D3E970
S32D000119880023FAF7F9FE02460B4610461946FBF7D5F90246FB681A60FB68184607F11407BD4690BDAFF30080AC
S32D000119B0ABAAAAAAAAAA2040000040410000803F80B582B000AF78607B685B79002B10D07B684FF000025A71CC
S32D000119D87B681B7941F22840C1F6FF7019464FF000024FF01E0305F023F807F10807BD4680BD00BF80B584B029
S32D00011A0000AF786039603B687F2B03DD4FF07F03FB7309E03B6813F1800F03DA4FF08003FB7301E03B68FB731D
S32D00011A287B685B79FA7B9A420FD07B68FA7B5A717B681A79FB7B41F22840C1F6FF7011461A464FF01E0304F0CD
S32D00011A50F3FF07F11007BD4680BD00BF00000000B0B584B000AF786039604FF001031C4638684D49FBF762FC83
S32D00011A780346002B02D14FF000031C46E3B2002B02D0474B3B6011E04FF001031C4638684449FBF76DFC03462E
S32D00011AA0002B02D14FF000031C46E3B2002B01D03E4B3B603868FAF70FFE04460D467B681B681846FAF708FECA
S32D00011AC802460B46104619464FF000024FF0804303F5B203FAF77AFF02460B4620462946FAF74AFE02460B4607
S32D00011AF010461946FBF726F903463B604FF001031C4638682A49FBF72DFC0346002B02D14FF000031C46E3B2CA
S32D00011B18002B14D03868FAF7DBFD02460B46104619461DA3D3E90023FAF726FE02460B4610461946FBF7BAF832
S32D00011B400346FB6022E03868FAF7C6FD02460B46104619464FF000024FF0804303F5C003FAF70EFE02460B469A
S32D00011B68104619464FF000024FF0804303F5B203FAF72CFF02460B4610461946FBF796F80346FB607868F968DA
S32D00011B90FFF734FF07F11007BD46B0BDAFF3008052B81E85EB51F43F0000C8C20000C84200000000AFF300808A
S32D00011BB880B485B000AF02460B46FA71BB71BB79002B07D141F2F813C1F6FF734FF000021A7006E041F2F81329
S32D00011BE0C1F6FF734FF001021A704FF03803FB7341F2F813C1F6FF731A78FB7B1343FB734FF4C043C4F20603C1
S32D00011C084FF4C042C4F206029278D2B242F01002D2B29A704FF4C043C4F206034FF4C042C4F206029278D2B2B4
S32D00011C3042F02002D2B29A704FF4C043C4F20603FA7B1A7107F11407BD4680BC704700BF80B483B000AF4FF081
S32D00011C5801037B6004E000BF7B6803F101037B607B68312BCCBF00230123DBB2002BF2D107F10C07BD4680BC4F
S32D00011C80704700BF80B582B000AF02460B46FA71BB7141F2F913C1F6FF731B7818464FF00001FFF789FF4FF41F
S32D00011CA8C043C4F20603DB78DBB203F00203002B14BF00230123DBB2002BF0D14FF4C043C4F206034FF4C0426B
S32D00011CD0C4F20602D278D2B242F00202D2B2DA704FF4C043C4F20603FA791A714FF4C043C4F20603DB78DBB26D
S32D00011CF803F00203002B14BF00230123DBB2002BF0D14FF4C043C4F206034FF4C042C4F20602D278D2B242F0FF
S32D00011D200202D2B2DA704FF4C043C4F20603BA791A714FF4C043C4F20603DB78DBB203F00203002B14BF002301
S32D00011D480123DBB2002BF0D14FF4C043C4F206034FF4C042C4F20602D278D2B242F00202D2B2DA704FF4C043AF
S32D00011D70C4F206034FF4C042C4F206029278D2B222F02002D2B29A704FF4C043C4F206034FF4C042C4F206022A
S32D00011D989278D2B222F01002D2B29A70FFF754FF07F10807BD4680BD80B582B000AF0346FB71FB79184600F0BF
S32D00011DC06BF807F10807BD4680BD00BF80B582B000AF02460B46FA71BB7100F039F8FB794FEA4303DBB2184646
S32D00011DE8FFF7E2FFBB791846FFF7DEFF00F03EF807F10807BD4680BD80B500AF4FF0FF0000F046F8034618462C
S32D00011E1080BD00BF80B584B000AF0346FB7100F017F8FB794FEA4303DBB243F00103DBB2DBB21846FFF7BCFFFB
S32D00011E38FFF7E2FF0346FB7300F018F8FB7B184607F11007BD4680BD80B400AF4FF24003C4F20F034FF2400218
S32D00011E60C4F20F02926842F480129A60BD4680BC704700BF80B400AF4FF24003C4F20F034FF24002C4F20F02A2
S32D00011E88526842F480125A60BD4680BC704700BF80B485B000AF0346FB714FF00003BB7303E0FB7B03F10103AC
S32D00011EB0FB734FF44043C4F20A03DB6A4FF00003002BF2D14FF44043C4F20A034FF44042C4F20A02D26A42F019
S32D00011ED80042DA624FF44043C4F20A03FA795A6300BF4FF44043C4F20A03DB6A03F40033002B14BF00230123A8
S32D00011F00DBB2002BF1D14FF44043C4F20A039B6BBB73BB7B184607F11407BD4680BC704780B582B000AF4FF485
S32D00011F28E043C4F204034FF4E042C4F2040202F5805202F13002126842F4805203F5805303F130031A604FF46A
S32D00011F502043C4F204034FF480721A654FF24003C4F20F034FF24002C4F20F02526942F480125A61FFF77EFF47
S32D00011F784FF42043C4F204034FF400725A654FF42043C4F204034FF400729A654FF42043C4F204034FF4007234
S32D00011FA0DA654FF44043C4F20A034FF44062C8F200021A604FF44043C4F20A034FF00502C3F60062DA604FF0CC
S32D00011FC800037B6007E04FF0FF00FFF7EDFE7B6803F101037B607B68092BCCBF00230123DBB2002BEFD104A14A
S32D00011FF0D1E9000104F0D8FD07F10807BD4680BD9A9999999999B93F90B486B000AFF860B9607A60FA684FF44F
S32D000120182043C4F206039A4214D14FF4E043C4F204034FF4E042C4F2040202F5805202F13402126842F48062EE
S32D0001204003F5805303F134031A6083E0FA684FF43043C4F206039A4214D14FF4E043C4F204034FF4E042C4F2C8
S32D00012068040202F5805202F13402126842F4006203F5805303F134031A6067E0FA684FF44043C4F206039A42C5
S32D0001209014D14FF4E043C4F204034FF4E042C4F2040202F5805202F13402126842F4805203F5805303F134038E
S32D000120B81A604BE0FA684FF45043C4F206039A4214D14FF4E043C4F204034FF4E042C4F2040202F5805202F19C
S32D000120E03402126842F4005203F5805303F134031A602FE0FA684FF42043C4F20E039A4214D14FF4E043C4F26E
S32D0001210804034FF4E042C4F2040202F5805202F12802126842F4806203F5805303F128031A6013E04FF4E0434B
S32D00012130C4F204034FF4E042C4F2040202F5805202F12802126842F4006203F5805303F128031A60FB68DB7890
S32D00012158DBB223F00C03DAB2FB68DA70FB684FF000029A70BB684FF47A7202FB03F27B684FEA031392FBF3F3D9
S32D000121809CB2FB681B78DBB223F01F03FB75234603F4F8534FEA2323DBB203F01F03DAB2FB7D1343DAB2FB68A5
S32D000121A81A70E2B2FB685A70BB684FF4FA4202FB03F27B684FEA031392FBF3F39AB2234619464FEAC121CB1A70
S32D000121D04FEA43139BB2D3189CB2FB689B7ADBB223F01F03FB75E3B203F01F03DAB2FB7D1343DAB2FB689A7222
S32D000121F8FB68DB78DBB243F00C03DAB2FB68DA7007F11807BD4690BC704700BF80B483B000AF786000BF7B688E
S32D000122201B79DBB203F02003002B14BF00230123DBB2002BF3D17B68DB79DBB2184607F10C07BD4680BC704774
S32D0001224880B483B000AF78600B46FB7000BF7B681B79DBB2DBB26FEA0303DBB24FEAD313DBB2002BF3D17B6803
S32D00012270FA78DA7107F10C07BD4680BC704700BF80B487B000AFF860B9607A60FB687B61BB683B610BE03B69D0
S32D000122981A787B691A707B6903F101037B613B6903F101033B617B68002B0CBF00230123DBB27A6802F1FF3274
S32D000122C07A60002BE7D107F11C07BD4680BC704780B487B000AFF860B9607A60FB687B6107E0BB68DAB27B6903
S32D000122E81A707B6903F101037B617B68002B0CBF00230123DBB27A6802F1FF327A60002BEBD107F11C07BD46F3
S32D0001231080BC704780B489B000AFF860B9607A60FB68FB61BB68BB614FF000037B617B68002B0CBF0023012308
S32D00012338DBB27A6802F1FF327A60002B19D0FB691B781A46BB691B78D31A7B617B69002B14BF00230123DBB268
S32D00012360FA6902F10102FA61BA6902F10102BA61002B02D04FF0010301E04FF00003002BD5D17B69184607F1F8
S32D000123882407BD4680BC704780B483B000AF7860396003E07B6803F101037B607B681B78002B08D07B681B78F6
S32D000123B01A463B689A4202D04FF0010301E04FF00003002BEAD17B681B78184607F10C07BD4680BC704700BF6D
S32D000123D880B584B000AF786039607B681B6BFB60FA683B689A4264D07B681B79002B43D07B685A787B6803F133
S32D00012400340310461946FA684FF0010304F0B4F80346002B0CBF00230123DBB2002B02D04FF001034BE07B681B
S32D000124284FF000021A717B685A6A7B681B6AD218FB689A4220D97B68DB78FB7214E07B681B6AFA68D318FB60E1
S32D000124507B685A787B6803F1340310461946FA684FF0010304F088F8FB7A03F1FF33FB72FB7A012B94BF0023AD
S32D000124780123DBB2002BE2D13B68002B19D07B685A787B6803F13403104619463A684FF0010303F05FFF0346F8
S32D000124A0002B0CBF00230123DBB2002B02D04FF0010304E07B683A681A634FF00003184607F11007BD4680BD2E
S32D000124C880B584B000AF786078684FF00001FFF77FFF0346FB73FB7B002B40F0AE807B681B78032B40F09580C2
S32D000124F07B685B79002B00F090807B684FF000021A637B6803F1340318464FF000014FF40072FFF7DDFE7B6825
S32D000125184FF0550283F832227B684FF0AA0283F833227B684FF0520283F834207B684FF0520283F835207B6823
S32D000125404FF0610283F836207B684FF0410283F837207B684FF0720283F818227B684FF0720283F819227B6848
S32D000125684FF0410283F81A227B684FF0610283F81B227B681B69DAB27B6883F81C227B681B699BB24FEA23230C
S32D00012590DAB27B6883F81D227B681B694FEA1343DAB27B6883F81E227B681B694FEA1363DAB27B6883F81F2292
S32D000125B87B68DB68DAB27B6883F820227B68DB689BB24FEA2323DAB27B6883F821227B68DB684FEA1343DAB242
S32D000125E07B6883F822227B68DB684FEA1363DAB27B6883F823227B6859787B6803F134027B685B690846114619
S32D000126081A464FF0010303F0B3FF7B684FF000025A717B685B7818464FF000014FF0000204F08CF80346002BEB
S32D000126300CBF00230123DBB2002B02D04FF00103FB73FB7B184607F11007BD4680BD00BF80B483B000AF78605E
S32D0001265839603B68A3F102033B607B68DB69A3F102023B689A4202D84FF0000307E07B689B783A6802FB03F218
S32D000126807B68DB6AD318184607F10C07BD4680BC704700BF80B586B000AF786039603B68012B04D97B68DA699D
S32D000126A83B689A4202D84FF00103D3E07B681B78022B5FD0032B00F08A80012B40F0C8803B687B617B694FEA7A
S32D000126D053037A69D3187B617B685A6A7B694FEA5323D31878681946FFF776FE0346002B0CBF00230123DBB2FA
S32D000126F8002B40F0A6807B694FEAC3534FEAD3537A68D31893F834303B617B6903F101037B617B685A6A7B6905
S32D000127204FEA5323D31878681946FFF755FE0346002B0CBF00230123DBB2002B40F087807B694FEAC3534FEA87
S32D00012748D3537A68D31893F834304FEA03233A6913433B613B6803F00103DBB2002B03D03B694FEA131304E080
S32D000127703B694FEA03534FEA13536FE07B685A6A3B684FEA1323D31878681946FFF724FE0346002B0CBF0023BC
S32D000127980123DBB2002B58D13B684FEA43034FEAC3534FEAD35303F130037A68D31803F10403FB60FB6803F19C
S32D000127C001031B784FEA03239AB2FB681B7813439BB29BB242E07B685A6A3B684FEAD313D31878681946FFF717
S32D000127E8F7FD0346002B0CBF00230123DBB2002B2DD13B684FEA83034FEAC3534FEAD35303F130037A68D3188E
S32D0001281003F10403FB60FB6803F103031B784FEA0362FB6803F102031B784FEA03431A43FB6803F101031B78FC
S32D000128384FEA03231A43FB681B78134323F0704308E000BF04E000BF02E000BF00E000BF4FF0FF33184607F152
S32D000128601807BD4680BD00BF80B588B000AFF860B9607A60BB68012B04D9FB68DA69BB689A4203D84FF00203D4
S32D00012888FB771AE1FB681B78022B00F08580032B00F0AD80012B40F00181BB68BB61BB694FEA5303BA69D31873
S32D000128B0BB61FB685A6ABB694FEA5323D318F8681946FFF789FD0346FB77FB7F002B40F0ED80BB694FEAC3534D
S32D000128D84FEAD35303F13003FA68D31803F104037B61BB6803F00103DBB2002B0ED07B691B78DBB203F00F036E
S32D00012900DAB27B68DBB24FEA0313DBB21343DBB2DBB201E07B68DBB27A691370BB6903F10103BB61FB684FF0CF
S32D0001292801021A71FB685A6ABB694FEA5323D318F8681946FFF74CFD0346FB77FB7F002B40F0B280BB694FEAF0
S32D00012950C3534FEAD35303F13003FA68D31803F104037B61BB6803F00103DBB2002B04D07B684FEA1313DBB223
S32D000129780FE07B691B78DBB223F00F03DAB27B684FEA1323DBB203F00F03DBB21343DBB2DBB27A6913708CE0D9
S32D000129A0FB685A6ABB684FEA1323D318F8681946FFF712FD0346FB77FB7F002B7AD1BB684FEA43034FEAC35304
S32D000129C84FEAD35303F13003FA68D31803F104037B617B68DAB27B691A707B6903F101037A6892B24FEA2222DA
S32D000129F0D2B21A7061E0FB685A6ABB684FEAD313D318F8681946FFF7E7FC0346FB77FB7F002B51D1BB684FEA9F
S32D00012A1883034FEAC3534FEAD35303F13003FA68D31803F104037B617B6903F103031B784FEA03627B6903F129
S32D00012A4002031B784FEA03431A437B6903F101031B784FEA03231A437B691B78134303F070437A6813437B6042
S32D00012A687B68DAB27B691A707B6903F101037A6892B24FEA2222D2B21A707B6903F102037A684FEA1242D2B205
S32D00012A901A707B6903F103037A684FEA1262D2B21A700AE04FF00203FB7706E000BF04E000BF02E000BF00E0A9
S32D00012AB800BFFB684FF001021A71FB7F184607F12007BD4680BD00BF80B584B000AF786039603B68012B04D9D5
S32D00012AE07B68DA693B689A4203D84FF00203FB7345E04FF00003FB7333E078683968FFF7C9FD0346BB60BB68E9
S32D00012B08002B35D0BB68012B03D14FF00203FB7331E0BB68B3F1FF3F03D14FF00103FB7329E0786839684FF035
S32D00012B300002FFF799FE0346FB73FB7B002B1DD17B681B69B3F1FF3F09D07B681B6903F101027B681A617B68E0
