S01300002E2E2F4645485F526F626F742E7331391E
S32D0000C0000000002071080100CD0B0100CD0B0100CD0B0100CD0B0100CD0B01000000000000000000000000003B
S32D0000C02800000000CD0B0100CD0B010000000000CD0B0100CD0B0100CD0B0100CD0B0100CD0B0100CD0B010022
S32D0000C050CD0B0100CD0B0100CD0B0100CD0B0100CD0B0100CD0B0100CD0B0100CD0B0100CD0B0100CD0B010048
S32D0000C078CD0B0100CD0B0100CD0B0100CD0B0100CD0B0100CD0B0100CD0B0100CD0B0100CD0B0100CD0B010020
S32D0000C0A0CD0B0100CD0B0100CD0B0100CD0B0100CD0B0100CD0B0100CD0B0100CD0B0100CD0B0100CD0B0100F8
S32D0000C0C8CD0B0100CD0B0100CD0B0100CD0B0100CD0B0100CD0B0100CD0B0100CD0B0100CD0B0100CD0B0100D0
S32D0000C0F0CD0B01009DA50100CD0B0100CD0B0100CD0B0100CD0B0100CD0B0100CD0B0100CD0B0100CD0B01003E
S32D0000C118CD0B0100CD0B0100CD0B0100CD0B0100CD0B0100CD0B0100CD0B0100CD0B0100CD0B0100CD0B01007F
S32D0000C140CD0B0100CD0B0100CD0B0100CD0B0100656E0100CD0B0100CD0B0100CD0B0100CD0B0100CD0B01005C
S32D0000C168CD0B0100CD0B0100CD0B0100CD0B0100CD0B0100CD0B0100CD0B0100CD0B0100CD0B0100CD0B01002F
S32D0000C190CD0B0100CD0B0100CD0B0100C96801001D670100F16701001D0C0100A1690100CD0B0100CD0B0100FF
S32D0000C1B8CD0B0100CD0B0100CD0B0100CD0B0100CD0B0100CD0B0100CD0B0100CD0B0100CD0B0100CD0B0100DF
S32D0000C41081F0004102E000BF83F0004330B54FEA41044FEA430594EA050F08BF90EA020F1FBF54EA000C55EAC6
S32D0000C438020C7FEA645C7FEA655C00F0E2804FEA5454D4EB5555B8BF6D420CDD2C4480EA020281EA030382EA0F
S32D0000C460000083EA010180EA020281EA0303362D88BF30BD11F0004F4FEA01314FF4801C4CEA113102D0404263
S32D0000C48861EB410113F0004F4FEA03334CEA133302D0524263EB430394EA050F00F0A780A4F10104D5F1200E8A
S32D0000C4B00DDB02FA0EFC22FA05F2801841F1000103FA0EF2801843FA05F359410EE0A5F120050EF1200E012A2D
S32D0000C4D803FA0EFC28BF4CF0020C43FA05F3C01851EBE37101F0004507D54FF0000EDCF1000C7EEB00006EEB67
S32D0000C5000101B1F5801F1BD3B1F5001F0CD349085FEA30004FEA3C0C04F101044FEA445212F5800F80F09A8000
S32D0000C528BCF1004F08BF5FEA500C50F1000041EB045141EA050130BD5FEA4C0C404141EB010111F4801FA4F114
S32D0000C5500104E9D191F0000F04BF01460020B1FA81F308BF2033A3F10B03B3F120020CDA0C3208DD02F1140C87
S32D0000C578C2F10C0201FA0CF021FA02F10CE002F11402D8BFC2F1200C01FA02F120FA0CFCDCBF41EA0C019040B1
S32D0000C5A0E41AA2BF01EB0451294330BD6FEA04041F3C1CDA0C340EDC04F11404C4F1200220FA04F001FA02F3B6
S32D0000C5C840EA030021FA04F345EA030130BDC4F10C04C4F1200220FA02F001FA04F340EA0300294630BD21FAA8
S32D0000C5F004F0294630BD94F0000F83F4801306BF81F480110134013D4EE77FEA645C18BF7FEA655C29D094EA1C
S32D0000C618050F08BF90EA020F05D054EA000C04BF1946104630BD91EA030F1EBF0021002030BD5FEA545C05D1A3
S32D0000C6404000494128BF41F0004130BD14F580043CBF01F5801130BD01F0004545F0FE4141F470014FF0000031
S32D0000C66830BD7FEA645C1ABF194610467FEA655C1CBF0B46024650EA013406BF52EA033591EA030F41F40021D7
S32D0000C69030BD00BF90F0000F04BF0021704730B54FF4806404F132044FF000054FF0000150E700BF90F0000F66
S32D0000C6B804BF0021704730B54FF4806404F1320410F0004548BF40424FF000013EE700BF42004FEAE2014FEAF9
S32D0000C6E031014FEA02701FBF12F07F4393F07F4F81F06051704792F0000F14BF93F07F4F704730B54FF460741B
S32D0000C70801F0004521F0004120E700BF50EA010208BF704730B54FF000050AE050EA010208BF704730B511F046
S32D0000C730004502D5404261EB41014FF4806404F132045FEA915C3FF4DCAE4FF003025FEADC0C18BF03325FEAA0
S32D0000C758DC0C18BF033202EBDC02C2F1200300FA03FC20FA02F001FA03FE40EA0E0021FA02F11444C1E600BF19
S32D0000C78070B54FF0FF0C4CF4E06C1CEA11541DBF1CEA135594EA0C0F95EA0C0F00F0DEF82C4481EA030621EAF3
S32D0000C7A84C5123EA4C5350EA013518BF52EA033541F4801143F4801338D0A0FB02CE4FF00005E1FB02E506F05F
S32D0000C7D00042E0FB03E54FF00006E1FB03569CF0000F18BF4EF0010EA4F1FF04B6F5007F64F5407404D25FEA0F
S32D0000C7F84E0E6D4146EB060642EAC62141EA55514FEAC52040EA5E504FEACE2EB4F1FD0C88BFBCF5E06F1ED8D2
S32D0000C820BEF1004F08BF5FEA500E50F1000041EB045170BD06F0004646EA010140EA020081EA0301B4EB5C0487
S32D0000C848C2BFD4EB0C0541EA045170BD41F480114FF0000E013C00F3AB8014F1360FDEBF002001F0004170BDF0
S32D0000C870C4F10004203C35DA0C341BDC04F11404C4F1200500FA05F320FA04F001FA05F240EA020001F0004207
S32D0000C89821F0004110EBD37021FA04F642EB06015EEA430E08BF20EAD37070BDC4F10C04C4F1200500FA04F32F
S32D0000C8C020FA05F001FA04F240EA020001F0004110EBD37041F100015EEA430E08BF20EAD37070BDC4F12005C7
S32D0000C8E800FA05F24EEA020E20FA04F301FA05F243EA020321FA04F001F0004121FA04F220EA020000EBD37028
S32D0000C9105EEA430E08BF20EAD37070BD94F0000F0FD101F00046400041EB010111F4801F08BF013CF7D041EA6D
S32D0000C938060195F0000F18BF704703F00046520043EB030313F4801F08BF013DF7D043EA0603704794EA0C0FF1
S32D0000C9600CEA135518BF95EA0C0F0CD050EA410618BF52EA4306D1D181EA030101F000414FF0000070BD50EA38
S32D0000C988410606BF1046194652EA430619D094EA0C0F02D150EA013613D195EA0C0F05D152EA03361CBF10467B
S32D0000C9B019460AD181EA030101F0004141F0FE4141F470014FF0000070BD41F0FE4141F4780170BD70B54FF04D
S32D0000C9D8FF0C4CF4E06C1CEA11541DBF1CEA135594EA0C0F95EA0C0F00F0A7F8A4EB050481EA030E52EA03359B
S32D0000CA004FEA013100F088804FEA03334FF0805545EA131343EA12634FEA022245EA111545EA10654FEA002676
S32D0000CA280EF000419D4208BF964244F1FD0404F5407402D25B084FEA3202B61A65EB03055B084FEA32024FF461
S32D0000CA5080104FF4002CB6EB020E75EB030E22BFB61A754640EA0C005B084FEA3202B6EB020E75EB030E22BF22
S32D0000CA78B61A754640EA5C005B084FEA3202B6EB020E75EB030E22BFB61A754640EA9C005B084FEA3202B6EBEA
S32D0000CAA0020E75EB030E22BFB61A754640EADC0055EA060E18D04FEA051545EA16754FEA06164FEAC30343EAAC
S32D0000CAC852734FEAC2025FEA1C1CC0D111F4801F0BD141EA00014FF000004FF0004CB6E711F4801F04BF0143AE
S32D0000CAF00020B4F1FD0C88BFBCF5E06F3FF6AFAEB5EB030C04BFB6EB020C5FEA500C50F1000041EB045170BDBC
S32D0000CB180EF0004E4EEA113114EB5C04C2BFD4EB0C0541EA045170BD41F480114FF0000E013C90E645EA060EC3
S32D0000CB408DE60CEA135594EA0C0F08BF95EA0C0F3FF43BAF94EA0C0F0AD150EA01347FF434AF95EA0C0F7FF499
S32D0000CB6825AF104619462CE795EA0C0F06D152EA03353FF4FDAE1046194622E750EA410618BF52EA43067FF432
S32D0000CB90C5AE50EA41047FF40DAF52EA43057FF4EBAE12E74FF0FF3C06E000BF4FF0010C02E000BF4FF0010C75
S32D0000CBB84DF804CD4FEA410C7FEA6C5C4FEA430C18BF7FEA6C5C1BD001B050EA410C0CBF52EA430C91EA030FEC
S32D0000CBE002BF90EA020F0020704710F1000F91EA030F58BF994208BF90422CBFD8176FEAE37040F0010070476E
S32D0000CC084FEA410C7FEA6C5C02D150EA013C07D14FEA430C7FEA6C5CD6D152EA033CD3D05DF8040B704700BFCD
S32D0000CC308446104662468C461946634600E000BF01B5FFF7B7FF002848BF10F1000F01BD4DF808EDFFF7F4FF13
S32D0000CC580CBF012000205DF808FB00BF4DF808EDFFF7EAFF34BF012000205DF808FB00BF4DF808EDFFF7E0FF18
S32D0000CC8094BF012000205DF808FB00BF4DF808EDFFF7CEFF94BF012000205DF808FB00BF4DF808EDFFF7C4FF40
S32D0000CCA834BF012000205DF808FB00BF4FEA410212F5001215D211D56FF47873B3EB625212D94FEAC12343F0D6
S32D0000CCD0004343EA505311F0004F23FA02F018BF404270474FF00000704750EA013005D111F0004008BF6FF016
S32D0000CCF8004070474FF00000704700BF4A0011D212F5001211D20DD56FF47873B3EB62520ED44FEAC12343F085
S32D0000CD20004343EA505323FA02F070474FF00000704750EA013002D14FF0FF3070474FF0000070474FEA410241
S32D0000CD48B2F1E04324BFB3F5001CDCF1FE5C0DD901F0004C4FEAC0024CEA5070B2F1004F40EB830008BF20F09E
S32D0000CD700100704711F0804F21D113F13872BCBF01F00040704741F480114FEA5252C2F11802C2F1200C10FAB1
S32D0000CD980CF320FA02F018BF40F001004FEAC1234FEAD32303FA0CFC40EA0C0023FA02F34FEA4303CCE77FEA26
S32D0000CDC0625307D150EA01331EBF4FF0FE4040F44000704701F0004040F0FE4040F40000704700BF80F00040CC
S32D0000CDE802E000BF81F0004142001FBF5FEA410392EA030F7FEA226C7FEA236C6AD04FEA1262D2EB1363C1BF06
S32D0000CE10D218414048404140B8BF5B42192B88BF704710F0004F40F4000020F07F4018BF404211F0004F41F4FA
S32D0000CE38000121F07F4118BF494292EA030F3FD0A2F1010241FA03FC10EB0C00C3F1200301FA03F100F000432B
S32D0000CE6002D5494260EB4000B0F5000F13D3B0F1807F06D340084FEA310102F10102FE2A51D2B1F1004F40EB94
S32D0000CE88C25008BF20F0010040EA03007047490040EB000010F4000FA2F10102EDD1B0FA80FCACF1080CB2EB5F
S32D0000CEB00C0200FA0CF0AABF00EBC25052421843BCBFD0401843704792F0000F81F4000106BF80F400000132EB
S32D0000CED8013BB5E74FEA41037FEA226C18BF7FEA236C21D092EA030F04D092F0000F08BF0846704790EA010FD7
S32D0000CF001CBF0020704712F07F4F04D1400028BF40F00040704712F100723CBF00F50000704700F0004343F0DC
S32D0000CF28FE4040F4000070477FEA226216BF08467FEA23630146420206BF5FEA412390EA010F40F480007047C1
S32D0000CF504FF0000304E000BF10F0004348BF40425FEA000C08BF704743F0964301464FF000001CE050EA010264
S32D0000CF7808BF70474FF000030AE000BF50EA010208BF704711F0004302D5404261EB41015FEA010C02BF84465B
S32D0000CFA00146002043F0B64308BFA3F18053A3F50003BCFA8CF2083AA3EBC25310DB01FA02FC634400FA02FC6B
S32D0000CFC8C2F12002BCF1004F20FA02F243EB020008BF20F00100704702F1200201FA02FCC2F1200250EA4C0034
S32D0000CFF021FA02F243EB020008BF20EADC7070474FF0FF0C1CEAD0521EBF1CEAD15392EA0C0F93EA0C0F6FD019
S32D0000D0181A4480EA010C400218BF5FEA41211ED04FF0006343EA501043EA5111A0FB01310CF00040B1F5000FE7
S32D0000D0403EBF490041EAD3715B0040EA010062F17F02FD2A1DD8B3F1004F40EBC25008BF20F00100704790F058
S32D0000D068000F0CF0004C08BF49024CEA502040EA51207F3AC2BFD2F1FF0340EAC250704740F400004FF0000388
S32D0000D090013A5DDC12F1190FDCBF00F000407047C2F10002410021FA02F1C2F1200200FA02FC5FEA310040F1D5
S32D0000D0B8000053EA4C0308BF20EADC70704792F0000F00F0004C02BF400010F4000F013AF9D040EA0C0093F04C
S32D0000D0E0000F01F0004C02BF490011F4000F013BF9D041EA0C018FE70CEAD15392EA0C0F18BF93EA0C0F0AD00B
S32D0000D10830F0004C18BF31F0004CD8D180EA010000F00040704790F0000F17BF90F0004F084691F0000F91F0BB
S32D0000D130004F14D092EA0C0F01D142020FD193EA0C0F03D14B0218BF084608D180EA010000F0004040F0FE4051
S32D0000D15840F40000704740F0FE4040F4400070474FF0FF0C1CEAD0521EBF1CEAD15392EA0C0F93EA0C0F69D044
S32D0000D180A2EB030280EA010C49024FEA402037D04FF0805343EA111143EA10130CF000408B4238BF5B0042F14E
S32D0000D1A87D024FF4000C8B4224BF5B1A40EA0C00B3EB510F24BFA3EB510340EA5C00B3EB910F24BFA3EB9103A4
S32D0000D1D040EA9C00B3EBD10F24BFA3EBD10340EADC001B0118BF5FEA1C1CE0D1FD2A3FF650AF8B4240EBC25018
S32D0000D1F808BF20F0010070470CF0004C4CEA50207F32C2BFD2F1FF0340EAC250704740F400004FF00003013AF1
S32D0000D22037E792F0000F00F0004C02BF400010F4000F013AF9D040EA0C0093F0000F01F0004C02BF490011F4C9
S32D0000D248000F013BF9D041EA0C0195E70CEAD15392EA0C0F08D142027FF47DAF93EA0C0F7FF470AF084676E7AE
S32D0000D27093EA0C0F04D14B023FF44CAF08466EE730F0004C18BF31F0004CCAD130F000427FF45CAF31F0004376
S32D0000D2987FF43CAF5FE700BF4FF0FF3C06E000BF4FF0010C02E000BF4FF0010C4DF804CD4FEA40024FEA41039F
S32D0000D2C07FEA226C18BF7FEA236C11D001B052EA530C18BF90EA010F58BFB2EB030088BFC81738BF6FEAE1706E
S32D0000D2E818BF40F0010070477FEA226C02D15FEA402C05D17FEA236CE4D15FEA412CE1D05DF8040B704700BF16
S32D0000D310844608466146FFE70FB5FFF7C9FF002848BF10F1000F0FBD4DF808EDFFF7F4FF0CBF012000205DF839
S32D0000D33808FB00BF4DF808EDFFF7EAFF34BF012000205DF808FB00BF4DF808EDFFF7E0FF94BF012000205DF8A9
S32D0000D36008FB00BF4DF808EDFFF7D2FF94BF012000205DF808FB00BF4DF808EDFFF7C8FF34BF012000205DF8B1
S32D0000D38808FB00BF4FEA4002B2F1FE4F0FD34FF09E03B3EB12620DD94FEA002343F0004310F0004F23FA02F060
S32D0000D3B018BF404270474FF00000704712F1610F01D1420205D110F0004008BF6FF0004070474FF00000704797
S32D0000D3D880B582B000AF786039603868FFF7B8FD0346786819460DF0B3FC0346184607F10807BD4680BD00BF74
S32D0000D40080B483B000AF78607B6823F00043184607F10C07BD4680BC704700BF0000000080B582B000AF00F0B3
S32D0000D42873FC00F03FBC41F27C13C1F6FF731B78002B01D002F004FF01F078FF41F26D13C1F6FF731B78122BF9
S32D0000D45000F2148401A252F823F000BFA9D40000F3D7000015D8000033D8000045D8000063D800007FD8000077
S32D0000D47889D80000A7D80000C3D800000BDA000045DA000061DA00009FDA00000DDB000029DB0000B5DB0000D7
S32D0000D4A0D3DB000059DC000001F01EFE0346B3F57F0F14BF00230123DBB2002B00F0E9834FF05A033B6041F257
S32D0000D4C85C50C1F6FF704CF6A431C0F201010DF077FB41F2D440C1F6FF704FF000010AF0E9FC41F25C50C1F608
S32D0000D4F0FF704CF6C031C0F201010DF065FBDFF82007DFF8201702F0DFF90AE001F012FF41F27C13C1F6FF73AE
S32D0000D5181B78002B01D002F093FE02F0DDF8034683F00103DBB2002BECD1DFF8F40602F0B3F941F25C50C1F6D2
S32D0000D540FF704CF6D431C0F201010DF03DFB3868FFF702FD03464FF001001946DFF8CC2602F06AFB03E0DFF8C7
S32D0000D568C80602F099F94FF0010002F0E7F9034683F00103DBB2002BF1D1DFF8A40602F08BF9DFF89406DFF8B8
S32D0000D590A41602F099F90AE001F0CCFE41F27C13C1F6FF731B78002B01D002F04DFE02F097F8034683F0010392
S32D0000D5B8DBB2002BECD1DFF8680602F06DF941F25C50C1F6FF704CF6D431C0F201010DF0F7FA3868FFF7BCFCF7
S32D0000D5E003464FF000001946DFF8402602F024FB41F25C50C1F6FF704CF6E031C0F201010DF0E2FADFF818060E
S32D0000D60802F04AF90AE001F091FE41F27C13C1F6FF731B78002B01D002F012FE01F060FD0346002B14BF002321
S32D0000D6300123DBB2002BEAD1DFF8EC0502F030F901F052FD4FF0020008F04CFCDFF8D80502F026F941F25C50ED
S32D0000D658C1F6FF704CF6FC31C0F201010DF0B0FADFF8C405DFF8C81502F02AF90AE001F05DFE41F27C13C1F69C
S32D0000D680FF731B78002B01D002F0DEFD02F028F8034683F00103DBB2002BECD1DFF8880502F0FEF83868FFF785
S32D0000D6A857FC03464FF001001946DFF8782502F0BFFA41F25C50C1F6FF704CF60C41C0F201010DF07DFADFF867
S32D0000D6D0500502F0E5F80AE001F02CFE41F27C13C1F6FF731B78002B01D002F0ADFD4FF0000002F027F9034653
S32D0000D6F883F00103DBB2002BEAD1DFF82C05DFF8341502F0DDF80AE001F010FE41F27C13C1F6FF731B78002B99
S32D0000D72001D002F091FD01F0DBFF034683F00103DBB2002BECD1DFF8F00402F0B1F83868FFF70AFC03464FF000
S32D0000D74800001946DFF8DC2402F072FADFF8D804DFF8E41402F0B4F80AE001F0E7FD41F27C13C1F6FF731B78C2
S32D0000D770002B01D002F068FD01F0B2FF034683F00103DBB2002BECD1DFF89C0402F088F83B6803F1050318467B
S32D0000D798FFF7DEFB03464FF000001946DFF8842402F046FADFF87004DFF8901402F088F80AE001F0BBFD41F2FE
S32D0000D7C07C13C1F6FF731B78002B01D002F03CFD01F086FF034683F00103DBB2002BECD1DFF8440402F05CF8B9
S32D0000D7E84FF0120001F0B2FB4FE241F2A813C1F6FF7393E8030002F0AFFB4FF0020001F0A5FB4FF0010001F0BF
S32D0000D8100FFC4BE201F064FF0346002B00F03B82DFF8040402F03CF84FF0030001F092FB31E24FF0040001F031
S32D0000D8388DFB4FF0010001F0F7FB33E241F2A813C1F6FF7303F1080393E8030002F084FB4FF0050001F07AFB53
S32D0000D86024E201F03DFF0346002B00F01682EE4802F016F84FF0060001F06CFB0DE24FF0070001F067FB11E21D
S32D0000D88841F2A813C1F6FF7303F1100393E8030002F062FB4FF0080001F058FB02E201F01BFF0346002B00F0A9
S32D0000D8B0F681DD4801F0F4FF4FF0090001F04AFBEDE1D74801F0ECFF0AE001F033FD41F27C13C1F6FF731B78FA
S32D0000D8D8002B01D002F0B4FC4FF0000002F02EF8034683F00103DBB2002BEAD1CC4801F0D3FFCD4801F0D0FF4E
S32D0000D900C5A1D1E9000108F007FBC74801F0C8FF4FF00000CC49C54A02F08EF9C44801F0BFFF41F25C50C1F6EA
S32D0000D928FF704CF62441C0F201010DF049F90AE001F0FCFC41F27C13C1F6FF731B78002B01D002F07DFC41F2DD
S32D0000D9505410C1F6FF7008F02FFC0346002BEBD1B14801F09DFF41F25C50C1F6FF704CF63C41C0F201010DF0D1
S32D0000D97827F94FF000037B6036E04FF000004FF07E5101F5C00108F0C3FA41F25410C1F6FF7008F00DFC03466E
S32D0000D9A0002B21D04FF000037B6041F25C50C1F6FF704CF66041C0F201010DF005F941F2D040C1F6FF7009F027
S32D0000D9C805FC994801F068FF41F25410C1F6FF7008F0EEFB0346002BF6D1914801F05CFF7B6803F101037B6043
S32D0000D9F07B680A2BCCBF00230123DBB2002BC0D14FF00A0001F0A6FA50E1894801F048FF4FF000004FF07E5175
S32D0000DA1801F5C00108F07CFA814801F03DFF41F2A813C1F6FF7303F1180393E8030002F093FA4FF00B0001F067
S32D0000DA4089FA33E101F04CFE0346002B00F02981754801F025FF4FF00C0001F07BFA20E17A4802F089F9704866
S32D0000DA6801F00EFB754802F0F1FB754801F008FB6D4801F011FF4FF000004FF07E5101F5C00108F045FA6648AB
S32D0000DA9001F006FF4FF00D0001F05CFA06E141F2A813C1F6FF7303F1300393E8030002F057FA674802F060F9FF
S32D0000DAB85948664901F004FF0AE001F037FC41F27C13C1F6FF731B78002B01D002F0B8FB01F002FE034683F022
S32D0000DAE00103DBB2002BECD14F4801F0D9FE41F2A813C1F6FF7303F1200393E8030002F02FFA4FF00E0001F03B
S32D0000DB0825FACFE001F0E8FD0346002B00F0C780434801F0C1FE4FF00F0001F017FABEE001F0DEFA0346B3F5BD
S32D0000DB307F0F14BF00230123DBB2002B0ED041F25C50C1F6FF704CF6A841C0F201010DF03BF84FF0100001F035
S32D0000DB58FDF9A7E001F0C4FA0346FF2B14BF00230123DBB2002B0ED041F25C50C1F6FF704CF6D841C0F201013C
S32D0000DB800DF022F84FF0100001F0E4F98EE041F25C50C1F6FF704CF60451C0F201010DF013F841F2D040C1F683
S32D0000DBA8FF704FF0050109F021FB7BE041F2A813C1F6FF7303F1280393E8030002F0CCF94FF0110001F0C2F9C4
S32D0000DBD06CE001F085FD0346002B66D0124801F05FFE1B4802F0C8F8114801F059FE00BF4FF0010001F0A6FECC
S32D0000DBF8034683F00103DBB2002BF5D1084801F04BFE4FF0120001F0A1F94AE0AFF300809A9999999999A93F90
S32D0000DC2000000C420000F040000000000000C84100000CC200001041000040400000E0400000A041000020414E
S32D0000DC480000B44200003442000087430000904141F25C50C1F6FF704CF62C51C0F201010CF0AEFF41F26C13D4
S32D0000DC70C1F6FF734FF000021A7017E041F25C50C1F6FF704CF64051C0F201010CF09CFF0CE000BF0AE000BF24
S32D0000DC9808E000BF06E000BF04E000BF02E000BF00E000BF41F26C13C1F6FF731B78002B7FF4B9AB41F2D44078
S32D0000DCC0C1F6FF704FF000010AF0F8F841F2D440C1F6FF704CF66051C0F201010AF04CFC41F25C50C1F6FF708B
S32D0000DCE84CF67051C0F201010CF06AFF41F25C50C1F6FF700CF048FF4FF00003184607F10807BD4680BD00BF04
S32D0000DD1080B590B000AF41F2D440C1F6FF704FF000010AF0B7F841F2D440C1F6FF704FF001010AF001F941F296
S32D0000DD383410C1F6FF7040F6813109F025FB41F23410C1F6FF704FF4FA7109F0FFFA41F23410C1F6FF704549EA
S32D0000DD6009F036FB41F24010C1F6FF7040F6813109F00EFB41F24010C1F6FF704FF4FA7109F0E8FA41F234102F
S32D0000DD88C1F6FF70394909F01FFB41F28413C1F6FF73364A1A6041F28413C1F6FF731A6841F28013C1F6FF7361
S32D0000DDB01A6041F29013C1F6FF734FF000021A6041F27C13C1F6FF734FF000021A7041F29413C1F6FF734CF616
S32D0000DDD88052C0F2010292E80300186003F10403197041F25C50C1F6FF700CF0FBFD41F25C50C1F6FF704CF6DD
S32D0000DE008851C0F201010CF0DFFE07E041F2D040C1F6FF704FF0050109F0ECF901F0B2F9034683F00103DBB232
S32D0000DE28002BEFD141F26C13C1F6FF734FF001021A7007F10403184600F01AF807F1040241F2A813C1F6FF73C6
S32D0000DE509A420BD041F2A813C1F6FF7319464FF03903084611461A460DF008FE07F14007BD4680BD0000000075
S32D0000DE78B0B5ADF5EF5D06AF07F10803A3F1040318604FF0010307F5EE5000F107000370DFF8B03707F5EC517F
S32D0000DEA001F13C010B60DFF8A43707F5EC5202F13802136007F10803A3F10403186802F0CFFB41F2D440C1F656
S32D0000DEC8FF704FF0000109F0F5FF07F5CC5303F11803A3F104031D464FF0000406E028460BF052FF05F1EC059E
S32D0000DEF004F1FF34B4F1FF3F0CBF00230123DBB2002BF0D14CF61063C0F2010307F5E85101F124011A464FF018
S32D0000DF181403084611461A460DF0ACFD07F5CC5303F11803A3F104034FF0C90200924FF0010201924FF00102A1
S32D0000DF40029207F5E85202F1240203924FF4004204924FF45742C0F2FF02059218464FF001014FF001024FF0DA
S32D0000DF6801030CF051F907F5CC5303F11803A3F1040318460BF0A4FF07F5945303F10803A3F10C031D464FF059
S32D0000DF90050406E028460BF0FBFE05F1EC0504F1FF34B4F1FF3F0CBF00230123DBB2002BF0D107F5E25303F170
S32D0000DFB818031A464FF0A00310464FF000011A460DF061FD07F5E25303F118034FF041021A6003F104034FF017
S32D0000DFE000021A6003F104034FF000021A6003F104034FF000021A6003F104034FF000021A6003F1040307F57E
S32D0000E008E25303F118034FF042025A6103F118034FF000021A6003F104034FF000021A6003F104034FF00002AC
S32D0000E0301A6003F104034FF000021A6003F1040307F5E25303F118034FF043029A6203F12C034FF000021A60F9
S32D0000E05803F104034FF000021A6003F104034FF000021A6003F104034FF000021A6003F1040307F5E25303F158
S32D0000E08018034FF04402DA6303F140034FF000021A6003F104034FF000021A6003F104034FF000021A6003F143
S32D0000E0A804034FF000021A6003F1040307F5E25303F118034FF045021A6503F154034FF000021A6003F1040347
S32D0000E0D04FF000021A6003F104034FF000021A6003F104034FF000021A6003F1040307F5E25303F118034FF081
S32D0000E0F846025A6603F168034FF000021A6003F104034FF000021A6003F104034FF000021A6003F104034FF032
S32D0000E12000021A6003F1040307F5E25303F118034FF047029A6703F17C034FF000021A6003F104034FF0000227
S32D0000E1481A6003F104034FF000021A6003F104034FF000021A6003F1040307F5E25303F118034FF04802C3F844
S32D0000E1708C2003F190034FF000021A6003F104034FF000021A6003F104034FF000021A6003F104034FF00002EB
S32D0000E1981A6003F1040307F5945303F10803A3F10C034FF0330200924FF0010201924FF00102029207F5E2527E
S32D0000E1C002F1180203926FF07F4204924FF45742C0F2FF02059218464FF004014FF002024FF028030CF014F85C
S32D0000E1E807F5D4531D464FF0000406E028460BF0CBFD05F1EC0504F1FF34B4F1FF3F0CBF00230123DBB2002B6D
S32D0000E210F0D107F5E85303F110034FF000021A6003F104034FF000021A6003F104034FF000021A6003F10403BF
S32D0000E2384FF000021A6003F104034FF000021A6003F104034CF62462C0F2010207F5E85303F1100392E8030014
S32D0000E260186003F10403198007F5E85303F116034FF000021A8003F102034FF000021A8003F102034FF0000257
S32D0000E2881A8003F102034FF000021A8003F102034FF000021A8003F102034FF000021A8003F102034FF0000218
S32D0000E2B01A8003F1020307F5D4524FF0140300934FF0010301934FF00103029307F5E85303F1100303934FF4DC
S32D0000E2D8004304934FF45743C0F2FF03059310464FF001014FF001024FF0BE030BF08CFF41F2D440C1F6FF7049
S32D0000E3004FF45741C0F2FF0109F02AFE41F2D440C1F6FF704CF69C51C0F201014FF000024FF0DE0309F030FE69
S32D0000E32807F5EC5303F13803186807F5EC5202F13C021168FEF760FE03461C4641F22050C1F6FF700CF0B4F88A
S32D0000E350034620461946FEF74BFD034607F5EC5000F13800036007F5EC5101F13C010868B749FEF73DFD0346F7
S32D0000E37807F5EC5202F13C02136007F5EC5303F13803186807F5EC5202F13C021168FEF7E7FE034607F5EC5070
S32D0000E3A000F13800036041F2D440C1F6FF7007F5EC5202F1380211684FF048024FF0DE0309F02CFE4FF0010367
S32D0000E3C81C4607F5EC5303F1380318689F49FEF7B1FF0346002B02D14FF000031C46E3B2002B07D041F2D04089
S32D0000E3F0C1F6FF704FF00A0108F0FCFE07F5E85202F13C0207F5E85303F1380341F2D440C1F6FF7011461A46AC
S32D0000E41809F0D2FE0346002B00F083854FF0000307F5EE500360D6E007F5945303F10803A3F10C0307F5EE514C
S32D0000E4400A684FF0EC0101FB02F2991807F5E85303F13C031A6807F5E85000F138000368084611461A464FF077
S32D0000E46800030BF0E3FD0346002B0CBF00230123DBB2002B00F0A7804FF0000307F5E85101F10C010B804FF013
S32D0000E490200307F5E85202F10D02137007F5E25101F1180107F5EE531A6813464FEA83039B184FEA8303CB181A
S32D0000E4B81B7807F5E85000F10C00037007F5EE510B68002B06D14FF0410307F5E85202F10C02137007F5EE50D8
S32D0000E4E00368012B06D14FF0420307F5E85101F10C010B7041F2D440C1F6FF704FF0000109F0DCFC41F2D440A8
S32D0000E508C1F6FF704CF6AC51C0F201010AF030F807F5E85303F10C0341F2D440C1F6FF7019464FF000024FF024
S32D0000E530070309F079FF41F25C50C1F6FF704CF6C051C0F201010CF03FFB07F5E85303F10C0341F25C50C1F630
S32D0000E558FF7019460CF034FB41F25C50C1F6FF704CF6D451C0F201010CF02AFB07F5E85202F10C02137807F59D
S32D0000E580EA521046194601F0AFFF07F5EA5207F10803A3F104031B6893420CD007F10803A3F104031B68194653
S32D0000E5A84FF03903084611461A460DF063FA4FF0000307F5EE5000F1070003704FF0000000F0C4FC12E007F5A7
S32D0000E5D0EE510B6803F1010307F5EE52136007F5EE500368072BCCBF00230123DBB2002B7FF41EAF07F5E851EE
S32D0000E5F801F13C010A6807F5E85000F13800036807F5D451084611461A464FF000030BF00DFD0346002B0CBFE0
S32D0000E62000230123DBB2002B00F07F8441F2D440C1F6FF704FF0000109F040FC07F5DA5303F12C031D464FF00A
S32D0000E64800040CE0000000000000803F0000204128460BF099FB05F1EC0504F1FF34B4F1FF3F0CBF0023012393
S32D0000E670DBB2002BF0D107F5E65303F138034FF000021A6003F104034FF000021A6003F104034FF000021A6078
S32D0000E69803F104034FF000021A6003F104034FF000021A6003F104034CF63862C0F2010207F5E65303F13803F8
S32D0000E6C007CA03C31A8003F102034FEA12421A7007F5E85303F103034FF000021A7003F101034FF000021A702C
S32D0000E6E803F101034FF000021A7003F101034FF000021A7003F101034FF000021A7003F101034FF000021A70F8
S32D0000E71003F101034FF000021A7003F101034FF000021A7003F101034FF000021A7003F1010307F5DA5202F17F
S32D0000E7382C024FF0C90300934FF0010301934FF00103029307F5E65303F1380303934FF4004304934FF4574344
S32D0000E760C0F2FF03059310464FF001014FF001024FF001030BF04CFD07F5DA5303F12C0318460BF0A1FB07F5A2
S32D0000E788C05303F10803A3F104031A464FF4C87310464FF000011A460DF075F907F5C05303F10803A3F10403CE
S32D0000E7B045F25742C0F253021A6003F104034FF000021A6003F104034FF000021A6003F104034FF000021A60C8
S32D0000E7D803F104034FF000021A6003F1040307F5C05303F10803A3F1040344F65352C0F253025A6103F1180309
S32D0000E8004FF000021A6003F104034FF000021A6003F104034FF000021A6003F104034FF000021A6003F1040312
S32D0000E82807F5C05303F10803A3F1040345F24D42C0F253029A6203F12C034FF000021A6003F104034FF0000236
S32D0000E8501A6003F104034FF000021A6003F104034FF000021A6003F1040307F5C05303F10803A3F1040345F2D9
S32D0000E8784972C0F25302DA6303F140034FF000021A6003F104034FF000021A6003F104034FF000021A6003F121
S32D0000E8A004034FF000021A6003F1040307F5C05303F10803A3F1040344F65352C0F24C021A6503F154034FF0FC
S32D0000E8C800021A6003F104034FF000021A6003F104034FF000021A6003F104034FF000021A6003F1040307F58D
S32D0000E8F0C05303F10803A3F1040345F24D42C0F24C025A6603F168034FF000021A6003F104034FF000021A60F7
S32D0000E91803F104034FF000021A6003F104034FF000021A6003F1040307F5C05303F10803A3F1040345F24972CF
S32D0000E940C0F24C029A6703F17C034FF000021A6003F104034FF000021A6003F104034FF000021A6003F1040313
S32D0000E9684FF000021A6003F1040307F5C05303F10803A3F1040344F65352C0F24202C3F88C2003F190034FF020
S32D0000E99000021A6003F104034FF000021A6003F104034FF000021A6003F104034FF000021A6003F1040307F5C4
S32D0000E9B8C05303F10803A3F1040345F24D42C0F24202C3F8A02003F1A4034FF000021A6003F104034FF00002BB
S32D0000E9E01A6003F104034FF000021A6003F104034FF000021A6003F1040307F5C05303F10803A3F1040345F248
S32D0000EA084972C0F24202C3F8B42003F1B8034FF000021A6003F104034FF000021A6003F104034FF000021A60CA
S32D0000EA3003F104034FF000021A6003F1040307F5C05303F10803A3F1040344F65352C0F24302C3F8C82003F1F1
S32D0000EA58CC034FF000021A6003F104034FF000021A6003F104034FF000021A6003F104034FF000021A6003F1F0
S32D0000EA80040307F5C05303F10803A3F1040345F24D42C0F24302C3F8DC2003F1E0034FF000021A6003F10403B7
S32D0000EAA84FF000021A6003F104034FF000021A6003F104034FF000021A6003F1040307F5C05303F10803A3F17C
S32D0000EAD0040345F24972C0F24302C3F8F02003F1F4034FF000021A6003F104034FF000021A6003F104034FF0C7
S32D0000EAF800021A6003F104034FF000021A6003F1040307F5C05303F10803A3F1040344F65352C0F24402C3F888
S32D0000EB20042103F584734FF000021A6003F104034FF000021A6003F104034FF000021A6003F104034FF0000250
S32D0000EB481A6003F1040307F5C05303F10803A3F1040345F24D42C0F24402C3F8182103F58E734FF000021A601B
S32D0000EB7003F104034FF000021A6003F104034FF000021A6003F104034FF000021A6003F1040307F5C05303F157
S32D0000EB980803A3F1040345F24972C0F24402C3F82C2103F598734FF000021A6003F104034FF000021A6003F14F
S32D0000EBC004034FF000021A6003F104034FF000021A6003F1040307F5C05303F10803A3F1040344F65352C0F27A
S32D0000EBE85202C3F8402103F5A2734FF000021A6003F104034FF000021A6003F104034FF000021A6003F1040360
S32D0000EC104FF000021A6003F1040307F5C05303F10803A3F1040345F24D42C0F25202C3F8542103F5AC734FF025
S32D0000EC3800021A6003F104034FF000021A6003F104034FF000021A6003F104034FF000021A6003F1040307F519
S32D0000EC60C05303F10803A3F1040345F25342C0F25002C3F8682103F5B6734FF000021A6003F104034FF00002AD
S32D0000EC881A6003F104034FF000021A6003F104034FF000021A6003F1040307F5C05303F10803A3F1040345F29D
S32D0000ECB05202C0F25302C3F87C2103F5C0734FF000021A6003F104034FF000021A6003F104034FF000021A6031
S32D0000ECD803F104034FF000021A6003F1040307F14803A3F13C031D464FF0130406E028460BF04AF805F1EC0516
S32D0000ED0004F1FF34B4F1FF3F0CBF00230123DBB2002BF0D107F14803A3F13C034FF0010200924FF00102019290
S32D0000ED284FF00102029207F5C05202F10802A2F1040203926FF07F4204924FF45742C0F2FF02059218464FF035
S32D0000ED5005014FF004024FF028030BF059FA41F25C50C1F6FF704CF6D851C0F201010BF02BFF07F5E85202F120
S32D0000ED783C0207F5E85303F1380341F2D440C1F6FF7011461A4609F017FA0346002B00F0B6804FF0000307F5C3
S32D0000EDA0EE510B60A4E007F14803A3F13C0307F5EE5002684FF0EC0101FB02F2991807F5E85303F13C031A68A4
S32D0000EDC807F5E85000F138000368084611461A464FF000030BF02AF90346002B0CBF00230123DBB2002B77D06B
S32D0000EDF007F5EE510B68132B37D007F5EE521368DBB2184600F0A6F84FF0000307F5EE5000F10700037041F2B8
S32D0000EE18D440C1F6FF704FF0000109F04BF807F5EA5303F13C0318464FF0410101F058FB07F5EA5202F13C021E
S32D0000EE4007F10803A3F104031B68934247D007F10803A3F104031B6819464FF03903084611461A460CF00AFE93
S32D0000EE684DE041F25C50C1F6FF704CF6EC51C0F201010BF0A5FE41F2D440C1F6FF704FF0000109F017F801E0E3
S32D0000EE9000F050FA07F5E85202F13C0207F5E85303F1380341F2D440C1F6FF7011461A4609F086F9034683F0F5
S32D0000EEB80103DBB2002BE7D14FF0000307F5EE5101F107010B7041F26C13C1F6FF734FF000021A7013E012E03B
S32D0000EEE007F5EE52136803F1010307F5EE50036007F5EE510B68132BCCBF00230123DBB2002B7FF450AF07F5D4
S32D0000EF08EE5202F107021378002B7FF42EAF41F25C50C1F6FF704CF6FC51C0F201010BF04FFE07F5EE5000F1DE
S32D0000EF3007000378002B7FF4F7A900BF07F10803A3F10403186807F5E47707F5E057BD46B0BD00BF80B582B0F6
S32D0000EF5800AF0346FB7141F26D13C1F6FF73FA791A7041F29013C1F6FF731B6803F1010241F29013C1F6FF73D6
S32D0000EF801A6041F25C50C1F6FF704CF64C61C0F201010BF019FEFA7913464FEA83039B184FEA83034DF27C3245
S32D0000EFA8C0F201029B1841F25C50C1F6FF7019460BF006FE41F25C50C1F6FF704CF6D451C0F201010BF0FCFD5C
S32D0000EFD0FA7913464FEA83039B184FEA83034DF27C32C0F201029B1841F29410C1F6FF7019460CF052FD41F2E7
S32D0000EFF89013C1F6FF731B68022B10DD41F26D13C1F6FF734FF012021A7041F25C50C1F6FF704CF65C61C0F213
S32D0000F02001010BF0D1FD07F10807BD4680BD00BF80B582B000AF0346FB71FB79002B0DD041F23410C1F6FF700D
S32D0000F0480D4908F0C1F941F28C13C1F6FF730A4A1A600CE041F23410C1F6FF70074908F0B3F941F28C13C1F6C3
S32D0000F070FF73044A1A6007F10807BD4680BD00BF0000B4420000000080B582B000AF786078681249FEF768F8BE
S32D0000F098034618461049FDF7AFFF034618460F49FDF7A2FE03461A4641F28813C1F6FF731A6041F28813C1F676
S32D0000F0C0FF731B6841F24010C1F6FF70194608F07FF907F10807BD4680BD00BF0000C84200D018450000FA433B
S32D0000F0E890B583B000AF41F25C10C1F6FF7007F0F3FC03464FF00102144618461D49FEF737F90346002B02D113
S32D0000F1104FF000031C46E3B2002B03D04FF000037B601DE041F25C10C1F6FF7007F0D8FC03464FF0010214460B
S32D0000F13818461149FEF71CF90346002B02D14FF000031C46E3B2002B03D04FF0FF037B6002E04FF47F037B60CB
S32D0000F16041F2D440C1F6FF70796808F0A7FE7B68184607F10C07BD4690BD00BF000000400000803F80B582B0D5
S32D0000F18800AF4FF00103FB7141F25410C1F6FF7007F00EF8034683F00103DBB2002B11D041F2D440C1F6FF707B
S32D0000F1B04CF68461C0F201014FF000024FF0000309F032F94FF00003FB710DE041F2D440C1F6FF704CF69C6168
S32D0000F1D8C0F201014FF000024FF0000309F020F941F25810C1F6FF7006F0E2FF034683F00103DBB2002B11D0CF
S32D0000F20041F2D440C1F6FF704CF6B461C0F201014FF001024FF0000309F006F94FF00003FB710DE041F2D4400A
S32D0000F228C1F6FF704CF69C61C0F201014FF001024FF0000309F0F4F841F24C10C1F6FF7006F0B6FF034683F01A
S32D0000F2500103DBB2002B11D041F2D440C1F6FF704CF68461C0F201014FF002024FF0000309F0DAF84FF0000319
S32D0000F278FB710DE041F2D440C1F6FF704CF69C61C0F201014FF002024FF0000309F0C8F841F25010C1F6FF70B8
S32D0000F2A006F08AFF034683F00103DBB2002B11D041F2D440C1F6FF704CF68461C0F201014FF003024FF000039A
S32D0000F2C809F0AEF84FF00003FB710DE041F2D440C1F6FF704CF69C61C0F201014FF003024FF0000309F09CF86B
S32D0000F2F0FFF7FAFE0346002B0CBF00230123DBB2002B10D041F2D440C1F6FF704CF6CC61C0F201014FF004020F
S32D0000F3184FF0000309F084F84FF00003FB71FB79184607F10807BD4680BD00BF80B500AF41F25410C1F6FF70E9
S32D0000F34006F03AFF034683F00103DBB2002B0AD041F2D440C1F6FF704EF69061C0F2900108F0FEFD09E041F22A
S32D0000F368D440C1F6FF704AF6A911C0F2A90108F0F3FD41F2D440C1F6FF704FF00F014FF0DC024FF00A0309F0E1
S32D0000F390FDFE41F25810C1F6FF7006F00DFF034683F00103DBB2002B0AD041F2D440C1F6FF704EF69061C0F2EB
S32D0000F3B8900108F0D1FD09E041F2D440C1F6FF704AF6A911C0F2A90108F0C6FD41F2D440C1F6FF7040F2311188
S32D0000F3E04FF0DC024FF00A0309F0D0FE41F24C10C1F6FF7006F0E0FE034683F00103DBB2002B0AD041F2D440AD
S32D0000F408C1F6FF704EF69061C0F2900108F0A4FD09E041F2D440C1F6FF704AF6A911C0F2A90108F099FD41F232
S32D0000F430D440C1F6FF704FF00F014FF00A024FF00A0309F0A3FE41F25010C1F6FF7006F0B3FE034683F00103D4
S32D0000F458DBB2002B0AD041F2D440C1F6FF704EF69061C0F2900108F077FD09E041F2D440C1F6FF704AF6A91153
S32D0000F480C0F2A90108F06CFD41F2D440C1F6FF7040F231114FF00A024FF00A0309F076FE41F2D440C1F6FF704F
S32D0000F4A86FF07F4108F058FD41F2D440C1F6FF704CF6E461C0F201014FF003024FF0000308F0AEFF41F2D440B0
S32D0000F4D0C1F6FF704CF60071C0F201014FF004024FF0000308F0A0FF41F23C50C1F6FF700BF052F90346184691
S32D0000F4F8FDF748FF034641F2D440C1F6FF7019464FF003024FF0070308F0AAFF41F23C50C1F6FF700BF04CF943
S32D0000F52003461846FDF732FF034641F2D440C1F6FF7019464FF003024FF00D0308F094FF41F23C50C1F6FF70D9
S32D0000F5480BF046F903461846FDF71CFF034641F2D440C1F6FF7019464FF003024FF0150308F07EFF41F2D44039
S32D0000F570C1F6FF704CF61C71C0F201014FF005024FF0000308F050FF41F28013C1F6FF731B6841F2D440C1F685
S32D0000F598FF7019464FF005024FF0050308F080FF41F22C10C1F6FF7007F05EFA034641F2D440C1F6FF7019467A
S32D0000F5C04FF005024FF0120308F04EFF41F2D440C1F6FF704CF63071C0F201014FF006024FF0000308F020FF9A
S32D0000F5E841F28413C1F6FF731B6841F2D440C1F6FF7019464FF006024FF0050308F050FF41F23010C1F6FF7045
S32D0000F61007F02EFA034641F2D440C1F6FF7019464FF006024FF0120308F01EFF41F2D440C1F6FF704CF6447184
S32D0000F638C0F201014FF007024FF0000308F0F0FE41F28813C1F6FF731B6841F2D440C1F6FF7019464FF00702F2
S32D0000F6604FF0060308F020FF41F2D440C1F6FF704CF65871C0F201014FF008024FF0000308F0D2FE41F28C13CC
S32D0000F688C1F6FF731B6841F2D440C1F6FF7019464FF008024FF0060308F002FF41F2D440C1F6FF704CF66C71C6
S32D0000F6B0C0F201014FF009024FF0000308F0B4FE41F2D440C1F6FF7041F29411C1F6FF714FF009024FF0050345
S32D0000F6D808F0A6FE80BD00BFF8B500AF41F22C10C1F6FF7007F0C0F9044600F0A1FE0346E41841F23010C1F683
S32D0000F700FF7007F0B5F90346E41800F03DFE0346E2184DF24F13C1F6C21383FB02134FEAA3114FEAE273CB1AF4
S32D0000F7281846FCF7C3FF02460B461046194612A3D3E90023FDF720F802460B4614461D4641F27013C1F6FF737D
S32D0000F7501B681846FCF7C0FF02460B464FF001010E4620462946FDF79BFA0346002B02D14FF000031E46F3B2DA
S32D0000F7781846F8BDAFF300805E3855297A6A1F4080B586B000AF7860396041F28013C1F6FF731B68786819469B
S32D0000F7A0FDF724FB034618463B49FDF7DDFC03463B6141F28413C1F6FF731B6838681946FDF714FB034618462C
S32D0000F7C83349FDF7CDFC0346FB604FF000037B6142E041F28013C1F6FF731B6818463969FDF702FB03461A46EA
S32D0000F7F041F28013C1F6FF731A6041F28413C1F6FF731B681846F968FDF7F2FA03461A4641F28413C1F6FF73D1
S32D0000F8181A6041F28013C1F6FF731B6883F0004341F22410C1F6FF70194601F0CDFA41F28413C1F6FF731B6806
S32D0000F84041F21C10C1F6FF70194601F0C1FA10A1D1E9000106F060FB7B6903F101037B617B69092BCCBF0023CF
S32D0000F8680123DBB2002BB4D141F28013C1F6FF737A681A6041F28413C1F6FF733A681A6007F11807BD4680BD60
S32D0000F8907B14AE47E17A843F00002041AFF3008080B582B000AF786078687968FFF76CFF41F27C13C1F6FF732A
S32D0000F8B84FF001021A7007F10807BD4680BD00BFB0B584B002AF7860396041F22C10C1F6FF7007F0DDF841F201
S32D0000F8E03010C1F6FF7007F0D7F841F27013C1F6FF733A681A607868FFF7D2FF41F27C13C1F6FF734FF00102FF
S32D0000F9081A707868FCF7E4FE04460D463868FCF7DFFE02460B46CDE9002341F25C50C1F6FF704CF68071C0F229
S32D0000F930010122462B460BF047F907F10807BD46B0BD00BF80B584B000AF0346FB714FF00003FB73FB79002B41
S32D0000F95802D0012B7ED0FAE041F24C10C1F6FF7006F026FC034683F00103DBB2002B0ED041F25010C1F6FF707F
S32D0000F98006F01AFC034683F00103DBB2002B02D04FF0010301E04FF00003FB7341F24C10C1F6FF7006F008FC80
S32D0000F9A8034683F00103DBB2002B0ED041F28413C1F6FF731B6818466F49FDF7B1FC0346002B02D14FF0010324
S32D0000F9D001E04FF00003002B0FD041F25C50C1F6FF704CF6A871C0F201010BF0EDF841F21C10C1F6FF7001F072
S32D0000F9F89BF941F25010C1F6FF7006F0D9FB034683F00103DBB2002B0ED041F28013C1F6FF731B681846584903
S32D0000FA20FDF782FC0346002B02D14FF0010301E04FF00003002B00F0998041F25C50C1F6FF704CF6F471C0F207
S32D0000FA4801010BF0BDF841F22410C1F6FF7001F06BF987E041F25410C1F6FF7006F0A8FB034683F00103DBB2F2
S32D0000FA70002B0ED041F25810C1F6FF7006F09CFB034683F00103DBB2002B02D04FF0010301E04FF00003FB73F3
S32D0000FA9841F25410C1F6FF7006F08AFB034683F00103DBB2002B0ED041F28413C1F6FF731B6818463049FDF771
S32D0000FAC033FC0346002B02D14FF0010301E04FF00003002B0FD041F25C50C1F6FF704DF24001C0F201010BF0FE
S32D0000FAE86FF841F21C10C1F6FF7001F01DF941F25810C1F6FF7006F05BFB034683F00103DBB2002B0ED041F267
S32D0000FB108013C1F6FF731B6818461949FDF704FC0346002B02D14FF0010301E04FF00003002B1DD041F25C5030
S32D0000FB38C1F6FF704DF28C01C0F201010BF040F841F22410C1F6FF7001F0EEF80CE041F25C50C1F6FF704DF232
S32D0000FB60DC01C0F201010BF02FF802E000BF00E000BFFB7B184607F11007BD4680BD00BF0000000090B587B026
S32D0000FB8802AF03463960FB7141F27C13C1F6FF734FF000021A70FB79002B02D04FF0010301E04FF0FF33FB6039
S32D0000FBB0FB79002B02D04FF0FF3301E04FF00103BB60F868FDF7C8F9034618463968FDF717FA03461C46B868D9
S32D0000FBD8FDF7BEF9034618463968FDF70DFA034620461946FFF7CCFDFB79002B04D04DF21C14C0F2010403E0C8
S32D0000FC004DF22414C0F201043868FCF765FD02460B46CDE9002341F25C50C1F6FF704DF22C11C0F201012246A4
S32D0000FC280AF0CEFF07F11407BD4690BD000000002DE9F04387B000AF0346B9607A60FB7341F23010C1F6FF7012
S32D0000FC5006F022FF41F22C10C1F6FF7006F01CFF434B7B61B868FCF737FD02460B4641F25C50C1F6FF704DF23B
S32D0000FC784411C0F201010AF0A3FFFB7B18467968FFF77CFF00BF41F23010C1F6FF7006F0EBFE044641F22C10A3
S32D0000FCA0C1F6FF7006F0E4FE0346E41800F06CFB0346E3184FEAD372D3184FEA63031846FCF7F8FC02460B4672
S32D0000FCC81046194622A3D3E90023FCF755FD02460B4614461D46B868FCF7FAFC02460B46104619461CA3D3E948
S32D0000FCF00023FCF745FD02460B46104619461AA3D3E90023FCF766FE02460B46904699467869FCF7E1FC024606
S32D0000FD180B4640464946FCF72FFD02460B464FF001010E4620462946FCF798FF0346002B02D14FF000031E46BE
S32D0000FD40F3B2002BA3D10B48FFF7AAFD07F11C07BD46BDE8F08300BF2005C771724A993F182D4454FB21094039
S32D0000FD68000000000080664000000C4100000000B0B588B002AF786041F23C50C1F6FF700AF026FD03467B61AD
S32D0000FD9078697968FDF72AF80346FB6078687969FDF724F80346BB600FE041F2D040C1F6FF704FF0050107F0FF
S32D0000FDB81DFA41F23C50C1F6FF700AF009FD03467B6141F23C50C1F6FF700AF001FD03464FF0010214461846DC
S32D0000FDE05D49FDF7ABFA0346002B02D14FF000031C46E3B2002BD8D17869FCF76DFC04460D467868FCF768FC51
S32D0000FE0802460B46CDE9002341F25C50C1F6FF704DF26011C0F2010122462B460AF0D0FE4FF001031C46F8684B
S32D0000FE304949FDF7A1FA0346002B02D14FF000031C46E3B2002B01D0FB6812E0F868FCF743FC02460B46104631
S32D0000FE5819463DA3D3E90023FCF7DCFA02460B4610461946FCF76AFF0346FB604FF001031C46B8683649FDF70F
S32D0000FE807BFA0346002B02D14FF000031C46E3B2002B01D0BB6812E0B868FCF71DFC02460B46104619462AA307
S32D0000FEA8D3E90023FCF7B6FA02460B4610461946FCF744FF0346BB604FF001031C46B868F968FDF737FA03462E
S32D0000FED0002B02D14FF000031C46E3B2002B03D04FF00103FB7402E04FF00003FB7441F23C50C1F6FF700AF0AB
S32D0000FEF86FFC034618467968FCF774FF03461846FDF77AFA0346FA7C10461946114AFFF78FFE41F23C50C1F6AC
S32D0000FF20FF700AF059FC03461846FCF7D5FB02460B4641F25C50C1F6FF704DF28811C0F201010AF041FE07F130
S32D0000FF481807BD46B0BD00BF0000000000807640000000000000C8412DE9B04F90B008AF07F1080383E8030081
S32D0000FF7041F23C50C1F6FF700AF00EFC0346FB6141F23C50C1F6FF700AF016FC0346BB610FE041F2D040C1F696
S32D0000FF98FF704FF0050107F029F941F23C50C1F6FF700AF0F5FB0346FB614FF001031C46F8699F49FDF7BEF961
S32D0000FFC00346002B02D14FF000031C46E3B2002BDFD141F23C50C1F6FF700AF0DDFB0346FB6141F23C50C1F6E6
S32D0000FFE8FF700AF0E5FB0346BB61BB681846F969FCF7F8FE034618464FF00201FDF7E8F90446FB681846B96986
S32D00010010FCF7ECFE034618464FF00201FDF7DCF9034620461946FCF7E3FE034618460AF095FE024641F270131E
S32D00010038C1F6FF731A60FB681846B969FCF7D2FE03461C46BB681846F969FCF7CBFE0346204619460AF07AFE86
S32D0001006003461846FCF738FB02460B46104619466DA3D3E90023FCF783FB02460B4610461946FCF75FFE03460F
S32D000100887B61F869FCF724FB04460D46B869FCF71FFBC7E90001BB681846FCF719FB82468B46FB681846FCF7A9
S32D000100B013FB804689467869FCF70EFB02460B46D7E90001CDE90001CDE902ABCDE90489CDE9062341F25C502C
S32D000100D8C1F6FF704DF2AC11C0F2010122462B460AF06EFD4FF001031C4678695049FDF73FF90346002B02D153
S32D000101004FF000031C46E3B2002B01D07B6912E07869FCF7E1FA02460B461046194644A3D3E90023FCF77AF99C
S32D0001012802460B4610461946FCF708FE03467B6178693F49FCF758FE03467B614FF001031C4678693B49FDF767
S32D0001015013F90346002B02D14FF000031C46E3B2002B05D078693549FCF740FE034600E07B697B617869FFF7A4
S32D00010178FFFD41F23C50C1F6FF700AF009FB0346FB6141F23C50C1F6FF700AF011FB0346BB61BB681846F969A1
S32D000101A0FCF724FE034618464FF00201FDF714F90446FB681846B969FCF718FE034618464FF00201FDF708F91D
S32D000101C8034620461946FCF70FFE034618460AF0C1FD024641F27013C1F6FF731A6041F22C10C1F6FF7006F06F
S32D000101F053FC41F23010C1F6FF7006F04DFC41F27413C1F6FF7307F1080292E8030083E803000B48FFF744FB61
S32D0001021807F12007BD46BDE8B08F00BFAFF30080F8C1631ADCA54C400000000000807640000000000000B44360
S32D0001024000000C42AFF3008080B400AFBD4680BC704700BF90B589B000AF7860454BBB6141F22C10C1F6FF7041
S32D0001026806F016FC41F23010C1F6FF7006F010FC41F27013C1F6FF737A681A6066E041F26010C1F6FF7006F084
S32D0001029027FC03467B6141F26410C1F6FF7006F01FFC03463B6141F26810C1F6FF7006F017FC0346FB604FF077
S32D000102B801031C4638692D49FDF75AF80346002B02D14FF000031C46E3B2002B02D04FF00003FB774FF00103E0
S32D000102E01C4678692349FDF747F80346002B02D14FF000031C46E3B2002B02D04FF00203FB774FF001031C4635
S32D00010308F8681A49FDF734F80346002B02D14FF000031C46E3B2002B02D04FF00103FB77FB7F012B0CD0022B02
S32D0001033005D0002B0DD11048FFF7B2FA0AE00F480F49FFF721FA05E00D480C49FFF71CFA00E000BFFFF7C4F92F
S32D00010358034683F00103DBB2002B90D10748FFF79BFA07F12407BD4690BD00BF0000C03F0000A0410000204051
S32D000103800000204100000000B0B582B000AF41F28413C1F6FF731B681846FDF731F803467B607868FCF798F92E
S32D000103A802460B46104619461DA3D3E90023FCF7E3F902460B4614461D467868FCF788F902460B462046294652
S32D000103D0FCF7D6F902460B4614461D467868FCF77BF902460B4620462946FCF717F802460B46104619460EA330
S32D000103F8D3E90023FCF70CF802460B4610461946FCF754FC03463B603B6823EAE3733B603B68184607F10807E2
S32D00010420BD46B0BDAFF30080F5D896016729793F75931804560E0640B0B582B000AF41F28013C1F6FF731B68E9
S32D000104481846FCF7D9FF03467B607868FCF740F902460B46104619461DA3D3E90023FCF78BF902460B461446D5
S32D000104701D467868FCF730F902460B4620462946FCF77EF902460B4614461D467868FCF723F902460B462046E2
S32D000104982946FBF7BFFF02460B46104619460EA3D3E90023FBF7B4FF02460B4610461946FCF7FCFB03463B6077
S32D000104C03B6823EAE3733B603B68184607F10807BD46B0BDAFF30080F5D896016729793F75931804560E064058
S32D000104E880B590B000AF78600B46FB707B68184600F0F8F87B6803F10803184600F0F2F87B6803F110031846AA
S32D0001051000F0ECF87B6803F11803184600F0E6F87B6803F12003184600F0E0F87B6803F12803184600F0DAF888
S32D000105387B6803F13003184600F0D4F87B68FA7883F8382007F1080318463849384A00F0B5F87B6807F1080262
S32D0001056092E8030083E8030007F1100318463349334A00F0A7F87B6803F1080307F1100292E8030083E80300B9
S32D0001058807F1180318462D492D4A00F097F87B6803F1100307F1180292E8030083E8030007F120031846274997
S32D000105B0254A00F087F87B6803F1180307F1200292E8030083E8030007F1280318461B491F4A00F077F87B68B7
S32D000105D803F1200307F1280292E8030083E8030007F1300318461949194A00F067F87B6803F1280307F1300207
S32D0001060092E8030083E8030007F13803184613490B4A00F057F87B6803F1300307F1380292E8030083E8030038
S32D000106287B68184607F14007BD4680BD0000EC410000704100004041000034420000C841000058420000944196
S32D00010650000078410000C0400000D8410000904180B582B000AF78607B68184600F03EF87B6803F10803184643
S32D0001067800F038F87B6803F11003184600F032F87B6803F11803184600F02CF87B6803F12003184600F026F807
S32D000106A07B6803F12803184600F020F87B6803F13003184600F01AF87B68184607F10807BD4680BD80B485B068
S32D000106C800AFF860B9607A60FB68BA681A60FB687A685A60FB68184607F11407BD4680BC704700BF80B483B01B
S32D000106F000AF78607B68184607F10C07BD4680BC704700BF80B582B000AF786039607B68012B40F083803A68E8
S32D000107184FF6FF739A427DD141F21C10C1F6FF704FF000013D4A00F0A7FA41F22410C1F6FF704FF00101394AA3
S32D0001074000F09EFA41F22C10C1F6FF704FF0060105F0D6FD41F23010C1F6FF704FF0070105F0CEFD41F2341048
S32D00010768C1F6FF704FF0000106F0D2FD41F24010C1F6FF704FF0010106F0CAFD41F24C10C1F6FF704FF01F017C
S32D0001079005F0EEFB41F25010C1F6FF704FF0000105F0E6FB41F25410C1F6FF704FF01E0105F0DEFB41F2581009
S32D000107B8C1F6FF704FF0010105F0D6FB41F25C10C1F6FF704FF0080106F076F941F26010C1F6FF704FF0080162
S32D000107E006F06EF941F26410C1F6FF704FF0090106F066F941F26810C1F6FF704FF00A0106F05EF941F2741003
S32D00010808C1F6FF70FFF76EFF41F2A810C1F6FF70FFF722FF07F10807BD4680BD0000404180B500AF4FF0010024
S32D000108304FF6FF71FFF766FF80BD00BF80B500AF41F6DC12C1F6FF7241F21C13C1F6FF73D31A194641F21C1323
S32D00010858C1F6FF731A460B4610464FF000011A460BF011F980BD00BF0CF086F900F0B0F9FFF7E0FF0CF058F96A
S32D000108800CF0F4F80CF08CF900F00CF84FF0000041F2E411C1F6FF71FCF7C2FD034618460BF0D0F880B500AF5E
S32D000108A84FF4E043C4F204034FF4E042C4F2040202F5805202F13802126842F4785203F5805303F138031A60F9
S32D000108D000F02EF900F094F841F22043C1F6FF734FF058021A6041F22043C1F6FF731B684FF47A7202FB03F231
S32D000108F841F21C43C1F6FF731A6041F21C43C1F6FF731B681A464FF4E043C4F2040303F5825303F104031B6890
S32D0001092003F070634FEA136303F10103B2FBF3F31A4641F22443C1F6FF731A604FF4E043C4F204034FF4E04283
S32D00010948C4F2040202F5805202F13C02126842F0225203F5805303F13C031A604FF4E043C4F204034FF4E042AA
S32D00010970C4F2040202F5805202F13002126842F0006203F5805303F130031A604FF45043C4F203034FF480726D
S32D000109981A614FF0640005F035F94FF45043C4F203034FF45042C4F20302526922F010025A614FF45043C4F2A7
S32D000109C003034FF000021A604FF45043C4F203034FF010025A6106F0B5F906F05DFA41F21840C1F6FF7005F012
S32D000109E895F941F2D440C1F6FF7007F0B1F841F2883005F073FA80BD80B400AF4FF48043C4F206034FF00002D2
S32D00010A105A704FF48043C4F206034FF098021A704FF48043C4F206039B79DBB203F01003002B0CBF002301231C
S32D00010A38DBB2002BF0D14FF48043C4F206039B79DBB203F00C034FEA9303022B0CBF00230123DBB2002BEED129
S32D00010A604FF48043C4F206034FF018021A714FF48043C4F206034FF000025A714FF4E043C4F2040303F58253FD
S32D00010A8803F104034FF00002C0F213121A604FF48043C4F206034FF054025A7100BF4FF48043C4F206039B79F5
S32D00010AB0DBB203F02003002B14BF00230123DBB2002BF0D100BF4FF48043C4F206039B79DBB203F04003002B30
S32D00010AD814BF00230123DBB2002BF0D14FF48043C4F206034FF48042C4F206021278D2B202F03F02D2B21A7085
S32D00010B004FF48043C4F206039B79DBB203F00C034FEA9303032B0CBF00230123DBB2002BEED14FF00003184638
S32D00010B28BD4680BC704700BF80B400AF4FF44043C4F204034FF480725A634FF2C003C4F20F034FF2C002C4F20C
S32D00010B500F02526942F400525A614FF2C003C4F20F034FF2C002C4F20F02126842F400521A604FF44043C4F2D9
S32D00010B78040340F20312C0F20A021A634FF46143CEF200034FF46142CEF20002D2F8882142F08062C3F8882188
S32D00010BA04FF46143CEF200034FF46142CEF20002926842F080629A60BD4680BC704700BF80B483B000AF786029
S32D00010BC8FEE700BF80B400AF00BEBD4680BC704780B400AF4FF0E0224CF20003C0F20003C2F8083D4FF4005314
S32D00010BF0C4F205034CF22052DA814FF40053C4F205034DF62812DA814FF40053C4F205034FF0D2021A80BD46DD
S32D00010C1880BC704780B500AF4FF44043C4F20403D3F8A03003F48053002B0CBF00230123DBB2002B1FD04FF4C7
S32D00010C404043C4F204034FF44042C4F20402D2F8A02022F48052C3F8A02041F25C50C1F6FF7009F095FF4FF204
S32D00010C68C003C4F20F034FF2C002C4F20F02126822F400521A6080BD90B585B000AFF8600B467A60FB72FB68F3
S32D00010C90FA7A1A71FB684FF000025A714FF001031C4678682049FCF767FB0346002B02D14FF000031C46E3B204
S32D00010CB8002B02D01A4B7B6011E04FF001031C4678681849FCF740FB0346002B02D14FF000031C46E3B2002B20
S32D00010CE001D0124B7B607868FBF7F6FC02460B46104619460AA3D3E90023FBF741FD02460B4610461946FCF7CD
S32D00010D081DF80246FB681A60FB68184607F11407BD4690BDAFF30080ABAAAAAAAAAA2040000040410000803F9F
S32D00010D3080B582B000AF78607B685B79002B10D07B684FF000025A717B681B7941F21840C1F6FF7019464FF02F
S32D00010D5800024FF01E0305F023F807F10807BD4680BD00BF80B584B000AF786039603B687F2B03DD4FF07F037D
S32D00010D80FB7309E03B6813F1800F03DA4FF08003FB7301E03B68FB737B685B79FA7B9A420FD07B68FA7B5A71AE
S32D00010DA87B681A79FB7B41F21840C1F6FF7011461A464FF01E0304F0F3FF07F11007BD4680BD00BF0000000074
S32D00010DD0B0B584B000AF786039604FF001031C4638684D49FCF7AAFA0346002B02D14FF000031C46E3B2002B1E
S32D00010DF802D0474B3B6011E04FF001031C4638684449FCF7B5FA0346002B02D14FF000031C46E3B2002B01D0EC
S32D00010E203E4B3B603868FBF757FC04460D467B681B681846FBF750FC02460B46104619464FF000024FF080436A
S32D00010E4803F5B203FBF7C2FD02460B4620462946FBF792FC02460B4610461946FBF76EFF03463B604FF001035B
S32D00010E701C4638682A49FCF775FA0346002B02D14FF000031C46E3B2002B14D03868FBF723FC02460B4610464D
S32D00010E9819461DA3D3E90023FBF76EFC02460B4610461946FBF702FF0346FB6022E03868FBF70EFC02460B46B5
S32D00010EC0104619464FF000024FF0804303F5C003FBF756FC02460B46104619464FF000024FF0804303F5B203CE
S32D00010EE8FBF774FD02460B4610461946FBF7DEFE0346FB607868F968FFF734FF07F11007BD46B0BDAFF30080AD
S32D00010F1052B81E85EB51F43F0000C8C20000C84200000000AFF3008080B485B000AF02460B46FA71BB71BB7964
S32D00010F38002B07D141F2E813C1F6FF734FF000021A7006E041F2E813C1F6FF734FF001021A704FF03803FB7374
S32D00010F6041F2E813C1F6FF731A78FB7B1343FB734FF4C043C4F206034FF4C042C4F206029278D2B242F0100265
S32D00010F88D2B29A704FF4C043C4F206034FF4C042C4F206029278D2B242F02002D2B29A704FF4C043C4F206032F
S32D00010FB0FA7B1A7107F11407BD4680BC704700BF80B483B000AF4FF001037B6004E000BF7B6803F101037B60BD
S32D00010FD87B68312BCCBF00230123DBB2002BF2D107F10C07BD4680BC704700BF80B582B000AF02460B46FA7184
S32D00011000BB7141F2E913C1F6FF731B7818464FF00001FFF789FF4FF4C043C4F20603DB78DBB203F00203002B86
S32D0001102814BF00230123DBB2002BF0D14FF4C043C4F206034FF4C042C4F20602D278D2B242F00202D2B2DA702C
S32D000110504FF4C043C4F20603FA791A714FF4C043C4F20603DB78DBB203F00203002B14BF00230123DBB2002B94
S32D00011078F0D14FF4C043C4F206034FF4C042C4F20602D278D2B242F00202D2B2DA704FF4C043C4F20603BA7976
S32D000110A01A714FF4C043C4F20603DB78DBB203F00203002B14BF00230123DBB2002BF0D14FF4C043C4F20603F6
S32D000110C84FF4C042C4F20602D278D2B242F00202D2B2DA704FF4C043C4F206034FF4C042C4F206029278D2B28E
S32D000110F022F02002D2B29A704FF4C043C4F206034FF4C042C4F206029278D2B222F01002D2B29A70FFF754FF7E
S32D0001111807F10807BD4680BD80B582B000AF0346FB71FB79184600F06BF807F10807BD4680BD00BF80B582B004
S32D0001114000AF02460B46FA71BB7100F039F8FB794FEA4303DBB21846FFF7E2FFBB791846FFF7DEFF00F03EF840
S32D0001116807F10807BD4680BD80B500AF4FF0FF0000F046F80346184680BD00BF80B584B000AF0346FB7100F061
S32D0001119017F8FB794FEA4303DBB243F00103DBB2DBB21846FFF7BCFFFFF7E2FF0346FB7300F018F8FB7B1846DF
S32D000111B807F11007BD4680BD80B400AF4FF24003C4F20F034FF24002C4F20F02926842F480129A60BD4680BC45
S32D000111E0704700BF80B400AF4FF24003C4F20F034FF24002C4F20F02526842F480125A60BD4680BC704700BF00
S32D0001120880B485B000AF0346FB714FF00003BB7303E0FB7B03F10103FB734FF44043C4F20A03DB6A4FF00003AB
S32D00011230002BF2D14FF44043C4F20A034FF44042C4F20A02D26A42F00042DA624FF44043C4F20A03FA795A63EC
S32D0001125800BF4FF44043C4F20A03DB6A03F40033002B14BF00230123DBB2002BF1D14FF44043C4F20A039B6B62
S32D00011280BB73BB7B184607F11407BD4680BC704780B582B000AF4FF4E043C4F204034FF4E042C4F2040202F523
S32D000112A8805202F13002126842F4805203F5805303F130031A604FF42043C4F204034FF480721A654FF2400397
S32D000112D0C4F20F034FF24002C4F20F02526942F480125A61FFF77EFF4FF42043C4F204034FF400725A654FF412
S32D000112F82043C4F204034FF400729A654FF42043C4F204034FF40072DA654FF44043C4F20A034FF44062C8F274
S32D0001132000021A604FF44043C4F20A034FF00502C3F60062DA604FF000037B6007E04FF0FF00FFF7EDFE7B68F8
S32D0001134803F101037B607B68092BCCBF00230123DBB2002BEFD104A1D1E9000104F0D8FD07F10807BD4680BDD2
S32D000113709A9999999999B93F90B486B000AFF860B9607A60FA684FF42043C4F206039A4214D14FF4E043C4F2A7
S32D0001139804034FF4E042C4F2040202F5805202F13402126842F4806203F5805303F134031A6083E0FA684FF402
S32D000113C03043C4F206039A4214D14FF4E043C4F204034FF4E042C4F2040202F5805202F13402126842F40062C3
S32D000113E803F5805303F134031A6067E0FA684FF44043C4F206039A4214D14FF4E043C4F204034FF4E042C4F239
S32D00011410040202F5805202F13402126842F4805203F5805303F134031A604BE0FA684FF45043C4F206039A42C5
S32D0001143814D14FF4E043C4F204034FF4E042C4F2040202F5805202F13402126842F4005203F5805303F1340372
S32D000114601A602FE0FA684FF42043C4F20E039A4214D14FF4E043C4F204034FF4E042C4F2040202F5805202F144
S32D000114882802126842F4806203F5805303F128031A6013E04FF4E043C4F204034FF4E042C4F2040202F5805215
S32D000114B002F12802126842F4006203F5805303F128031A60FB68DB78DBB223F00C03DAB2FB68DA70FB684FF03A
S32D000114D800029A70BB684FF47A7202FB03F27B684FEA031392FBF3F39CB2FB681B78DBB223F01F03FB75234611
S32D0001150003F4F8534FEA2323DBB203F01F03DAB2FB7D1343DAB2FB681A70E2B2FB685A70BB684FF4FA4202FB26
S32D0001152803F27B684FEA031392FBF3F39AB2234619464FEAC121CB1A4FEA43139BB2D3189CB2FB689B7ADBB2CC
S32D0001155023F01F03FB75E3B203F01F03DAB2FB7D1343DAB2FB689A72FB68DB78DBB243F00C03DAB2FB68DA700A
S32D0001157807F11807BD4690BC704700BF80B483B000AF786000BF7B681B79DBB203F02003002B14BF002301235C
S32D000115A0DBB2002BF3D17B68DB79DBB2184607F10C07BD4680BC704780B483B000AF78600B46FB7000BF7B6831
S32D000115C81B79DBB2DBB26FEA0303DBB24FEAD313DBB2002BF3D17B68FA78DA7107F10C07BD4680BC704700BF5F
S32D000115F080B487B000AFF860B9607A60FB687B61BB683B610BE03B691A787B691A707B6903F101037B613B697E
S32D0001161803F101033B617B68002B0CBF00230123DBB27A6802F1FF327A60002BE7D107F11C07BD4680BC70478E
S32D0001164080B487B000AFF860B9607A60FB687B6107E0BB68DAB27B691A707B6903F101037B617B68002B0CBF42
S32D0001166800230123DBB27A6802F1FF327A60002BEBD107F11C07BD4680BC704780B489B000AFF860B9607A6040
S32D00011690FB68FB61BB68BB614FF000037B617B68002B0CBF00230123DBB27A6802F1FF327A60002B19D0FB690A
S32D000116B81B781A46BB691B78D31A7B617B69002B14BF00230123DBB2FA6902F10102FA61BA6902F10102BA61F2
S32D000116E0002B02D04FF0010301E04FF00003002BD5D17B69184607F12407BD4680BC704780B483B000AF78605E
S32D00011708396003E07B6803F101037B607B681B78002B08D07B681B781A463B689A4202D04FF0010301E04FF07D
S32D000117300003002BEAD17B681B78184607F10C07BD4680BC704700BF80B584B000AF786039607B681B6BFB60C0
S32D00011758FA683B689A4264D07B681B79002B43D07B685A787B6803F1340310461946FA684FF0010304F0B4F8DB
S32D000117800346002B0CBF00230123DBB2002B02D04FF001034BE07B684FF000021A717B685A6A7B681B6AD21814
S32D000117A8FB689A4220D97B68DB78FB7214E07B681B6AFA68D318FB607B685A787B6803F1340310461946FA6859
S32D000117D04FF0010304F088F8FB7A03F1FF33FB72FB7A012B94BF00230123DBB2002BE2D13B68002B19D07B68EB
S32D000117F85A787B6803F13403104619463A684FF0010303F05FFF0346002B0CBF00230123DBB2002B02D04FF0A8
S32D00011820010304E07B683A681A634FF00003184607F11007BD4680BD80B584B000AF786078684FF00001FFF7BA
S32D000118487FFF0346FB73FB7B002B40F0AE807B681B78032B40F095807B685B79002B00F090807B684FF000024E
S32D000118701A637B6803F1340318464FF000014FF40072FFF7DDFE7B684FF0550283F832227B684FF0AA0283F809
S32D0001189833227B684FF0520283F834207B684FF0520283F835207B684FF0610283F836207B684FF0410283F80B
S32D000118C037207B684FF0720283F818227B684FF0720283F819227B684FF0410283F81A227B684FF0610283F8EF
S32D000118E81B227B681B69DAB27B6883F81C227B681B699BB24FEA2323DAB27B6883F81D227B681B694FEA1343B3
S32D00011910DAB27B6883F81E227B681B694FEA1363DAB27B6883F81F227B68DB68DAB27B6883F820227B68DB68C5
S32D000119389BB24FEA2323DAB27B6883F821227B68DB684FEA1343DAB27B6883F822227B68DB684FEA1363DAB243
S32D000119607B6883F823227B6859787B6803F134027B685B69084611461A464FF0010303F0B3FF7B684FF000023C
S32D000119885A717B685B7818464FF000014FF0000204F08CF80346002B0CBF00230123DBB2002B02D04FF0010305
S32D000119B0FB73FB7B184607F11007BD4680BD00BF80B483B000AF786039603B68A3F102033B607B68DB69A3F19F
S32D000119D802023B689A4202D84FF0000307E07B689B783A6802FB03F27B68DB6AD318184607F10C07BD4680BC15
S32D00011A00704700BF80B586B000AF786039603B68012B04D97B68DA693B689A4202D84FF00103D3E07B681B781F
S32D00011A28022B5FD0032B00F08A80012B40F0C8803B687B617B694FEA53037A69D3187B617B685A6A7B694FEA07
S32D00011A505323D31878681946FFF776FE0346002B0CBF00230123DBB2002B40F0A6807B694FEAC3534FEAD35337
S32D00011A787A68D31893F834303B617B6903F101037B617B685A6A7B694FEA5323D31878681946FFF755FE034639
S32D00011AA0002B0CBF00230123DBB2002B40F087807B694FEAC3534FEAD3537A68D31893F834304FEA03233A699B
S32D00011AC813433B613B6803F00103DBB2002B03D03B694FEA131304E03B694FEA03534FEA13536FE07B685A6A29
S32D00011AF03B684FEA1323D31878681946FFF724FE0346002B0CBF00230123DBB2002B58D13B684FEA43034FEAB1
S32D00011B18C3534FEAD35303F130037A68D31803F10403FB60FB6803F101031B784FEA03239AB2FB681B781343FA
S32D00011B409BB29BB242E07B685A6A3B684FEAD313D31878681946FFF7F7FD0346002B0CBF00230123DBB2002BFF
S32D00011B682DD13B684FEA83034FEAC3534FEAD35303F130037A68D31803F10403FB60FB6803F103031B784FEACD
S32D00011B900362FB6803F102031B784FEA03431A43FB6803F101031B784FEA03231A43FB681B78134323F070433A
S32D00011BB808E000BF04E000BF02E000BF00E000BF4FF0FF33184607F11807BD4680BD00BF80B588B000AFF8601B
S32D00011BE0B9607A60BB68012B04D9FB68DA69BB689A4203D84FF00203FB771AE1FB681B78022B00F08580032B40
S32D00011C0800F0AD80012B40F00181BB68BB61BB694FEA5303BA69D318BB61FB685A6ABB694FEA5323D318F86851
S32D00011C301946FFF789FD0346FB77FB7F002B40F0ED80BB694FEAC3534FEAD35303F13003FA68D31803F104036C
S32D00011C587B61BB6803F00103DBB2002B0ED07B691B78DBB203F00F03DAB27B68DBB24FEA0313DBB21343DBB20D
S32D00011C80DBB201E07B68DBB27A691370BB6903F10103BB61FB684FF001021A71FB685A6ABB694FEA5323D318A4
S32D00011CA8F8681946FFF74CFD0346FB77FB7F002B40F0B280BB694FEAC3534FEAD35303F13003FA68D31803F113
S32D00011CD004037B61BB6803F00103DBB2002B04D07B684FEA1313DBB20FE07B691B78DBB223F00F03DAB27B6806
S32D00011CF84FEA1323DBB203F00F03DBB21343DBB2DBB27A6913708CE0FB685A6ABB684FEA1323D318F86819468A
S32D00011D20FFF712FD0346FB77FB7F002B7AD1BB684FEA43034FEAC3534FEAD35303F13003FA68D31803F1040325
S32D00011D487B617B68DAB27B691A707B6903F101037A6892B24FEA2222D2B21A7061E0FB685A6ABB684FEAD3137C
S32D00011D70D318F8681946FFF7E7FC0346FB77FB7F002B51D1BB684FEA83034FEAC3534FEAD35303F13003FA6826
S32D00011D98D31803F104037B617B6903F103031B784FEA03627B6903F102031B784FEA03431A437B6903F1010323
S32D00011DC01B784FEA03231A437B691B78134303F070437A6813437B607B68DAB27B691A707B6903F101037A6884
S32D00011DE892B24FEA2222D2B21A707B6903F102037A684FEA1242D2B21A707B6903F103037A684FEA1262D2B2B2
S32D00011E101A700AE04FF00203FB7706E000BF04E000BF02E000BF00E000BFFB684FF001021A71FB7F184607F1F1
S32D00011E382007BD4680BD00BF80B584B000AF786039603B68012B04D97B68DA693B689A4203D84FF00203FB73EE
S32D00011E6045E04FF00003FB7333E078683968FFF7C9FD0346BB60BB68002B35D0BB68012B03D14FF00203FB73A2
S32D00011E8831E0BB68B3F1FF3F03D14FF00103FB7329E0786839684FF00002FFF799FE0346FB73FB7B002B1DD1F2
S32D00011EB07B681B69B3F1FF3F09D07B681B6903F101027B681A617B684FF001025A71BB683B607B68DA693B68AE
S32D00011ED89A4294BF00230123DBB2002BC1D102E000BF00E000BFFB7B184607F11007BD4680BD00BF80B586B08E
S32D00011F0000AF786039603B68002B0ED17B68DB683B613B69002B04D07B68DA693B699A4218D84FF001033B610B
S32D00011F2814E078683968FFF769FD0346BB60BB68012B02D84FF001036EE07B68DA69BB689A4201D9BB6867E032
S32D00011F503B683B613B697B6100E000BF7B6903F101037B617B68DA697B699A4209D84FF002037B617A693B69DE
S32D00011F789A4202D94FF000034EE078687969FFF73DFD0346BB60BB68002B0FD0BB68B3F1FF3F02D0BB68012B6A
S32D00011FA001D1BB683CE07A693B699A42D5D14FF0000335E000BF786879696FF07042FFF70BFE0346FB73FB7BE3
S32D00011FC8002B09D13B68002B06D0786839687A69FFF7FEFD0346FB73FB7B002B12D17B687A69DA607B681B694A
S32D00011FF0B3F1FF3F13D07B681B6903F1FF327B681A617B684FF001025A7108E0FB7B012B02D14FF0FF3301E074
S32D000120184FF001037B617B69184607F11807BD4680BD00BF80B487B000AF786039607B685B6A03F104033B6158
S32D000120403B684FEA53227B681B689B78B2FBF3F37B613B691B68FB603B6903F104033B61FB68002B02D14FF0DB
S32D00012068000311E07A69FB689A4208D37A69FB68D31A7B613B6903F104033B61E5E700BF3B691A687B69D3188E
S32D00012090184607F11C07BD4680BC704780B584B000AF78600B467B807B687A88DA807B689B68FB60FB68012B67
S32D000120B805D07B681B68DA69FB689A4202D84FF0020373E0FB68002B08D17B681B681B78032B03D17B681B6803
S32D000120E09B6AFB60FB68002B16D17B68FA68DA607B681B681B897A889A4202D34FF0020358E07B681B689A6ADA
S32D000121087B884FEA13139BB2D2187B681A613FE07B681B689B784FEA03137B811EE07B681B681846F968FFF7B5
S32D0001213069FC0346FB60FB68B3F1FF3F02D14FF0010337E0FB68012B05D97B681B68DA69FB689A4202D84FF097
S32D0001215802032BE07A887B89D31A7B807A887B899A4234BF00230123DBB2002BD7D17B68FA68DA607B681B68F9
S32D000121801846F968FFF71CFC02467B884FEA13139BB2D2187B681A617B681B6803F134027B8803F00F034FEA53
S32D000121A84313D2187B685A614FF00003184607F11007BD4680BD00BF90B585B000AF786039607B68DB8803F1A8
S32D000121D001033B813B89002B03D07B681B69002B02D14FF00403E4E03B8903F00F03002B40F0CE807B681B6916
S32D000121F803F101027B681A617B68DB68002B09D17B681B681B893A899A42C0F0BD804FF00403CAE03B894FEAB5
S32D0001222013139BB21A467B681B689B7803F1FF331340002B40F0AC807B681A687B68DB6810461946FFF7DEFB34
S32D000122480346FB60FB68012B02D84FF00203ACE0FB68B3F1FF3F02D14FF00103A5E07B681B68DA69FB689A42C2
S32D0001227000F282803B68002B02D14FF0040398E07B681A687B68DB6810461946FFF736FE0346FB60FB68002B50
S32D0001229802D14FF0070388E0FB68012B02D14FF0020382E0FB68B3F1FF3F02D14FF001037BE07B681B68184611
S32D000122C04FF00001FFF740FA0346002B0CBF00230123DBB2002B02D04FF0010369E07B681B6803F134031846F4
S32D000122E84FF000014FF40072FFF7A6F97B681C687B681B681846F968FFF75EFB034623634FF00003FB7220E0E4
S32D000123107B681B684FF001021A717B681B6818464FF00001FFF710FA0346002B0CBF00230123DBB2002B02D057
S32D000123384FF0010339E07B681B681A6B02F101021A63FB7A03F10103FB727B681B689B78FA7A9A422CBF00230B
S32D000123600123DBB2002BD3D17B681B687A681268116BFA7A8A1A1A637B68FA68DA607B681B681846F968FFF761
S32D000123881BFB02467B681A617B683A89DA807B681B6803F134023B8903F00F034FEA4313D2187B685A614FF0BB
S32D000123B00003184607F11407BD4690BD80B586B000AF786078684FF00001FFF767FE0346FB75FB7D002B01D0A0
S32D000123D8FB7D47E07B681A687B681B6910461946FFF7AEF90346FB75FB7D002B36D17B685B693B613B691B783C
S32D00012400FB73FB7B002B03D14FF00403FB752CE03B6903F10B031B7803F00803002B0DD17B689B6938691946E1
S32D000124284FF00B02FFF72AF90346002B02D14FF0010301E04FF00003002B11D178684FF00001FFF7B9FE034650
S32D00012450FB75FB7D002B14BF00230123DBB2002BBCD102E000BF00E000BFFB7D184607F11807BD4680BD00BFBF
S32D0001247880B584B000AF786078684FF00001FFF709FE0346FB73FB7B002B29D17B681A687B681B691046194655
S32D000124A0FFF752F90346FB73FB7B002B19D17B685B691B78BB73BB7BE52B14D0BB7B002B11D078684FF0010195
S32D000124C8FFF77AFE0346FB73FB7B002B14BF00230123DBB2002BD9D102E000BF00E000BFFB7B002B23D17B68EB
S32D000124F01A687B681B6910461946FFF725F90346FB73FB7B002B16D17B685B69BB60B8684FF000014FF0200249
S32D00012518FFF792F87B689B69B86819464FF00B02FFF762F87B681B684FF001021A71FB7B184607F11007BD46F9
S32D0001254080BD00BF80B588B000AF786039603B681B68FB6003E0FB6803F10103FB60FB681B782F2B03D0FB6843
S32D000125681B785C2B02D14FF0010301E04FF00003002BECD17B689B69BB60B8684FF020014FF00B02FFF758F8F5
S32D000125904FF00003FB774FF000033B613B697B614FF00803BB61FA687B69D3181B782E2B39D1FA687B69D3184C
S32D000125B81B78BB777B6903F101037B61BB7F2E2B0CD17B69022B09D8BA683B69D318BA7F1A703B6903F1010305
S32D000125E03B61E6E700BFBB7F2F2B08D0BB7F5C2B05D0BB7F202B02D94FF00603C5E0FA687B69D2183B681A6008
S32D00012608BB6803F10B02BB7F202B02D84FF0240301E04FF0200313704FF00003B1E0FA687B69D3181B78BB772B
S32D000126307B6903F101037B61BB7F202B68D9BB7F2F2B65D0BB7F5C2B62D0BB7F2E2B03D03A69BB699A4214D351
S32D00012658BB69082B02D1BB7F2E2B02D04FF006038FE04FF008033B614FF00B03BB61FB7F4FEA8303FB7700BF54
S32D00012680D1E7BB7F5BB2002B0CDAFB7F43F00303FB77BB7FA3F180024DF2F843C0F201039B5CBB77BB7F4DF2D4
S32D000126A8E410C0F201001946FFF726F80346002B0CBF00230123DBB2002B02D04FF006035FE0BB7F402B07D9CD
S32D000126D0BB7F5A2B04D8FB7F43F00203FB770DE0BB7F602B0AD9BB7F7A2B07D8FB7F43F00103FB77BB7FA3F1D8
S32D000126F82003BB77BA683B69D318BA7F1A703B6903F101033B618AE700BFFA687B69D2183B681A60BB7F202BB0
S32D0001272002D84FF0040301E04FF00003BB773B69002B02D14FF0060327E0BB681B78E52B03D1BB684FF0050221
S32D000127481A70BB69082B03D1FB7F4FEA8303FB77FB7F03F00303012B03D1BB7F43F01003BB77FB7F03F00C0361
S32D00012770042B03D1BB7F43F00803BB77BB6803F10B03BA7F1A704FF00003184607F12007BD4680BD80B584B03D
S32D0001279800AF786039603B681B782F2B03D03B681B785C2B08D13B6803F101033B607B684FF000029A6004E0C1
S32D000127C07B681B689A697B689A603B681B781F2B0BD878684FF00001FFF760FC0346FB737B684FF000025A6139
S32D000127E875E03B4678681946FFF7A8FE0346FB73FB7B002B64D17868FFF7DCFD0346FB737B689B69DB7ABB73B4
S32D00012810FB7B002B21D0FB7B042B57D1BB7B03F02003002B10D07B684FF000029A607B684FF000025A614FF0A7
S32D000128380003FB73BB7B03F00403002B44D13EE0BB7B03F00403002B3ED14FF00503FB733AE0BB7B03F0040309
S32D00012860002B37D17B685B69BB60BB6803F10B031B7803F01003002B03D14FF00503FB7329E0BB6803F11503AA
S32D000128881B784FEA03239AB2BB6803F114031B7813439BB29BB24FEA0342BB6803F11B031B784FEA032399B242
S32D000128B0BB6803F11A031B780B439BB29BB21A437B689A6091E790E700BF04E000BF02E000BF00E000BFFB7B09
S32D000128D8184607F11007BD4680BD00BF80B582B000AF786039607B685A787B6803F13403104619463A684FF085
S32D00012900010302F0E3FE0346002B0CBF00230123DBB2002B02D04FF0030356E07B6893F833324FEA03239AB2C8
S32D000129287B6893F8323213439BB21AB24AF65523CFF6FF739A4202D04FF0020341E07B6893F86D304FEA036294
S32D000129507B6893F86C304FEA03431A437B6893F86B304FEA03231A437B6893F86A30134323F07F4244F24613EC
S32D00012978C0F254039A4202D14FF0000321E07B6893F889304FEA03627B6893F888304FEA03431A437B6893F800
S32D000129A087304FEA03231A437B6893F88630134323F07F4244F24613C0F254039A4202D14FF0000301E04FF09E
S32D000129C80103184607F10807BD4680BD80B592B000AFF860B9601346FB71FB681B68FB62FB6A1B78A3F13003D9
S32D000129F03B643B6C092B0DD8FB6A03F101031B783A2B07D1FB6A03F10203FB62FB68FA6A1A6005E041F2F21313
S32D00012A18C1F6FF731B783B643B6C002B02D04FF00B03C9E241F2EC13C1F6FF733A6C53F82230BB62BB68BA6A96
S32D00012A401A60BB6A002B02D14FF00C03B8E2BB6A1B78002B20D0BB6A5B78184603F0BEF8034687F8273097F862
S32D00012A68273003F00103DBB283F00103DBB2002B0ED0FB79002B08D097F8273003F00403002B02D04FF00A03B7
S32D00012A9096E24FF0000393E2BB6A4FF000021A703B6CDAB2BB6A5A70BB6A5B78184602F04FFB034687F8273025
S32D00012AB897F8273003F00103DBB2002B02D04FF0030379E2FB79002B08D097F8273003F00403002B02D04FF055
S32D00012AE00A036DE24FF00003FB63B86AF96BFFF7F9FE034687F8473097F84730012B2AD1BB6A03F5F9733B62C6
S32D00012B083B6A03F104031B78002B20D03B6A03F10B031B784FEA03623B6A03F10A031B784FEA03431A433B6ABE
S32D00012B3003F109031B784FEA03231A433B6A03F108031B781343FB63B86AF96BFFF7CAFE034687F8473097F82A
